:020000040800F2
:1000000000000220A9020008D91C0008DB1C00081F
:10001000DD1C0008DF1C0008E11C000800000000D7
:1000200000000000000000000000000031B70008E0
:10003000E31C000800000000D1B700082BB2000844
:10004000F5020008F5020008F5020008F5020008B4
:10005000F5020008F5020008F5020008F5020008A4
:10006000F5020008F5020008F5020008F502000894
:10007000E51C0008F51C0008051D0008151D0008FA
:10008000251D0008351D0008F5020008451D000863
:10009000551D0008651D0008F5020008F50200085E
:1000A000F5020008F5020008F5020008F502000854
:1000B000751D0008F5020008851D0008951D000843
:1000C000A51D0008F5020008F5020008F502000869
:1000D000F5020008B51D0008C51D0008D51D000863
:1000E000F5020008F5020008F5020008F502000814
:1000F000F5020008F5020008F5020008E51D0008F9
:10010000F5020008F5020008F5020008F5020008F3
:10011000F51D0008F5020008F5020008F5020008C8
:10012000F5020008F5020008051E0008F5020008A7
:10013000F5020008F5020008F5020008F5020008C3
:10014000F5020008F5020008F5020008151E000877
:10015000F5020008F5020008251E0008F502000857
:10016000F5020008F5020008F5020008F502000893
:10017000F5020008F5020008F50200080000000082
:08018000F5020008F502000879
:1001900053B94AB9002908BF00281CBF4FF0FF31EE
:1001A0004FF0FF3000F00CB8ADF1080C6DE904CE53
:1001B0000FF0A6FDDDF804E0DDE9022304B070478E
:1001C000704700BF0348044B834202D0034B03B186
:1001D0001847704750010020500100200000000027
:1001E0000548064B1B1AD90F01EBA301491002D099
:1001F000034B03B118477047500100205001002005
:100200000000000010B5064C237843B9FFF7DAFF71
:10021000044B13B10448AFF300800123237010BDD9
:1002200050010020000000001400010808B5054B33
:100230001BB105490548AFF30080BDE80840FFF752
:10024000CFBF00BF000000005401002014000108CF
:1002500002440346934200D1704703F8011BF9E7BB
:1002600070B50D4B0D4D5B1B9C100026A64209D1AD
:100270000FF0D0FE0A4D0B4B5B1B9C100026A642D4
:1002800005D170BD55F8043B98470136EEE755F8A7
:10029000043B98470136F2E760020108600201085A
:1002A0006002010864020108DFF830D0002103E099
:1002B0000B4B5B58435004310A480B4B42189A428F
:1002C000F6D30A4A02E0002342F8043B084B9A4264
:1002D000F9D3FFF7C5FF01F061FC70470000022071
:1002E0006802010800000020500100205001002099
:1002F000A06C0020FEE7000040F6533398420FD870
:10030000B0F5FA6F0ED9642303FB00F0A0F543307B
:10031000A0F5A070044BA3FB0030C0F3472070474A
:100320006420704700207047C5B3A29110B5074CF8
:10033000204602F089FE0A21204602F027FF08B17C
:10034000002010BD204602F07DFFFAE7CC1300200C
:1003500038B50024254604E0FFF7E8FF05440134E2
:10036000E4B2072CF8D9ED0840F6E44303FB05F5A9
:100370000448A0FB05302D1A00EB5500C0F3CF2038
:1003800038BD00BF010110002DE9F04182B0FFF738
:10039000DFFF074600252E462C462EE013F1050F01
:1003A00008DA0136F6B2012E02D900252C460AE001
:1003B000002408E00CB1013CE4B226B1013EF6B2E3
:1003C00001E0012500261FFA88F73846FFF794FF61
:1003D000184B1F809870DD70C8F307238DF8043028
:1003E0008DF805808DF806008DF8075004220DEB7E
:1003F0000201082000F0C8FD47464FF4FA600AF0F9
:10040000A9FFFFF7A5FFC0EB0010462307FB03F38E
:1004100003EB4003084AA2FB03234FEA5318C7EB40
:100420005313052BBADD013414F0FF04C9D126465D
:10043000C9E700BF6C0100201F85EB5130B58BB0C0
:10044000002204210C4804F093F828220021684679
:10045000FFF7FEFE012307930893084C69462046E8
:1004600003F064F8204603F0FDF80221204603F073
:1004700095FA0BB030BD00BF000C024014140020F0
:1004800000282FD0024604292CD9007853781B0469
:1004900043EA0063907843EA0023D078034310795D
:1004A000082800D9082000F1050C8C451AD800B5A1
:1004B00089B0002102910391049105910691079161
:1004C000B3F5006F0AD20293069001AB053202A980
:1004D000054803F039F909B05DF804FB03930423E0
:1004E0000493F1E7704700BF1414002030B5ABB09F
:1004F000054624E0249B190E8DF80410C3F3074130
:100500008DF80510C3F307218DF806108DF807301C
:10051000042A23D09DF89C308DF80830279C224671
:1005200021A90DF109000FF067FD0534ADF8024077
:1005300000231A4669460D4800680BF005F821AB08
:1005400023AA0021284603F074F960B907238DF827
:100550000030259A002ACDD1239BCCE79DF89C3012
:1005600043F08003D8E72BB030BD00BF240C00203F
:10057000052843D1F0B58BB00023032B0CD8204ABB
:1005800052F833208A4202D00133DBB2F5E71C4A2D
:1005900002EBC3035D6800E000250DB90BB0F0BDB0
:1005A000184C204603F08CF8204603F0B9F865603B
:1005B0000025A560E5604FF4202323614FF48013EC
:1005C000636125766576A5760126E67625776577DB
:1005D000204602F005FF282229466846FFF738FE2C
:1005E000079608966946204602F0A0FF204603F0D1
:1005F00039F80221204603F0D1F9CFE7704700BF58
:100600003400010814140020812801D00020704714
:10061000032901D0002070471D4A118889B21D4A64
:10062000128892B2914204D11B4B01221A70002011
:10063000704710B5194A118889B2194A02EB811224
:1006400002F140011468D2F804E0D2F808C0D06882
:100650001C60C3F804E0C3F808C0D860103210333F
:100660008A42EFD10D4A13889BB201339BB21380AB
:1006700013889BB20C2B02D1134600221A80054A24
:1006800013889BB201339BB21380402010BD00BF82
:1006900074070020720700207007002076070020F2
:1006A00070010020912801D00120704710B5029AF6
:1006B000002A29D01A78072A23D0164A128892B223
:1006C0001549098889B2521A92B20C2A1CD0134CCF
:1006D000208880B2029A1946114B03EB80100FF06C
:1006E0008BFC23889BB201339BB2238023889BB26F
:1006F0000C2B0BD0074A13889BB201339BB213809B
:1007000002E0084B01221A70012010BD0022228055
:10071000F0E700BF7C0700207A0700208007002058
:1007200070040020586C002000230A4A13800A4AF3
:1007300013800A4A13800A4A13800A4A13800A4A1D
:1007400013800A4A13800A4A13800A4B01221A7046
:10075000704700BF800700207E0700207C07002034
:100760007A07002078070020760700207407002011
:10077000720700207007002010B5094BD3F8BC4267
:100780002346002203218120FFF73EFF002800DCE2
:1007900010BD82B2214602480CF050FAF8E700BFC3
:1007A000C463002000B583B040230093054BD3F809
:1007B000BC32002211469120FFF774FF03B05DF8B0
:1007C00004FB00BFC463002010B563E03F4A1288F9
:1007D00092B29A420DD09A013D498A5C7E2A08D194
:1007E0009A013B497F20885401330C2BEED1002322
:1007F000ECE7384C23889BB2374A128892B23749CB
:1008000001EB8211324800EB83100DF054FF238876
:100810009BB201339BB2238023889BB20C2B45D023
:100820002F4A13889BB201339BB213802A4A138844
:100830009BB201339BB2138013889BB20C2B38D030
:10084000284A13889BB201339BB21380264B1B7836
:1008500003B3128892B2254B1B889BB29A4219D0DF
:10086000234B198889B24A1C92B21A801B889BB20A
:100870000C2B22D01D4A13889BB201339BB21380EC
:10088000194B00221A704022144B03EB81111948B6
:100890000CF0D4F9184B1A8892B2114B1B889BB2FA
:1008A0009A420ED00B4B1B889BB294E70022228009
:1008B000B6E7134600221A80C2E70D4B00221A80C9
:1008C000D8E701200AF046FDE4E700BF80070020DA
:1008D000700400207E0700207807002070010020AF
:1008E0007A0700207407002070070020720700209C
:1008F00076070020C46300207C07002010B50B4C55
:10090000204604F051FB0A4B1B785B00E360204655
:1009100004F06CFA074B1B78012B00D010BD064B7E
:1009200000221A80204604F021FEF7E790140020F0
:1009300002000020880800200408002008B5FFF706
:10094000DDFF08BD10B310B582B00C460146012C86
:1009500010D90F4B1B78012B0ED0024612F8011B49
:100960004900631E642000909BB201F0FE0109481B
:1009700004F034FB02B010BD802C00D98024224644
:1009800005480FF039FB054B1C80F3E7704700BFAB
:100990008808002090140020840700200000002018
:1009A000184B1B7863BB58B3012929D930B5A5B0C2
:1009B00003785B00DCB245786DB1802D00D98025CD
:1009C00002290AD8642300932B4604AA21460E4824
:1009D00004F0BEFB70B125B030BD83788DF80F30C8
:1009E0006423009301230DF10F022146064804F011
:1009F000F5FAE7E72A4604A9062000F0C5FAEAE777
:100A0000704700BF880800209014002008B5072810
:100A10000CD0082812D004280FD10C4B994202D0D8
:100A20000B4B994207D10B4B596004E0003918BFBA
:100A30000121094B1970FFF761FF08BDA1F10803FF
:100A40006F2BF8D8054B1970F5E700BFA0860100A1
:100A5000801A060090140020880800200200002060
:100A600008B50F4B834200D008BD0E4B1B78012BFD
:100A7000FAD1012909D00C4B1A8802B9012220238E
:100A80000A49074804F0E2FCEEE7094B00221A800D
:100A9000042301220749024804F020FDE4E700BFD7
:100AA0009014002088080020000000208407002007
:100AB000040800200808002008B50D4B834200D030
:100AC00008BD0C4B1B78012BFAD10B4B1B887F2BDD
:100AD00002D80133084A1380074B19887F29EFD8C1
:100AE0000423012205480144014804F0F7FCE7E72C
:100AF0009014002088080020040800200808002026
:100B000008B50B4B834200D008BD0A4B1B78012B64
:100B1000FAD1094B1A881AB9054804F027FDF3E702
:100B20000649052000F030FA034B00221A80F3E753
:100B300090140020880800200408002008080020E5
:100B400008B5074B834200D008BD064B1B78012B2C
:100B5000FAD1054B00221A80014804F007FDF3E7A3
:100B600090140020880800200408002010B500F030
:100B700045F90146054C8022204608F045F8E36B14
:100B80001A68136823F00803136010BD041A0020CC
:100B900028B370B50D46064601B3802900D98025DB
:100BA00002F072F9044602E001200AF0D3FB0C487F
:100BB00007F0C8FF10F0210F05D002F065F9001B07
:100BC0003228F1D90AE0074C2A46314620460FF078
:100BD00013FA2A462146024807F0A2FC70BD70476E
:100BE000041A00208C08002001281CD138B50C46BE
:100BF00001B938BD0C4D284607F0DAFC284607F04D
:100C000075FC6C60284607F041FC00F0F7F80146DF
:100C10008022284607F0F8FFEB6B1A68136823F070
:100C200008031360E5E77047041A002010B500229E
:100C30004FF48061084803F09BFC00F0DBF80146AC
:100C4000064C8022204607F0DFFFE36B1A6813682A
:100C500023F00803136010BD000C02402C19002083
:100C600058B370B50D46064631B3802900D98025AA
:100C700002F00AF9044602E001200AF06BFB0F487B
:100C800007F060FF10F0210F05D002F0FDF8001B07
:100C90003228F1D910E00A4C2A46314620460FF09E
:100CA000ABF901224FF48061064803F061FC2A464B
:100CB0002146024807F034FC70BD70472C19002013
:100CC0000C090020000C0240012822D138B50C4646
:100CD00001B938BD0F4D284607F06AFC284607F0D9
:100CE00005FC6C60284607F0D1FB00224FF48061C0
:100CF000094803F03DFC00F07DF8014680222846BB
:100D000007F082FFEB6B1A68136823F00803136087
:100D1000DFE770472C190020000C024070470000EC
:100D2000B0B130B583B00C4601467CB1802C00D9FF
:100D30008024084D3223009323462A46064806F0B5
:100D4000F2FC22462946042000F01EF903B030BD13
:100D5000704700BF8C090020E414002038B5054618
:100D60000C46214806F0C9FC022D09D0032D19D0EC
:100D7000062D0DD1003C18BF01241C4B1C7007E050
:100D8000072C00D907241A4B53F82420164BDA619C
:100D9000164B1B782BBB4FF482731348436006F04D
:100DA0004DFC38BD04F00304032CF1D8DFE804F057
:100DB00002070D130C4B00221A615A61E8E70A4B37
:100DC00000221A6101225A61E2E7074B02221A61EE
:100DD00000225A61DCE7044B02221A6101225A61A7
:100DE000D6E70023D9E700BFE41400200C0A002056
:100DF0005400010800487047AC0C002000487047C0
:100E00002C0C0020F8B506460D46002451E0AA2A15
:100E10004ED13C4B01221A704AE0552A03D00022E1
:100E2000384B1A7044E00222FAE7374B1A70374BFE
:100E30001A70344B03221A703AE01102324B598077
:100E400032490B7853400B702E4B04221A702FE05E
:100E50002D494B8813434B802C4801784A4002703F
:100E60002B4A00211180013B9BB27F2B02D9254BDD
:100E700019701DE0234B05221A7019E024480188DF
:100E80004B1C9BB20380204801440A711F4F3978E4
:100E90004A403A70428893420AD31A4B06221A708B
:100EA00006E01A4B1B7893421CD0164B00221A7096
:100EB0000134AC4224D2325D124B1B78062B1BD876
:100EC00001A151F823F000BF0F0E00081B0E00080F
:100ED0002B0E00083B0E0008510E00087D0E000886
:100EE000A30E00080B4B18680028DED000231A461A
:100EF00005490AF029FBD8E7024B00221A70D7E710
:100F0000F8BD00BF200C00209C0B0020980B002097
:100F1000960B0020280C0020531E9BB27F2B00D97B
:100F2000704770B50E461446164BBB221A705522F8
:100F30005A709870220ADA704240E5B21D7155402D
:100F40002246581D0FF058F8002303E0F25C55408C
:100F500001339BB2A342F9D3631D0A4AD55401F071
:100F600093FF0546A11D89B206480BF0CBFE012870
:100F700006D10AF0EFF901F087FF401B3128F1D9C3
:100F800070BD00BF100B002070B504460D4616461C
:100F9000FFF7C2FF32462946204600F0CDFB70BD68
:100FA00000B583B08DF8040051B100238DF80530F1
:100FB000022201A9F020FFF7E7FF03B05DF804FB70
:100FC000FF23F3E710B50022842108200AF071FA0C
:100FD000134B18600022842108200AF06AFA114B92
:100FE0001860FFF723FEFFF7C1FDFFF797FEFFF73D
:100FF000A5FCFFF723FA0C4C80220C49204607F091
:1010000003FEE36B1A68136823F008031360084AB1
:10101000002108480AF044F900F07AFC10BD00BF36
:10102000280C0020240C0020BC1900202C0D0020CE
:10103000380101089913000800297FD030B5A3B00A
:101040000C460A46802928BF8022ADF80620036896
:101050003B498B420AD03B498B4223D03A498B42D1
:101060003CD03A4A934255D023B030BD01238DF88D
:101070000430374902A80EF0BFFF364B186820B184
:1010800000231A4601A90AF05FFA334C8022304946
:10109000204607F0B9FDE36B1A68136823F00803D4
:1010A0001360E1E702238DF804302C4902A80EF00A
:1010B000A3FF284B186820B100231A4601A90AF0A3
:1010C00043FA274C80222549204607F09DFDE36B1B
:1010D0001A68136823F008031360C5E703238DF82B
:1010E0000430204902A80EF087FF1A4B186820B17F
:1010F00000231A4601A90AF027FA1B4C802219493D
:10110000204607F081FDE36B1A68136823F008039B
:101110001360A9E700F0FEFA0546214600F0FEFA4A
:10112000124C4FF480722946204607F06DFDE36BA8
:101130001A68136823F00803136095E7704700BF2F
:101140000010014000480040004C004000440040B6
:101150002C0D0020240C0020BC190020AC0C002019
:101160002C1900202C0C0020041A002074190020D7
:1011700001281AD138B50C4601B938BD0B4D2846A7
:1011800007F016FA284607F0B1F96C60284607F018
:101190007DF980220649284607F036FDEB6B1A6878
:1011A000136823F008031360E7E77047BC190020B9
:1011B0002C0D002010B582B04288CAB103460479D4
:1011C000F02C1AD0052A24D940799A79D9790904C2
:1011D00041EA02611A7A41EA02215B7A1943631EED
:1011E000062B32D8DFE803F01A1D202326262E0016
:1011F0000021F020FFF7D4FE22E0164B93E8030015
:101200000090ADF8041006226946F020FFF7BCFEFE
:1012100016E000212046FFF7C3FE11E0FFF7A8FF0C
:101220000AE0FFF751FD07E0FFF7DEFC04E0FFF7FF
:1012300095FD01E0FFF7EAFB01212046FFF7B0FE34
:1012400002B010BDFFF794F9F6E700212046FFF742
:10125000A7FEF5E72C000108F8B504460378072B34
:101260000BD85AB2002A47D0013B062B44D8DFE8FE
:1012700003F02644494E53585D00E02B6DD0F02B0F
:1012800059D0D02B38D14688402E28BF40263D4D1E
:1012900040273A4600212846FEF7DAFF3A46002169
:1012A0003948FEF7D5FF3246211D28460EF0A4FE30
:1012B0002B78072B42D1354B01221A701CE001F02C
:1012C000E3FD0546324807F03DFC10F0210F08D041
:1012D00001F0DAFD401B322803D801200AF03AF869
:1012E000F0E72C4D6288211D28460EF085FE6288AD
:1012F0002946274807F014F9F8BD41880430FFF764
:10130000AFFCF9E741880430FFF742FCF4E741887D
:101310000430FFF705FDEFE741880430FFF712FBCB
:10132000EAE741880430FFF73BFBE5E741880430FA
:10133000FFF7A6F8E0E7FFF73DFFDDE712491148A8
:101340000DF0B9F9431E3F2B05D882B20E49D020CB
:1013500000F0F2F9D0E74022F8E7428812B10379B1
:10136000032B08D012B12379042B07D0211DE020D4
:1013700000F0E2F9C0E700F02FFABDE700F042FA12
:10138000BAE700BF500A0020100A0020586C002065
:10139000BC190020900A002010B5A2B00123002241
:1013A00001A90F4800680AF011F9A8B10024032C24
:1013B000F4D800231A4601A90A4800680AF006F981
:1013C0000028EBD1BDF8062002A99DF80400FFF724
:1013D000DBFD0134E4B2EAE701A8FFF73DFFE5E7F2
:1013E000280C0020240C002010B58CB003684C4A57
:1013F00093420AD04B4A934228D04B4A934249D059
:101400004A4A93426CD00CB010BD00220092484C66
:101410002368196800915968009100990192196830
:10142000019159680191019902921A6802925B68D0
:101430000293029B80223F49204607F0E5FBE36BC5
:101440001A68136823F008031360DCE70022039294
:10145000394C2368196803915968039103990492E0
:101460001968049159680491049905921A680592C3
:101470005B680593059B00F04DF901464FF48072BF
:10148000204607F0C1FBE36B1A68136823F00803DA
:101490001360B8E700220692284C23681968069169
:1014A000596806910699079219680791596807913A
:1014B00007990892196808915B680893089B4FF494
:1014C00080611F4803F054F880221E49204607F02F
:1014D0009BFBE36B1A68136823F00803136092E721
:1014E00000220992196809915968099109990A928B
:1014F00019680A9159680A910A990B921A680B9215
:101500005B680B930B9B104C80221049204607F020
:101510007BFBE36B1A68136823F00803136072E720
:10152000001001400044004000480040004C0040D2
:10153000BC1900202C0D0020741900202C1900204B
:10154000000C0240AC0C0020041A00202C0C0020DF
:1015500002680F4B9A4200D0704710B50D4B1B68C4
:101560001B6813F0400FF9D000224FF480610A4845
:1015700002F0FEFF074C80220849204607F044FB9A
:10158000E36B1A68136823F00803136010BD00BFF3
:10159000004800402C190020000C0240AC0C002038
:1015A0000A4B1B889BB20133C3F30803084A128815
:1015B00092B29A4209D010B404490A8892B2054CFA
:1015C000A0540B805DF8044B70477047C40E002098
:1015D000C20E0020C80E00200B4B1A8892B20B4B93
:1015E0001B889BB29A420DD0084A13889BB20849C7
:1015F000CB5C037013889BB20133C3F308031380E1
:101600000120704700207047C40E0020C20E002049
:10161000C80E00203B4B1B78062B6BD8DFE803F08D
:1016200004141D26324A6100AA2803D0BB2806D024
:1016300000207047334B01221A7000207047314B55
:1016400001221A7000207047552804D000222D4B2B
:101650001A70002070470222F9E72B4B18702B4BB1
:101660001870284B03221A70002070470202264B84
:101670005A80264A137843401370224B04221A7072
:1016800000207047204A5388034353801F490A783B
:1016900042400A701E4A00211180013B9BB27F2B01
:1016A00003D90846174B19707047164B05221A705C
:1016B0000020704710B416490A88531C9BB20B8057
:1016C00011490A441071114C2278424022704A8814
:1016D000934213D30B4B06221A7000205DF8044B83
:1016E0007047084B00221A70084B1B78834207D0C2
:1016F000104670470020034B187070470020EDE73C
:1017000001207047340E0020B00D0020AE0D0020E7
:10171000AC0D002000487047C810002070B5064688
:101720000D46002404E0305DFFF73AFF0134A4B217
:10173000AC42F8D370BD0000531E9BB27F2B00D982
:10174000704770B506460D4614463C211F4B18687D
:1017500009F059FE00B170BD1D48BB23037055232D
:1017600043708670230AC3707340E6B206715E4010
:101770002246294605300EF03FFC002303E0EA5CD8
:10178000564001339BB2A342F9D3631D104AD6548D
:1017900001F07AFB05460F4807F0D4F910F0210F4D
:1017A00008D001F071FB401B322803D8012009F05A
:1017B000D1FDF0E7A21D92B20549064806F0B0FE41
:1017C000024B186809F04EFEC5E700BF380E002036
:1017D0003C0E00207419002010B5094C0022042191
:1017E000204602F0C5FE642009F0B4FD0122042168
:1017F000204602F0BDFE4FF4FA7009F0ABFD10BDBB
:101800000008024030B587B0194C204606F0D0FEE3
:10181000204606F06BFE01A9002401944C608C6008
:10182000CC600C610C230193124802F011FD124DA3
:1018300022460221284602F09BFE322009F08AFD52
:1018400022460421284602F093FE642009F082FD1E
:1018500001220421284602F08BFE642009F07AFD63
:1018600001220221284602F083FE07B030BD00BFEE
:101870007419002000000240000802404288BAB1FA
:1018800008B50379042B06D0102B07D0032B0AD1FF
:10189000FFF7A2FF08BDFFF7B5FFFBE7011DE02042
:1018A000FFF73AFBF6E7011DE020FFF735FBF1E714
:1018B0007047000010B582B022E01348FFF7DEFF4A
:1018C0002246531E9CB2C2B10DF10700FFF784FE01
:1018D00098B19DF80700FFF79DFE0028F0D00A4B55
:1018E0001B78E02BE9D0094B18680028E8D00023CA
:1018F0001A46054909F028FEE2E7012009F02AFD11
:101900004FF48072DDE700BFB00D0020280C0020EE
:1019100010B5174C204606F04BFE204606F0E6FDBB
:101920004FF461236360204606F0B0FDC8B911484A
:1019300009F01EFD104B18600D4C4FF480720F49DA
:10194000204607F061F9E36B1A68136823F0080377
:101950001360FFF741FF0A4A00210A4809F0A0FC82
:1019600010BD20464FF4E133636006F08FFDDEE7E3
:101970007419002080010108380E0020C8100020D2
:101980005C010108B518000838B500239E4630E018
:1019900018202F4921F8130001320133072A05D8F6
:1019A000802111410D42F3D03020F2E7002205E002
:1019B0001820274921F8130001320133072A05D8DE
:1019C000802111410C42F3D03020F2E7002205E0E3
:1019D00018201F4921F8130001320133072A06D8C5
:1019E000802111411CEA010FF2D03020F1E70EF105
:1019F000010EBEF1060F09D816480EEB4E01421833
:101A0000455C547892F802C00022C7E708211248CA
:101A100006F012FBA823114A0D49114802F096FA6C
:101A200090B90D4C2268D36843F40063D360022060
:101A300001F030FA2268D36823F40063D3600821F0
:101A4000204606F077FB38BD00F051F8E9E700BF0B
:101A5000C8110020181300209C1500203C080040ED
:101A60003C15002006280DD810B4074C00EB4000B0
:101A700004EB000C8CF8011022548CF802305DF855
:101A8000044B7047704700BF18130020F8B5074695
:101A90000E461546002407E02B46324639462046BE
:101AA000FFF7E0FF0134E4B2062CF5D9F8BD08B524
:101AB000002211461046FFF7E9FFFFF765FF1420EB
:101AC00001F0E8F908BD000008B50821024806F059
:101AD000B3FAFFF7ECFF08BD9C15002008B50368BA
:101AE000B3F1804F00D008BD01F0C2F9FBE772B638
:101AF000FEE7000010B594B008AC3022002120466B
:101B0000FEF7A6FB00230393049305930693079324
:101B10000193204A116C41F080511164126C02F063
:101B200080520192019A02931B4B1A6842F4804240
:101B30001A601B6803F480430293029B01230893FD
:101B40004FF48033099302230E934FF480020F92D7
:101B50000F22109290221192129305231393204684
:101B600005F084F990B90F23039302230493002313
:101B700005934FF4A05306934FF48053079303212A
:101B800003A805F0C3FB18B914B010BDFFF7AFFFF1
:101B9000FFF7ADFF003802400070004008B501F0CB
:101BA0004DF9FFF7A7FF00F06DFB00F007FB00F019
:101BB000B5F900F079FA00F0E7F900F0F7FB00F072
:101BC00013FC00F0D7FC00F0C3FE00F0DBFE00F0D9
:101BD000F1FD00F089FE00F0A1FE00F045FE0122BB
:101BE00040F604410F4802F0C3FC322001F052F9E4
:101BF000FFF76AFF0C4AD2F8FC3043F08073C2F85A
:101C0000FC300A4B00225A601A6842F001021A6046
:101C10000CF072FD09F016FB00F036F809F024FB19
:101C2000FEE700BF0010024000ED00E0001000E001
:101C300008B50BF03DF8FEF777FDFFF7C3F90B4A47
:101C400000210B4809F02CFB0A4A00210A4809F040
:101C500027FB0023192219460120FFF703FFFFF796
:101C600093FE642009F076FBFBE700BFB401010896
:101C7000C9070008900101088903000808B5012080
:101C800009F068FBFBE7000008B50B4A01211020B2
:101C900009F00FFC094B1860094A0021094809F0B6
:101CA000FFFA094B1860094A0021094809F0F8FABF
:101CB000084B186008BD00BFD80101083013002090
:101CC00014020108311C000838130020F00101083B
:101CD0007D1C000834130020FEE7FEE7FEE7FEE768
:101CE000FEE7704708B5024802F0C0F908BD00BF22
:101CF0002C16002008B5024802F0B8F908BD00BF54
:101D0000CC18002008B5024802F0B0F908BD00BFA9
:101D10008C16002008B5024802F0A8F908BD00BFE3
:101D20006C18002008B5024802F0A0F908BD00BFF9
:101D30004C17002008B5024802F098F908BD00BF12
:101D4000EC16002008B5024801F046FE08BD00BFB1
:101D50001414002008B5024801F03EFE08BD00BF83
:101D60001414002008B5024801F036FE08BD00BF7B
:101D70001414002008B5024805F0DEFE08BD00BFBF
:101D80003C13002008B5024805F0D6FE08BD00BF90
:101D90009C15002008B5024804F0FCF808BD00BFFF
:101DA0009014002008B5024804F0C3F908BD00BF34
:101DB0009014002008B5024806F018FD08BD00BFC9
:101DC000BC19002008B5024806F010FD08BD00BF90
:101DD0007419002008B5024806F008FD08BD00BFD0
:101DE0002C19002008B5024802F040F908BD00BFD8
:101DF0003C15002008B5024806F0F8FC08BD00BFFD
:101E0000041A002008B5024802F030F908BD00BFEE
:101E1000AC17002008B5024804F01DFD08BD00BF46
:101E20007467002008B5024802F020F908BD00BF21
:101E30000C18002000B583B0002200920D4B596CA5
:101E400041F480415964596C01F48041009100993A
:101E50000192196C41F0805119641B6C03F080539E
:101E60000193019B0F216FF0010001F043FF03B0CC
:101E70005DF804FB0038024030B589B00446002309
:101E80000193224B1A6C42F001021A641B6C03F09E
:101E900001030193019B02A903A805F00DFB069B1A
:101EA000D3B905F0E9FA0346194AA2FB03239B0CB8
:101EB000013B18484FF08042026040F2E732C260B6
:101EC0004360002303618360836105F04DFF054695
:101ED00030B1284609B030BD05F0CEFA4300E3E743
:101EE0000C4805F0E3FD05460028F2D11C2001F066
:101EF00011FF0F2C01D90125EBE7002221461C2000
:101F000001F0F8FE044B1C60E3E700BF003802401C
:101F100083DE1B433C1300200C00002000B585B07D
:101F2000002300930193029303931448144A026020
:101F3000436083600361037680F82030C362114AF6
:101F40008262C3600122C26180F83030426101F0D8
:101F50004FF868B9082300930123019300230293EB
:101F60006946064801F072F928B905B05DF804FB2E
:101F7000FFF7BDFDEEE7FFF7BAFDF6E7CC13002053
:101F8000002001400100000F00B585B00023009340
:101F90000193029303931448144A026043608360E0
:101FA0000361037680F82030C362114A8262C36005
:101FB0000122C26180F83030426101F019F860B945
:101FC000002300930122019202936946064801F022
:101FD0003DF928B905B05DF804FBFFF788FDEFE790
:101FE000FFF785FDF6E700BF8413002000210140C4
:101FF0000100000F00B58BB00023059306930793F3
:10200000089309930368234A934205D0224A9342D6
:1020100021D00BB05DF804FB002101911F4B5A6CDD
:1020200042F480725A645A6C02F480720192019AEE
:1020300002911A6B42F002021A631B6B03F0020357
:102040000293029B012305930323069305A91448D9
:1020500002F0FEF8DDE700210391104B5A6C42F4C8
:1020600000725A645A6C02F400720392039A04914B
:102070001A6B42F001021A631B6B03F00103049315
:10208000049B03230593069305A9064802F0E0F894
:10209000BFE700BF0020014000210140003802409E
:1020A000000402400000024008B50B480B4B0360DF
:1020B0001423436000238360C3600361436103769C
:1020C00043768376C3760377437701F089F900B9C5
:1020D00008BDFFF70CFDFBE714140020006400406E
:1020E00010B588B0002303930493059306930793D8
:1020F0000268204B9A4201D008B010BD0024019420
:1021000003F5EA331A6C42F000721A641A6C02F09A
:1021100000720192019A02941A6B42F008021A634B
:102120001B6B03F008030293029B03230393022219
:10213000049206930923079303A90F4802F088F835
:1021400022460121132001F0D5FD132001F0E2FD0C
:1021500022460121142001F0CDFD142001F0DAFD0A
:1021600022460121152001F0C5FD152001F0D2FD08
:10217000C2E700BF00640040000C024008B50268DE
:102180000B4B9A4200D008BD0A4A136C23F000732F
:1021900013640321084802F051F9132001F0BEFD39
:1021A000142001F0BBFD152001F0B8FDEBE700BFE6
:1021B0000064004000380240000C024010B582B0BC
:1021C000002400942E4B1A6B42F400121A631A6B0F
:1021D00002F400120092009A01941A6B42F48002F9
:1021E0001A631B6B03F480030193019B22460121B8
:1021F0000C2001F07FFD0C2001F08CFD2246012116
:102200000D2001F077FD0D2001F084FD2246012113
:102210000E2001F06FFD0E2001F07CFD2246012111
:102220000F2001F067FD0F2001F074FD224601210F
:10223000102001F05FFD102001F06CFD224601210D
:10224000112001F057FD112001F064FD224601210B
:102250002F2001F04FFD2F2001F05CFD22460821C8
:102260003A2001F047FD3A2001F054FD22460821B2
:10227000462001F03FFD462001F04CFD02B010BDAC
:10228000003802402DE9F0438DB007AD00240794DB
:10229000089409940A940B940194404B1A6B42F0F1
:1022A00010021A631A6B02F010020192019A029452
:1022B0001A6B42F080021A631A6B02F080020292DB
:1022C000029A03941A6B42F004021A631A6B02F02A
:1022D00004020392039A04941A6B42F001021A63F7
:1022E0001A6B02F001020492049A05941A6B42F0F0
:1022F00002021A631A6B02F002020592059A069412
:102300001A6B42F008021A631B6B03F00803069372
:10231000069BDFF89090224640F60441484602F0C2
:1023200027F9DFF8848001220621404602F020F9D7
:102330001B4E224649F20441304602F019F90122AF
:102340004FF40051304602F013F922464FF47071F9
:10235000404602F00DF940F6044307930127089721
:1023600009940A942946484601F072FF40F2C633A8
:102370000793089709940A942946404601F068FF9C
:102380004BF204430793089709940A942946304670
:1023900001F05EFF0DB0BDE8F08300BF00380240E1
:1023A000000C0240001002400008024008B50B4833
:1023B0000B4B03600B4B436000238360C3604FF4FF
:1023C0008042026143618361C361036202F00EFDDA
:1023D00000B908BDFFF78BFBFBE700BF901400209E
:1023E00000540040A086010008B50B480B4B036069
:1023F0000B4B436000238360C3604FF48042026153
:1024000043618361C361036202F0F0FC00B908BD5F
:10241000FFF76DFBFBE700BF3C14002000580040B5
:10242000A086010030B58BB0002305930693079377
:102430000893099303682F4A934204D02E4A93428B
:1024400034D00BB030BD002501952C4C236B43F0EC
:1024500002032363236B03F002030193019BC02358
:10246000059312230693032308930423099305A9D4
:10247000234801F0EDFE0295236C43F4001323641E
:10248000236C03F400130293029B2A4605211F20AC
:1024900001F030FC1F2001F03DFC2A4605212020E0
:1024A00001F028FC202001F035FCCAE70025039547
:1024B000124C236B43F002032363236B03F00203EC
:1024C0000393039B4FF44063059312230693032366
:1024D00008930423099305A9094801F0B9FE04955E
:1024E000236C43F480032364236C03F4800304937C
:1024F000049BA6E70054004000580040003802400A
:102500000004024010B50368174A934203D0174AEB
:10251000934216D010BD02F5F232136C23F400136F
:102520001364134C4021204601F088FF802120468F
:1025300001F084FF1F2001F0F1FB202001F0EEFBF1
:10254000E8E702F5F032136C23F480031364084CBF
:102550004FF48061204601F071FF4FF40061204686
:1025600001F06CFFD6E700BF005400400058004067
:102570000004024008B50D480D4B03604FF4827310
:10258000436000238360C360036143614FF40072C2
:102590008261C3610362436283620A23C36205F0FE
:1025A0004DF800B908BDFFF7A2FAFBE7E4140020DC
:1025B0000030014000B589B00023039304930593D4
:1025C000069307930268154B9A4202D009B05DF852
:1025D00004FB0021019103F584335A6C42F48052CC
:1025E0005A645A6C02F480520192019A02911A6B59
:1025F00042F001021A631B6B03F001030293029B7A
:10260000E0230393022304930323069305230793F4
:1026100003A9034801F01CFED8E700BF00300140C9
:102620000000024008B50268064B9A4200D008BD7F
:10263000054A536C23F480535364E021034801F0AE
:10264000FDFEF4E700300140003802400000024087
:102650000268094B9A4200D0704782B00023019370
:10266000064B5A6C42F001025A645B6C03F00103A2
:102670000193019B02B07047000001400038024006
:102680000268224B9A4200D0704710B582B00446CF
:10269000002301931E4A116C41F004011164126C75
:1026A00002F004020192019A1A481B4A02604FF09C
:1026B0008062426040228260C3604FF480620261A7
:1026C0004FF4006242614FF400528261C3614FF4E3
:1026D00000320262436201F0A1FBA0B90D4BE3623C
:1026E0009C63002201211E2001F004FB1E2001F04A
:1026F00011FB002201212F2001F0FCFA2F2001F014
:1027000009FB02B010BDFFF7F2F9E7E7000800404F
:10271000003802403C150020B860024000B589B086
:1027200000230393049305930693079303681C4ABD
:10273000934205D01B4A93421AD009B05DF804FBBE
:1027400000230193184B1A6B42F010021A631B6BA3
:1027500003F010030193019B4FF440730393022392
:1027600004930123079303A9104801F071FDE4E7E6
:10277000002302930C4B1A6B42F008021A631B6B86
:1027800003F008030293029B4FF480430393022358
:102790000493079303A9064801F05AFDCDE700BF53
:1027A00000000140000800400038024000100240D4
:1027B000000C024010B592B00024109411940994BA
:1027C0000A940B940C940D940E940F94202221469D
:1027D00001A8FDF73DFD2248224B036031234360F1
:1027E00084604FF6FF73C36004614461846105F047
:1027F000E7FA002828D100231093119310A9184854
:1028000005F0DEFC18BB002209920A920B920C9292
:102810000D920E920F9209A9114805F061FBC8B9FB
:102820000023019302930393049305934FF4005202
:102830000692089301A90A4805F008FD68B90848FE
:10284000FFF76CFF12B010BDFFF751F9D3E7FFF7A8
:102850004EF9D8E7FFF74BF9E2E7FFF748F9EEE763
:10286000E41500200000014000B58BB00023089360
:10287000099301930293039304930593069307939B
:102880001748184A0260436083604A22C2600361AD
:10289000836105F0C1FAC8B900230893099308A918
:1028A0000F4805F08DFCA0B960230193002302932B
:1028B00003930593082201A9094805F040FB58B984
:1028C0000748FFF72BFF0BB05DF804FBFFF70FF98C
:1028D000E2E7FFF70CF9E7E7FFF709F9F0E700BFD8
:1028E0009C1500200008004008B50A480A4B036008
:1028F0004FF4E133436000238360C36003610C2223
:1029000042618361C36105F0C1FD00B908BDFFF7F5
:10291000EEF8FBE7041A0020004C004008B50A4816
:102920000A4B03604FF4E133436000238360C360CC
:1029300003610C2242618361C36105F0A7FD00B908
:1029400008BDFFF7D4F8FBE7BC19002000100140D8
:1029500008B50A480A4B03604FF4E1334360002393
:102960008360C36003610C2242618361C36105F02F
:102970008DFD00B908BDFFF7BAF8FBE77419002018
:102980000044004008B50A480A4B03604FF4E133A5
:10299000436000238360C36003610C224261836152
:1029A000C36105F073FD00B908BDFFF7A0F8FBE7B0
:1029B0002C1900200048004030B58FB00446002399
:1029C00009930A930B930C930D930368994A9342CE
:1029D0000CD0994A934269D0984A934200F0CA8039
:1029E000974A934200F04C810FB030BD002501950D
:1029F000944B1A6C42F400221A641A6C02F40022FE
:102A00000192019A02951A6B42F004021A631B6B41
:102A100003F004030293029B4FF4406309930223E3
:102A20000A9303230C9308230D9309A9864801F008
:102A30000FFC8648864B03604FF00063436085605F
:102A4000C5604FF48063036145618561C5610562BE
:102A5000456201F0E3F918BB7C4BE3639C637D485E
:102A60007D4B03604FF0006343604023836000238D
:102A7000C3604FF48062026143618361C36103629A
:102A8000436201F0CBF970B9724BA3639C630022DF
:102A90000121342001F02EF9342001F03BF9A3E7A5
:102AA000FFF725F8D8E7FFF722F8EDE700250395B3
:102AB000644B5A6C42F010025A645A6C02F01002D5
:102AC0000392039A04951A6B42F001021A631B6B7E
:102AD00003F001030493049B4FF4C06309930223A2
:102AE0000A9303230C9307230D9309A95B4801F074
:102AF000AFFB5B485B4B03604FF0006343604023D8
:102B00008360C5604FF48063036145618561C56181
:102B10004FF480330362456201F080F920BB504BD3
:102B2000A3639C635048514B03604FF000634360C4
:102B300000238360C3604FF480620261436183615C
:102B4000C3614FF480320262436201F067F970B9E9
:102B5000454BE3639C6300220721252001F0CAF85E
:102B6000252001F0D7F83FE7FEF7C1FFD7E7FEF7D2
:102B7000BEFFEDE700250595324B1A6C42F400329A
:102B80001A641A6C02F400320592059A06951A6BC3
:102B900042F001021A631B6B03F001030693069BCC
:102BA0000C23099302230A9303230C9307230D9309
:102BB00009A92A4801F04CFB2D482E4B03604FF029
:102BC000006343608560C5604FF4806303614561C5
:102BD0008561C5610562456201F020F918BB244B8F
:102BE000E3639C632448254B03604FF0006343601C
:102BF000402383600023C3604FF48062026143611D
:102C00008361C3610362436201F008F970B91A4B32
:102C1000A3639C6300220121262001F06BF826208B
:102C200001F078F8E0E6FEF762FFD8E7FEF75FFF15
:102C3000EDE700BF004C00400010014000440040A0
:102C4000004800400038024000080240CC18002034
:102C5000406002406C18002070600240000002409A
:102C60000C180020B8640240AC17002040640240F9
:102C70004C17002088600240EC160020A060024043
:102C8000002507952E4B1A6C42F480221A641A6CA8
:102C900002F480220792079A08951A6B42F0080204
:102CA0001A631B6B03F008030893089B4FF44073EF
:102CB000099302230A9303230C9307230D9309A975
:102CC000204801F0C5FA2048204B03604FF0006314
:102CD000436040238360C5604FF4806303614561B6
:102CE0008561C5610562456201F098F810BB164B1D
:102CF000A3639C631648174B03604FF00063436067
:102D000000238360C3604FF480620261436183618A
:102D1000C3610362436201F081F870B90C4BE36355
:102D20009C6300220121272000F0E4FF272000F00F
:102D3000F1FF59E6FEF7DBFED9E7FEF7D8FEEDE737
:102D400000380240000C02408C16002058600240FF
:102D50002C1600202860024010B504460368304A53
:102D6000934209D02F4A93421BD02F4A93422DD031
:102D70002E4A93423ED010BD02F5F632136C23F476
:102D8000002313644FF44061294801F057FBE06BC6
:102D900001F0AAF8A06B01F0A7F8342000F0BEFF04
:102DA000E9E702F59432536C23F0100353644FF4B7
:102DB000C061204801F042FBA06B01F095F8E06B88
:102DC00001F092F8252000F0A9FFD4E702F5FA32CD
:102DD000136C23F4003313640C21164801F02EFB0E
:102DE000E06B01F081F8A06B01F07EF8262000F086
:102DF00095FFC0E702F5F832136C23F480231364C7
:102E00004FF440710C4801F019FBA06B01F06CF815
:102E1000E06B01F069F8272000F080FFABE700BF0E
:102E2000004C0040001001400044004000480040B9
:102E30000008024000000240000C024008B50B4BA5
:102E40001A6842F400721A601A6842F480621A60CA
:102E50001A6842F480721A60032000F039FF0F20D4
:102E6000FFF70AF8FEF7E6FF002008BD003C02402D
:102E7000034A1168034B1B780B441360704700BF73
:102E80004C1A002008000020014B1868704700BF52
:102E90004C1A002038B50446FFF7F6FF0546B4F19A
:102EA000FF3F02D0044B1B781C44FFF7EDFF401B93
:102EB000A042FAD338BD00BF080000204A4B5A6830
:102EC00022F440325A605A6841680A435A600268E4
:102ED000536823F48073536002685368016943EABE
:102EE000012353600268536823F040735360026803
:102EF000536881680B4353600268936823F400634E
:102F0000936002689368C1680B439360826A374B91
:102F10009A4257D00268936823F070639360026806
:102F20009368816A0B4393600268936823F040536F
:102F3000936002689368C16A0B4393600268936868
:102F400023F00203936002689368017E43EA410321
:102F5000936090F82030002B3FD00268536843F410
:102F6000006353600268536823F460435360016850
:102F70004B68426A013A43EA42334B600268D36AC3
:102F800023F47003D3620168CB6AC269013A43EA51
:102F90000253CB620268936823F400739360026863
:102FA000936890F8301043EA412393600268936875
:102FB00023F48063936002689368416943EA812344
:102FC000936070470268936823F0706393600268AF
:102FD000936823F040539360B0E70268536823F48A
:102FE00000635360CAE700BF002301400100000FE7
:102FF00038B310B50446036C43B1236C13F0100FC3
:103000000BD00120002384F83C3010BDFEF7F2FF06
:103010000023636484F83C30EFE7236C23F4885387
:1030200023F0020343F0020323642046FFF746FF28
:1030300000206064236C23F0030343F00103236446
:10304000E0E701207047000082B00023019390F870
:103050003C30012B00F08980012380F83C3003686C
:103060009A6812F0010F13D19A6842F001029A6037
:10307000414B1B68414AA2FB03239B0C03EB430318
:10308000019302E0019B013B0193019B002BF9D1CD
:103090000268936813F0010F5CD0036C23F4E063C3
:1030A00023F0010343F480730364536813F4806FC7
:1030B00005D0036C23F4405343F480530364036C42
:1030C00013F4805F1BD0436C23F00603436400239A
:1030D00080F83C306FF022031360294B5B6813F0DB
:1030E0001F0F27D10368274A934211D002F580723F
:1030F000934207D0244A934214D0002033E00023A7
:103100004364E4E702F50072526812F01F0FF1D138
:103110009A6812F0405F2AD19A6842F080429A6021
:10312000002020E002F58072526812F0100FEFD0FC
:10313000002018E00368134A934201D0002012E0F7
:103140009A6812F0405F14D19A6842F080429A6007
:10315000002008E0036C43F010030364436C43F069
:1031600001034364002002B070470220FBE7002007
:10317000F9E70020F7E700BF0400002083DE1B43CF
:1031800000230140002001400022014070B50446A8
:103190000D4603689A6812F4806F03D09B6813F49D
:1031A000807F19D1FFF770FE064623681A6812F077
:1031B000020F20D1B5F1FF3FF7D0B5B923681B68E6
:1031C00013F0020FF1D1236C43F0040323640023B6
:1031D00084F83C30032032E0036C43F020030364A6
:1031E000002380F83C30012029E0FFF74DFE801BD2
:1031F000A842DAD9E2E76FF012021A60236C43F4B6
:103200000073236423689A6812F0405F16D1207E11
:10321000B0B9DA6A12F4700F03D09B6813F4806FB0
:103220000DD1236C23F480732364236C13F4805F2B
:1032300005D1236C43F00103236400E0002070BD3E
:103240000020FCE70368D86C7047000030B482B0FF
:103250000022019290F83C20012A00F0B68003463B
:10326000012280F83C200A68092A40D90468E068F5
:1032700092B202EB42021E3A4FF0070C0CFA02F235
:1032800020EA0202E2601C68E0680A8802EB42025F
:103290001E3A8D6805FA02F20243E2604A68062A85
:1032A0003CD81C68606B02EB8202053A4FF01F0CA1
:1032B0000CFA02F220EA020262631C68606B4A6840
:1032C00002EB8202053AB1F800C00CFA02F20243A6
:1032D000626318683E4A904250D018683C4A904257
:1032E00055D0002083F83C0002B030BC7047046821
:1032F000206992B202EB42024FF0070C0CFA02F284
:1033000020EA020222611C6820690A8802EB42025C
:103310008D6805FA02F202432261BFE70C2A16D833
:103320001D68286B02EB8202233A1F2404FA02F282
:1033300020EA02022A631D68286B4A6802EB8202B7
:10334000233A0C8804FA02F202432A63C1E71D689B
:10335000E86A02EB8202413A1F2404FA02F220EAF0
:103360000202EA621D68E86A4A6802EB8202413A98
:103370000C8804FA02F20243EA62AAE70A68122AF7
:10338000ABD11448426842F480024260A5E70A6863
:10339000103A012AA5D80F48426842F40002426060
:1033A0000A68102A9DD10C4A12680C49A1FB02122E
:1033B000920C02EB82025200019202E0019A013A61
:1033C0000192019A002AF9D18BE702208CE700BF15
:1033D00000200140002301400400002083DE1B4345
:1033E000002800F0A18038B5044690F82030D3B111
:1033F0002268136843F001031360FFF745FD05469B
:1034000023685A6812F0010F10D1FFF73DFD401BF1
:103410000A28F5D9636A43F400336362052384F80C
:103420002030012038BDFEF75BFEE1E71A6822F08C
:1034300002021A60FFF728FD054623685A6812F059
:10344000020F0DD0FFF720FD401B0A28F5D9636A53
:1034500043F400336362052384F820300120E1E760
:10346000227E012A3DD01A6822F080021A60637E13
:10347000012B3BD02268136823F040031360A37E26
:10348000012B39D02268136823F020031360E37EF8
:10349000012B37D02268136843F010031360237F99
:1034A000012B35D02268136823F008031360637F73
:1034B000012B33D02268136823F004031360A36840
:1034C000E268134322691343626913436268013A55
:1034D00021681343CB6100206062012384F820300F
:1034E000A0E71A6842F080021A60C0E722681368F9
:1034F00043F040031360C2E72268136843F02003DF
:103500001360C4E72268136823F010031360C6E752
:103510002268136843F008031360C8E72268136841
:1035200043F004031360CAE70120704790F820308D
:10353000013BDBB2012B05D9436A43F4802343628C
:103540000120704730B5464BD3F8002242F001020B
:10355000C3F80022D3F8002222F47C52C3F80022E0
:10356000D3F80022486A42EA0022C3F800224A69DE
:1035700002F01F02012000FA02F2D3F81C026FEAE7
:10358000020C20EA0200C3F81C02CB69C3B9344B19
:10359000D3F80C020CEA0000C3F80C028C884869CE
:1035A000CD6844EA0544483043F830408C680888C8
:1035B00040EA04404C6904F1480E03EBCE03586026
:1035C000CB69012B1ED08B69002B33D12448D0F856
:1035D00004320CEA0303C0F804320B698BBB2048A9
:1035E000D0F814320CEA0303C0F814320B6A012B32
:1035F0002ED01B4AD2F8003223F00103C2F8003269
:10360000002030BD164BD3F80C021043C3F80C0257
:103610008C8848690D6844EA0544483043F83040D6
:1036200088894C698D6840EA0540483403EBC4033F
:103630005860C8E70A48D0F804321343C0F804328F
:10364000CBE70748D0F814321343C0F81432CDE763
:103650000349D1F81C321343C1F81C32C9E700BF3B
:103660000064004070B5044690F82030012B06D06D
:10367000436A43F4002343620126304670BDDEB244
:10368000022380F820300268136823F001031360DE
:10369000FFF7FAFB054623685B6813F0010F0CD0B7
:1036A000FFF7F2FB431B0A2BF5D9636A43F400339F
:1036B0006362052384F82030DFE700266662DCE7DA
:1036C00038B5044690F82030022B05D0436A43F405
:1036D00080134362012038BD0268136843F0010380
:1036E0001360FFF7D1FB054623685A6812F0010FFB
:1036F0000DD1FFF7C9FB431B0A2BF5D9636A43F4CD
:1037000000336362052384F820300120E3E71A6860
:1037100022F002021A60012384F820300020DAE748
:1037200080B110B50446FFF7CBFF2046FEF726FD1B
:103730002268136843F4004313600020606284F839
:10374000200010BD0120704730B590F820C00468FB
:10375000A4680CF1FF3C5FFA8CFCBCF1010F62D84D
:1037600014F0E05F59D0C4F3016C012404FA0CF4A6
:103770001C608B68002B3DD10D68CB68046843EA60
:1037800045550CF118031B01E55003680C690CF159
:10379000180E03EB0E135C600B7D012B35D0D17935
:1037A00093791B0443EA0163517943EA01231479B5
:1037B0000168234301EB0C11C1F88C31D178937867
:1037C0001B0443EA0163517843EA0123117802683C
:1037D0000B4302EB0C12C2F8883102680CF1180C92
:1037E0004FEA0C1C52F80C3043F0010342F80C3045
:1037F00000201DE04C6843EAC403CC6823430CF16D
:103800001804240105682B51BFE7036803EB0E136E
:10381000596841F480715960C1E7436A43F4001369
:103820004362012004E0436A43F4802343620120A1
:1038300030BD90F820C00CF1FF3C5FFA8CFCBCF16D
:10384000010F00F2A58030B451B90468E46814F0A7
:10385000030F10D1436A43F40013436201207EE05A
:103860000468246914F0030F05D1436A43F400137C
:103870004362012073E0056801F11B0424012C5907
:1038800004F004049460002C6BD1056801F11B0462
:1038900024012C59640D1460046801F11B0C4FEADB
:1038A0000C1C54F80C4004F00204D4600468A444D6
:1038B000DCF8045015F0080F5BD00824146104688C
:1038C00001F11B0C04EB0C146468C4F3072494612D
:1038D000046804EB0C146468240C5461026802EB65
:1038E0000112D2F8B8211A70026802EB0112D2F864
:1038F000B821C2F307225A70026802EB0112D2F813
:10390000B821C2F307429A70026802EB0112D2F8A2
:10391000B821120EDA70026802EB0112D2F8BC2153
:103920001A71026802EB0112D2F8BC21C2F307221D
:103930005A71026802EB0112D2F8BC21C2F30742AD
:103940009A71026802EB0112D2F8BC21120EDA71F0
:10395000C1B90268D36843F02003D360002030BCB3
:103960007047056801F11B0424012C59E4085460D8
:1039700092E701F11B0504EB0514646804F00F04E1
:1039800014619CE70268136943F020031361E5E7C3
:10399000436A43F4802343620120704790F820304B
:1039A000013BDBB2012B05D9436A43F48023436218
:1039B00001207047026853690B4353610020704730
:1039C000704770477047704770477047704770473F
:1039D00070477047704770472DE9F84F05460368F8
:1039E0005C69D3F804809F68D3F80CA0D3F81090DA
:1039F000D3F818B014F001063BD017F0010616D02A
:103A000001229A6017F0020F08D117F0040F0CD1B1
:103A100017F0080606D04FF4805608E0FFF7D0FFF5
:103A2000002604E0FFF7CFFF01E04FF4006617F433
:103A3000807F0DD02B684FF480729A6017F4007F5E
:103A400040F0968017F4806F00F0968046F40056A0
:103A500017F4803F0DD02B684FF480329A6017F432
:103A6000003F40F0938017F4802F00F0938046F4DD
:103A7000004614F0080F07D01AF0100F04D046F4D7
:103A800000762B681022DA6014F0040F03D01AF0CD
:103A9000080F40F0898014F0020F05D02B68DB6816
:103AA00013F0030F40F0878014F0400F07D019F097
:103AB000100F04D046F480662B6810221A6114F0AF
:103AC000200F02D019F0080F79D114F0100F04D094
:103AD0002B681B6913F0030F78D114F4003F02D058
:103AE00018F0100F76D114F4803F02D018F0080FB0
:103AF00077D114F4004F37D018F0040F31D014F4FC
:103B0000807F04D01BF0010F01D046F0010614F4B1
:103B1000007F04D01BF0020F01D046F0020614F41F
:103B2000806F04D01BF0040F01D046F0040614F49B
:103B3000006F16D01BF0700B13D0BBF1400F66D096
:103B400056D8BBF1200F5CD0BBF1300F5CD0BBF17D
:103B5000100F01D146F008062A68936923F070031C
:103B600093612B6804225A60002E56D1BDE8F88F6D
:103B70002846FFF726FF6BE717F4006F02D046F4E4
:103B8000804665E72846FFF71FFF61E72846FFF7F5
:103B900019FF6EE717F4002F02D046F4803668E76D
:103BA0002846FFF712FF64E72B680822DA602846F0
:103BB000FFF70CFF6FE72846FCF798FC74E72B68CB
:103BC00008221A612846FFF703FF7EE72846FFF721
:103BD000FEFE82E72B6810225A602846FFF7F9FEA6
:103BE00081E72B6808225A602846FFF7F3FE80E73A
:103BF000BBF1500F0ED0BBF1600FADD146F4807613
:103C0000AAE746F01006A7E746F02006A4E746F02C
:103C10004006A1E746F080069EE76B6A33436B627D
:103C20002846FFF7D8FEA1E7002807DB00F01F02B7
:103C3000400901239340024A42F82030704700BFF8
:103C400000E100E000280CDB00F01F024009012326
:103C500093402030034A42F82030BFF34F8FBFF328
:103C60006F8F704700E100E0002808DB0901C9B24E
:103C700000F1604000F5614080F80013704700F0EB
:103C80000F000901C9B2014B1954704714ED00E04F
:103C900000B500F00700C0F1070CBCF1040F28BF0D
:103CA0004FF0040C031D062B0FD9C31E4FF0FF3E2F
:103CB0000EFA0CF021EA000199400EFA03FE22EA06
:103CC0000E0241EA02005DF804FB0023EEE700006B
:103CD000074AD36823F4E0631B041B0C000200F4C2
:103CE000E060034343F0BF6343F40033D3607047A5
:103CF00000ED00E010B50446054BD868C0F3022083
:103D0000FFF7C6FF01462046FFF7AEFF10BD00BF1C
:103D100000ED00E008B5FFF787FF08BD08B5FFF725
:103D200091FF08BD30B405682C6824F480242C6011
:103D3000046863608368402B05D00368996003685A
:103D4000DA6030BC704703689A600368D960F8E7AE
:103D500010B40368D9B210390A4AA2FB0142120911
:103D6000094CA25CC2655F2907D96FF309030433CC
:103D70008365806D5DF8044B70476FF309038365BD
:103D8000F7E700BFABAAAAAA50020108836A8269BA
:103D900092B9012B0AD0022B02D00BB10020704740
:103DA000C36A13F0807F28D100207047C36AB3F143
:103DB000C07F24D000207047B2F5005F09D0022BED
:103DC00025D9032B25D1C36A13F0807F23D100208E
:103DD0007047032B03D8DFE803F01404140A002013
:103DE0007047C36A13F0807F0DD100207047C36A0B
:103DF000B3F1C07F09D00020704701207047012037
:103E00007047012070470120704701207047012052
:103E100070470020704701207047000070B50446CD
:103E2000FFF732F8002C5BD00546022384F83530CA
:103E3000002384F834302268136823F001031360F0
:103E400023681A6812F0010F0AD0FFF71DF8431B10
:103E5000052BF5D920236365032084F8350070BD58
:103E60001A68204911406268A0680243E068024372
:103E70002069024360690243A0690243E06902438A
:103E8000206A02430A43616A04291ED01A60266828
:103E9000756925F00705636A1D43042B07D1A36AE2
:103EA0001D43E36A1BB12046FFF770FF90B97561AF
:103EB0002046FFF74DFFE26D3F23934083600020D3
:103EC0006065012384F83530C9E7E16A206B01435E
:103ED0000A43DBE740236365012084F83500BEE731
:103EE0000120BCE73F8010F000282DD038B50446F3
:103EF00090F83530D8B2022B25D02268136823F011
:103F000001031360236800251D6023685D6023683A
:103F10009D602368DD6023681D61236821225A614A
:103F20002046FFF715FFE56325646564A564E56435
:103F30002565E26D3F2393408360656584F83550C5
:103F400084F83450284638BD0120704738B50446FF
:103F5000856D90F8340001282AD0012084F83400BF
:103F600094F83500012804D0002384F8343002206E
:103F700038BD022084F83500002060652046FFF738
:103F8000D1FEE26D3F239340AB602268136843F09B
:103F900016031360236C23B12268136843F00803EF
:103FA00013602268136843F0010313600020DFE709
:103FB0000220DDE770B50446866DFEF765FF94F8D4
:103FC0003530022B06D080236365002384F834301B
:103FD000012070BD05462268136823F016031360A4
:103FE0002268536923F080035361236CE3B1226894
:103FF000136823F0080313602268136823F0010399
:10400000136023681B6813F0010F11D0FEF73CFF0B
:10401000431B052BF5D920236365032084F8350065
:10402000002384F83430D4E7A36C002BDFD1E3E71E
:10403000E26D3F239340B360012384F835300020C4
:1040400084F83400C5E790F83530022B03D0802384
:10405000436501207047052380F8353002681368F6
:1040600023F001031360002070470000F0B583B017
:10407000044600230193724B1D68724BA3FB053568
:10408000AD0A876D3E68C26D08239340334210D05D
:1040900003681A6812F0040F0BD01A6822F00402A9
:1040A0001A60C26D08239340BB60436D43F0010367
:1040B0004365E26D01239340334209D0226852697F
:1040C00012F0800F04D0BB60636D43F002036365A0
:1040D000E26D04239340334209D02268126812F043
:1040E000020F04D0BB60636D43F004036365E26DAF
:1040F00010239340334224D02268126812F0080F34
:104100001FD0BB6023681A6812F4802F0DD01B6883
:1041100013F4002F04D1236C9BB12046984710E084
:10412000A36C73B1204698470BE01A6812F4807FA5
:1041300003D11A6822F008021A60236C0BB12046E2
:104140009847E26D20239340334254D0226812688E
:1041500012F0100F4FD0BB6094F83530052B0ED005
:1041600023681A6812F4802F33D01B6813F4002FD1
:104170002AD1636C002B3ED0204698473BE0226852
:10418000136823F0160313602268536923F0800339
:104190005361236CA3B12268136823F008031360F2
:1041A000E26D3F239340BB60012384F83530002348
:1041B00084F83430236D002B3FD0204698473CE0F4
:1041C000A36C002BE7D1EBE7E36BA3B12046984744
:1041D00011E01A6812F4807F09D11A6822F01002E7
:1041E0001A60012384F83530002384F83430E36BFF
:1041F0000BB120469847636DFBB1636D13F0010F5F
:1042000017D0052384F835302268136823F00103A2
:104210001360019B01330193AB4204D823681B68F0
:1042200013F0010FF5D1012384F83530002384F811
:104230003430E36C0BB12046984703B0F0BD00BFAB
:1042400004000020B5814E1B90F835007047000037
:1042500000230F2B00F2E98070B582B065E085681D
:104260004FEA430E032404FA0EF425EA0405CC6851
:1042700004FA0EF42C438460446824EA02044A6879
:10428000C2F300129A40224342605CE0DC0808342A
:1042900050F8242003F00705AD004FF00F0E0EFA82
:1042A00005FE22EA0E0E0A69AA4042EA0E0240F812
:1042B00024205CE0072200E0002202FA0EF22A43EA
:1042C00002345A4D45F82420594A94686FEA0C028A
:1042D00024EA0C054E6816F4801F01D04CEA040550
:1042E000534CA560E46802EA04054E6816F4001F0A
:1042F00001D04CEA04054E4CE560646802EA04050E
:104300004E6816F4003F01D04CEA0405484C656045
:10431000246822404D6815F4803F01D04CEA040225
:10432000434C226001330F2B7DD801229A400C6848
:1043300004EA020C32EA0404F4D14C6804F00304E9
:10434000013C012C8BD94A6802F00302032A09D0F0
:10435000C4685D000322AA4024EA02048A68AA40D5
:104360002243C2604A6802F00302022A8ED0046827
:104370004FEA430E032202FA0EF224EA02044A68CC
:1043800002F0030202FA0EF2224302604A6812F4BB
:10439000403FC7D000220192264A546C44F4804426
:1043A0005464526C02F480420192019A9C08A51C4C
:1043B0001E4A52F8255003F0030E4FEA8E0E0F22CC
:1043C00002FA0EF225EA02051B4A90423FF474AF4E
:1043D00002F5806290421AD002F58062904218D0B5
:1043E00002F58062904216D002F58062904214D0AD
:1043F00002F58062904212D002F58062904210D0A5
:1044000002F5806290423FF455AF082255E7012241
:1044100053E7022251E703224FE704224DE705222A
:104420004BE7062249E702B070BD704700380140F3
:10443000003C0140003802400000024000230F2BE6
:1044400000F28F80F0B52DE0072500E0002505FA89
:104450000CF5A54269D004685D004FF0030C0CFA1E
:1044600005FC24EA0C0404604FEAD30E0EF1080E9A
:1044700050F82E4003F00706B6000F25B54024EA99
:10448000050440F82E40C46824EA0C04C460446863
:1044900024EA02024260826822EA0C02826001334E
:1044A0000F2B5DD801229A4002EA010632EA01048C
:1044B000F5D14FEA930E0EF102052A4C54F825402F
:1044C00003F0030C4FEA8C0C0F2505FA0CF73C4067
:1044D000254DA842BAD005F58065A84219D005F54A
:1044E0008065A84217D005F58065A84215D005F56E
:1044F0008065A84213D005F58065A84211D005F566
:104500008065A8420FD005F58065A8429CD008259B
:104510009DE701259BE7022599E7032597E70425F9
:1045200095E7052593E7062591E7104C256825EAD0
:1045300006052560656825EA06056560E56825EAE3
:104540000605E560A56825EA0605A560054E0EF19D
:10455000020456F8245025EA070546F824507AE765
:10456000F0BD70470038014000000240003C0140AF
:104570000AB18161704709048161704703685A6913
:1045800012F0800F01D000221A61704790F83E307F
:10459000402B10D00369B3F5804F1BD0036D002B67
:1045A00038D1436CC3F3C813026803F0060343F029
:1045B000F00313617047036D2BB9436C026803F07D
:1045C000FE0313617047436C026843F00103DBB2E2
:1045D0001361704790F83D30212B0FD0436C026877
:1045E00043F00103DBB21361436B6BB1DB6B5BB177
:1045F0000268536843F4006353607047436C026879
:1046000003F0FE031361EFE7836B33B1DB6B002B29
:10461000EED102E0036D012B00D07047436CC3F371
:10462000C813026803F0060343F0F1031361F4E7D3
:10463000436C0268DBB21361436B3BB1DB6B2BB1A4
:104640000268536843F4006353607047836B002B28
:10465000FBD0DB6B002BF3D1F7E7000010B48BB07D
:1046600090F83E30C16A046B90F83D20222A0BD0AE
:104670000023099303685A6909929B690993099B6E
:104680000BB05DF8044B7047DBB2026D0AB9402BEA
:1046900017D0036D1BB90369B3F5404F1AD0438D92
:1046A0009BB2002B26D1029303685A6902929A6941
:1046B0000292029A1A6842F400721A60002303659B
:1046C000DEE70023009303685A6900929B69009318
:1046D000009BD5E70023019303685A6901929A6908
:1046E0000192019A1A6842F480721A60036D0133D4
:1046F0000365C5E7438D9BB2012B26D0438D9BB24A
:10470000022B7CD00268136843F480631360036853
:104710005A6812F4006F0FD0202900F2AE800829E9
:10472000C0F0A7800839574ACA4012F0010F03D0E1
:104730005A6842F480525A600023089303685A6909
:1047400008929B690893089BB8E711F5803F11D048
:10475000082934D0202932D0122C2ED0042940D060
:1047600002293ED010293CD00268136823F48063EC
:1047700013603BE00268136823F4806313600368EE
:104780005A6812F4006F0CD01A6822F480621A6022
:104790000023039303685A6903929B690393039B65
:1047A0008CE7002204925A6904929A690492049A4E
:1047B0001A6842F400721A6080E70129D0D00268BA
:1047C000136823F4806313600023069303685A6917
:1047D00006929A690692069A1A6842F400721A6062
:1047E0006CE70268136843F4806313600023059349
:1047F00003685A6905929B690593059B5EE710293A
:104800000AD8214BCB4013F0010F05D00268136882
:1048100043F48063136009E00268136823F4806343
:1048200013600268136843F40063136003685A68F6
:1048300012F4006F0DD0202917D8082912D3083997
:10484000104ACA4012F0010F03D05A6842F4805255
:104850005A600023079303685A6907929B6907937C
:10486000079B2BE70129F4D1EFE711F5803FF0D149
:10487000EBE701297FF460AF5AE711F5803F7FF441
:104880005BAF55E70101000114000100438D9BB2AD
:104890005BB1426A036812781A61436A013343626A
:1048A000438D9BB2013B9BB243857047438D9BB2C6
:1048B0005BB103681A69436A1A70436A0133436241
:1048C000438D9BB2013B9BB24385704782B000236E
:1048D00001930E4B1B68DB080D4AA2FB03231B0A46
:1048E00003EB83030193019B013B0193019B33B1D4
:1048F00003681B6813F4007FF5D1002004E0036C0B
:1049000043F020030364012002B07047040000203C
:1049100089B5F81403685A6912F4806F01D1002038
:1049200070476FF480625A6100230363202280F88D
:104930003D2080F83E30026C42F00402026480F8B0
:104940003C3001207047C36AB3F52A0F04D0C36A14
:10495000B3F12A4F03D070470123C3627047082385
:10496000C362F8E72DE9F04106460C461746984623
:104970003BE0FEF789FA069BC01A404502D8B8F121
:10498000000F32D1012D18D033689B6924EA03034C
:104990009BB2B3FA83F35B099F4226D100233363B2
:1049A000202286F83D2086F83E30326C42F020020C
:1049B000326486F83C30012027E033685B6924EAE2
:1049C00003039BB2B3FA83F35B09E5E733685B69E2
:1049D00024EA030C1FFA8CFCBCFA8CFC4FEA5C1C2A
:1049E000674511D1B8F1FF3FC3D1C4F30745012D8D
:1049F000ECD033689B6924EA030C1FFA8CFCBCFAE8
:104A00008CFC4FEA5C1CEBE70020BDE8F0812DE94F
:104A1000F84305460E469046994653E01A6842F41C
:104A200000721A602B686FF480625A6100232B6356
:104A3000202285F83D2085F83E302A6C42F00402A1
:104A40002A6485F83C3001204AE0FEF71DFAA0EB0D
:104A50000900404502D8B8F1000F33D1012F17D01B
:104A60002B689B6926EA03039BB2003B18BF012316
:104A700043B300232B63202285F83D2085F83E3088
:104A80002A6C42F020022A6485F83C30012027E09D
:104A90002B685B6926EA03039BB2003B18BF012326
:104AA000E6E72B689C6926EA0404A4B2003C18BF20
:104AB0000124A4B12B685A6912F4806FAED1B8F109
:104AC000FF3FC2D1C6F30747012FEAD12B685C69CB
:104AD00026EA0404A4B2003C18BF0124E9E7002040
:104AE000BDE8F883F0B583B004460D4616461F4670
:104AF000C36A082B0DD0012B0BD013F5803F08D0D3
:104B0000036B122B0AD10268136843F4807313609D
:104B100004E02268136843F48073136000973346FF
:104B200000224FF001112046FFF71CFF80B92369D6
:104B3000B3F5804F16D1236805F0FE051D613B4695
:104B4000324613492046FFF762FFF8B903B0F0BDC3
:104B500023681B6813F4807F02D04FF40073236432
:104B60000320F3E7EB11226803F0060343F0F003A0
:104B700013613B46324607492046FFF748FF18B904
:104B80002368EDB21D61DAE70120DFE70120DDE7F0
:104B900002000100080001002DE9F04184B0044644
:104BA0000D4616461F46C26A01680B6843F48063CF
:104BB0000B60082A0DD0012A0BD012F5803F08D0D7
:104BC000036B112B0AD10268136843F480731360DE
:104BD00004E02268136843F480731360009733463F
:104BE00000224FF001112046FFF7BCFE98B923695F
:104BF000B3F5804F19D1236845F00105EDB21D6171
:104C00003B4632462A492046FFF701FF00284CD197
:104C100004B0BDE8F08123681B6813F4807F02D0E4
:104C20004FF4007323640320F2E74FEAE51808F01D
:104C30000608236848F0F0021A613B4632461D49D7
:104C40002046FFF7E4FE08B10120E1E72368EDB25A
:104C50001D613B46324616492046FFF7D8FE08B193
:104C60000120D5E7002203922368596903919969CD
:104C700003910399196841F48071196000973346D4
:104C80004FF001112046FFF76DFE20B9226848F071
:104C9000F1031361B4E723681B6813F4807F02D02B
:104CA0004FF4007323640320B2E70120B0E700BF94
:104CB000020001000800010070B504460D461646CA
:104CC00023685B6913F0800F21D12046FFF722FE95
:104CD000F8B9B5F1FF3FF3D0FEF7D6F8801BA84234
:104CE00001D8002DECD123685B6913F0800FE7D168
:104CF00000232363202284F83D2084F83E30226C78
:104D000042F02002226484F83C30012000E00020C0
:104D100070BD0120FCE770B504460D4616462368B9
:104D20005B6913F0040F21D12046FFF7F3FDF8B9BA
:104D3000B5F1FF3FF3D0FEF7A7F8801BA84201D8DA
:104D4000002DECD123685B6913F0040FE7D1002339
:104D50002363202284F83D2084F83E30226C42F008
:104D60002002226484F83C30012000E0002070BD65
:104D70000120FCE770B504460D46164614E06FF0BE
:104D800010025A6100232363202284F83D2084F816
:104D90003E30226C226484F83C30012025E02368F8
:104DA0005B6913F0400F10D02368586910F0400F72
:104DB0001AD1586910F0100FE1D1FEF765F8801B89
:104DC000A842ECD8002DEFD1E9E70023236320228D
:104DD00084F83D2084F83E30226C42F020022264A8
:104DE00084F83C30012000E0002070BD002800F075
:104DF000CC8070B5044690F83D30002B77D024234A
:104E000084F83D302268136823F0010313602268A0
:104E1000136843F4004313602268136823F40043CB
:104E2000136002F029FB62685A4B9A4264D85A4BCD
:104E300098428CBF00230123002B40F0A8805749E3
:104E4000A1FB00318B0C25686A6822F03F0242EA20
:104E500091426A6021680A6A22F03F0266684D4DFD
:104E6000AE424FD8013313430B622168CA6922F462
:104E70004F4222F0FF026568464B9D424CD8431ECC
:104E80006D00B3FBF5F3013340F6FC70034278D0BC
:104E9000C3F30B031A43CA6121680B6823F0C003F4
:104EA000E269206A024313430B6021688B6823F494
:104EB000034323F0FF032269E068024313438B603E
:104EC0002168CB6823F0FF036269A06902431343A2
:104ED000CB602268136843F0010313600020206454
:104EE000202384F83D30206384F83E0070BD80F8B4
:104EF0003C30FDF797FA82E7294B98428CBF00239C
:104F0000012399E74FF4967505FB03F3254DA5FBA7
:104F100003539B090133A6E7A668BEB9431E05EB00
:104F2000450CB3FBFCF30133C3F30B03B3FA83F378
:104F30005B0943BBC6B9431E05EB4505B3FBF5F35F
:104F40000133C3F30B0343F40043A3E7431E05EB14
:104F5000850C0CEB8C0CB3FBFCF30133C3F30B039C
:104F6000B3FA83F35B09E4E7431E05EB850505EB24
:104F70008505B3FBF5F30133C3F30B0343F440435F
:104F800088E7042386E7012384E701207047012096
:104F9000ACE700BFA08601007F841E0083DE1B43B8
:104FA000FF083D00D34D6210A8B110B5044624237C
:104FB00080F83D300268136823F001031360FDF7A9
:104FC000A1FA0020206484F83D00206384F83E00AC
:104FD00084F83C0010BD0120704700002DE9F0432B
:104FE00085B004460F46904699460C9EFDF74CFF4F
:104FF00094F83D10202904D00227384605B0BDE8BA
:10500000F08305460090192301224F492046FFF7FF
:10501000A9FC002840F0928094F83C30012B00F06D
:105020008F80012384F83C3023681A6812F0010F46
:1050300003D11A6842F001021A602268136823F44F
:1050400000631360212384F83D30102384F83E3040
:1050500000232364C4F82480A4F82A90638D238558
:105060003A4BE3622B46324639462046FFF73AFD7B
:105070000746002866D10023039323685A690392E8
:105080009B690393039B11E0236C042B01D0012740
:10509000B3E72268136843F400731360F7E72A4606
:1050A00031462046FFF737FE00282ED1238D002BF6
:1050B00036D02A4631462046FFF7FEFD0028E3D1D0
:1050C000626A236812781A61606A431C6362618DA8
:1050D00089B2013989B26185238D013B9BB2238559
:1050E0002268516911F0040FD9D0002BD7D0437832
:1050F0001361636A01336362638D9BB2013B9BB2B0
:105100006385238D013B2385C9E7236C042B01D0E4
:10511000012772E72268136843F400731360F7E70E
:105120002268136843F400731360202384F83D3031
:10513000002384F83E3084F83C305EE702275CE7C9
:1051400002275AE7012758E7020010000000FFFF7E
:105150002DE9F04387B004460F46904699460E9ECF
:10516000FDF792FE94F83D10202904D0022738461E
:1051700007B0BDE8F08305460090192301228A4953
:105180002046FFF7EFFB002840F0508194F83C30B8
:10519000012B00F04D81012384F83C3023681A680C
:1051A00012F0010F03D11A6842F001021A6022685E
:1051B000136823F400631360222384F83D30102326
:1051C00084F83E3000232364C4F82480A4F82A9095
:1051D000638D2385754BE3622B4632463946204664
:1051E000FFF7DAFC0746002840F02481238D5BB9E5
:1051F000029323685A6902929A690292029A1A6883
:1052000042F400721A607AE0012B0FD0022B1FD0FB
:105210002268136843F480631360002305932368B6
:105220005A6905929B690593059B68E0226813689B
:1052300023F4806313600023039323685A69039265
:105240009A690392039A1A6842F400721A6056E04F
:105250002268136823F4806313602268136843F4A0
:10526000006313600023049323685A6904929B69C6
:105270000493049B43E02A4631462046FFF77AFD1B
:10528000002840F0D98023681A69636A1A70636A3B
:1052900001336362238D013B2385638D9BB2013B08
:1052A0009BB263852BE0009533460022404920469F
:1052B000FFF758FB002840F0C1802268136843F4D0
:1052C0000073136023681A69636A1A70626A531C58
:1052D0006362238D013B2385638D9BB2013B9BB2AF
:1052E000638523681B695370636A01336362238D8E
:1052F000013B2385638D9BB2013B9BB26385218D6E
:10530000002900F08A80032954D80129B3D002294A
:10531000C9D000953346002225492046FFF722FBDD
:10532000002840F08D802268136823F480631360A6
:1053300023681A69636A1A70636A01336362238D92
:10534000013B2385618D89B2013989B26185009560
:105350003346002216492046FFF704FB002871D18E
:105360002268136843F40073136023681A69636A40
:105370001A70626A531C6362238D013B2385638D1F
:105380009BB2013B9BB2638523681B695370636AC0
:1053900001336362238D013B2385638D9BB2013B07
:1053A0009BB26385ABE700BF020010000000FFFF67
:1053B000040001002A4631462046FFF7DBFC0028A6
:1053C00042D123681A69636A1A70636A013363629F
:1053D000228D013A92B22285638D9BB2013B9BB232
:1053E00063852368596911F0040F88D0032A0FD010
:1053F00023681A69636A1A70636A01336362238DD2
:10540000013B2385638D9BB2013B9BB2638576E7AD
:105410001A6822F480621A60EAE7202384F83D309B
:10542000002384F83E3084F83C30A0E602279EE654
:1054300002279CE601279AE6012798E6012796E6CF
:10544000012794E6012792E6012790E690F83DC0F7
:105450000CF0280CBCF1280F38D1002938D0002AD4
:1054600038D030B482B090F83C40012C34D00124C4
:1054700080F83C400468256815F0010F03D12568C9
:1054800045F00105256005682C6824F400642C6053
:10549000292480F83D40202480F83E400024046404
:1054A00041624285428D0285C362019403685A6954
:1054B00001929A690192019A80F83C405A6842F43C
:1054C000E0625A60204602B030BC7047022070474C
:1054D00001207047012070470220F4E790F83DC09A
:1054E0000CF0280CBCF1280F38D1002938D0002A44
:1054F00038D030B482B090F83C40012C34D0012434
:1055000080F83C400468256815F0010F03D1256838
:1055100045F00105256005682C6824F400642C60C2
:105520002A2480F83D40202480F83E400024046472
:1055300041624285428D0285C362019403685A69C3
:1055400001929A690192019A80F83C405A6842F4AB
:10555000E0625A60204602B030BC704702207047BB
:1055600001207047012070470220F4E790F83D3099
:10557000202B01D002207047282380F83D3003689B
:105580001A6812F0010F03D11A6842F001021A6082
:105590000268136843F4806313600268536843F43D
:1055A000407353600020704770477047704708B5DC
:1055B00090F83D30DAB2438D9BB283B1416A036803
:1055C00009781961436A01334362438D9BB2013B01
:1055D0009BB24385438D9BB20BB9292A00D008BDED
:1055E0000268536823F480635360212303632823F4
:1055F00080F83D30FFF7DAFFF1E708B590F83D306D
:10560000DAB2438D9BB283B103681969436A19709A
:10561000436A01334362438D9BB2013B9BB2438596
:10562000438D9BB20BB92A2A00D008BD026853688B
:1056300023F48063536022230363282380F83D30E2
:10564000FBF73AFAF1E700B583B090F83D3003F08C
:105650002803282B0CD00023019302685169019183
:1056600092690192019A80F83C3003B05DF804FB26
:105670000268536823F48063536011F0040F0BD069
:10568000002311F0800F09D18289002180F83C109D
:105690001946FBF7E5F9E8E70123F2E7028BF4E7A7
:1056A00010B5044690F83D30DBB2C26A082A01D03A
:1056B000202A01D1282B06D0212B1FD023686FF47C
:1056C00080625A6110BD1D4BE3622268536823F467
:1056D000E063536023686FF480625A612268136844
:1056E00023F48063136000232363202284F83D2089
:1056F00084F83E302046FBF703FAE3E70F4BE36202
:1057000021232363202384F83D30002384F83E3096
:105710002268536823F4E063536023686FF4806267
:105720005A612268136823F4806313602046FEF7F1
:1057300025FF2046FFF73AFFC4E700BF0000FFFF48
:10574000704708B5C26A90F83D30212B00D008BDE3
:10575000438D9BB263B1426A036812781A61436A4F
:1057600001334362438D9BB2013B9BB24385EEE71D
:10577000082A04D0202A02D012F5803F18D10268EE
:10578000536823F4E06353600268136843F40073C2
:10579000136000230363202380F83D3090F83E30EF
:1057A000402B15D0002380F83E30FFF7FDFECEE7FA
:1057B0000268536823F4E0635360112303630023FA
:1057C00080F83E30202380F83D30FFF7EDFEBEE745
:1057D000002380F83E30FFF7B3FFB8E708B590F834
:1057E0003D30026D9AB9C36C012B08D0836C0268FE
:1057F000C3F307231361036D0133036508BD836C95
:105800000268DBB21361036D02330365F6E7DBB2B6
:10581000026D012A23D0026D022A3ED1222B26D00E
:10582000428D92B20AB1212B2AD0428D92B2002A27
:10583000E4D1212BE2D10268536823F4E063536082
:105840000268136843F4007313600023036320228B
:1058500080F83D2080F83E30FFF772FFCEE7836C82
:105860000268DBB21361036D01330365C6E70268AA
:10587000136843F480731360036D01330365BDE760
:10588000426A036812781A61436A01334362438DA6
:105890009BB2013B9BB24385B0E7FEF76FFEADE7DD
:1058A00010B590F83D30DBB290F83E20D2B2C46A19
:1058B000018D00293AD1212B02D0402A41D010BDC0
:1058C000082C04D0202C02D014F5803F18D1026897
:1058D000536823F4E06353600268136843F4007371
:1058E000136000230363202380F83D3090F83E309E
:1058F000402B15D0002380F83E30FFF755FEDEE741
:105900000268536823F4E0635360112303630023A8
:1059100080F83E30202380F83D30FFF745FECEE78B
:10592000002380F83E30FFF70BFFC8E7212BC4D1DE
:10593000438D9BB243B90268536823F4806353607C
:10594000BDE7222BBBD1F3E790F83E30402B0CD0C3
:10595000426A036812781A61436A01334362438DD5
:105960009BB2013B9BB24385A9E7FFF737FFA6E750
:10597000704708B5C26A438D9BB2042B14D0438D87
:105980009BB2032B22D0438D9BB2022B39D00368EC
:105990001A69436A1A70436A01334362438D9BB2AA
:1059A000013B9BB2438510E00268536823F4806397
:1059B000536003681A69436A1A70436A0133436289
:1059C000438D9BB2013B9BB2438508BD01684B6888
:1059D00023F480634B60042A06D0022A04D00268B4
:1059E000136823F48063136003681A69436A1A70AA
:1059F000436A01334362438D9BB2013B9BB24385B3
:105A0000E3E7531E0F2B15D8DFE803F0080E140E42
:105A100014141414141414141414140801680B68C6
:105A200023F480630B600AE001680B6843F4806331
:105A30000B6004E001680B6843F400730B600368BB
:105A40001969436A1970416A4B1C4362438D9BB2CA
:105A5000013B9BB2438503681B694B70436A01336A
:105A60004362438D9BB2013B9BB2438501684B6807
:105A700023F440734B60202380F83D3090F83E3093
:105A8000402B09D0002380F83E30082A0BD0202A72
:105A900009D01223036308E0002380F83E3003633B
:105AA000FFF766FF91E700230363FFF77EFD8CE7B6
:105AB00038B590F83D30222B00D038BD0446C56A79
:105AC000438D9BB2032B15D903681A69436A1A7078
:105AD000436A01334362438D9BB2013B9BB24385D2
