:020000040800F2
:1000000000000220A9020008A5200008A72000087F
:10001000A9200008AB200008AD2000080000000067
:10002000000000000000000000000000C1BC00084B
:10003000AF2000080000000061BD0008C3B7000841
:10004000F5020008F5020008F5020008F5020008B4
:10005000F5020008F5020008F5020008F5020008A4
:10006000F5020008F5020008F5020008F502000894
:10007000B1200008C1200008D1200008E1200008BC
:10008000F120000801210008F502000811210008F4
:100090002121000831210008F5020008F5020008BE
:1000A000F5020008F5020008F5020008F502000854
:1000B00041210008F50200085121000861210008D3
:1000C00071210008F5020008F5020008F502000899
:1000D000F50200088121000891210008A1210008F3
:1000E000F5020008F5020008F5020008F502000814
:1000F000F5020008F5020008F5020008B121000829
:10010000F5020008F5020008F5020008F5020008F3
:10011000C1210008F5020008F5020008F5020008F8
:10012000F5020008F5020008D1210008F5020008D8
:10013000F5020008F5020008F5020008F5020008C3
:10014000F5020008F5020008F5020008E1210008A8
:10015000F5020008F5020008F1210008F502000888
:10016000F5020008F5020008F5020008F502000893
:10017000F5020008F5020008F50200080000000082
:08018000F5020008F502000879
:1001900053B94AB9002908BF00281CBF4FF0FF31EE
:1001A0004FF0FF3000F00CB8ADF1080C6DE904CE53
:1001B00010F06CF8DDF804E0DDE9022304B07047CC
:1001C000704700BF0348044B834202D0034B03B186
:1001D000184770475401002054010020000000001F
:1001E0000548064B1B1AD90F01EBA301491002D099
:1001F000034B03B1184770475401002054010020FD
:100200000000000010B5064C237843B9FFF7DAFF71
:10021000044B13B10448AFF300800123237010BDD9
:100220005401002000000000A005010808B5054B9E
:100230001BB105490548AFF30080BDE80840FFF752
:10024000CFBF00BF0000000058010020A00501083A
:1002500002440346934200D1704703F8011BF9E7BB
:1002600070B50D4B0D4D5B1B9C100026A64209D1AD
:1002700010F096F90A4D0B4B5B1B9C100026A64212
:1002800005D170BD55F8043B98470136EEE755F8A7
:10029000043B98470136F2E7FC070108FC07010818
:1002A000FC07010800080108DFF830D0002103E056
:1002B0000B4B5B58435004310A480B4B42189A428F
:1002C000F6D30A4A02E0002342F8043B084B9A4264
:1002D000F9D3FFF7C5FF01F047FE70470000022089
:1002E00004080108000000205401002054010020EF
:1002F000980E0120FEE7000040F6533398420FD8D5
:10030000B0F5FA6F0ED9642303FB00F0A0F543307B
:10031000A0F5A070044BA3FB0030C0F3472070474A
:100320006420704700207047C5B3A29110B5074CF8
:10033000204603F06FF80A21204603F00DF908B1BA
:10034000002010BD204603F063F9FAE7C4510020F5
:1003500038B50024254604E0FFF7E8FF05440134E2
:10036000E4B2072CF8D9ED0840F6E44303FB05F5A9
:100370000448A0FB05302D1A00EB5500C0F3CF2038
:1003800038BD00BF010110002DE9F04182B0FFF738
:10039000DFFF074600252E462C462EE013F1050F01
:1003A00008DA0136F6B2012E02D900252C460AE001
:1003B000002408E00CB1013CE4B226B1013EF6B2E3
:1003C00001E0012500261FFA88F73846FFF794FF61
:1003D000184B1F809870DD70C8F307238DF8043028
:1003E0008DF805808DF806008DF8075004220DEB7E
:1003F0000201082000F0D2FD47464FF4FA600BF0EE
:1004000075FAFFF7A5FFC0EB0010462307FB03F3C7
:1004100003EB4003084AA2FB03234FEA5318C7EB40
:100420005313052BBADD013414F0FF04C9D126465D
:10043000C9E700BF700100201F85EB5130B58BB0BC
:10044000002204210C4804F082FA28220021684688
:10045000FFF7FEFE012307930893084C69462046E8
:1004600003F04AFA204603F0E3FA0221204603F0A3
:100470007BFC0BB030BD00BF000C02400C520020D2
:1004800000282FD0024604292CD9007853781B0469
:1004900043EA0063907843EA0023D078034310795D
:1004A000082800D9082000F1050C8C451AD800B5A1
:1004B00089B0002102910391049105910691079161
:1004C000B3F5006F0AD20293069001AB053202A980
:1004D000054803F01FFB09B05DF804FB03930423F8
:1004E0000493F1E7704700BF0C52002070B5ADF5E2
:1004F0000C7D064624E0869A100E8DF80400C2F3A7
:1005000007408DF80500C2F307208DF806008DF82E
:100510000720042923D09DF824328DF80830899CC7
:10052000224683A90DF1090010F02CF80534ADF82E
:10053000024000231A4669460D4800680BF0D0FAC5
:1005400083AB85AA0021304603F059FB60B907222E
:100550008DF8002087990029CDD1859ACCE79DF8A8
:10056000243243F08003D8E70DF50C7D70BD00BF49
:10057000E8350020052843D1F0B58BB00023032BCC
:100580000CD8204A52F833208A4202D00133DBB221
:10059000F5E71C4A02EBC3035D6800E000250DB9D6
:1005A0000BB0F0BD184C204603F070FA204603F063
:1005B0009DFA65600025A560E5604FF42023236166
:1005C0004FF48013636125766576A5760126E6767D
:1005D00025776577204603F0E9F828222946684602
:1005E000FFF736FE079608966946204603F084F921
:1005F000204603F01DFA0221204603F0B5FBCFE7A9
:10060000704700BFC00501080C520020812801D0AE
:1006100000207047032901D0002070471D4A11882F
:1006200089B21D4A128892B2914204D11B4B012219
:100630001A700020704710B5194A118889B2194AFA
:1006400002EB412202F140011468D2F804E0D2F832
:1006500008C0D0681C60C3F804E0C3F808C0D860C4
:10066000103210338A42EFD10D4A13889BB2013306
:100670009BB2138013889BB2082B02D11346002231
:100680001A80054A13889BB201339BB21380402025
:1006900010BD00BF782100207621002074210020A9
:1006A0007A21002074010020912801D00120704798
:1006B00010B5029A002A29D01A78072A23D0164AA0
:1006C000128892B21549098889B2521A92B2082A40
:1006D0001CD0134C208880B2029A1946114B03EBB0
:1006E00040200FF04FFF23889BB201339BB2238041
:1006F00023889BB2082B0BD0074A13889BB2013387
:100700009BB2138002E0084B01221A70012010BD39
:1007100000222280F0E700BF802100207E210020FF
:100720008421002074110020500E012000230A4A69
:1007300013800A4A13800A4A13800A4A13800A4A1D
:1007400013800A4A13800A4A13800A4A13800A4B0C
:1007500001221A70704700BF8421002082210020EE
:10076000802100207E2100207C2100207A21002091
:1007700078210020762100207421002010B5094B3B
:10078000D3F8BC422346002203218120FFF73EFF1D
:10079000002800DC10BD82B2214602480CF016FD94
:1007A000F8E700BFBC05012000B583B040230093EB
:1007B000054BD3F8BC32002211469120FFF774FF9D
:1007C00003B05DF804FB00BFBC05012010B563E079
:1007D0003F4A128892B29A420DD05A023D498A5C31
:1007E0007E2A08D15A023B497F2088540133082BC6
:1007F000EED10023ECE7384C23889BB2374A1288AD
:1008000092B2374901EB4221324800EB43200EF00F
:1008100018FA23889BB201339BB2238023889BB2B2
:10082000082B45D02F4A13889BB201339BB213800B
:100830002A4A13889BB201339BB2138013889BB260
:10084000082B38D0284A13889BB201339BB21380FF
:10085000264B1B7803B3128892B2254B1B889BB2A0
:100860009A4219D0234B198889B24A1C92B21A8035
:100870001B889BB2082B22D01D4A13889BB20133E0
:100880009BB21380194B00221A704022144B03EBC9
:10089000412119480CF09AFC184B1A8892B2114B5E
:1008A0001B889BB29A420ED00B4B1B889BB294E7DD
:1008B00000222280B6E7134600221A80C2E70D4BC1
:1008C00000221A80D8E701200BF010F8E4E700BFFF
:1008D0008421002074110020822100207C2100202E
:1008E000740100207E210020782100207421002046
:1008F000762100207A210020BC05012080210020E3
:1009000010B50B4C204604F03DFD0A4B1B785B00F4
:10091000E360204604F058FC074B1B78012B00D005
:1009200010BD064B00221A80204605F00DF8F7E7AF
:1009300088520020020000209C25002090230020E7
:1009400008B5FFF7DDFF08BD20B310B582B00C4637
:100950000146012C10D9104B1B78012B0ED00246FA
:1009600012F8011B4900631E642000909BB201F045
:10097000FE010A4804F020FD02B010BDB4F5027F6C
:1009800001D94FF40274224605480FF0FBFD054BD8
:100990001C80F1E7704700BF9C2500208852002092
:1009A0008821002000000020174B1B7853BB48B360
:1009B000012927D930B5ADF5077D03785B00DCB29E
:1009C000457855B102290BD8642300932B4604AA1D
:1009D00021460E4804F0AAFD70B10DF5077D30BD2B
:1009E00083780DF10F0213706423009301232146D5
:1009F000064804F0E1FCE7E72A4604A9062000F0D7
:100A0000CDFAEAE7704700BF9C25002088520020FD
:100A100008B507280CD0082812D004280FD10C4B99
:100A2000994202D00B4B994207D10B4B596004E01D
:100A3000003918BF0121094B1970FFF761FF08BD8C
:100A4000A1F108036F2BF8D8054B1970F5E700BF2B
:100A5000A0860100801A0600885200209C250020F4
:100A60000200002008B50F4B834200D008BD0E4B9A
:100A70001B78012BFAD1012909D00C4B1A8802B935
:100A8000012220230A49074804F0CEFEEEE7094B75
:100A900000221A80042301220749024804F00CFFB7
:100AA000E4E700BF885200209C25002000000020C1
:100AB00088210020902300209423002008B50E4BAD
:100AC000834200D008BD0D4B1B78012BFAD10C4B93
:100AD0001B88B3F5027F02D20133094A1380084B09
:100AE0001988B1F5027FEDD20423012205480144A3
:100AF000014804F0E1FEE5E7885200209C25002033
:100B0000902300209423002008B50B4B834200D093
:100B100008BD0A4B1B78012BFAD1094B1A881AB968
:100B2000054804F011FFF3E70649052000F036FA06
:100B3000034B00221A80F3E7885200209C250020F6
:100B4000902300209423002008B5074B834200D057
:100B500008BD064B1B78012BFAD1054B00221A80E9
:100B6000014804F0F1FEF3E7885200209C250020A4
:100B70009023002010B500F04BF90146054C80226F
:100B8000204608F00DFBE36B1A68136823F0080396
:100B9000136010BDFC57002038B370B50D460646F3
:100BA00011B3B1F5027F01D94FF4027502F052FB87
:100BB000044602E001200AF099FE0C4808F08EFA83
:100BC00010F0210F05D002F045FB001B3228F1D9AF
:100BD0000AE0074C2A46314620460FF0D3FC2A464D
:100BE0002146024807F032FF70BD7047FC570020D5
:100BF000A025002001281CD138B50C4601B938BD0C
:100C00000C4D284607F06AFF284607F0A0FE6C60EE
:100C1000284607F06CFE00F0FBF8014680222846CB
:100C200008F0BEFAEB6B1A68136823F00803136030
:100C3000E5E77047FC57002010B500224FF48061B3
:100C4000084803F084FE00F0DFF80146064C8022DD
:100C5000204608F0A5FAE36B1A68136823F008032E
:100C6000136010BD000C02402457002068B370B51B
:100C70000D46064641B3B1F5027F01D94FF4027526
:100C800002F0E8FA044602E001200AF02FFE0F48C5
:100C900008F024FA10F0210F05D002F0DBFA001B57
:100CA0003228F1D910E00A4C2A46314620460FF08E
:100CB00069FC01224FF48061064803F048FE2A4691
:100CC0002146024807F0C2FE70BD7047245700203D
:100CD000A8270020000C0240012822D138B50C467C
:100CE00001B938BD0F4D284607F0F8FE284607F039
:100CF0002EFE6C60284607F0FAFD00224FF480615A
:100D0000094803F024FE00F07FF8014680222846BF
:100D100008F046FAEB6B1A68136823F008031360B7
:100D2000DFE7704724570020000C024070470000A6
:100D3000C0B130B583B00C4601468CB1B4F5027F2A
:100D400001D94FF40274084D3223009323462A46FA
:100D5000064806F0D6FE22462946042000F01EF979
:100D600003B030BD704700BFB0290020DC52002026
:100D700038B505460C46214806F0ADFE022D09D0D7
:100D8000032D19D0062D0DD1003C18BF01241C4B9A
:100D90001C7007E0072C00D907241A4B53F82420B5
:100DA000164BDA61164B1B782BBB4FF4827313483A
:100DB000436006F031FE38BD04F00304032CF1D883
:100DC000DFE804F002070D130C4B00221A615A6190
:100DD000E8E70A4B00221A6101225A61E2E7074B59
:100DE00002221A6100225A61DCE7044B02221A61D6
:100DF00001225A61D6E70023D9E700BFDC52002068
:100E0000B82B0020E005010800487047703600202C
:100E100000487047F0350020F8B506460D4600241E
:100E200052E0AA2A4FD13C4B01221A704BE0552ABE
:100E300003D00022384B1A7045E00222FAE7374B04
:100E40001A70374B1A70344B03221A703BE01102B0
:100E5000324B598032490B7853400B702E4B042291
:100E60001A7030E02D494B8813434B802C48017891
:100E70004A4002702B4A00211180013B9BB2B3F51E
:100E8000027F02D3244B19701DE0234B05221A70F8
:100E900019E0244801884B1C9BB203801F48014481
:100EA0000A711F4F39784A403A70428893420AD3F8
:100EB000194B06221A7006E0194B1B7893421BD07F
:100EC000154B00221A700134AC4223D2325D124B12
:100ED0001B78062B1AD801A151F823F0230E000825
:100EE0002F0E00083F0E00084F0E0008650E000888
:100EF000930E0008B90E00080B4B18680028DFD0CD
:100F000000231A4605490AF0EBFDD9E7024B0022FF
:100F10001A70D8E7F8BD00BFE4350020D8330020B0
:100F2000D4330020D2330020EC350020531E9BB276
:100F3000B3F5027F00D3704770B50E461446164BCA
:100F4000BB221A7055225A709870220ADA704240F9
:100F5000E5B21D7155402246581D0FF013FB0023CA
:100F600003E0F25C554001339BB2A342F9D3631D09
:100F7000094AD55402F06EF90546A11D89B206480A
:100F80000CF088F9012806D10AF0B0FC02F062F9F1
:100F9000401B3128F1D970BDC431002070B5044622
:100FA0000D461646FFF7C2FF32462946204600F09E
:100FB00029FD70BD00B583B08DF8040051B1002348
:100FC0008DF80530022201A9F020FFF7E7FF03B0FA
:100FD0005DF804FBFF23F3E710B500224FF4037123
:100FE00008200AF032FD144B186000224FF4037100
:100FF00008200AF02AFD114B1860FFF71DFEFFF7CD
:10100000B9FDFFF793FEFFF79BFCFFF717FA0C4CB7
:1010100080220C49204608F0C3F8E36B1A68136875
:1010200023F008031360084A002108480AF004FC72
:1010300000F02EFE10BD00BFEC350020E83500208A
:10104000B4570020F0360020D406010831160008FD
:10105000002900F08C8030B5ADF5057D0C460A46C0
:10106000B1F5027F28BF4FF40272ADF80620036885
:101070003F498B420BD03F498B4224D03E498B42A3
:101080003DD03E4A934256D00DF5057D30BD01213D
:101090008DF804103A4902A80FF074FA394B186819
:1010A00020B100231A4601A90AF01AFD364C80220D
:1010B0003349204608F074F8E36B1A68136823F08C
:1010C00008031360E0E702218DF804102F4902A8FD
:1010D0000FF058FA2B4B186820B100231A4601A9CB
:1010E0000AF0FEFC2A4C80222849204608F058F8D5
:1010F000E36B1A68136823F008031360C4E7032145
:101100008DF80410234902A80FF03CFA1D4B186813
:1011100020B100231A4601A90AF0E2FC1E4C8022ED
:101120001C49204608F03CF8E36B1A68136823F06A
:1011300008031360A8E700F0A5FD0028A4D1174A12
:1011400013680133136000F03FFC0546214600F0B0
:101150003FFC134C4FF480622946204608F020F8EB
:10116000E36B1A68136823F0080313608CE7704779
:101170000010014000480040004C00400044004086
:10118000F0360020E8350020B457002070360020EB
:1011900024570020F0350020FC570020B03B0020F1
:1011A0006C57002001281AD138B50C4601B938BD5A
:1011B0000B4D284607F092FC284607F0C8FB6C60F0
:1011C000284607F094FB80220649284607F0E8FFEE
:1011D000EB6B1A68136823F008031360E7E77047A6
:1011E000B4570020F036002010B582B04288CAB152
:1011F00003460479F02C1AD0052A24D940799A792B
:10120000D979090441EA02611A7A41EA02215B7A3A
:101210001943631E062B32D8DFE803F01A1D202382
:1012200026262E000021F020FFF7C4FE22E0164BF8
:1012300093E803000090ADF8041006226946F02000
:10124000FFF7ACFE16E000212046FFF7B3FE11E0E9
:10125000FFF7A8FF0AE0FFF73FFD07E0FFF7CAFC32
:1012600004E0FFF785FD01E0FFF7D2FB01212046F6
:10127000FFF7A0FE02B010BDFFF77CF9F6E70021F2
:101280002046FFF797FEF5E7B8050108F0B591B0E5
:1012900004460378072B0BD85AB2002A4AD0013BE8
:1012A000062B47D8DFE803F029484D52575C610010
:1012B000E02B73D0F02B5DD0D02B3BD14688B6F518
:1012C000007F28BF4FF40076A84D4FF400773A46D0
:1012D00000212846FEF7BCFF3A460021A448FEF74D
:1012E000B7FF3246211D28460FF04CF92B78072B0B
:1012F00043D1A04B01221A701CE001F0ABFF054660
:101300009D4807F0EBFE10F0210F08D001F0A2FF7E
:10131000401B322803D801200AF0E8FAF0E7974D85
:101320006288211D28460FF02DF9628829469248CF
:1013300007F08CFB11B0F0BD41880430FFF796FC3C
:10134000F8E741880430FFF727FCF3E741880430D1
:10135000FFF7EEFCEEE741880430FFF7F5FAE9E726
:1013600041880430FFF720FBE4E741880430FFF7B1
:1013700087F8DFE7FFF738FFDCE77D497B480DF0B2
:1013800060FC82B2531E9BB2B3F5007F01D34FF4D1
:1013900000727749D02000F035FBCBE7428812B1CC
:1013A0000379032B16D012B12379042B15D012B177
:1013B0002379F12B14D0012A02D92379F22B4FD0B3
:1013C0001AB12379F32B00F0F780211DE02000F003
:1013D00019FBAFE700F07CFBACE700F08FFBA9E75F
:1013E000674B1A68674B1A60674BDB6B3BB11B6836
:1013F0002BB11968654A11605A68654B1A60F12370
:101400008DF81430634B1B68CDF81530624B1B68A8
:10141000CDF81930614B1B68CDF81D30604B1B684F
:10142000CDF821305F4B1B68CDF825305E4B1B6833
:10143000CDF829305D4B1B68CDF82D30514B1B6822
:10144000CDF83130514B1B68CDF83530504B1B680F
:10145000CDF83930292205A9E020FFF767FD69E7BB
:101460006379002B35D0012B68D0022B7FF462AF5B
:1014700005A9002405944C608C60CC600C610C23A1
:1014800005930226069603230893072309934848E9
:1014900003F0C6F83C4D474B6B60EC61284607F003
:1014A00026FA00F091FA01464FF48062284607F0D0
:1014B00077FEEB6B1A68136823F00803136040F2A1
:1014C000F223ADF80430324601A9E020FFF72EFDEB
:1014D00030E72D4C204607F001FB204607F037FA95
:1014E00005AD0024059406940794089409940427F4
:1014F0000597012306932E4E2946304603F090F8B7
:1015000022463946304603F022FA0827059706940A
:1015100007942946304603F083F8F2238DF804300F
:101520008DF805403946304603F00AFA8DF806007A
:10153000032201A9E020FFF7F9FCFBE61C4C012285
:101540000421204603F003FAF2238DF8143001231E
:101550008DF815300821204603F0F2F98DF81600B9
:10156000032205A9E020FFF7E1FCE3E6BC2D002003
:10157000BC2B0020500E0120B4570020BC2F0020AF
:1015800000440040A03B00206C5700209C3B002002
:10159000983B0020B83B0020B43B0020B03B00202B
:1015A000AC3B0020A83B0020A43B0020040000200E
:1015B0000000024040420F008DF81430194BDA68E9
:1015C000CDF815205A69CDF819209A68CDF81D205C
:1015D0001B68CDF82130144B9B6B43B11B6833B1B2
:1015E0001A68CDF825205B68CDF8293005E04DF666
:1015F000AD63CDF82530CDF829300C4B01AC0FCBC5
:1016000084E80F004FF4FA730F222146064807F0D2
:10161000B8F9CDF82D001D2205A9E020FFF786FCC2
:1016200088E600BF004400406C5700200006010817
:1016300010B5ADF5047D0123002201A90F48006813
:101640000AF090FAA8B10024032CF4D800231A461B
:1016500001A90B4800680AF085FA0028EBD1BDF813
:10166000062002A99DF80400FFF798FC0134E4B2BB
:10167000EAE701A8FFF70AFEE5E700BFEC35002026
:10168000E835002010B58CB00368504A93420AD068
:101690004F4A934228D04F4A934251D04E4A9342E8
:1016A00074D00CB010BD002200924C4C2368196815
:1016B0000091596800910099019219680191596847
:1016C0000191019902921A6802925B680293029B4F
:1016D00080224349204607F063FDE36B1A681368D4
:1016E00023F008031360DCE700F0CCFA0028D8D11F
:1016F0003C4A136801331360002203923A4C23687A
:101700001968039159680391039904921968049127
:1017100059680491049905921A6805925B680593CB
:10172000059B00F051F901464FF48062204607F016
:1017300037FDE36B1A68136823F008031360B0E702
:1017400000220692294C236819680691596806916F
:1017500006990792196807915968079107990892A5
:10176000196808915B680893089B4FF480612048D2
:1017700003F0EDF880221F49204607F011FDE36BCE
:101780001A68136823F0080313608AE7002209929D
:10179000196809915968099109990A9219680A9179
:1017A00059680A910A990B921A680B925B680B931D
:1017B0000B9B114C80221149204607F0F1FCE36B92
:1017C0001A68136823F0080313606AE700100140E9
:1017D0000044004000480040004C0040B457002046
:1017E000F0360020A83B00206C5700202457002032
:1017F000000C024070360020FC570020F03500201D
:1018000002680F4B9A4200D0704710B50D4B1B6811
:101810001B6813F0400FF9D000224FF480610A4892
:1018200003F095F8074C80220849204607F0B8FCE1
:10183000E36B1A68136823F00803136010BD00BF40
:101840000048004024570020000C02407036002061
:101850000A4B1B889BB20133C3F30B03084A12885F
:1018600092B29A4209D010B404490A8892B2054C47
:10187000A0540B805DF8044B70477047BE3B0020BE
:10188000BC3B0020C03B00200B4B1A8892B20B4B94
:101890001B889BB29A420DD0084A13889BB2084914
:1018A000CB5C037013889BB20133C3F30B0313802B
:1018B0000120704700207047BE3B0020BC3B002049
:1018C000C03B00203C4B1B78062B6CD8DFE803F0B4
:1018D00004141D26324B6200AA2803D0BB2806D070
:1018E00000207047344B01221A7000207047324BA1
:1018F00001221A7000207047552804D000222E4B78
:101900001A70002070470222F9E72C4B18702C4BFC
:101910001870294B03221A70002070470202274BCF
:101920005A80274A137843401370234B04221A70BD
:1019300000207047214A53880343538020490A7886
:1019400042400A701F4A00211180013B9BB2B3F54F
:10195000027F03D30846184B19707047164B0522B7
:101960001A700020704710B416490A88531C9BB2A5
:101970000B8012490A441071114C227842402270A7
:101980004A88934213D30C4B06221A7000205DF84C
:10199000044B7047084B00221A70094B1B78834296
:1019A00007D0104670470020034B18707047002086
:1019B000EDE70120704700BF803900207437002018
:1019C000723700207037002000487047C04B00205D
:1019D0000A4B1B7883B970B506460D46084A136852
:1019E0000B441360002404E0305DFFF731FF013445
:1019F000A4B2AC42F8D370BD704700BF963B002044
:101A0000AC3B0020F8B52C4B1B783BB906460D4685
:101A10001446531E9BB2B3F5027F00D3F8BD3C21A0
:101A2000264B186809F0BBFF0028F7D101F012FC23
:101A30000746234807F052FB10F0210F0BD001F0AE
:101A400009FCC31B322B03D8012009F04FFFF0E73C
:101A50001B4807F083F81B48BB23037055234370D2
:101A60008670230AC3707340E6B206715E40224658
:101A7000294605300EF086FD0023A34204D2EA5C1D
:101A8000564001339BB2F8E7631D0E49CE54A21DA8
:101A900092B20B4806F0DAFF40B90B4A13680133E3
:101AA0001360064B186809F0A9FFB7E7074A1368E7
:101AB00001331360F5E700BF963B00208439002016
:101AC0006C57002088390020B83B0020B43B002030
:101AD00010B5094C00220421204602F038FF642092
:101AE00009F004FF01220421204602F030FF4FF4E8
:101AF000FA7009F0FBFE10BD0008024070B586B018
:101B000001261A4B1E701A4C204606F0E7FF2046AD
:101B100006F01DFF01A9002401944C608C60CC608C
:101B20000C610C230193134802F07AFD124D2246FA
:101B30000221284602F00BFF322009F0D7FE224690
:101B40000421284602F003FF642009F0CFFE32464C
:101B50000421284602F0FBFE642009F0C7FE32464D
:101B60000221284602F0F3FE06B070BD963B00202D
:101B70006C57002000000240000802404288002A02
:101B80003ED000B589B00379102B2FD006D8032B97
:101B900027D0042B2FD1FFF7B1FF24E0F12B2AD15E
:101BA000F1238DF80430174B1B68CDF80530164B28
:101BB0001B68CDF80930154B1B68CDF80D30144B60
:101BC0001B68CDF81130134B1B68CDF81530124B44
:101BD0001B68CDF81930192201A9E020FFF7A6F9FA
:101BE00001E0FFF775FF09B05DF804FB011DE0207F
:101BF000FFF79CF9F7E7011DE020FFF797F9F2E7FF
:101C0000704700BFB83B0020B43B0020B03B002031
:101C1000AC3B0020A83B0020A43B002010B582B0C4
:101C200026E01548FFF7AAFF23465A1E94B2E3B1F7
:101C30000DF10700FFF728FEB8B19DF80700FFF788
:101C400041FE0028F0D00D4A1368013313600A4B9F
:101C50001B78E02BE5D00A4B18680028E4D000235D
:101C60001A46054909F03CFFDEE7012009F03EFE77
:101C70004FF48063D9E700BF74370020A43B0020F5
:101C8000EC350020014B1878704700BF963B0020D0
:101C900030B585B0274C204606F020FF204606F0E0
:101CA00056FE254B63600023E361204606F01FFECD
:101CB000002835D1214809F027FE214B1860FFF795
:101CC00007FF40F2DC5009F011FE00240194194D89
:101CD0002B681A6801925A680192019A02941A6854
:101CE00002925A680292029A03941A6803925A68FE
:101CF0000392039A5B684FF480621249284607F00A
:101D00004FFA114B1860EB6B1A68136823F0080345
:101D100013600E4A21460E4809F08EFD05B030BD15
:101D200020464FF4E13363600023E36106F0DFFDFA
:101D3000C0E700BF6C57002040420F001C0701089D
:101D400084390020C04B002004000020F806010860
:101D50001D1C000838B500239E4630E018202F498E
:101D600021F8130001320133072A05D880211141DF
:101D70000D42F3D03020F2E7002205E01820274979
:101D800021F8130001320133072A05D880211141BF
:101D90000C42F3D03020F2E7002205E018201F4962
:101DA00021F8130001320133072A06D8802111419E
:101DB0001CEA010FF2D03020F1E70EF1010EBEF166
:101DC000060F09D816480EEB4E014218455C5478B0
:101DD00092F802C00022C7E70821124806F01AFB59
:101DE000A823114A0D49114802F096FA90B90D4CFA
:101DF0002268D36843F40063D360022001F030FA14
:101E00002268D36823F40063D3600821204606F0DB
:101E10007FFB38BD00F051F8E9E700BFC04F00205C
:101E200010510020945300203C08004034530020FF
:101E300006280DD810B4074C00EB400004EB000C52
:101E40008CF8011022548CF802305DF8044B704776
:101E5000704700BF10510020F8B507460E461546E2
:101E6000002407E02B46324639462046FFF7E0FFC4
:101E70000134E4B2062CF5D9F8BD08B500221146AC
:101E80001046FFF7E9FFFFF765FF142001F0E8F9BE
:101E900008BD000008B50821024806F0BBFAFFF7AC
:101EA000ECFF08BD9453002008B50368B3F1804FE0
:101EB00000D008BD01F0C2F9FBE772B6FEE70000F2
:101EC00010B594B008AC302200212046FEF7C0F9CE
:101ED0000023039304930593069307930193204AE9
:101EE000116C41F080511164126C02F08052019229
:101EF000019A02931B4B1A6842F480421A601B68D5
:101F000003F480430293029B012308934FF4803330
:101F1000099302230E934FF480020F920F22109226
:101F200090221192129305231393204605F08CF909
:101F300090B90F23039302230493002305934FF4D6
:101F4000A05306934FF480530793032103A805F091
:101F5000CBFB18B914B010BDFFF7AFFFFFF7ADFF13
:101F6000003802400070004008B501F04DF9FFF75D
:101F7000A7FF00F06DFB00F007FB00F0B5F900F0E3
:101F800079FA00F0E7F900F0F7FB00F013FC00F03D
:101F9000D7FC00F0C3FE00F0DBFE00F0F1FD00F026
:101FA00089FE00F0A1FE00F045FE012240F604414A
:101FB0000F4802F0CCFC322001F052F9FFF76AFF23
:101FC0000C4AD2F8FC3043F08073C2F8FC300A4B64
:101FD00000225A601A6842F001021A600CF052FEA8
:101FE00009F0FCFB00F036F809F00AFCFEE700BF40
:101FF0000010024000ED00E0001000E008B50BF01A
:102000001FF9FEF793FBFEF7E7FF0B4A00210B4891
:1020100009F012FC0A4A00210A4809F00DFC0023CD
:10202000192219460120FFF703FFFFF793FE6420F2
:1020300009F05CFCFBE700BF50070108CD07000872
:102040002C0701088903000808B5012009F04EFC9F
:10205000FBE7000008B50B4A0121102009F0F5FC50
:10206000094B1860094A0021094809F0E5FB094BB2
:102070001860094A0021094809F0DEFB084B186086
:1020800008BD00BF7407010828510020B0070108EF
:10209000FD1F0008305100208C070108492000086E
:1020A0002C510020FEE7FEE7FEE7FEE7FEE7704763
:1020B00008B5024802F0C0F908BD00BF2454002052
:1020C00008B5024802F0B8F908BD00BFC4560020A8
:1020D00008B5024802F0B0F908BD00BF84540020E2
:1020E00008B5024802F0A8F908BD00BF64560020F8
:1020F00008B5024802F0A0F908BD00BF4455002011
:1021000008B5024802F098F908BD00BFE454002069
:1021100008B5024801F046FE08BD00BF0C52002081
:1021200008B5024801F03EFE08BD00BF0C52002079
:1021300008B5024801F036FE08BD00BF0C52002071
:1021400008B5024805F0E6FE08BD00BF3451002086
:1021500008B5024805F0DEFE08BD00BF945300201C
:1021600008B5024804F004F908BD00BF88520020F9
:1021700008B5024804F0CBF908BD00BF8852002022
:1021800008B5024806F0FEFD08BD00BFB4570020A8
:1021900008B5024806F0F6FD08BD00BF6C570020E8
:1021A00008B5024806F0EEFD08BD00BF2457002028
:1021B00008B5024802F040F908BD00BF34530020C2
:1021C00008B5024806F0DEFD08BD00BFFC57002040
:1021D00008B5024802F030F908BD00BFA455002040
:1021E00008B5024804F025FD08BD00BF6C090120B8
:1021F00008B5024802F020F908BD00BF04560020CF
:1022000000B583B0002200920D4B596C41F480411F
:102210005964596C01F48041009100990192196C44
:1022200041F0805119641B6C03F080530193019BB2
:102230000F216FF0010001F043FF03B05DF804FBD4
:102240000038024030B589B0044600230193224B88
:102250001A6C42F001021A641B6C03F00103019333
:10226000019B02A903A805F015FB069BD3B905F055
:10227000F1FA0346194AA2FB03239B0C013B1848C1
:102280004FF08042026040F2E732C26043600023B8
:1022900003618360836105F055FF054630B1284630
:1022A00009B030BD05F0D6FA4300E3E70C4805F06D
:1022B000EBFD05460028F2D11C2001F011FF0F2C88
:1022C00001D90125EBE7002221461C2001F0F8FE90
:1022D000044B1C60E3E700BF0038024083DE1B4371
:1022E000345100201000002000B585B00023009379
:1022F0000193029303931448144A0260436083607D
:102300000361037680F82030C362114A8262C360A1
:102310000122C26180F83030426101F04FF868B9A3
:102320000823009301230193002302936946064882
:1023300001F072F928B905B05DF804FBFFF7BDFDA7
:10234000EEE7FFF7BAFDF6E7C45100200020014098
:102350000100000F00B585B00023009301930293A4
:1023600003931448144A0260436083600361037658
:1023700080F82030C362114A8262C3600122C261C8
:1023800080F83030426101F019F860B90023009301
:102390000122019202936946064801F03DF928B9ED
:1023A00005B05DF804FBFFF788FDEFE7FFF785FD5B
:1023B000F6E700BF7C510020002101400100000F22
:1023C00000B58BB0002305930693079308930993F8
:1023D0000368234A934205D0224A934221D00BB08E
:1023E0005DF804FB002101911F4B5A6C42F480728E
:1023F0005A645A6C02F480720192019A02911A6B2B
:1024000042F002021A631B6B03F002030293029B69
:10241000012305930323069305A9144802F000F94C
:10242000DDE700210391104B5A6C42F400725A64AC
:102430005A6C02F400720392039A04911A6B42F0F0
:1024400001021A631B6B03F001030493049B032333
:102450000593069305A9064802F0E2F8BFE700BF1E
:1024600000200140002101400038024000040240E9
:102470000000024008B50B480B4B03601423436077
:1024800000238360C36003614361037643768376F0
:10249000C3760377437701F089F900B908BDFFF7E8
:1024A0000CFDFBE70C5200200064004010B588B022
:1024B0000023039304930593069307930268204B2C
:1024C0009A4201D008B010BD0024019403F5EA330C
:1024D0001A6C42F000721A641A6C02F000720192D7
:1024E000019A02941A6B42F008021A631B6B03F004
:1024F00008030293029B0323039302220492069390
:102500000923079303A90F4802F08AF82246012104
:10251000132001F0D5FD132001F0E2FD2246012138
:10252000142001F0CDFD142001F0DAFD2246012136
:10253000152001F0C5FD152001F0D2FDC2E700BF56
:1025400000640040000C024008B502680B4B9A4240
:1025500000D008BD0A4A136C23F0007313640321F2
:10256000084802F053F9132001F0BEFD142001F0D9
:10257000BBFD152001F0B8FDEBE700BF0064004093
:1025800000380240000C024010B582B000240094D4
:102590002E4B1A6B42F400121A631A6B02F40012EB
:1025A0000092009A01941A6B42F480021A631B6B2A
:1025B00003F480030193019B224601210C2001F0CA
:1025C0007FFD0C2001F08CFD224601210D2001F041
:1025D00077FD0D2001F084FD224601210E2001F03F
:1025E0006FFD0E2001F07CFD224601210F2001F03D
:1025F00067FD0F2001F074FD22460121102001F03B
:102600005FFD102001F06CFD22460121112001F038
:1026100057FD112001F064FD224601212F2001F019
:102620004FFD2F2001F05CFD224608213A2001F0E9
:1026300047FD3A2001F054FD22460821462001F0D2
:102640003FFD462001F04CFD02B010BD00380240B5
:102650002DE9F0438DB007AD002407940894099448
:102660000A940B940194404B1A6B42F010021A63C7
:102670001A6B02F010020192019A02941A6B42F056
:1026800080021A631A6B02F080020292029A03948B
:102690001A6B42F004021A631A6B02F004020392EE
:1026A000039A04941A6B42F001021A631A6B02F047
:1026B00001020492049A05941A6B42F002021A6312
:1026C0001A6B02F002020592059A06941A6B42F008
:1026D00008021A631B6B03F008030693069BDFF8DE
:1026E0009090224640F60441484602F030F9DFF867
:1026F000848001220621404602F029F91B4E224621
:1027000049F20441304602F022F901224FF400510F
:10271000304602F01CF922464FF47071404602F038
:1027200016F940F6044307930127089709940A9481
:102730002946484601F074FF40F2C63307930897D4
:1027400009940A942946404601F06AFF4BF204437B
:102750000793089709940A942946304601F060FFD0
:102760000DB0BDE8F08300BF00380240000C02400D
:10277000001002400008024008B50B480B4B0360F4
:102780000B4B436000238360C3604FF480420261BF
:1027900043618361C361036202F016FD00B908BDA5
:1027A000FFF78BFBFBE700BF88520020005400407E
:1027B000A086010008B50B480B4B03600B4B436030
:1027C00000238360C3604FF48042026143618361F0
:1027D000C361036202F0F8FC00B908BDFFF76DFBAE
:1027E000FBE700BF3452002000580040A0860100E3
:1027F00030B58BB000230593069307930893099394
:1028000003682F4A934204D02E4A934234D00BB02F
:1028100030BD002501952C4C236B43F0020323634C
:10282000236B03F002030193019BC0230593122342
:102830000693032308930423099305A9234801F071
:10284000EFFE0295236C43F400132364236C03F41E
:1028500000130293029B2A4605211F2001F030FC41
:102860001F2001F03DFC2A460521202001F028FC14
:10287000202001F035FCCAE700250395124C236B9C
:1028800043F002032363236B03F002030393039BD0
:102890004FF4406305931223069303230893042304
:1028A000099305A9094801F0BBFE0495236C43F484
:1028B00080032364236C03F480030493049BA6E742
:1028C000005400400058004000380240000402401C
:1028D00010B50368174A934203D0174A934216D0A3
:1028E00010BD02F5F232136C23F400131364134C81
:1028F0004021204601F08AFF8021204601F086FF1A
:102900001F2001F0F1FB202001F0EEFBE8E702F5CB
:10291000F032136C23F480031364084C4FF480618D
:10292000204601F073FF4FF40061204601F06EFF76
:10293000D6E700BF005400400058004000040240A9
:1029400008B50D480D4B03604FF4827343600023BC
:102950008360C360036143614FF400728261C361AD
:102960000362436283620A23C36205F055F800B92B
:1029700008BDFFF7A2FAFBE7DC520020003001405F
:1029800000B589B00023039304930593069307933E
:102990000268154B9A4202D009B05DF804FB002191
:1029A000019103F584335A6C42F480525A645A6C94
:1029B00002F480520192019A02911A6B42F00102D4
:1029C0001A631B6B03F001030293029BE023039342
:1029D00002230493032306930523079303A90348C3
:1029E00001F01EFED8E700BF0030014000000240A9
:1029F00008B50268064B9A4200D008BD054A536CE0
:102A000023F480535364E021034801F0FFFEF4E710
:102A10000030014000380240000002400268094BCB
:102A20009A4200D0704782B000230193064B5A6C43
:102A300042F001025A645B6C03F001030193019BB5
:102A400002B0704700000140003802400268224B8B
:102A50009A4200D0704710B582B00446002301931B
:102A60001E4A116C41F004011164126C02F0040260
:102A70000192019A1A481B4A02604FF0806242603C
:102A800040228260C3604FF4806202614FF40062B2
:102A900042614FF400528261C3614FF4003202621E
:102AA000436201F0A1FBA0B90D4BE3629C630022DD
:102AB00001211E2001F004FB1E2001F011FB002269
:102AC00001212F2001F0FCFA2F2001F009FB02B0B8
:102AD00010BDFFF7F2F9E7E70008004000380240B8
:102AE00034530020B860024000B589B0002303933E
:102AF000049305930693079303681C4A934205D0F9
:102B00001B4A93421AD009B05DF804FB00230193DD
:102B1000184B1A6B42F010021A631B6B03F0100380
:102B20000193019B4FF44073039302230493012309
:102B3000079303A9104801F073FDE4E70023029313
:102B40000C4B1A6B42F008021A631B6B03F008036C
:102B50000293029B4FF48043039302230493079351
:102B600003A9064801F05CFDCDE700BF000001406D
:102B7000000800400038024000100240000C0240F3
:102B800010B592B000241094119409940A940B94F7
:102B90000C940D940E940F942022214601A8FDF769
:102BA00057FB2248224B03603123436084604FF679
:102BB000FF73C36004614461846105F0EFFA00288B
:102BC00028D100231093119310A9184805F0E6FCB2
:102BD00018BB002209920A920B920C920D920E924F
:102BE0000F9209A9114805F069FBC8B900230193A8
:102BF00002930393049305934FF4005206920893B3
:102C000001A90A4805F010FD68B90848FFF76CFFF4
:102C100012B010BDFFF751F9D3E7FFF74EF9D8E72F
:102C2000FFF74BF9E2E7FFF748F9EEE7DC53002046
:102C30000000014000B58BB0002308930993019375
:102C40000293039304930593069307931748184A36
:102C50000260436083604A22C2600361836105F0C1
:102C6000C9FAC8B900230893099308A90F4805F0C9
:102C700095FCA0B96023019300230293039305936D
:102C8000082201A9094805F048FB58B90748FFF791
:102C90002BFF0BB05DF804FBFFF70FF9E2E7FFF73E
:102CA0000CF9E7E7FFF709F9F0E700BF94530020BC
:102CB0000008004008B50A480A4B03604FF4E133AE
:102CC000436000238360C36003610C22426183611F
:102CD000C36105F00CFE00B908BDFFF7EEF8FBE795
:102CE000FC570020004C004008B50A480A4B03601E
:102CF0004FF4E133436000238360C36003610C221F
:102D000042618361C36105F0F2FD00B908BDFFF7C0
:102D1000D4F8FBE7B45700200010014008B50A487A
:102D20000A4B03604FF4E133436000238360C360C8
:102D300003610C2242618361C36105F0D8FD00B9D3
:102D400008BDFFF7BAF8FBE76C57002000440040CD
:102D500008B50A480A4B03604FF4E133436000238F
:102D60008360C36003610C2242618361C36105F02B
:102D7000BEFD00B908BDFFF7A0F8FBE7245700200F
:102D80000048004030B58FB00446002309930A93F1
:102D90000B930C930D930368994A93420CD0994A74
:102DA000934269D0984A934200F0CA80974A93426E
:102DB00000F04C810FB030BD00250195944B1A6C8A
:102DC00042F400221A641A6C02F400220192019A61
:102DD00002951A6B42F004021A631B6B03F00403A2
:102DE0000293029B4FF44063099302230A93032347
:102DF0000C9308230D9309A9864801F011FC86481D
:102E0000864B03604FF0006343608560C5604FF4FC
:102E10008063036145618561C5610562456201F0BA
:102E2000E3F918BB7C4BE3639C637D487D4B0360F7
:102E30004FF000634360402383600023C3604FF47E
:102E40008062026143618361C3610362436201F096
:102E5000CBF970B9724BA3639C630022012134202B
:102E600001F02EF9342001F03BF9A3E7FFF725F834
:102E7000D8E7FFF722F8EDE700250395644B5A6C7D
:102E800042F010025A645A6C02F010020392039A44
:102E900004951A6B42F001021A631B6B03F00103E5
:102EA0000493049B4FF4C063099302230A93032302
:102EB0000C9307230D9309A95B4801F0B1FB5B4814
:102EC0005B4B03604FF00063436040238360C56049
:102ED0004FF48063036145618561C5614FF48033C0
:102EE0000362456201F080F920BB504BA3639C63F1
:102EF0005048514B03604FF00063436000238360F0
:102F0000C3604FF48062026143618361C3614FF427
:102F100080320262436201F067F970B9454BE363A6
:102F20009C6300220721252001F0CAF8252001F02A
:102F3000D7F83FE7FEF7C1FFD7E7FEF7BEFFEDE7A3
:102F400000250595324B1A6C42F400321A641A6C53
:102F500002F400320592059A06951A6B42F00102BE
:102F60001A631B6B03F001030693069B0C23099362
:102F700002230A9303230C9307230D9309A92A48DC
:102F800001F04EFB2D482E4B03604FF00063436071
:102F90008560C5604FF48063036145618561C561EB
:102FA0000562456201F020F918BB244BE3639C6382
:102FB0002448254B03604FF0006343604023836047
:102FC0000023C3604FF48062026143618361C36187
:102FD0000362436201F008F970B91A4BA3639C6362
:102FE00000220121262001F06BF8262001F078F85C
:102FF000E0E6FEF762FFD8E7FEF75FFFEDE700BF10
:10300000004C0040001001400044004000480040D7
:103010000038024000080240C456002040600240D0
:1030200064560020706002400000024004560020F8
:10303000B8640240A455002040640240445500207A
:1030400088600240E4540020A060024000250795FB
:103050002E4B1A6C42F480221A641A6C02F48022FD
:103060000792079A08951A6B42F008021A631B6BC5
:1030700003F008030893089B4FF44073099302235D
:103080000A9303230C9307230D9309A9204801F009
:10309000C7FA2048204B03604FF000634360402391
:1030A0008360C5604FF48063036145618561C561DC
:1030B0000562456201F098F810BB164BA3639C6350
:1030C0001648174B03604FF0006343600023836092
:1030D000C3604FF48062026143618361C361036234
:1030E000436201F081F870B90C4BE3639C630022EA
:1030F0000121272000F0E4FF272000F0F1FF59E62E
:10310000FEF7DBFED9E7FEF7D8FEEDE70038024018
:10311000000C0240845400205860024024540020D7
:103120002860024010B504460368304A934209D033
:103130002F4A93421BD02F4A93422DD02E4A9342BE
:103140003ED010BD02F5F632136C23F40023136455
:103150004FF44061294801F059FBE06B01F0AAF8F7
:10316000A06B01F0A7F8342000F0BEFFE9E702F5FC
:103170009432536C23F0100353644FF4C061204821
:1031800001F044FBA06B01F095F8E06B01F092F8C0
:10319000252000F0A9FFD4E702F5FA32136C23F4DE
:1031A000003313640C21164801F030FBE06B01F092
:1031B00081F8A06B01F07EF8262000F095FFC0E7B3
:1031C00002F5F832136C23F4802313644FF440713A
:1031D0000C4801F01BFBA06B01F06CF8E06B01F0F8
:1031E00069F8272000F080FFABE700BF004C0040EB
:1031F0000010014000440040004800400008024028
:1032000000000240000C024008B50B4B1A6842F463
:1032100000721A601A6842F480621A601A6842F4F6
:1032200080721A60032000F039FF0F20FFF70AF8C0
:10323000FEF7E6FF002008BD003C0240034A11688B
:10324000034B1B780B441360704700BF44580020A9
:103250000C000020014B1868704700BF4458002044
:1032600038B50446FFF7F6FF0546B4F1FF3F02D03C
:10327000044B1B781C44FFF7EDFF401BA042FAD320
:1032800038BD00BF0C0000204A4B5A6822F440327F
:103290005A605A6841680A435A600268536823F4C6
:1032A0008073536002685368016943EA01235360E5
:1032B0000268536823F04073536002685368816862
:1032C0000B4353600268936823F4006393600268C1
:1032D0009368C1680B439360826A374B9A4257D018
:1032E0000268936823F07063936002689368816A50
:1032F0000B4393600268936823F040539360026825
:103300009368C16A0B4393600268936823F00203D9
:10331000936002689368017E43EA4103936090F8EA
:103320002030002B3FD00268536843F400635360A1
:103330000268536823F46043536001684B68426A33
:10334000013A43EA42334B600268D36A23F47003C4
:10335000D3620168CB6AC269013A43EA0253CB6285
:103360000268936823F4007393600268936890F88E
:10337000301043EA412393600268936823F480632A
:10338000936002689368416943EA812393607047C0
:103390000268936823F0706393600268936823F077
:1033A00040539360B0E70268536823F400635360AE
:1033B000CAE700BF002301400100000F38B310B579
:1033C0000446036C43B1236C13F0100F0BD00120A3
:1033D000002384F83C3010BDFEF7F2FF0023636445
:1033E00084F83C30EFE7236C23F4885323F0020386
:1033F00043F0020323642046FFF746FF0020606489
:10340000236C23F0030343F001032364E0E701206E
:103410007047000082B00023019390F83C30012BEC
:1034200000F08980012380F83C3003689A6812F02C
:10343000010F13D19A6842F001029A60414B1B6858
:10344000414AA2FB03239B0C03EB4303019302E0DD
:10345000019B013B0193019B002BF9D1026893680A
:1034600013F0010F5CD0036C23F4E06323F001033D
:1034700043F480730364536813F4806F05D0036CC6
:1034800023F4405343F480530364036C13F4805FCC
:103490001BD0436C23F006034364002380F83C30C8
:1034A0006FF022031360294B5B6813F01F0F27D1C5
:1034B0000368274A934211D002F58072934207D0E5
:1034C000244A934214D0002033E000234364E4E70D
:1034D00002F50072526812F01F0FF1D19A6812F0D3
:1034E000405F2AD19A6842F080429A60002020E032
:1034F00002F58072526812F0100FEFD0002018E031
:103500000368134A934201D0002012E09A6812F037
:10351000405F14D19A6842F080429A60002008E02F
:10352000036C43F010030364436C43F001034364F2
:10353000002002B070470220FBE70020F9E70020DE
:10354000F7E700BF0800002083DE1B430023014093
:10355000002001400022014070B504460D4603687A
:103560009A6812F4806F03D09B6813F4807F19D19E
:10357000FFF770FE064623681A6812F0020F20D18A
:10358000B5F1FF3FF7D0B5B923681B6813F0020F00
:10359000F1D1236C43F004032364002384F83C300E
:1035A000032032E0036C43F020030364002380F81F
:1035B0003C30012029E0FFF74DFE801BA842DAD9FC
:1035C000E2E76FF012021A60236C43F40073236485
:1035D00023689A6812F0405F16D1207EB0B9DA6A8B
:1035E00012F4700F03D09B6813F4806F0DD1236C1D
:1035F00023F480732364236C13F4805F05D1236C60
:1036000043F00103236400E0002070BD0020FCE7CC
:103610000368D86C7047000030B482B00022019279
:1036200090F83C20012A00F0B6800346012280F881
:103630003C200A68092A40D90468E06892B202EB8B
:1036400042021E3A4FF0070C0CFA02F220EA020284
:10365000E2601C68E0680A8802EB42021E3A8D684C
:1036600005FA02F20243E2604A68062A3CD81C6866
:10367000606B02EB8202053A4FF01F0C0CFA02F26B
:1036800020EA020262631C68606B4A6802EB8202F5
:10369000053AB1F800C00CFA02F2024362631868FE
:1036A0003E4A904250D018683C4A904255D0002083
:1036B00083F83C0002B030BC70470468206992B2C5
:1036C00002EB42024FF0070C0CFA02F220EA02026F
:1036D00022611C6820690A8802EB42028D6805FAA3
:1036E00002F202432261BFE70C2A16D81D68286B3C
:1036F00002EB8202233A1F2404FA02F220EA0202B9
:103700002A631D68286B4A6802EB8202233A0C8800
:1037100004FA02F202432A63C1E71D68E86A02EB79
:103720008202413A1F2404FA02F220EA0202EA620B
:103730001D68E86A4A6802EB8202413A0C8804FA82
:1037400002F20243EA62AAE70A68122AABD11448DD
:10375000426842F480024260A5E70A68103A012AF2
:10376000A5D80F48426842F4000242600A68102A55
:103770009DD10C4A12680C49A1FB0212920C02EB7B
:1037800082025200019202E0019A013A0192019AEA
:10379000002AF9D18BE702208CE700BF002001400E
:1037A000002301400800002083DE1B43002800F0B6
:1037B000A18038B5044690F82030D3B12268136850
:1037C00043F001031360FFF745FD054623685A687F
:1037D00012F0010F10D1FFF73DFD401B0A28F5D96B
:1037E000636A43F400336362052384F820300120C8
:1037F00038BDFEF75BFEE1E71A6822F002021A60AC
:10380000FFF728FD054623685A6812F0020F0DD015
:10381000FFF720FD401B0A28F5D9636A43F4003303
:103820006362052384F820300120E1E7227E012A2B
:103830003DD01A6822F080021A60637E012B3BD0D3
:103840002268136823F040031360A37E012B39D054
:103850002268136823F020031360E37E012B37D026
:103860002268136843F010031360237F012B35D0C7
:103870002268136823F008031360637F012B33D0A1
:103880002268136823F004031360A368E2681343FB
:1038900022691343626913436268013A2168134342
:1038A000CB6100206062012384F82030A0E71A6811
:1038B00042F080021A60C0E72268136843F04003B8
:1038C0001360C2E72268136843F020031360C4E763
:1038D0002268136823F010031360C6E72268136898
:1038E00043F008031360C8E72268136843F0040339
:1038F0001360CAE70120704790F82030013BDBB22B
:10390000012B05D9436A43F48023436201207047A9
:1039100030B5464BD3F8002242F00102C3F8002232
:10392000D3F8002222F47C52C3F80022D3F80022FC
:10393000486A42EA0022C3F800224A6902F01F02E4
:10394000012000FA02F2D3F81C026FEA020C20EA0E
:103950000200C3F81C02CB69C3B9344BD3F80C0284
:103960000CEA0000C3F80C028C884869CD6844EA70
:103970000544483043F830408C68088840EA0440E9
:103980004C6904F1480E03EBCE035860CB69012B60
:103990001ED08B69002B33D12448D0F804320CEAB6
:1039A0000303C0F804320B698BBB2048D0F81432F3
:1039B0000CEA0303C0F814320B6A012B2ED01B4A09
:1039C000D2F8003223F00103C2F80032002030BDEB
:1039D000164BD3F80C021043C3F80C028C884869CC
:1039E0000D6844EA0544483043F8304088894C6902
:1039F0008D6840EA0540483403EBC4035860C8E7CB
:103A00000A48D0F804321343C0F80432CBE7074821
:103A1000D0F814321343C0F81432CDE70349D1F87B
:103A20001C321343C1F81C32C9E700BF00640040D8
:103A300070B5044690F82030012B06D0436A43F459
:103A4000002343620126304670BDDEB2022380F8B7
:103A500020300268136823F001031360FFF7FAFBBC
:103A6000054623685B6813F0010F0CD0FFF7F2FBEB
:103A7000431B0A2BF5D9636A43F4003363620523C1
:103A800084F82030DFE700266662DCE738B50446BC
:103A900090F82030022B05D0436A43F48013436230
:103AA000012038BD0268136843F001031360FFF77B
:103AB000D1FB054623685A6812F0010F0DD1FFF7BC
:103AC000C9FB431B0A2BF5D9636A43F400336362D5
:103AD000052384F820300120E3E71A6822F002026F
:103AE0001A60012384F820300020DAE780B110B595
:103AF0000446FFF7CBFF2046FEF726FD2268136839
:103B000043F4004313600020606284F8200010BD7D
:103B10000120704730B590F820C00468A4680CF10B
:103B2000FF3C5FFA8CFCBCF1010F62D814F0E05F3F
:103B300059D0C4F3016C012404FA0CF41C608B68A6
:103B4000002B3DD10D68CB68046843EA45550CF164
:103B500018031B01E55003680C690CF1180E03EB08
:103B60000E135C600B7D012B35D0D17993791B044A
:103B700043EA0163517943EA01231479016823433D
:103B800001EB0C11C1F88C31D17893781B0443EA16
:103B90000163517843EA0123117802680B4302EB79
:103BA0000C12C2F8883102680CF1180C4FEA0C1C98
:103BB00052F80C3043F0010342F80C3000201DE0B5
:103BC0004C6843EAC403CC6823430CF11804240175
:103BD00005682B51BFE7036803EB0E13596841F4E6
:103BE00080715960C1E7436A43F4001343620120C6
:103BF00004E0436A43F480234362012030BD90F81F
:103C000020C00CF1FF3C5FFA8CFCBCF1010F00F20C
:103C1000A58030B451B90468E46814F0030F10D1E2
:103C2000436A43F40013436201207EE00468246980
:103C300014F0030F05D1436A43F4001343620120DB
:103C400073E0056801F11B0424012C5904F00404FD
:103C50009460002C6BD1056801F11B0424012C59E0
:103C6000640D1460046801F11B0C4FEA0C1C54F83D
:103C70000C4004F00204D4600468A444DCF804504E
:103C800015F0080F5BD008241461046801F11B0CC7
:103C900004EB0C146468C4F307249461046804EB17
:103CA0000C146468240C5461026802EB0112D2F80F
:103CB000B8211A70026802EB0112D2F8B821C2F3DF
:103CC00007225A70026802EB0112D2F8B821C2F33F
:103CD00007429A70026802EB0112D2F8B821120E64
:103CE000DA70026802EB0112D2F8BC211A71026884
:103CF00002EB0112D2F8BC21C2F307225A7102680A
:103D000002EB0112D2F8BC21C2F307429A71026899
:103D100002EB0112D2F8BC21120EDA71C1B90268AD
:103D2000D36843F02003D360002030BC704705689F
:103D300001F11B0424012C59E408546092E701F1BD
:103D40001B0504EB0514646804F00F0414619CE780
:103D50000268136943F020031361E5E7436A43F403
:103D6000802343620120704790F82030013BDBB292
:103D7000012B05D9436A43F4802343620120704735
:103D8000026853690B4353610020704770477047C6
:103D9000704770477047704770477047704770476B
:103DA000704770472DE9F84F054603685C69D3F802
:103DB00004809F68D3F80CA0D3F81090D3F818B003
:103DC00014F001063BD017F0010616D001229A60CC
:103DD00017F0020F08D117F0040F0CD117F00806E6
:103DE00006D04FF4805608E0FFF7D0FF002604E02D
:103DF000FFF7CFFF01E04FF4006617F4807F0DD08E
:103E00002B684FF480729A6017F4007F40F0968020
:103E100017F4806F00F0968046F4005617F4803F48
:103E20000DD02B684FF480329A6017F4003F40F0B9
:103E3000938017F4802F00F0938046F4004614F02E
:103E4000080F07D01AF0100F04D046F400762B6844
:103E50001022DA6014F0040F03D01AF0080F40F0BB
:103E6000898014F0020F05D02B68DB6813F0030F74
:103E700040F0878014F0400F07D019F0100F04D0E5
:103E800046F480662B6810221A6114F0200F02D0CD
:103E900019F0080F79D114F0100F04D02B681B69AA
:103EA00013F0030F78D114F4003F02D018F0100F74
:103EB00076D114F4803F02D018F0080F77D114F4B3
:103EC000004F37D018F0040F31D014F4807F04D0A5
:103ED0001BF0010F01D046F0010614F4007F04D05E
:103EE0001BF0020F01D046F0020614F4806F04D0DC
:103EF0001BF0040F01D046F0040614F4006F16D036
:103F00001BF0700B13D0BBF1400F66D056D8BBF13D
:103F1000200F5CD0BBF1300F5CD0BBF1100F01D192
:103F200046F008062A68936923F0700393612B68B2
:103F300004225A60002E56D1BDE8F88F2846FFF7BC
:103F400026FF6BE717F4006F02D046F4804665E762
:103F50002846FFF71FFF61E72846FFF719FF6EE7C6
:103F600017F4002F02D046F4803668E72846FFF7A2
:103F700012FF64E72B680822DA602846FFF70CFF7F
:103F80006FE72846FCF7B2FA74E72B6808221A613B
:103F90002846FFF703FF7EE72846FFF7FEFE82E78D
:103FA0002B6810225A602846FFF7F9FE81E72B683C
:103FB00008225A602846FFF7F3FE80E7BBF1500F56
:103FC0000ED0BBF1600FADD146F48076AAE746F083
:103FD0001006A7E746F02006A4E746F04006A1E752
:103FE00046F080069EE76B6A33436B622846FFF714
:103FF000D8FEA1E7002807DB00F01F0240090123DB
:104000009340024A42F82030704700BF00E100E0D0
:1040100000280CDB00F01F024009012393402030F0
:10402000034A42F82030BFF34F8FBFF36F8F7047C2
:1040300000E100E0002808DB0901C9B200F160409E
:1040400000F5614080F80013704700F00F0009018F
:10405000C9B2014B1954704714ED00E000B500F0EF
:104060000700C0F1070CBCF1040F28BF4FF0040C8F
:10407000031D062B0FD9C31E4FF0FF3E0EFA0CF0A6
:1040800021EA000199400EFA03FE22EA0E0241EAFB
:1040900002005DF804FB0023EEE70000074AD36846
:1040A00023F4E0631B041B0C000200F4E0600343F4
:1040B00043F0BF6343F40033D360704700ED00E08A
:1040C00010B50446054BD868C0F30220FFF7C6FFC1
:1040D00001462046FFF7AEFF10BD00BF00ED00E037
:1040E00008B5FFF787FF08BD08B5FFF791FF08BDCA
:1040F00030B405682C6824F480242C600468636064
:104100008368402B05D0036899600368DA6030BC8F
:10411000704703689A600368D960F8E710B40368D1
:10412000D9B210390A4AA2FB01421209094CA25C19
:10413000C2655F2907D96FF3090304338365806D76
:104140005DF8044B70476FF309038365F7E700BF21
:10415000ABAAAAAAEC070108836A826992B9012B6B
:104160000AD0022B02D00BB100207047C36A13F0B3
:10417000807F28D100207047C36AB3F1C07F24D06C
:1041800000207047B2F5005F09D0022B25D9032B20
:1041900025D1C36A13F0807F23D100207047032B01
:1041A00003D8DFE803F01404140A00207047C36A40
:1041B00013F0807F0DD100207047C36AB3F1C07F38
:1041C00009D000207047012070470120704701206E
:1041D0007047012070470120704701207047002080
:1041E000704701207047000070B50446FFF732F8B1
:1041F000002C5BD00546022384F83530002384F878
:1042000034302268136823F00103136023681A68AE
:1042100012F0010F0AD0FFF71DF8431B052BF5D94B
:1042200020236365032084F8350070BD1A68204997
:1042300011406268A0680243E068024320690243BB
:1042400060690243A0690243E0690243206A0243B5
:104250000A43616A04291ED01A602668756925F030
:104260000705636A1D43042B07D1A36A1D43E36A54
:104270001BB12046FFF770FF90B975612046FFF72C
:104280004DFFE26D3F239340836000206065012372
:1042900084F83530C9E7E16A206B01430A43DBE764
:1042A00040236365012084F83500BEE70120BCE7A8
:1042B0003F8010F000282DD038B5044690F83530F6
:1042C000D8B2022B25D02268136823F001031360B3
:1042D000236800251D6023685D6023689D60236856
:1042E000DD6023681D61236821225A612046FFF7A3
:1042F00015FFE56325646564A564E5642565E26DE5
:104300003F2393408360656584F8355084F83450CA
:10431000284638BD0120704738B50446856D90F8B1
:10432000340001282AD0012084F8340094F83500A4
:10433000012804D0002384F83430022038BD022044
:1043400084F83500002060652046FFF7D1FEE26D5D
:104350003F239340AB602268136843F01603136059
:10436000236C23B12268136843F0080313602268AA
:10437000136843F0010313600020DFE70220DDE74C
:1043800070B50446866DFEF765FF94F83530022B54
:1043900006D080236365002384F83430012070BD8B
:1043A00005462268136823F01603136022685369D8
:1043B00023F080035361236CE3B12268136823F078
:1043C000080313602268136823F001031360236855
:1043D0001B6813F0010F11D0FEF73CFF431B052BA8
:1043E000F5D920236365032084F83500002384F881
:1043F0003430D4E7A36C002BDFD1E3E7E26D3F2339
:104400009340B360012384F83530002084F83400F1
:10441000C5E790F83530022B03D080234365012097
:104420007047052380F835300268136823F00103D4
:104430001360002070470000F0B583B004460023ED
:104440000193724B1D68724BA3FB0535AD0A876D56
:104450003E68C26D08239340334210D003681A6847
:1044600012F0040F0BD01A6822F004021A60C26D19
:1044700008239340BB60436D43F001034365E26D45
:1044800001239340334209D02268526912F0800F11
:1044900004D0BB60636D43F002036365E26D0423E7
:1044A0009340334209D02268126812F0020F04D000
:1044B000BB60636D43F004036365E26D10239340BA
:1044C000334224D02268126812F0080F1FD0BB605C
:1044D00023681A6812F4802F0DD01B6813F4002F84
:1044E00004D1236C9BB12046984710E0A36C73B1B4
:1044F000204698470BE01A6812F4807F03D11A68AF
:1045000022F008021A60236C0BB120469847E26D36
:1045100020239340334254D02268126812F0100FC7
:104520004FD0BB6094F83530052B0ED023681A6845
:1045300012F4802F33D01B6813F4002F2AD1636C40
:10454000002B3ED0204698473BE02268136823F0BA
:10455000160313602268536923F080035361236CB0
:10456000A3B12268136823F008031360E26D3F23B0
:104570009340BB60012384F83530002384F8343045
:10458000236D002B3FD0204698473CE0A36C002BC6
:10459000E7D1EBE7E36BA3B12046984711E01A6837
:1045A00012F4807F09D11A6822F010021A600123E8
:1045B00084F83530002384F83430E36B0BB12046A7
:1045C0009847636DFBB1636D13F0010F17D005239E
:1045D00084F835302268136823F001031360019BCF
:1045E00001330193AB4204D823681B6813F0010F19
:1045F000F5D1012384F83530002384F83430E36C9E
:104600000BB12046984703B0F0BD00BF0800002062
:10461000B5814E1B90F835007047406D7047000023
:1046200000230F2B00F2E98070B582B065E0856849
:104630004FEA430E032404FA0EF425EA0405CC687D
:1046400004FA0EF42C438460446824EA02044A68A5
:10465000C2F300129A40224342605CE0DC08083456
:1046600050F8242003F00705AD004FF00F0E0EFAAE
:1046700005FE22EA0E0E0A69AA4042EA0E0240F83E
:1046800024205CE0072200E0002202FA0EF22A4316
:1046900002345A4D45F82420594A94686FEA0C02B6
:1046A00024EA0C054E6816F4801F01D04CEA04057C
:1046B000534CA560E46802EA04054E6816F4001F36
:1046C00001D04CEA04054E4CE560646802EA04053A
:1046D0004E6816F4003F01D04CEA0405484C656072
:1046E000246822404D6815F4803F01D04CEA040252
:1046F000434C226001330F2B7DD801229A400C6875
:1047000004EA020C32EA0404F4D14C6804F0030415
:10471000013C012C8BD94A6802F00302032A09D01C
:10472000C4685D000322AA4024EA02048A68AA4001
:104730002243C2604A6802F00302022A8ED0046853
:104740004FEA430E032202FA0EF224EA02044A68F8
:1047500002F0030202FA0EF2224302604A6812F4E7
:10476000403FC7D000220192264A546C44F4804452
:104770005464526C02F480420192019A9C08A51C78
:104780001E4A52F8255003F0030E4FEA8E0E0F22F8
:1047900002FA0EF225EA02051B4A90423FF474AF7A
:1047A00002F5806290421AD002F58062904218D0E1
:1047B00002F58062904216D002F58062904214D0D9
:1047C00002F58062904212D002F58062904210D0D1
:1047D00002F5806290423FF455AF082255E701226E
:1047E00053E7022251E703224FE704224DE7052257
:1047F0004BE7062249E702B070BD70470038014020
:10480000003C0140003802400000024000230F2B12
:1048100000F28F80F0B52DE0072500E0002505FAB5
:104820000CF5A54269D004685D004FF0030C0CFA4A
:1048300005FC24EA0C0404604FEAD30E0EF1080EC6
:1048400050F82E4003F00706B6000F25B54024EAC5
:10485000050440F82E40C46824EA0C04C46044688F
:1048600024EA02024260826822EA0C02826001337A
:104870000F2B5DD801229A4002EA010632EA0104B8
:10488000F5D14FEA930E0EF102052A4C54F825405B
:1048900003F0030C4FEA8C0C0F2505FA0CF73C4093
:1048A000254DA842BAD005F58065A84219D005F576
:1048B0008065A84217D005F58065A84215D005F59A
:1048C0008065A84213D005F58065A84211D005F592
:1048D0008065A8420FD005F58065A8429CD00825C8
:1048E0009DE701259BE7022599E7032597E7042526
:1048F00095E7052593E7062591E7104C256825EAFD
:1049000006052560656825EA06056560E56825EA0F
:104910000605E560A56825EA0605A560054E0EF1C9
:10492000020456F8245025EA070546F824507AE791
:10493000F0BD70470038014000000240003C0140DB
:104940000369194201D001207047002070470AB165
:104950008161704709048161704703685A6912F0E8
:10496000800F01D000221A61704790F83E30402B32
:1049700010D00369B3F5804F1BD0036D002B38D1E5
:10498000436CC3F3C813026803F0060343F0F0035B
:1049900013617047036D2BB9436C026803F0FE038B
:1049A00013617047436C026843F00103DBB213618B
:1049B000704790F83D30212B0FD0436C026843F0D4
:1049C0000103DBB21361436B6BB1DB6B5BB102685C
:1049D000536843F4006353607047436C026803F00C
:1049E000FE031361EFE7836B33B1DB6B002BEED17A
:1049F00002E0036D012B00D07047436CC3F3C81372
:104A0000026803F0060343F0F1031361F4E7436C1B
:104A10000268DBB21361436B3BB1DB6B2BB1026805
:104A2000536843F4006353607047836B002BFBD0E3
:104A3000DB6B002BF3D1F7E710B48BB090F83E306E
:104A4000C16A046B90F83D20222A0BD00023099301
:104A500003685A6909929B690993099B0BB05DF839
:104A6000044B7047DBB2026D0AB9402B17D0036DBF
:104A70001BB90369B3F5404F1AD0438D9BB2002B8D
:104A800026D1029303685A6902929A690292029AA5
:104A90001A6842F400721A6000230365DEE70023FF
:104AA000009303685A6900929B690093009BD5E7C5
:104AB0000023019303685A6901929A690192019A4D
:104AC0001A6842F480721A60036D01330365C5E70A
:104AD000438D9BB2012B26D0438D9BB2022B7CD001
:104AE0000268136843F48063136003685A6812F421
:104AF000006F0FD0202900F2AE800829C0F0A780F7
:104B00000839574ACA4012F0010F03D05A6842F4DC
:104B100080525A600023089303685A6908929B697F
:104B20000893089BB8E711F5803F11D0082934D0CD
:104B3000202932D0122C2ED0042940D002293ED078
:104B400010293CD00268136823F4806313603BE0B3
:104B50000268136823F48063136003685A6812F4D0
:104B6000006F0CD01A6822F480621A60002303934D
:104B700003685A6903929B690393039B8CE70022A5
:104B800004925A6904929A690492049A1A6842F447
:104B900000721A6080E70129D0D00268136823F4FC
:104BA000806313600023069303685A6906929A692A
:104BB0000692069A1A6842F400721A606CE702685C
:104BC000136843F4806313600023059303685A69F4
:104BD00005929B690593059B5EE710290AD8214B36
:104BE000CB4013F0010F05D00268136843F48063D3
:104BF000136009E00268136823F48063136002689D
:104C0000136843F40063136003685A6812F4006F7A
:104C10000DD0202917D8082912D30839104ACA40C4
:104C200012F0010F03D05A6842F480525A600023F8
:104C3000079303685A6907929B690793079B2BE7C1
:104C40000129F4D1EFE711F5803FF0D1EBE701291D
:104C50007FF460AF5AE711F5803F7FF45BAF55E713
:104C60000101000114000100438D9BB25BB1426A57
:104C7000036812781A61436A01334362438D9BB221
:104C8000013B9BB243857047438D9BB25BB1036888
:104C90001A69436A1A70436A01334362438D9BB2B7
:104CA000013B9BB24385704782B0002301930E4BBA
:104CB0001B68DB080D4AA2FB03231B0A03EB8303DB
:104CC0000193019B013B0193019B33B103681B6876
:104CD00013F4007FF5D1002004E0036C43F02003BF
:104CE0000364012002B070470800002089B5F81461
:104CF00003685A6912F4806F01D1002070476FF485
:104D000080625A6100230363202280F83D2080F8EE
:104D10003E30026C42F00402026480F83C30012014
:104D20007047C36AB3F52A0F04D0C36AB3F12A4FA0
:104D300003D070470123C36270470823C362F8E7BA
:104D40002DE9F04106460C46174698463BE0FEF733
:104D500081FA069BC01A404502D8B8F1000F32D143
:104D6000012D18D033689B6924EA03039BB2B3FA80
:104D700083F35B099F4226D100233363202286F808
:104D80003D2086F83E30326C42F02002326486F8D4
:104D90003C30012027E033685B6924EA03039BB2BF
:104DA000B3FA83F35B09E5E733685B6924EA030C34
:104DB0001FFA8CFCBCFA8CFC4FEA5C1C674511D1D5
:104DC000B8F1FF3FC3D1C4F30745012DECD03368E0
:104DD0009B6924EA030C1FFA8CFCBCFA8CFC4FEA9A
:104DE0005C1CEBE70020BDE8F0812DE9F8430546A7
:104DF0000E469046994653E01A6842F400721A60D3
:104E00002B686FF480625A6100232B63202285F89F
:104E10003D2085F83E302A6C42F004022A6485F871
:104E20003C3001204AE0FEF715FAA0EB09004045AE
:104E300002D8B8F1000F33D1012F17D02B689B692E
:104E400026EA03039BB2003B18BF012343B30023B0
:104E50002B63202285F83D2085F83E302A6C42F0F5
:104E600020022A6485F83C30012027E02B685B692A
:104E700026EA03039BB2003B18BF0123E6E72B6839
:104E80009C6926EA0404A4B2003C18BF0124A4B122
:104E90002B685A6912F4806FAED1B8F1FF3FC2D1CE
:104EA000C6F30747012FEAD12B685C6926EA0404A0
:104EB000A4B2003C18BF0124E9E70020BDE8F88354
:104EC000F0B583B004460D4616461F46C36A082B4C
:104ED0000DD0012B0BD013F5803F08D0036B122BA4
:104EE0000AD10268136843F48073136004E02268F7
:104EF000136843F4807313600097334600224FF029
:104F000001112046FFF71CFF80B92369B3F5804FDC
:104F100016D1236805F0FE051D613B463246134954
:104F20002046FFF762FFF8B903B0F0BD23681B68A5
:104F300013F4807F02D04FF4007323640320F3E75F
:104F4000EB11226803F0060343F0F00313613B46C4
:104F5000324607492046FFF748FF18B92368EDB2EB
:104F60001D61DAE70120DFE70120DDE70200010033
:104F7000080001002DE9F04184B004460D461646B4
:104F80001F46C26A01680B6843F480630B60082AFD
:104F90000DD0012A0BD012F5803F08D0036B112BE6
:104FA0000AD10268136843F48073136004E0226836
:104FB000136843F4807313600097334600224FF068
:104FC00001112046FFF7BCFE98B92369B3F5804F65
:104FD00019D1236845F00105EDB21D613B4632460B
:104FE0002A492046FFF701FF00284CD104B0BDE854
:104FF000F08123681B6813F4807F02D04FF40073A4
:1050000023640320F2E74FEAE51808F00608236856
:1050100048F0F0021A613B4632461D492046FFF730
:10502000E4FE08B10120E1E72368EDB21D613B46D3
:10503000324616492046FFF7D8FE08B10120D5E7D1
:105040000022039223685969039199690391039996
:10505000196841F480711960009733464FF00111CF
:105060002046FFF76DFE20B9226848F0F103136176
:10507000B4E723681B6813F4807F02D04FF40073F9
:1050800023640320B2E70120B0E700BF0200010063
:105090000800010070B504460D46164623685B699A
:1050A00013F0800F21D12046FFF722FEF8B9B5F1A9
:1050B000FF3FF3D0FEF7CEF8801BA84201D8002DA9
:1050C000ECD123685B6913F0800FE7D100232363E1
:1050D000202284F83D2084F83E30226C42F02002E9
:1050E000226484F83C30012000E0002070BD0120E3
:1050F000FCE770B504460D46164623685B6913F05D
:10510000040F21D12046FFF7F3FDF8B9B5F1FF3FB9
:10511000F3D0FEF79FF8801BA84201D8002DECD1F8
:1051200023685B6913F0040FE7D100232363202277
:1051300084F83D2084F83E30226C42F02002226444
:1051400084F83C30012000E0002070BD0120FCE725
:1051500070B504460D46164614E06FF010025A6111
:1051600000232363202284F83D2084F83E30226C03
:10517000226484F83C30012025E023685B6913F049
:10518000400F10D02368586910F0400F1AD15869A9
:1051900010F0100FE1D1FEF75DF8801BA842ECD8AB
:1051A000002DEFD1E9E700232363202284F83D207E
:1051B00084F83E30226C42F02002226484F83C30B5
:1051C000012000E0002070BD002800F0CC8070B508
:1051D000044690F83D30002B77D0242384F83D30EE
:1051E0002268136823F0010313602268136843F4F4
:1051F000004313602268136823F40043136002F035
:1052000029FB62685A4B9A4264D85A4B98428CBF29
:1052100000230123002B40F0A8805749A1FB003157
:105220008B0C25686A6822F03F0242EA91426A606C
:1052300021680A6A22F03F0266684D4DAE424FD89F
:10524000013313430B622168CA6922F44F4222F0F2
:10525000FF026568464B9D424CD8431E6D00B3FB70
:10526000F5F3013340F6FC70034278D0C3F30B032F
:105270001A43CA6121680B6823F0C003E269206AFF
:10528000024313430B6021688B6823F4034323F02C
:10529000FF032269E068024313438B602168CB68F7
:1052A00023F0FF036269A06902431343CB602268C5
:1052B000136843F00103136000202064202384F866
:1052C0003D30206384F83E0070BD80F83C30FDF72F
:1052D0008FFA82E7294B98428CBF0023012399E77C
:1052E0004FF4967505FB03F3254DA5FB03539B096E
:1052F0000133A6E7A668BEB9431E05EB450CB3FB18
:10530000FCF30133C3F30B03B3FA83F35B0943BB31
:10531000C6B9431E05EB4505B3FBF5F30133C3F3F3
:105320000B0343F40043A3E7431E05EB850C0CEB92
:105330008C0CB3FBFCF30133C3F30B03B3FA83F31D
:105340005B09E4E7431E05EB850505EB8505B3FB2B
:10535000F5F30133C3F30B0343F4404388E704231D
:1053600086E7012384E7012070470120ACE700BFF6
:10537000A08601007F841E0083DE1B43FF083D00E2
:10538000D34D6210A8B110B50446242380F83D30F7
:105390000268136823F001031360FDF799FA0020F7
:1053A000206484F83D00206384F83E0084F83C00CB
:1053B00010BD0120704700002DE9F04385B0044680
:1053C0000F46904699460C9EFDF744FF94F83D1019
:1053D000202904D00227384605B0BDE8F0830546F1
:1053E0000090192301224F492046FFF7A9FC00280D
:1053F00040F0928094F83C30012B00F08F80012324
:1054000084F83C3023681A6812F0010F03D11A683F
:1054100042F001021A602268136823F400631360EB
:10542000212384F83D30102384F83E300023236488
:10543000C4F82480A4F82A90638D23853A4BE36254
:105440002B46324639462046FFF73AFD07460028EC
:1054500066D10023039323685A6903929B690393DF
:10546000039B11E0236C042B01D00127B3E72268D2
:10547000136843F400731360F7E72A463146204669
:10548000FFF737FE00282ED1238D002B36D02A4679
:1054900031462046FFF7FEFD0028E3D1626A23680B
:1054A00012781A61606A431C6362618D89B20139A6
:1054B00089B26185238D013B9BB2238522685169A6
:1054C00011F0040FD9D0002BD7D043781361636A51
:1054D00001336362638D9BB2013B9BB26385238D75
:1054E000013B2385C9E7236C042B01D0012772E718
:1054F0002268136843F400731360F7E722681368A7
:1055000043F400731360202384F83D30002384F8B3
:105510003E3084F83C305EE702275CE702275AE71A
:10552000012758E7020010000000FFFF2DE9F043BB
:1055300087B004460F46904699460E9EFDF78AFEB8
:1055400094F83D10202904D00227384607B0BDE862
:10555000F08305460090192301228A492046FFF76F
:10556000EFFB002840F0508194F83C30012B00F014
:105570004D81012384F83C3023681A6812F0010F32
:1055800003D11A6842F001021A602268136823F4FA
:1055900000631360222384F83D30102384F83E30EA
:1055A00000232364C4F82480A4F82A90638D238503
:1055B000754BE3622B46324639462046FFF7DAFC4C
:1055C0000746002840F02481238D5BB902932368AD
:1055D0005A6902929A690292029A1A6842F4007217
:1055E0001A607AE0012B0FD0022B1FD022681368BB
:1055F00043F4806313600023059323685A6905927E
:105600009B690593059B68E02268136823F4806317
:1056100013600023039323685A6903929A690392E3
:10562000039A1A6842F400721A6056E022681368FE
:1056300023F4806313602268136843F400631360EB
:105640000023049323685A6904929B690493049B82
:1056500043E02A4631462046FFF77AFD002840F015
:10566000D98023681A69636A1A70636A01336362B6
:10567000238D013B2385638D9BB2013B9BB26385E8
:105680002BE000953346002240492046FFF758FBA7
:10569000002840F0C1802268136843F4007313604F
:1056A00023681A69636A1A70626A531C6362238DE5
:1056B000013B2385638D9BB2013B9BB263852368CD
:1056C0001B695370636A01336362238D013B238539
:1056D000638D9BB2013B9BB26385218D002900F055
:1056E0008A80032954D80129B3D00229C9D0009552
:1056F0003346002225492046FFF722FB002840F0D0
:105700008D802268136823F48063136023681A690C
:10571000636A1A70636A01336362238D013B2385D8
:10572000618D89B2013989B26185009533460022C5
:1057300016492046FFF704FB002871D12268136840
:1057400043F40073136023681A69636A1A70626A0B
:10575000531C6362238D013B2385638D9BB2013B08
:105760009BB2638523681B695370636A013363626C
:10577000238D013B2385638D9BB2013B9BB26385E7
:10578000ABE700BF020010000000FFFF04000100B3
:105790002A4631462046FFF7DBFC002842D1236829
:1057A0001A69636A1A70636A01336362228D013A6F
:1057B00092B22285638D9BB2013B9BB263852368C5
:1057C000596911F0040F88D0032A0FD023681A6991
:1057D000636A1A70636A01336362238D013B238518
:1057E000638D9BB2013B9BB2638576E71A6822F416
:1057F00080621A60EAE7202384F83D30002384F8B1
:105800003E3084F83C30A0E602279EE602279CE664
:1058100001279AE6012798E6012796E6012794E6F4
:10582000012792E6012790E690F83DC00CF0280C85
:10583000BCF1280F38D1002938D0002A38D030B434
:1058400082B090F83C40012C34D0012480F83C40D8
:105850000468256815F0010F03D1256845F001059E
:10586000256005682C6824F400642C60292480F8E5
:105870003D40202480F83E4000240464416242857B
:10588000428D0285C362019403685A6901929A6944
:105890000192019A80F83C405A6842F4E0625A60F2
:1058A000204602B030BC704702207047012070478C
:1058B000012070470220F4E790F83DC00CF0280C5E
:1058C000BCF1280F38D1002938D0002A38D030B4A4
:1058D00082B090F83C40012C34D0012480F83C4048
:1058E0000468256815F0010F03D1256845F001050E
:1058F000256005682C6824F400642C602A2480F854
:105900003D40202480F83E400024046441624285EA
:10591000428D0285C362019403685A6901929A69B3
:105920000192019A80F83C405A6842F4E0625A6061
:10593000204602B030BC70470220704701207047FB
:10594000012070470220F4E790F83D30202B01D071
:1059500002207047282380F83D3003681A6812F04F
:10596000010F03D11A6842F001021A60026813683D
:1059700043F4806313600268536843F440735360D8
:105980000020704770477047704708B590F83D3069
:10599000DAB2438D9BB283B1416A03680978196119
:1059A000436A01334362438D9BB2013B9BB2438503
:1059B000438D9BB20BB9292A00D008BD02685368F9
:1059C00023F48063536021230363282380F83D3050
:1059D000FFF7DAFFF1E708B590F83D30DAB2438D12
:1059E0009BB283B103681969436A1970436A013332
:1059F0004362438D9BB2013B9BB24385438D9BB277
:105A00000BB92A2A00D008BD0268536823F48063CA
:105A1000536022230363282380F83D30FBF74EF8C0
:105A2000F1E700B583B090F83D3003F02803282B50
:105A30000CD000230193026851690191926901928F
:105A4000019A80F83C3003B05DF804FB02685368AB
:105A500023F48063536011F0040F0BD0002311F086
:105A6000800F09D18289002180F83C101946FAF78D
:105A7000F9FFE8E70123F2E7028BF4E710B50446EB
:105A800090F83D30DBB2C26A082A01D0202A01D149
:105A9000282B06D0212B1FD023686FF480625A6117
:105AA00010BD1D4BE3622268536823F4E06353602A
:105AB00023686FF480625A612268136823F480635C
:105AC000136000232363202284F83D2084F83E30B5
:105AD0002046FBF719F8E3E70F4BE362212323632A
