:020000040800F2
:10000000B81E002029030008A7590008514A00081B
:10001000A559000839070008818900080000000080
:10002000000000000000000000000000690200085D
:100030000319000800000000C5020008C1630008A1
:100040004303000843030008430300084303000878
:100050004303000843030008430300084303000868
:100060004303000843030008430300084303000858
:10007000C5170008D1170008DD170008E9170008A8
:10008000F517000801180008430300085507000889
:100090003D07000849070008430300084303000820
:1000A0004303000843030008430300084303000818
:1000B00081640008430300088D64000843030008BE
:1000C00043030008430300084303000843030008F8
:1000D00043030008D1690008DD690008E9690008E8
:1000E00043030008430300084303000843030008D8
:1000F0004303000843030008430300080D180008E9
:1001000043030008430300084303000843030008B7
:100110002D67000843030008430300084303000859
:100120004303000843030008430300084303000897
:100130004303000843030008430300084303000887
:10014000430300084303000843030008A9590008BB
:100150004303000843030008430300084303000867
:100160004303000843030008430300084303000857
:100170004303000843030008430300080000000095
:10018000430300084303000800F002F800F05CF8A5
:100190000AA090E8000C82448344AAF10107DA45E2
:1001A00001D100F051F8AFF2090EBAE80F0013F0D8
:1001B000010F18BFFB1A43F001031847648C0000BD
:1001C000848C00000A444FF0000C10F8013B13F03F
:1001D000070408BF10F8014B1D1108BF10F8015BA0
:1001E000641E05D010F8016B641E01F8016BF9D193
:1001F00013F0080F1EBF10F8014BAD1C0C1B09D1EA
:100200006D1E58BF01F801CBFAD505E014F8016B5B
:1002100001F8016B6D1EF9D59142D6D370470000ED
:100220000023002400250026103A28BF78C1FBD8FF
:10023000520728BF30C148BF0B6070471FB508F098
:10024000D7FD1FBD10B510BD00F0A6F91146FFF790
:10025000F5FF08F039FC00F0C4F903B4FFF7F2FF32
:1002600003BC00F0C9F900002C4B19680868B0E81D
:10027000F04F80F30988BFF36F8F4FF0000080F3D9
:10028000118870470000000008480068006880F38B
:1002900008884FF0000080F3148862B661B6BFF39F
:1002A0004F8FBFF36F8F00DF00BF00BF08ED00E08E
:1002B000DFF80C00016841F470010160704700BF75
:1002C00088ED00E0EFF30980BFF36F8F134B1A68DE
:1002D0001EF0100F08BF20ED108A20E9F04F1060CB
:1002E00009B44FF0100080F31188BFF34F8FBFF3B4
:1002F0006F8F08F0BDFC4FF0000080F3118809BC3F
:1003000019680868B0E8F04F1EF0100F08BFB0EC95
:10031000108A80F30988BFF36F8F7047A800002010
:10032000EFF30580704700000948804709480047FF
:10033000FEE7FEE7FEE7FEE7FEE7FEE7FEE7FEE795
:10034000FEE7FEE704480549054A064B70470000F2
:100350007164000889010008B8180020B81E002048
:10036000B81A0020B81A002053EA020C00F0698085
:100370002DE9F04B4FF00006002B1FBFB3FA83F5B9
:1003800003FA05F424FA05F65E4012BF1643B2FAEA
:1003900082F502FA05F4C5F120051EBF22FA05FC1C
:1003A00044EA0C04203556EA044C4FEA144418BFC2
:1003B000641C4FF000084FF00009904271EB030CF1
:1003C00039D3002919BFB1FA81F701FA07F6B0FA5B
:1003D00080F700FA07F6C7F120071EBF20FA07FCD6
:1003E00046EA0C062037B6FBF4FCA7EB0507103FE6
:1003F00007F01F0BCBF120060CFA0BFB2CFA06F6CC
:1004000044BFB3460026202FA4BF5E464FF0000B2A
:100410005BEA060C08BF4FF0010B19EB0B09ABFBB5
:10042000027C48EB0608C01B06FB02CC0BFB03CC8E
:1004300071EB0C01C1E70B46024641464846BDE858
:10044000F08B13B54FF000004FF00001AFF30080C8
:10045000BDE81C407047032A40F2308010F0030CC6
:1004600000F0158011F8013BBCF1020F624498BF07
:1004700011F801CB00F8013B38BF11F8013BA2F1A4
:10048000040298BF00F801CB38BF00F8013B11F01F
:10049000030300F04F80083AC0F0088051F8043B95
:1004A000083A51F804CBA0E80810F5E7121D5CBF2C
:1004B00051F8043B40F8043BAFF30080D20724BF5F
:1004C00011F8013B11F801CB48BF11F8012B24BFF3
:1004D00000F8013B00F801CB48BF00F8012B704742
:1004E0004FF0000200B5134694469646203922BFCD
:1004F000A0E80C50A0E80C50B1F12001BFF4F7AF18
:10050000090728BFA0E80C5048BF0CC05DF804EBF9
:10051000890028BF40F8042B08BF704748BF20F867
:10052000022B11F0804F18BF00F8012B7047704765
:100530007047704710B5203AC0F00B80B1E81850F2
:10054000203AA0E81850B1E81850A0E81850BFF4BD
:10055000F5AF5FEA027C24BFB1E81850A0E818505C
:1005600044BF18C918C0BDE810405FEA827C24BFB0
:1005700051F8043B40F8043B08BF7047D20728BF3E
:1005800031F8023B48BF11F8012B28BF20F8023B8D
:1005900048BF00F8012B7047754600F029F8AE46B9
:1005A00005006946534620F00700854618B020B57F
:1005B000FFF7C8FEBDE820404FF000064FF00007EF
:1005C0004FF000084FF0000B21F00701AC46ACE8FB
:1005D000C009ACE8C009ACE8C009ACE8C0098D4668
:1005E00070470446AFF300802046FFF736FE000058
:1005F000004870475818002001491820ABBEFEE79C
:1006000026000200704700004A494A6822F440323E
:100610004A604A6843681A434A6001684A6822F49B
:1006200080724A6001684A68036942EA03224A60AC
:1006300001684A6822F040724A6001684A6883682B
:100640001A434A6001688A6822F400628A6001687D
:100650008A68C3681A438A60816A6FF07062D14207
:1006600014D001688A6822F070628A6001688A6822
:10067000836A1A438A6001688A6822F040528A605D
:1006800001688A68C36A1A438A6009E001688A6857
:1006900022F070628A6001688A6822F040528A60A3
:1006A00001688A6822F002028A6001688A68037E13
:1006B00042EA43028A6090F8201089B101684A68D2
:1006C00042F400624A6001684A6822F460424A606B
:1006D00001684A68436A5B1E42EA43324A6004E0AA
:1006E00001684A6822F400624A600168CA6A22F41A
:1006F0007002CA620168CA6A838B5B1E42EA0352B7
:10070000CA6201688A6822F400728A6001688A6895
:1007100090F8303042EA43228A6001688A6822F405
:1007200080628A6001688A68406942EA8020886045
:100730007047000000230140FEE70000014801F07F
:1007400034BA0000F8030020014801F02EBA00007E
:10075000F8030020014801F028BA0000F803002047
:10076000002070470020704710B507F093F8002074
:1007700010BD00002DE9F0410478214886B088467C
:100780005CB1012C0AD0022C34D0002488F800403F
:1007900006B04FF00110BDE8F0810124012606707B
:1007A00014216846FFF79CFE164941F2024008609A
:1007B00040F2024000900025CDE90165114F6946E5
:1007C000183F3846039501F033FE300300901120A6
:1007D0000395CDE901066946384601F029FE4FF43C
:1007E0006040CDE90005029569463846039501F061
:1007F0001FFECBE70221017005F0C6F9C6E7000035
:10080000B8090020180402402DE9F04102787F2A3F
:1008100003D0BDE8F04100F0BFBA01F8012B4578E4
:1008200001F8015B861C0C464FF0021708E02146D8
:10083000304600F0B1FA074406EB104614FA80F493
:100840006D1EF4D23846BDE8F081000010B50024DA
:100850000B46214606282ED006DC05282BD2DFE8E1
:1008600000F02A2A2A2A1000FD2824D004DCF028CF
:100870000ED0F1281FD10DE0FE2819D0FF281AD183
:1008800011E0062422460D491846FFF7E4FD12E068
:1008900033200EE019700E20587027209870072022
:1008A000D870042407E0402018705970022402E038
:1008B000042018700124204610BD0000128E00088C
:1008C0002DE9F04F8DB004460020CDE9090401F177
:1008D00002090891DD490870DD4914F8012B8246B0
:1008E000CA76897E07468A427ED214F8016B002EB2
:1008F0007AD000BF14F8015BE90701D00B2100E0BA
:100900000A218B46A90770D5F7B3D148DA45B0F86C
:1009100010800FD1E8060DD401A9284604F07EFA14
:10092000022816D1B8F1010803D3C8490978002973
:10093000F2D03BE1BAF10A0F03D00A20824604F05C
:10094000A7F8C24F01A90E2004F068FA022803D0CC
:1009500000270128EDD107E0B8F1010802D339786A
:100960000029EFD0002721E1019909F1010289F85E
:1009700000100B0A02F8013B0B0C02F8013B090EB8
:1009800002F8011B914600E012E08FB129060FD555
:10099000AF498A6809F1010189F80020130A01F8BA
:1009A000013B130C01F8013B120E01F8012B8946A3
:1009B000E90657D5E17854F8040BDFF8948261F327
:1009C0001F600C90B8F8120059460B90DA4503D01E
:1009D00008468A4604F05CF8C346B8F81080002147
:1009E000284604F01BFA01E004E16EE0022802D080
:1009F000012807D107E0B8F1010803D3934909782A
:100A00000029ECD0D2E0BBF8108001A9284604F000
:100A100005FA022802D0012818D107E0B8F1010830
:100A200014D38A4909780029EFD00FE0DBF81420AD
:100A300001990A400C998A4208D00B99491E0B91E2
:100A4000491C03D0814909780029DCD0DBF8141057
:100A5000019A11400C9A914201D040F010000128F7
:100A60001ED199E0002F2FD15946DA4503D0084610
:100A70008A4604F00DF87648DFF8D0B1B0F810805F
:100A80000021284604F0CAF9022802D0012807D123
:100A900007E0B8F1010803D39BF800100029EFD05C
:100AA00084E029060FD56A4909F10102896889F8AD
:100AB00000100B0A02F8013B0B0C02F8013B090E77
:100AC00002F8011B9146012766E057B3BAF10A0FFD
:100AD00003D00A20824603F0DBFF5D48B0F81080A7
:100AE00001A90E2004F09AF9022802D001285DD154
:100AF00007E0B8F1010859D3544909780029EFD02B
:100B000054E0019909F1010089F800100A0A00F87F
:100B1000012B0A0C00F8012B090E00F8011B81467D
:100B20000027E17854F8040B61F31F600190A906D7
:100B300003D54749486101202EE05946DA4503D0E4
:100B400008468A4603F0A4FF4148DFF800B1B0F838
:100B5000108001A9284604F061F9022802D001287A
:100B600024D107E0B8F1010820D39BF80010002938
:100B7000EFD01BE029060FD5354909F1010289683C
:100B800089F800100B0A02F8013B0B0C02F8013B3C
:100B9000090E02F8011B91460999491C09912B493C
:100BA000097819B9761E7FF4A5AE09E046B114F8AC
:100BB000011B8A0701D5C90600D5241D761EF5E75D
:100BC000012833D1BAF10A0F02D00A2003F060FFE6
:100BD0001F481E4E058AF7B101A90E2004F01EF928
:100BE000022802D0012821D105E06D1E1ED33178E4
:100BF0000029F1D01AE0019A09F1010189F80020D9
:100C0000130A01F8013B130C01F8013B120E01F825
:100C1000012B89460AE000210E2004F0FFF802288B
:100C200004D16D1E02D331780029F4D0DDE9081219
:100C30000A70089948700899A9EB01000A990DB04B
:100C4000611A40EA0140BDE8F08F00001800002062
:100C5000B80900202DE9F84FDFF834810027044659
:100C600038460D4601F1030A88F80070494914F826
:100C7000012BCA76897E8A4222D234F8026B002E7A
:100C80007ED014F8019B5FEAC97001D00B2000E010
:100C90000A20834603F0FCFE5FEA89705AD53D487E
:100CA000048A0021484604F0B9F8022802D001283D
:100CB00066D131E0641E63D398F800100029F0D0AB
:100CC0005EE03EB9BBF10A0F02D00A2003F0E0FE5D
:100CD0004FF00E092F48048A6946484604F09EF8F2
:100CE000022802D001284BD106E0641E48D398F8B0
:100CF00000100029F0D043E0009A0AF101018AF8BF
:100D00000020130A01F8013B130C01F8013B120EFD
:100D100001F8012B8A467F1C761ED2D230E0E178A2
:100D200054F8040B61F31F6000901A48B0F810806B
:100D30006946484604F072F8022802D001281FD103
:100D400007E0B8F101081BD3114909780029EFD059
:100D500016E07F1C761EE2D2BBF10A0F02D00A20F9
:100D600003F096FE0B480A4E048A00210E2004F080
:100D700055F8022804D1641E02D331780029F4D03A
:100D80002F70390A6970A870AAEB0500BDE8F88FCA
:100D900018000020B80900202DE9F047027886B03D
:100DA000A2F180031F2B04D800F05CF906B0BDE867
:100DB000F08701F8012B0C4610F801CB0126FF2328
:100DC000A0490025A04A4FF00117BCF11E0F6ED2BA
:100DD000DFE80CF00F171D21DEE9FD6DFC333C6DE3
:100DE0006D6D6D6D40445F6E7CA0C46D6D6D6D6DFD
:100DF0006D780078611CFFF729FD207000F102106A
:100E0000D4E70078F8B101281DD023701CE02146FA
:100E1000FFF7B0FC0FE1157014216846FFF760FB87
:100E20004FF20240CDE900050295694687480395D7
:100E300001F0FEFA25703046FDE0008800EB8000EE
:100E4000C000401EFDD125700846F4E06570257095
:100E50000220F0E0214600F0BFFBECE0C178006822
:100E600061F31F607A490028CFD07A4B984202D3B1
:100E700056705660E7E7784B55700344B3FBF0F0CB
:100E8000022803D90323B0FBF3F000E001205060F7
:100E9000D9E710F8016B01460EB94FF48076304661
:100EA00005F066FAF61DF0082570000453E0C5E071
:100EB000007800F00301491C1176C0F380005076E1
:100EC000257063E0214600F0D3F8B4E004F8015B3C
:100ED0000125A0462F4610F8016B16E010F8019B83
:100EE000824619F03F0000D14020C01DC408424690
:100EF0005146484603F046FF25446D1C0AEB0400AA
:100F00005FEA096101D5A0442744761EE6D247EA8C
:100F1000054090E010F8013B002193760E460BE06F
:100F200002EB060C10F8017B8CF81C7002EB460CEF
:100F3000761CACF8241039449E42F1D3002006E020
:100F40001618367F891B02EB4006401CB18698427A
:100F5000F6D32570180400F101106CE01178022915
:100F600013D10078D076917E88420ED20E2003F005
:100F70008FFD03F097FE25706070010AA170010CCF
:100F8000E170000E2071354855E02370384652E07C
:100F900001781173B0F801101182B0F8030050828B
:100FA00025702F4847E012782146012A18D0022ADE
:100FB00019D0421C12F8013B63B100BF12F8014B7B
:100FC000A60701D5E40600D5121D01E030E00DE0D2
:100FD0005B1EF3D1101A0D7000044D70801C2AE0C6
:100FE00000F09EF827E0FFF76BFC24E0064610783F
:100FF000214601280BD002280DD00D704D70A57030
:101000000321F07880070BD541F4802013E03046AF
:1010100000F054FA02E03046FFF71CFE0146F0E70C
:10102000B6F801004FF4802202EB8040084302E052
:10103000214600F097FB00F10110B7E604F8013CEF
:101040003846B3E601000200B8090020000402405F
:101050000100040080C3C901FF869303050001005D
:101060000100050000784FF001120870104670472B
:101070002DE9F04F85B04FF0000B01F801BB0125C1
:1010800010F8016B8A46A94604463FE014F8017B3C
:1010900017F03F0000D14020C01D4FEAD0083806AD
:1010A0004FF01401684607D5FFF71AFA02200090A6
:1010B0005846CDF804B006E0FFF712FA022000907F
:1010C000012001905846029003906946134801F0B0
:1010D000AFF952462146384604F086FD76B9142110
:1010E0006846FFF7FDF9022000900120CDE9010BD1
:1010F00069460A48CDF80CB001F09AF9380602D5D5
:10110000C244C14401E0444445446D1C761EBDD236
:1011100005B049EA0540BDE8F08F00000004024038
:101120002DE9F04F87B08B4601F102080446059087
:10113000E04900200290087001906678A41C814666
:10114000002E6ED0DFF870A314F8015BA90769D5F3
:10115000B9F1000F4DD0BAF8107005F01100012858
:101160000AD0DFF8509369460E2004F091FD022862
:1011700012D04FF0000905E06946284604F088FDCA
:10118000022802D0012806D10FE07F1E03D3C949EF
:1011900009780029F0D03EE17F1E03D399F80010B2
:1011A0000029E0D04FF0000935E1009A08F1010173
:1011B00088F80020130A01F8013B130C01F8013BE9
:1011C000120E01F8012B8846B9F1000F11D0290643
:1011D0000FD5DAF8082008F1010188F80020130A79
:1011E00001F8013B130C01F8013B120E01F8012B31
:1011F0008846E9064DD5E07854F8041B60F31F617A
:101200000491BAF812000390E80714D0BAF81070ED
:101210000021284604F03CFD022804D00128BAD160
:1012200009E018E194E07F1E791CB4D0A149097847
:101230000029EDD0EFE0BAF810706946284604F0B6
:1012400027FD022802D0012817D106E07F1E14D303
:10125000984909780029F0D00FE0DAF81410009AC4
:101260001140049A914208D00399491E0391491CE8
:1012700003D0904909780029DDD0DAF81410009ADB
:101280001140049A914201D040F01000012816D17B
:101290005CE0BAF81070E90727D0B9F1000F55D11A
:1012A0000021284604F0F4FC022802D0012806D1CF
:1012B00006E07F1E03D37F4909780029F0D0AAE019
:1012C00029060FD5DAF8081008F1010288F8001095
:1012D0000B0A02F8013B0B0C02F8013B090E02F865
:1012E000011B90464FF0010930E06946284604F0A2
:1012F000CFFC022802D0012806D106E07F1E03D3CE
:101300006C4909780029F0D085E029060FD5DAF874
:10131000081008F1010288F800100B0A02F8013BDE
:101320000B0C02F8013B090E02F8011B90460099D4
:1013300008F1010288F800100B0A02F8013B0B0CBF
:1013400002F8013B090E02F8011B9046002157E00C
:10135000B9F1000F22D0BAF8107069460E2004F0DF
:1013600097FC022802D0012855D106E07F1E52D3F7
:10137000504909780029F0D04DE0009808F10101AA
:1013800088F80000020A01F8012B020C01F8012B79
:10139000000E01F8010B88464FF00009E17854F87F
:1013A000040B61F31F600090A90603D5CAF814006E
:1013B000012026E0BAF810706946284604F068FC5F
:1013C000022802D0012826D107E07F1E791C22D0F6
:1013D000384909780029EFD01DE029060FD5DAF841
:1013E000081008F1010288F800100B0A02F8013B0E
:1013F0000B0C02F8013B090E02F8011B904601217B
:1014000001910299491C02912A49097819B9761E5D
:101410007FF49AAE09E046B114F8011B8A0701D5A2
:10142000C90600D5241D761EF5E7012834D1B9F18F
:10143000000F21D0BAF810501E4E69460E2004F05D
:1014400027FC022802D0012826D105E06D1E23D3F7
:1014500031780029F1D01FE0009A08F1010188F8E5
:101460000020130A01F8013B130C01F8013B120E96
:1014700001F8012B88460FE0019969B1BAF81050C4
:101480000C4E00210E2004F003FC022804D16D1E36
:1014900002D331780029F4D002998BF800108BF830
:1014A00001000598A8EB0B01201A07B041EA0040A3
:1014B000BDE8F08F18000020B80900202DE9F84F92
:1014C000DFF80C810027044638460D4601F1030A77
:1014D00088F80070B4F80160E41C002E70D014F895
:1014E000019BDFF8F0B05FEA897159D55FEAC971F5
:1014F00039D0BBF810400021484604F0C9FB02284F
:1015000002D001285CD12EE0641E59D398F8001057
:101510000029F0D054E026B95FEAC97001D04FF03D
:101520000E09BBF810406946484604F0B1FB02289A
:1015300002D0012844D106E0641E41D398F800107F
:101540000029F0D03CE0009A0AF101018AF800205D
:10155000130A01F8013B130C01F8013B120E01F8CC
:10156000012B8A467F1C761ED5D229E0E17854F8FB
:10157000040B61F31F600090BBF810806946484679
:1015800004F086FB022802D0012819D107E0B8F147
:10159000010815D30E4909780029EFD010E07F1C0F
:1015A000761EE3D2BBF81040094E00210E2004F055
:1015B0006FFB022804D1641E02D331780029F4D0D5
:1015C0002F70390A6970A870AAEB0500BDE8F88F82
:1015D00018000020B80900202DE9F0478A46447819
:1015E0004179D0F802600578494F86B061F31F66F3
:1015F000E00706D0E80701D0381501E04FF0806021
:101600003860A1074FF4003005D5A90702D50221A3
:10161000396000E03860610705D5A908C90701D025
:101620004FF40050386020064FF000091FD54FEAF4
:10163000D51814216846FEF753FF36485FEAC87292
:101640004FF4805107D03960CDE90019CDF80890EA
:10165000CDF80C9008E04FF080523A6000911121D3
:1016600001910121CDE90219694600F0E1FE284807
:10167000001F7EB328498E4200D90E46274BC6EB89
:101680000611CA005968E60704D00668C6F380262A
:10169000AE421BD1A60705D50668C6F34006B6EBD9
:1016A000550F13D1660705D50668C6F34036B6EB6D
:1016B000950F0BD1A60601D56E0907D1260609D5CF
:1016C0000668C6F30036B6EBD51F03D05E68761AFF
:1016D0009642D8D301680268C1F38021C2F3400268
:1016E00041EA42020168C1F3403142EA81020849FD
:1016F000083909680068C1F3803142EAC101000B72
:1017000041EAC0108AF8000006B00548BDE8F0873D
:101710001804024000040240C0C62D00001000E082
:10172000010006000D4882B00021017041703A228C
:101730004260017364220282418201224161027689
:10174000417681760648016841F002010160006837
:1017500000F00200009002B004F016BAB8090020B0
:1017600030380240F8B50446144800260D46027889
:10177000012A03D0FF21022A10D10AE02179D4F8EE
:10178000010061F31F6000906946002004F080FAB8
:1017900010E02278C276807E824201D329700AE06E
:1017A000082003F075F92179D4F8010061F31F6076
:1017B00003F074FD2E700248F8BD0000B809002047
:1017C00001000500014800F07BBC0000100900206A
:1017D000014800F075BC000030070020014800F00F
:1017E0006FBC0000B0080020014800F069BC000098
:1017F00090070020014800F063BC0000F0070020C3
:10180000014800F05DBC000050080020014800F0D5
:1018100057BC0000B005002001680A4BCAB2103A5C
:10182000A3FB02321209084B9B5CC365032A04D94F
:101830006FF30901091D816502E06FF309018165FC
:10184000806D7047ABAAAAAA188E00080146002036
:101850008A6A8B69002B0FD0B3F5005F1DD08AB365
:10186000012A30D0022A2ED0032A04D1C96A11F0ED
:10187000807F00D0012070471AB1012A07D0022AC8
:10188000F9D1C96A11F0807FF5D001207047C96A8B
:10189000B1F1C07FFAD1012070475AB1012A0BD0B3
:1018A000022A07D0032AF7D1C96AB1F1C07FF3D168
:1018B0000120704701207047C96A11F0807FFAD07B
:1018C00001207047FFE70120704710B4D0F800C036
:1018D000DCF8004024F48024CCF80040D0F800C0AC
:1018E000CCF804308368402B05D003689960006809
:1018F000C26010BC704703689A600068C16010BC89
:101900007047704772B6FEE770B50B480168001D5E
:101910000568001D0068084400280CD0074C082208
:10192000A11C03F096F804F112012846BDE87040AE
:10193000042203F08EB870BD107AFF1F5000002003
:1019400038B44FF0000CCDF800C090F83C20012ACC
:101950001BD0012280F83C200A680724092A17D9E5
:101960000368DD680A3A02EB420204FA02F225EA51
:101970000202DA600A788B680A3A02EB420293406C
:101980000268D4682343D36014E038BC0220704757
:1019900003681D6902EB420204FA02F225EA020220
:1019A0001A610A788B6802EB42029340026814695C
:1019B000234313614A681F24072A15D203685D6B0D
:1019C000521E02EB820204FA02F225EA02025A6374
:1019D0000A8893B20A79521E02EB8202934002688F
:1019E000546B234353632CE00D2A15D203681D6BFF
:1019F000D21F02EB820204FA02F225EA02021A6303
:101A00000A8893B20A79D21F02EB820293400268DD
:101A1000146B2343136314E00368DD6A0D3A02EB91
:101A2000820204FA02F225EA0202DA620A8893B21A
:101A30000A790D3A02EB820293400268D46A23438A
:101A4000D362184A184B04689C4206D10C68122CC9
:101A500003D1546844F48004546004689C421CD14F
:101A60000B68102B01D0112B17D1536843F40003DE
:101A700053600968102910D10C490D4A0968B1FB5F
:101A8000F2F101EB810149000091009929B100991F
:101A9000491E009100990029F9D180F83CC038BC5A
:101AA0000020704700230140002001401400002066
:101AB00040420F0070B504460025002C03D0206C76
:101AC000002610B107E0012070BD204600F01EF88E
:101AD000666484F83C60206C10F0100F04D001257F
:101AE00084F83C60284670BD206C20F4885040F09B
:101AF000020020642046FEF787FD6664206C20F01B
:101B0000020040F001002064EAE7000030B587B031
:101B1000044614216846FEF7E3FC1F4924681D4D66
:101B200000221D4814390323AC4216D1046844F442
:101B300080740460006800F480700590086840F0CC
:101B4000020008600868694600F002000590012064
:101B5000CDE900030292114817E0114DAC4216D1B5
:101B6000046844F400740460006800F40070059098
:101B7000086840F0010008600868009300F0010068
:101B80000590CDE901326946064800F051FC07B0E6
:101B900030BD0000002001404438024000040240F3
:101BA000002101400000024070472DE9F05F05462A
:101BB000002428684669D0F804908768D0F80CA003
:101BC000D0F810B0D0F8188016F0010F54D017F0EC
:101BD000010F17D00121816017F0020F03D02846B2
:101BE00000F004FA0EE017F0040F02D04FF4006486
:101BF00008E017F0080F02D04FF4805402E02846A6
:101C000000F0F3F917F4807F19D029684FF4807041
:101C1000886017F4007F03D0284600F0E9F90EE051
:101C200017F4806F02D044F4005408E017F4006FFA
:101C300002D044F4804402E0284600F0D8F917F4BA
:101C4000803F19D029684FF48030886017F4003F36
:101C500003D0284600F0CEF90EE017F4802F02D012
:101C600044F4004408E017F4002F02D044F4803418
:101C700002E0284600F0BDF916F0080F07D01AF070
:101C8000100F04D044F4007429681020C86016F0C6
:101C9000040F4FF0080707D01AF0080F04D0286887
:101CA000C760284600F09CF916F0020F07D028689C
:101CB000C06810F0030F02D0284600F092F916F029
:101CC000400F07D01BF0100F04D044F48064296843
:101CD0001020086116F0200F07D01BF0080F04D069
:101CE00028680761284600F07DF916F0100F07D02C
:101CF0002868006910F0030F02D0284600F073F93D
:101D000016F4003F08D019F0100F05D029681020F4
:101D10004860284600F068F916F4803F07D019F0B3
:101D2000080F04D028684760284600F064F916F4CC
:101D3000004F4AD019F0040F44D016F4807F04D02D
:101D400018F0010F01D044F0010416F4007F04D014
:101D500018F0020F01D044F0020416F4806F04D092
:101D600018F0040F01D044F0040416F4006F29D0D9
:101D700018F0700F26D008F07000402815D006DC4F
:101D8000102809D020280AD0302816D10AE050287F
:101D90000ED0602811D10EE044F008040DE044F0AC
:101DA00010040AE044F0200407E044F0400404E09A
:101DB00044F0800401E044F480742868816921F0D3
:101DC00070018161296804204860002C05D0686A90
:101DD000204368622846FFF7E7FEBDE8F09F70B534
:101DE0000446002C03D094F8200010B104E0012038
:101DF00070BD204600F0A8F82068016841F001019C
:101E0000016000F025FC0546206840684FF005069B
:101E100010F0010F11D100F01BFC401B0A2807D95C
:101E2000606A40F40030606284F82060012070BD78
:101E30002068406810F0010FEDD02068016821F0A3
:101E40000201016000F004FC05462068406810F0C3
:101E5000020F11D000F0FCFB401B0A2807D9606A72
:101E600040F40030606284F82060012070BD20687A
:101E7000406810F0020FEDD1207E01283FD020688D
:101E8000016821F080010160607E01283DD020685A
:101E9000016821F040010160A07E01283BD020684C
:101EA000016821F020010160E07E012839D020681E
:101EB000016841F010010160207F012837D02068BF
:101EC000016821F008010160607F012835D0206899
:101ED000016821F004010160E168A06862690843BB
:101EE0002169114308436168491E08432168C8619C
:101EF00000206062012084F82000002070BD20686E
:101F0000016841F080010160BEE72068016841F08E
:101F100040010160C0E72068016841F020010160D4
:101F2000C2E72068016821F010010160C4E7206861
:101F3000016841F008010160C6E72068016841F0CE
:101F400004010160C8E7000010B586B00446142102
:101F50006846FEF7C5FA1F492068884237D11E48F7
:101F60000021026842F000720260006800F0007018
:101F7000059019481038026842F0080202600068B3
:101F8000022200F0080005900320CDE90210CDE9FF
:101F90000002092004906946104800F049FA002226
:101FA0000121132000F01EFD132000F00DFD002282
:101FB0000121142000F016FD142000F005FD002280
:101FC0000121152000F00EFD152000F0FDFC06B0EB
:101FD00010BD00000064004040380240000C024088
:101FE0007047704770477047704770477047704739
:101FF00070477047704770472DE9F0410446A66D61
:1020000000F026FB054694F835000027022806D08C
:102010008020606584F834700120BDE8F08120687C
:10202000016821F0160101602068416921F08001FA
:102030004161206C08B9A06C20B12068016821F0D2
:10204000080101602068016821F001010160206839
:10205000006810F0010F12D000F0FAFA401B0528BA
:1020600008D920206065032084F8350084F8347096
:10207000BDE8F0812068006810F0010FECD194F801
:102080005C003F2101FA00F0B060012084F83500C7
:1020900084F834700020BDE8F08190F835100229F2
:1020A00003D08021416501207047052180F835105B
:1020B0000068016821F00101016000207047000004
:1020C0002DE9F84304464FF00008CDF8008076482B
:1020D0004FF416510068B0FBF1F7A56D2E6894F827
:1020E0005C00082101FA00F0304211D0206802683B
:1020F00012F0040F0CD0026822F00402026094F87F
:102100005C0001FA00F0A860606D40F001006065BD
:1021100094F85C004FF0010909FA00F0304209D050
:102120002168496911F0800F04D0A860606D40F00B
:102130000200606594F85C1004208840304209D0A9
:102140002168096811F0020F04D0A860606D40F0AA
:102150000400606594F85C1010208840304224D060
:102160002168096811F0080F1FD0A8602068016875
:1021700011F4802F0DD0006810F4002F04D0A16C52
:1021800099B12046884710E0216C71B120468847FC
:102190000BE0016811F4807F03D1016821F0080190
:1021A0000160216C09B12046884794F85C1020201A
:1021B0008840304251D02168096811F0100F4CD08E
:1021C000A86094F8350005280DD02068016811F446
:1021D000802F32D0006810F4002F29D0E16B59B362
:1021E0002046884739E02068016821F01601016027
:1021F0002068416921F080014161206C08B9A06C20
:1022000020B12068016821F00801016094F85C00A9
:102210003F2101FA00F0A86084F8359084F83480FA
:10222000216D00293ED001B02046BDE8F0430847AB
:10223000616C09B1204688470FE0016811F4807F86
:1022400007D1016821F01001016084F8359084F80D
:102250003480E16B09B120468847606D002821D0A9
:10226000606D10F0010F15D0052084F8350020684E
:10227000016821F0010101600098401C0090B84203
:1022800004D82068006810F0010FF5D184F835906B
:1022900084F83480E16C002904D001B02046BDE808
:1022A000F0430847BDE8F883140000202DE9F04111
:1022B000044600F0CDF90546DCB1022084F8350073
:1022C000002684F834602068016821F00101016073
:1022D0002068006810F0010F13D000F0B9F9401B1E
:1022E000052809D920206065032084F83500BDE861
:1022F000F0810120BDE8F0812068006810F0010F36
:10230000EBD121680868234A1040A3686268D4F8BA
:1023100010C01A43E36843EA0C031A4363691A4383
:10232000A3691A43E3691A43236A1A431043626A92
:10233000042A03D1236BE26A1A4310430860206821
:10234000406920F00701606A40EA0105012704287E
:102350000ED1A06A0543E06A50B12046FFF776FA35
:1023600030B14020606584F835700120BDE8F0810F
:10237000206845612046FFF74FFA94F85C103F2231
:1023800002FA01F18160666584F835700020BDE8CD
:10239000F08100003F8010F070B504460025A66D66
:1023A00094F8340001280DD0012084F8340094F80A
:1023B00035C00020BCF1010F06D084F8340002259E
:1023C000284670BD022070BD4FF0020C84F835C065
:1023D00060652046FFF779FA94F85C003F2101FA26
:1023E00000F0B0602068016841F016010160206CC7
:1023F00020B12068016841F008010160206801688F
:1024000041F001010160DBE770B5044600F020F9FE
:102410000546B4F1FF3F02D004480078044400F0C0
:1024200017F9401BA042FAD370BD00009C000020A9
:102430002DE9F84F0022DFF8FCA1DFF8F4914FF00E
:10244000010E03274FF00F08AAF1040B0EFA02FC4D
:102450000B6803EA0C0363457ED10C7904F0030496
:10246000012C01D0022C14D18568540007FA04F61F
:10247000B543CE6806FA04F42C438460446824EA29
:102480000C0C0C79C4F30014944044EA0C0CC0F812
:1024900004C0D1F804C037EA0C0C0CD0C4684FEA71
:1024A000420C07FA0CF5AC438D6805FA0CFC4CEABB
:1024B000040CC0F80CC091F804C00CF0030CBCF183
:1024C000020F12D14FEAD20C00EB8C04256A4FEABE
:1024D000427C4FEADC6C08FA0CF6B5430E6906FA4A
:1024E0000CFC4CEA050CC4F820C004684FEA420C0E
:1024F00007FA0CF5AC430D7905F0030505FA0CFC61
:102500004CEA040CC0F800C0D1F804C01CF4403FF1
:102510006FD0D9F800C04CF4804CC9F800C0D9F88D
:1025200000C00CF4804CCDF800C022F0030C0CF17C
:10253000804505F59835D5F808C89407240F08FAA2
:1025400004F62CEA0606A0F1804CBCF5003C56D0FF
:10255000BCF5806C56D000E04BE0BCF5806C54D0EC
:10256000BCF5806C54D0BCF5806C54D0BCF5806C4C
:1025700054D0BCF5806C54D0BCF5806C54D04FF076
:10258000080C0CFA04FC4CEA060CC5F808C8DAF88A
:1025900000C02CEA030C4C6814F4801F01D04CEAF4
:1025A000030CCAF800C0244CD4F800C02CEA030C79
:1025B0004D6815F4001F01D04CEA030CC4F800C0AC
:1025C000DBF800C02CEA030C4C6814F4003F01D087
:1025D0004CEA030CCBF800C0184CD4F800C02CEA2D
:1025E000030C4D6815F4803F01D04CEA030CC4F88D
:1025F00000C0521C102AFFF429AFBDE8F88F4FF03D
:10260000000CBEE74FF0010CBBE74FF0020CB8E73F
:102610004FF0030CB5E74FF0040CB2E74FF0050C98
:10262000AFE74FF0060CACE74FF0070CA9E700004E
:1026300044380240083C01400C3C0140003C014051
:10264000002A01D081617047090481617047000050
:1026500001488068704700009C00002070B5044667
:10266000002C04D094F83D00002510B106E00120B4
:1026700070BD84F83C50204600F0C6F8242084F851
:102680003D002068016821F00101016020680168B7
:1026900041F4004101602068016821F400410160BB
:1026A00000F0F0FF544B6168994203D853498842C7
:1026B00003D304E05249884201D2012070BD514940
:1026C000B0FBF1F12268D2F804C02CF03F0C4CEAC8
:1026D000010CC2F804C062689A4201D84A1C07E0A3
:1026E0004FF4967251434FF47A72B1FBF2F14A1CE7
:1026F0002168D1F820C02CF03F0C42EA0C020A629B
:102700006168994210D84900401EB0FBF1F2521C9A
:10271000C2F30B02042A01D2042026E0B0FBF1F040
:10272000401CC0F30B0020E0A268002A50D001EB4F
:10273000C10303EB0113A0F1010CBCFBF3F35B1C21
:1027400043F480431B051B0D4AD0002A4AD001EBFD
:10275000C10202EB0111401EB0FBF1F0401CC0F3BE
:102760000B0040F4804040F400402168CA6922F028
:10277000FF0222F44F421043C861216AE06901431D
:102780002068026822F0C00211430160E1682069FC
:1027900001432068826822F0FF0222F403421143C1
:1027A0008160A169606901432068C26822F0FF026C
:1027B0001143C1602068016841F001010160256496
:1027C000202084F83D00256384F83E50002070BD31
:1027D00001EB4103A0F1010CBCFBF3F35B1CB1E77F
:1027E0000120C2E701EB4101401EB0FBF1F0401CAB
:1027F000C0F30B00B7E70000A086010080841E0034
:1028000000093D0040420F00F0B587B00446142196
:102810006846FDF765FE2768234CDFF888C0002274
:10282000214912230325042620481034674518D176
:102830000F6847F002070F60096802AF01F002015C
:102840000591C021CDE9001387E864006946FFF7D0
:10285000EFFD206840F400102060206800F40010B4
:102860001CE0DFF84CC0674519D10F6847F002073C
:102870000F60096802AF01F0020105914FF4406159
:10288000CDE9001387E864006946FFF7D1FD2068B1
:1028900040F480002060206800F48000059007B0BC
:1028A000F0BD0000005400403038024000040240F7
:1028B00000580040024881680278114481607047E6
:1028C0009C00002010B50B48016841F400710160C4
:1028D000016841F480610160016841F48071016028
:1028E000032000F0B3F80F2000F006F800F050F8D5
:1028F000002010BD003C024030B50546204887B09E
:102900000024016841F001010160006806A900F09F
:102910000100009001A800F091FE0498B0B100F011
:10292000B1FE400017494FF08042B0FBF1F116486C
:10293000491E026040F2E732C0E90324C0E90114F5
:10294000846101F041FA040003D015E000F09AFE22
:10295000E8E70D4801F067FA04000DD11C2000F0F3
:1029600033F8102D07D2002229461C2000F03AF837
:102970000648056000E0012407B0204630BD000095
:102980004038024040420F0070090020A0000020A3
:102990000C4882B0016841F480410160006800F495
:1029A000804000900748001F016841F0805101609D
:1029B0000068002200F0805000900F21901E02B0AD
:1029C00000F010B84438024000280ADB00F01F0174
:1029D000012202FA01F14009800000F1E020C0F874
:1029E0000011704710B4184B1B68C3F30223C3F1E6
:1029F000070CBCF1040F01D94FF0040C1C1D072C6F
:102A000001D2002300E0DB1E012404FA0CFCACF12F
:102A1000010C0CEA0101994004FA03F35B1E1A4011
:102A20001143002806DB00F1E020090180F80014C2
:102A300010BC704700F00F0000F1E020090180F8A1
:102A4000141D10BC704700000CED00E000F0070002
:102A5000064A11684FF6FF03194041EA002040F092
:102A6000FD7040F080601060704700000CED00E0E9
:102A70007047006841620020704730B40368586AAC
:102A800000291BD0D3F828C000EB1C4C00200129E2
:102A9000A1F101014FF4827408D004EB80055D5967
:102AA0000CEB154C401CC0B28842F6D304EB8101FC
:102AB0004CEA0240585030BC0020704740EA0240C7
:102AC0009862F8E7D0F8E00404F0A3BD01EBC1027E
:102AD00000EB8202D0F8E004126A04F0C1BC01EB02
:102AE000C10200EB8202D0F8E004D2F8602204F0C8
:102AF00028BDD0F8E00404F08EBD11F0800F01F085
:102B00000F0101EBC10100EB810101D0143101E0A3
:102B100001F51571006805F046BD70B5044611F069
:102B2000800F01F00F0000EBC00104EB81014FF0BA
:102B300001024FF0000502D014314A7002E001F5A5
:102B400015714D70087094F89404012808D084F829
:102B50009424206805F00AFA84F89454002070BD8B
:102B6000022070BD70B5044601F00F022079824248
:102B700001D9012070BD01F00F0000EBC00011F081
:102B8000800F04EB80004FF001034FF0000503D0ED
:102B900000F114014B7002E000F515714D708D705D
:102BA0000A7094F89404012808D084F894342068BA
:102BB00005F058FB84F89454002070BD022070BDCD
:102BC00070B5044611F0800F01F00F0000EBC0015A
:102BD00004EB81014FF0010C4FF0000503D01431DC
:102BE00081F801C002E001F515714D700870C2F363
:102BF0000A028A600B714A7802B14883022B00D125
:102C00004D7194F89404012808D084F894C4206885
:102C100005F0DEF8284684F8945470BD022070BD9B
:102C200010B501F00F0C0CEBCC0100EB810101F5AC
:102C30001571CA600B6100234B614B7081F800C0B5
:102C40008379012B00D1CA618279006805F065FBA8
:102C5000002010BD70B504460D46217905F00F0027
:102C6000884201D9012070BD15F0800F4FF0000699
:102C70004FF0010206D000EBC00104EB81011431DA
:102C80004A7006E005EBC50104EB810101F5157101
:102C90004E708A70087094F89404012808D084F863
:102CA0009424206805F00AFB15F00F0F02D007E00E
:102CB000022070BDA17904F29C42206805F0A2FABE
:102CC00084F89464002070BD10B501F00F0C0CEB7B
:102CD000CC0100EB81010A624B6200238B6201236D
:102CE0004B7501F814CF8379012B00D1CA61827929
:102CF000006805F012FB002010BD2DE9F05F0446CE
:102D00002568284605F00BFD00287ED1206805F0D7
:102D100032FD002879D0D5F80808C0F30D20C4F89A
:102D2000D404206805F027FD10F0020F04D02068BD
:102D3000416901F002014161206805F01CFD10F0BD
:102D4000100F36D02068816921F0100181612F6A4F
:102D500007F00F0000EBC00004EB800000F51576D3
:102D6000C7F34340022802D0062812D01CE047F6E1
:102D7000F070074218D0C7F30A1217462846F168C8
:102D800005F0FDFCF0683844F0607069384470610B
:102D90000AE0082204F29C41284605F0F0FC706924
:102DA000C7F30A11084470612068816941F010017D
:102DB0008161206805F0DFFC10F4002F4FF0100B4C
:102DC0004FF0000A4FF0010967D00026206805F097
:102DD000B1FC80465FEA08005FD018F0010F56D0C2
:102DE000F1B2206805F0BFFC074617F0010F07D0CD
:102DF00005EB4610C0F8089B3146204602F0FEFD68
:102E000017F0080F0AD0082000E01EE205EB46117B
:102E1000C1F8080B3146204602F0CCFD17F0100F28
:102E200003D005EB4610C0F808BB17F0020F1DD009
:102E3000686910F0800F05D0D5F8040840F480616F
:102E4000C5F8041806EBC60004EB800000F5157009
:102E5000C178012905D180F803A0F1B2204600F025
:102E600001FA05EB46110220C1F8080B17F0200FFC
:102E700004D005EB46112020C1F8080B17F4005FC1
:102E800005D005EB46114FF40050C1F8080B761C35
:102E90004FEA5808B8F1000F9FD1206805F06BFC8D
:102EA00010F4802F74D0206805F03DFC0746002602
:102EB000002F6DD04FF0020B17F0010F64D0F1B26C
:102EC000206805F03EFC804618F0010F24D006F083
:102ED0000F0009FA00F0D5F834188143C5F834180A
:102EE00005EB4610C0F80899A079012810D106EB2F
:102EF000C60004EB8000C269016A114401623EB958
:102F0000606A28B904F29C420121206805F07AF930
:102F1000F1B22046FFF7DAFD18F0080F04D005EBF8
:102F200046110820C1F8080918F0100F04D005EB6D
:102F300046111020C1F8080918F0400F04D005EB25
:102F400046114020C1F8080918F0020F15D031468B
:102F5000284605F0ADFB06EBC60004EB80001430FC
:102F6000C178012905D180F803A0F1B2204600F014
:102F700075F905EB4610C0F808B918F0800F03D0BA
:102F80003146204602F0AEFD761C7F08002F93D11B
:102F9000206805F0F0FB10F0004F11D0D5F80408C0
:102FA00020F00101C5F8041894F8CC04012861D080
:102FB000204600F028FA2068416901F00041416193
:102FC000206805F0D8FB10F4006F0CD0D5F8080885
:102FD00010F0010F02D0204600F05AFA2068416933
:102FE00001F400614161206805F0C5FB10F4805FC9
:102FF00065D0D5F8040820F00101C5F804181021A7
:10300000206805F055FB0021207900281DD94FF6D6
:103010007F3205EB4110C0F80829D0F8003923F4BD
:103020000013C0F80039C0F8082BD0F8003B23F497
:103030000013C0F8003BD0F8003B43F00063C0F839
:10304000003B491C20798842E3D8D5F81C0840F0A1
:103050000111C5F81C18E07B98B1D5F8840840F040
:103060000B01C5F88418D5F8440840F00B01C5F8E9
:10307000441813E084F8CCA400212046FFF7F8FCA4
:1030800099E7D5F8140842F22B010143C5F814184A
:10309000D5F8100840F00B01C5F81018D5F8000855
:1030A00020F4FE61C5F80018A17904F29C42206862
:1030B00005F0A8F82068416901F480514161206859
:1030C00005F059FB10F4005F16D0206804F0CEFE26
:1030D000206805F014FBE07100F0CEFA2368014689
:1030E000E279184605F0B8FB204600F075F9206833
:1030F000416901F400514161206805F03CFB10F08A
:10310000080F07D0204600F082F92068416901F0DD
:1031100008014161206805F02EFB10F0800F17D0E8
:10312000A86920F08001A9610126207901280FD922
:1031300006EBC60004EB800090F85702012803D18B
:10314000F1B22046FFF7D9FC761C2079B042EFD8C7
:10315000206805F010FB10F4801F22D00126207992
:10316000012819D905EB4610D0F8001906EBC60066
:1031700004EB8000027E012A0AD111F0004F07D033
:1031800080F81790F0B240F080012046FFF7B5FCC0
:10319000761C2079B042E5D82068416901F480119D
:1031A0004161206805F0E7FA10F4001F2DD00120DE
:1031B0002179012924D905EB4011D1F8001B00EB3E
:1031C000C00204EB820292F85832012B14D111F0A4
:1031D000004F11D094F8D434C1F3004103F001033F
:1031E0008B4209D182F85792A96941F08002AA6105
:1031F000696911F0800F2AD0401C21798142DAD808
:103200002068416901F400114161206805F0B3FABA
:1032100010F0804F07D02046FFF754FC206841692A
:1032200001F080414161206805F0A5FA10F0040F1B
:103230000BD02068456815F0040F02D02046FFF738
:1032400058FC2068416829434160BDE8F09FD5F8EB
:10325000040840F40070C5F80408D1E7D0F8E00491
:1032600004F02ABAD0F8E00404F03BBAF8B50446FA
:10327000002C05D0266894F89504002510B106E0CE
:103280000120F8BD84F89454204600F063F8032030
:1032900084F89504B6F1A04F00D1A571206804F020
:1032A000ABFF207C8DF8000094E80F0004F0ECFDEB
:1032B000022618B184F895640120F8BD0021206829
:1032C00005F081FA18B184F895640120F8BD002159
:1032D0002079012700280FD901EBC10004EB800001
:1032E00047750175C1850576C56105624562481C53
:1032F000C1B220798842EFD800212079002814D962
:1033000001EBC10004EB800080F8555280F85412A4
:1033100080F85852C0F85C52C0F86052C0F864524D
:10332000481CC1B220798842EAD8207C8DF8000080
:1033300094E80F0004F0A4FE18B184F8956401200D
:10334000F8BD657484F89574206804F08BFE002045
:10335000F8BD000000B587B00021029103910491EF
:10336000059106910068B0F1A04F2BD11648016875
:1033700041F001010160006800F0010001904FF48C
:10338000C050029002200390032005900A2006906E
:1033900002A90E48FFF74CF80D48016841F0800182
:1033A00001600C48016841F480410160006800F44C
:1033B00080400190002201214320FFF713FB4320AE
:1033C000FFF702FB07B000BD3038024000000240AA
:1033D000343802404438024070B504460125E07993
:1033E00000280ED0022801D0FEF78CFA2946D4F826
:1033F000E00404F0E8F9D4F8E004BDE8704004F01B
:103400009AB90025F2E7D0F8E00404F0C5B9D0F885
:10341000E00404F0CBB910B5044694F894040128F4
:103420000AD0012084F894046174206805F0FBF947
:10343000002084F8940410BD022010BDD0F8E024D0
:1034400000F29C41104604F0CAB910B50446206849
:1034500094F8941401290AD0012184F89414C168C5
:1034600011F0400F09D0617B012902D005E0022054
:1034700010BD816B41F480318163206805F0EDF867
:10348000206804F0E1FD002084F8940410BD0000E1
:1034900010B50446D4F8E00404F0E5F92068D0F84B
:1034A000001E41F00101C0F8001EE07A002804D09F
:1034B0000248016841F00601016010BD10ED00E016
:1034C0002DE9F04704460D46002C13D0DFF8549147
:1034D000D9F80000EFB200F00700A8420DD289F839
:1034E0000070D9F8000000F00700A84205D00120C4
:1034F000BDE8F0870120BDE8F08720684A4E10F053
:10350000020F14D010F0040F03D0306840F4E050E4
:103510003060207810F0080F03D0306840F460402D
:1035200030603068A16820F0F000084330602078F7
:1035300010F0010F3ED060683C49012808D00228F5
:103540000DD003280BD0096811F0020F28D00AE033
:10355000096811F4003F06D10120BDE8F087096831
:1035600011F0007F19D0316821F003010843306069
:10357000FFF76EF880463068616800F00C00B0EB31
:10358000810F17D041F2883AFFF762F8A0EB0800EC
:10359000504508D90320BDE8F0870120BDE8F08739
:1035A0000120BDE8F0873068616800F00C00B0EBE6
:1035B000810FE9D1D9F8000000F00700A8420AD92C
:1035C00089F80070D9F8000000F00700A84202D086
:1035D0000120BDE8F087207810F0040F05D0306896
:1035E000E16820F4E05008433060207810F0080FC4
:1035F00006D03068216920F4604040EAC1003060A4
:1036000000F060F831680A4AC1F30311515CC84008
:103610000849086008480068FFF76EF90020BDE817
:10362000F0870000003C02400838024000380240A9
:10363000FA8D000814000020A00000200F22026074
:103640000B4A136803F003034360136803F0F003AD
:103650008360136803F4E053C360126802F46042AD
:10366000D20802610348006800F007000860704754
:1036700008380240003C02400148006870470000E2
:103680001400002000B5FFF7F7FF04490968044A59
:10369000C1F38221515CC84000BD000008380240DF
:1036A0000A8E000800B5FFF7E7FF04490968044ADD
:1036B000C1F34231515CC84000BD000008380240EF
:1036C0000A8E000810B51748006810F00C01164863
:1036D00016D0164B042912D0082911D1144C216898
:1036E00001F03F02216811F4800F0AD02068C0F376
:1036F0008810A0FB03010023FCF736FE09E0184602
:1037000010BD21680023C1F38811A1FB0001FCF763
:103710002BFE2168C1F30141491C4900B0FBF1F0C7
:1037200010BD0000083802400024F40040787D01FC
:10373000043802402DE9F84F0446002C12D02078BE
:10374000FB4E10F0010FA6F1040563D0301D016897
:1037500001F00C0104290CD0006800F00C000828CE
:1037600003D010E00120BDE8F88F306810F4800F1E
:1037700009D0286810F4003F4CD06068002849D177
:103780000120BDE8F88F6068B0F5803F14D0B0F537
:10379000A02F16D0286820F480302860286820F4F4
:1037A00080202860606810B3FEF752FF0746286843
:1037B00010F4003F0ED02DE0286840F480302860DF
:1037C000F0E7286840F480202860286840F48030C2
:1037D0002860E7E7FEF73CFFC01B642802D90320FE
:1037E000BDE8F88F286810F4003FF3D012E0FEF730
:1037F0002FFF0746286810F4003F0BD0FEF728FF84
:10380000C01B642802D90320BDE8F88F286810F493
:10381000003FF3D12078C74F10F0020F4FF000099E
:1038200057D0C548016811F00C0F14D0006800F0A3
:103830000C00082803D1306810F4800F0BD0E0682A
:1038400080B301203860FEF703FF8046286810F03F
:10385000020F12D01EE0286810F0020F05D0E068B9
:10386000012802D00120BDE8F88F2868216920F0E6
:10387000F80040EAC10028602BE0FEF7E9FEA0EB6B
:103880000800022802D90320BDE8F88F286810F04C
:10389000020FF2D02868216920F0F80040EAC10048
:1038A000286016E0FFE7C7F80090FEF7D1FE8046DB
:1038B000286810F0020F0CD0FEF7CAFEA0EB08003B
:1038C000022802D90320BDE8F88F286810F0020F03
:1038D000F2D1207810F0080F35D09848DFF860A2B8
:1038E0006169C1B101210160FEF7B2FE8046DAF8DC
:1038F000000010F0020F26D1FEF7AAFEA0EB080090
:10390000022802D90320BDE8F88FDAF8000010F091
:10391000020FF1D017E0C0F80090FEF799FE804644
:10392000DAF8000010F0020F0DD0FEF791FEA0EBC8
:103930000800022802D90320BDE8F88FDAF8000059
:1039400010F0020FF1D1207810F0040F71D04FF079
:1039500000087C48006810F0805F0AD1794801684F
:1039600041F080510160006800F0805000904FF0FD
:103970000108DFF8D4B1DBF8000010F4807F1BD120
:10398000DBF8000040F48070CBF80000FEF760FE2A
:103990008246DBF8000010F4807F0DD1FEF758FE60
:1039A000A0EB0A00022802D90320BDE8F88FDBF85B
:1039B000000010F4807FF1D0A068DFF890B10128FA
:1039C00018D005281DD0DBF8000020F00100CBF84E
:1039D0000000DBF8000020F00400CBF80000A06835
:1039E00040B3FEF735FE8246DBF8000010F0020F10
:1039F00014D03EE0DBF8000040F00100CBF80000FE
:103A0000EDE7DBF8000040F00400CBF80000DBF845
:103A1000000040F00100CBF80000E0E7FEF718FEE0
:103A2000A0EB0A0141F28830814204D90320BDE8AD
:103A3000F88F26E005E0DBF8000010F0020FEDD073
:103A400017E0FEF705FE8246DBF8000010F0020FDB
:103A50000FD0FEF7FDFDA0EB0A0141F28830814254
:103A600002D90320BDE8F88FDBF8000010F0020F48
:103A7000EFD1B8F1010F04D13248016821F0805133
:103A80000160A069F0B32C4909684FF0FF3801F0DC
:103A90000C01082966D0022810D0C7F86090FEF704
:103AA000D7FD0446286810F0007F2BD0FEF7D0FD2C
:103AB000001B022851D90320BDE8F88FC7F8609099
:103AC000FEF7C6FD8146286810F0007F0CD0FEF797
:103AD000BFFDA0EB0900022802D90320BDE8F88F42
:103AE000286810F0007FF2D1216AE069A26A0843D9
:103AF000616A08EB5202890141EA0241084394F8E5
:103B00002C1000E055E040EA01603060012038668A
:103B1000FEF79EFD0446286810F0007F49D1FEF7AD
:103B200097FD001B022813D90320BDE8F88F000081
:103B3000043802400000474208380240800E4742E5
:103B40007438024040380240007000407038024033
:103B5000286810F0007FE2D02BE0286810F0007F8A
:103B6000A4D126E0012822D03068E26900F4800167
:103B700091421AD1226A00F03F01914215D147F6D5
:103B8000C071626A0140B1EB821F0ED1A26A00F4DB
:103B9000403108EB5202B1EB024F06D194F82C10E1
:103BA00000F07060B0EB016F03D00120BDE7012091
:103BB000BBE70020B9E770B50446002C09D0606A65
:103BC000002540B125616561A56294F8510040B1BE
:103BD0000CE0012070BD6068B0F5827FF4D0E56133
:103BE000F2E784F85050204600F044F8022084F8B0
:103BF00051002068016821F040010160A0882189FE
:103C000000F4827001F404410843A18901F40061C9
:103C10000843217C01F002010843217D01F00101EC
:103C20000843218B01F400710843217F01F0380122
:103C3000084394F8201001F080010843218D01F41D
:103C40000051084321680860A169042000EA11407E
:103C500094F8241001F010010143206841602068AD
:103C6000C16921F40061C1616565012084F85100DA
:103C7000002070BD10B586B0044614216846FCF7DC
:103C80002FFC13492068884220D112480021026885
:103C900042F480520260006800F4805005900D48A4
:103CA0001438026842F001020260006800F001006E
:103CB0000590E02000900220CDE90101032003904F
:103CC0000520049069460448FEF7B2FB06B010BD1B
:103CD0000030014044380240000002407047704705
:103CE00090F83C20012A2CD0012280F83C20CA68A0
:103CF0000023D1F808C022F4407242EA0C02D1F845
:103D000004C022F4806242EA0C02D1F800C022F41E
:103D1000006242EA0C02D1F810C022F4805242EA5A
:103D20000C02D1F814C022F4005242EA0C02C96914
:103D300022F4804211430268516480F83C30002034
:103D400070470220704730B490F83C20012A38D0E8
:103D5000012480F83C40022280F83D200268D2F81D
:103D600004C093682CF0700C0D6845EA0C0CC2F886
:103D700004C00268A2F1804CBCF5803C14D0B2F1C2
:103D8000804F11D01CF57C4C0ED0BCF5806C0BD054
:103D9000BCF5806C08D0BCF5784C05D0BCF5705CE7
:103DA00002D01CF5943C04D123F0800349681943E8
:103DB000916080F83D40002180F83C1030BC00202C
:103DC000704730BC0220704710B50446002C03D069
:103DD00094F83D0010B107E0012010BD002084F8E8
:103DE0003C00204600F01EF8022084F83D00211D12
:103DF000206802F051FB012084F8460084F83E0060
:103E000084F83F0084F8400084F8410084F84200C0
:103E100084F8430084F8440084F8450084F83D00A9
:103E2000002010BD704790F83D10012901D00120FD
:103E30007047022180F83D100168CA6842F0010213
:103E4000CA600068A0F18041B1F580311AD0B0F1AC
:103E5000804F17D011F57C4114D0B1F5806111D09D
:103E6000B1F580610ED0B1F578410BD0B1F570514C
:103E700008D011F5943105D0016841F001010160CD
:103E800000207047816801F007010629F8D0016819
:103E900041F001010160F3E770472DE9F04104466C
:103EA0002068C56806694FF0000716F0020F16D0AB
:103EB00015F0020F13D0F91E016101202077206850
:103EC000806910F0030F03D02046FFF7E5FF05E0FF
:103ED000204600F0FCF8204600F01CFA277716F088
:103EE000040F18D015F0040F15D021686FF00400EE
:103EF0000861022020772068806910F4407F03D099
:103F00002046FFF7C9FF05E0204600F0E0F8204614
:103F100000F000FA277716F0080F18D015F0080FF8
:103F200015D021686FF00800086104202077206810
:103F3000C06910F0030F03D02046FFF7ADFF05E086
:103F4000204600F0C4F8204600F0E4F9277716F088
:103F5000100F18D015F0100F15D021686FF0100059
:103F60000861082020772068C06910F4407F03D0E2
:103F70002046FFF791FF05E0204600F0A8F8204614
:103F800000F0C8F9277716F0010F09D015F0010FDE
:103F900006D021686FF001000861204600F05EFA4B
:103FA00016F0800F09D015F0800F06D021686FF051
:103FB000800008612046FFF791FE16F0400F09D0FF
:103FC00015F0400F06D021686FF0400008612046D0
:103FD00000F04BFA16F0200F0BD015F0200F08D090
:103FE00021686FF0200008612046BDE8F041FFF72E
:103FF00076BEBDE8F081000010B586B004461421FD
:104000006846FCF76DFA2368174C00211748022216
:10401000A34212D1036843F010030360006800F06C
:10402000100005904FF440700090CDE9012101206F
:10403000CDE9031069460E4812E00E4CA34211D19F
:10404000036843F008030360006800F0080005906F
:1040500020140090CDE90121CDE9031269460648FC
:10406000FEF7E6F906B010BD00000140303802400E
:104070000010024000080040000C024070B50446E9
:10408000002594F83C0001280FD0012084F83C0062
:104090006AB1042A0FD0082A11D00C2A13D00125A6
:1040A000002084F83C00284670BD022070BD2068C6
:1040B00002F062FAF4E7206802F096FAF0E720686E
:1040C00002F0CEFAECE7206802F006FBE8E7704762
:1040D00010B50446002C03D094F83D0010B107E061
:1040E000012010BD002084F83C00204600F01EF89E
:1040F000022084F83D00211D206802F0CDF9012046
:1041000084F8460084F83E0084F83F0084F84000BC
:1041100084F8410084F8420084F8430084F84400A5
:1041200084F8450084F83D00002010BD08B5006803
:104130000649884208D10648016841F00101016042
:10414000006800F00100009008BD00000000014080
:104150004438024070B504460D46002694F83C00F1
:1041600001280FD0012084F83C006AB1042A1FD036
:10417000082A32D00C2A44D00126002084F83C00C2
:10418000304670BD022070BD2946206802F0F4F967
:104190002068816941F0080181612068816921F00E
:1041A00004018161206881692A6911438161E4E722
:1041B0002946206802F018FA2068816941F40061FC
:1041C00081612068816921F4806181612068816951
:1041D0002A6941EA02218161CFE72946206802F07D
:1041E0003FFA2068C16941F00801C1612068C169D6
:1041F00021F00401C1612068C1692A691143C161CC
:10420000BBE72946206802F067FA2068C16941F4DB
:104210000061C1612068C16921F48061C1612068C9
:10422000C1692A6941EA0221C161A6E710B50446C5
:10423000002C03D094F83D0010B107E0012010BD20
:10424000002084F83C00204600F01EF8022084F88C
:104250003D00211D206802F01FF9012084F846006E
:1042600084F83E0084F83F0084F8400084F8410060
:1042700084F8420084F8430084F8440084F8450040
:1042800084F83D00002010BD38B5054600681D4982
:10429000884236D11C4900200A6842F004020A60B4
:1042A00009681B4C01F004010091184921604FF08E
:1042B000806161604021C4E9021009012161490067
:1042C00061618900C4E906100901C4E908102046AB
:1042D000FDF7ECFF08B1FDF715FBEC6200220121B0
:1042E0001E20A563FEF77EFB1E20FEF76DFB00225D
:1042F00001212F20FEF776FBBDE838402F20FEF786
:1043000063BB38BD0008004040380240B86002403E
:10431000B00500207047000010B50446002909D000
:1043200004290AD008290BD094F8410001280AD0AA
:10433000012010BD94F83E00F8E794F83F00F5E73F
:1043400094F84000F2E7022099B304293FD00829ED
:1043500040D084F841000122206802F0FDF81F4A95
:1043600020681F49904201D0884203D1436C43F436
:1043700000434364206890421CD0B0F1804F19D0B4
:10438000A0F18042B2F5806214D0B2F5806211D003
:10439000B2F580620ED088420CD0B2F59A3109D0C5
:1043A00011F5943106D0016841F00101016000204F
:1043B00010BD09E0816801F007010629F7D0016806
:1043C00041F001010160F2E784F83E00C3E784F8A0
:1043D0003F00C0E784F84000BDE700000000014056
:1043E0000004014030B504460D46002229462068ED
:1043F00002F0B2F8206841F211118A10A0F1804356
:10440000B3F5803302D0B3F5806309D1036A0B4260
:1044100006D1036A134203D1436C23F4004343647F
:104420002068036A0B4206D1016A114203D1016878
:1044300021F00101016001203DB1042D08D0082DBB
:1044400009D084F84100002030BD84F83E00FAE72E
:1044500084F83F00F7E784F84000F4E70068B0F123
:10446000804F01D1FEF726BA7047704770477047FA
:10447000F8B5044622681068D168536900F00F0C43
:10448000BCF1000F0AD110F0200F07D011F0200F5F
:1044900004D02046BDE8F84002F089B90025BCF1FF
:1044A000000F74D003F0010C01F490765CEA06066C
:1044B0006DD010F0010F06D011F4807F03D0626C34
:1044C00042F00102626410F0040F06D013F0010FF5
:1044D00003D0626C42F00202626410F0020F06D058
:1044E00013F0010F03D0626C42F00402626410F01A
:1044F000080F08D001F0200252EA0C0203D0626CCF
:1045000042F008026264626C002A35D010F0200F7D
:1045100005D011F0200F02D0204602F048F92068A3
:104520004069C0F38010616C01F00801084329D094
:10453000204602F008F92068406910F0400F1CD0B6
:104540002068143050E8001F21F0400140E80012BC
:10455000002AF5D1E06B60B164490165E06BFDF7BD
:104560009CFD002808D0E06B016D01B0BDE8F04073
:1045700008472046FFF77BFFF8BD2046FFF777FF8F
:10458000F8BD04E02046FFF772FF6564F8BD236BB9
:10459000012B7DD110F0100F7AD011F0100F77D0D1
:1045A00010685068009050694FF0200310F0400FE1
:1045B0004FF0020651D0E26B1068406880B2E0B361
:1045C000A18D81423DD9E085D069B0F5807F2DD0A5
:1045D00020680C3050E8001F21F4807140E8001280
:1045E000002AF5D12068143050E8001F21F00101A5
:1045F00040E80012002AF5D12068143050E8001F6E
:1046000021F0400140E80012002AF5D184F8423040
:10461000256320680C3050E8001F21F0100140E8AD
:104620000012002AF5D1E06BFDF7E6FC6663A08D71
:10463000E18D401A81B2204600E002E0FFF716FF4C
:10464000F8BDA18D8142FBD1D069B0F5807FF7D153
:1046500066632046FFF70AFFF8BDA08DE18D401A82
:1046600081B2E08D0028F7D00029F5D020680C3009
:1046700050E8002F22F4907240E8002CBCF1000FAB
:10468000F4D12068143050E8002F22F0010200E03D
:1046900016E040E8002CBCF1000FF2D184F8423063
:1046A000256320680C3050E8002F22F0100240E80B
:1046B0000023002BF5D166632046FFF7D7FEF8BD37
:1046C00010F0800F07D011F0800F04D02046BDE815
:1046D000F84002F04DB910F0400FF0D011F0400F4B
:1046E000EDD02046BDE8F84002F054B83967000824
:1046F00070B50446002C04D094F84100002510B198
:1047000006E0012070BD84F84050204600F024F8F7
:10471000242084F841002068C16821F40051C16060
:10472000204602F0A9F82068016921F49041016156
:104730002068416921F02A0141612068C16841F483
:104740000051C1606564202084F8410084F8420073
:104750006563002070BD00002DE9F04F87B004466E
:1047600014216846FBF7BCFEAE48AE49DFF8B082C4
:104770001038D4F800C00222032300254E05071587
:104780004FF0400AC4455AD1D1F800C0A9464CF4B4
:10479000002CC1F800C0096801F4002105910168EE
:1047A00041F0040101600068694600F004000590D2
:1047B00098028DE825000820CDE903309A48FDF7DE
:1047C00037FEDFF86C8299494046C8F80010C0E90E
:1047D0000165C0E90357C8F81450C8F81850C8F864
:1047E0001C50C8F82050C8F82450FDF75FFD08B1F0
:1047F000FDF788F88E4D8D48C4F83C806035303028
:10480000C8F8384085E84104C5E90397C5F8149015
:10481000C5F81890C5F81C90C5F820902846C5F832
:104820002490FDF743FD08B1FDF76CF8A563002265
:1048300001213420AC63FEF7D5F8342029E0DFF8FD
:10484000F481DFF8F4B14FF00709C44526D175496A
:10485000091D0C6844F010040C60096801F0100197
:104860000591016841F0010101600068694600F0AE
:10487000010005904FF4C0608DE82500CDE90339B3
:104880005846FDF7D5FD002201212520FEF7AAF8A4
:104890002520FEF799F807B0BDE8F08FDFF89C817E
:1048A000C4455BD1D1F800C0A8464CF4003CC1F827
:1048B00000C0096801F400310591016841F001016F
:1048C00001600068694600F0010005900C208DE849
:1048D0002500CDE903395846FDF7AAFDDFF85091D0
:1048E000524909F1C00948314846C9F80010C0E9E9
:1048F0000165C0E90357C9F81450C9F81850C9F840
:104900001C50C9F82050C9F82450FDF7CFFC08B15D
:10491000FCF7F8FF45484A4DC4F83C906030C9F8B0
:10492000384085E84104C5E90387C5F81480C5F817
:104930001880C5F81C80C5F820802846C5F824805A
:10494000FDF7B4FC08B1FCF7DDFFA56300220121EF
:104950002620AC63FEF746F826209AE7DFF8E480CD
:10496000C44598D1D1F800C0A8464CF4802CC1F8B9
:1049700000C0096801F480210591016841F0080137
:1049800001600068694600F0080005904FF440702F
:104990008DE82500CDE903392B48FDF749FDDFF807
:1049A000A090224909F1600948461831C0E903572F
:1049B000C9F81450C9F81850C9F81C50C9F820504B
:1049C00089E84204C9F82450FDF770FC08B1FCF7EF
:1049D00099FF1B4D1548C4F83890C0351838C9F8F0
:1049E0003840C5E90006C5F80880C5E90387C5F861
:1049F0001480C5F81880C5F81C80C5F820802846AA
:104A0000C5F82480FDF752FC08B1FCF77BFFE56395
:104A1000002201212720AC63FDF7E4FF272038E7BF
:104A2000004C004040380240000802404060024014
:104A30003007002000100140000002400044004008
:104A40005008002000480040000C024070477047AA
:104A5000FEE7F0B40023002A18D90A2430253726AF
:104A60009C46B4EB107F04D905EB107701F8137066
:104A700003E006EB107701F81370000101EB430728
:104A800087F801C05B1CDBB29342EAD3F0BC7047ED
:104A90000349497809B100F005B800F057B80000A3
:104AA000B8090020F0B5274902270F607A060A608E
:104AB0000B150B600A600B6055120D600A600B60ED
:104AC0000A600B6054130C601F4E96F81BC006EB77
:104AD0004C0EBEF824601EB10A600B60761EFBD13E
:104AE000194E1C361CF8066009E000BF5FEAC07C66
:104AF00001D00C6000E00D600A600B604008761E7B
:104B0000F4D1BEF8346076B1C00701D00C6000E08B
:104B10000D600A600B600C6001E00A600B60761E9D
:104B2000FBD10F6005E00F60C00701D00C6000E012
:104B30000D600A600B600A600B600D600A600B601C
:104B40000C60F0BD18040240B80900202DE9F047C0
:104B5000524A4FF00208C2F800804FF080631360A1
:104B60004F4D69680C46641EFDD14FF4806414609B
:104B70000E46761EFDD113600E46761EFDD11460E2
:104B80000E46761EFDD14FF4003CC2F800C0136003
:104B90000E46761EFDD114600E46761EFDD11360C2
:104BA0000E46761EFDD114600E46761EFDD14FF4E2
:104BB00000571760EE7E05EB460AB146BAF824604E
:104BC0004EB113600D466D1EFDD114600D466D1E75
:104BD000FDD1761EF5D1324E1C3619F806600EE076
:104BE000C50701D0176001E0C2F800C013600D4690
:104BF0006D1EFDD114600D466D1EFDD14008761E60
:104C0000EED1BAF8345025B3C00701D0176001E0E7
:104C1000C2F800C013600846401EFDD1146008466B
:104C2000401EFDD1176007E013600846401EFDD10D
:104C300014600846401EFDD16D1EF5D1C2F80080FB
:104C400013600846401EFDD114600846401EFDD189
:104C50000FE0C2F80080C00701D0176001E0C2F881
:104C600000C013600846401EFDD114600846401E77
:104C7000FDD113600846401EFDD114600846401E59
:104C8000FDD1C2F800C013600846401EFDD114607B
:104C9000491EFDD11760BDE8F087000018040240EE
:104CA000B80900202DE9F043344A02261660730645
:104CB0001360334841680C46641EFDD14FF4806494
:104CC00014600D466D1EFDD14FF40039C2F80090FE
:104CD00013600D466D1EFDD114600D466D1EFDD195
:104CE00013600D466D1EFDD114600D466D1EFDD185
:104CF000C57E4DB113600846401EFDD114600846C4
:104D0000401EFDD16D1EF5D11C4F00251F20083F10
:104D100013608C46BCF1010CFCD1D7F800C01460C4
:104D2000CCF380384FEA010CBCF1010CFCD145EA10
:104D3000C8756D08401EEBD1166013600846401E12
:104D4000FDD138681460C0F380360846401EFDD19E
:104D500045EAC67013600D466D1EFDD114600D4608
:104D60006D1EFDD1C2F8009013600B465B1EFDD195
:104D70001460491EFDD1BDE8F08300001804024014
:104D8000B80900202DE9F04F10F03F0500D1402573
:104D9000204EDFF884B043064FF4003A01D50223D9
:104DA00000E05346336030E011F801CB00244FF0AF
:104DB000080822E05FEACC7302D04FF4005300E011
:104DC000534633604FF080633360DBF804301F4696
:104DD0007F1EFDD10F4F083F3F68C7F380394FF466
:104DE000806737605B1EFDD163086D1E4FEA5C0C67
:104DF00043EAC914B8F1010801D0002DDAD124FA30
:104E000008F4030601D502F8014B002DCCD1BDE812
:104E1000F08F000018040240B8090020034A5278BD
:104E20000AB100F005B800F0C9B80000B8090020C8
:104E30002DE9F04F8B465E4902250D606A060A6037
:104E40000B150B6054120C600A600B600A600B605B
:104E5000584EF67E1EB10A600B60761EFBD14608E6
:104E6000F6074FF4005902D0C1F8009000E00C6042
:104E70000A60DFF83C81A8F10808D8F800600B60F0
:104E8000C6F3803676008708FF0702D0C1F800908D
:104E900000E00C600A60D8F800700B60C7F3803740
:104EA0003E43C708FF0702D0C1F8009000E00C6045
:104EB0000A60D8F800700B60C7F3803746EA870AAB
:104EC000BAF1010F01D00D6059E03A4F5FEA807CE2
:104ED000BE7EFF7EA6EB070E2BD500271F260A609D
:104EE000D8F800C00B604FEA9C3C47EACC777F08BB
:104EF000761EF4D1BEF1010614D00A60D8F800C0C5
:104F0000CCF3803C00E00A600B60761EFBD10D60A4
:104F10000A600B6047EACC75BBF1000F31D0CBF8CB
:104F200000502EE00D600A60D8F80050C5F3803CB8
:104F3000EFE7DBF800601F27CC4600BF5FEAC678CA
:104F400002D0C1F800C000E00C600A600B60760877
:104F50007F1EF3D1BEF101070AD0F60702D0C1F8D7
:104F600000C000E00C600A600B607F1EFBD1AAE766
:104F70000D60F50702D0C1F800C000E00C600A60C7
:104F80000B600A600B600C600A600B60C1F8009057
:104F9000000603D508484068064CA0600548007B21
:104FA00001E00A600B60401EFBD25046BDE8F08F66
:104FB00018040240B8090020001000E02DE9F34F6A
:104FC000B34A82B04FF00209C2F800904FF08064FB
:104FD0001460DFF8C0C2DCF804100B465B1EFDD184
:104FE0004FF4806313600D466D1EFDD14FF4003504
:104FF000156014600E46761EFDD113600E46761EB7
:10500000FDD114600E46761EFDD113600E46761E4D
:10501000FDD19CF81B704FB114600E46761EFDD179
:1050200013600E46761EFDD17F1EF5D14608F707A8
:105030004FF4005601D0166000E01560A0461460E1
:105040000C46641EFDD1DFF848C2ACF1080CDCF858
:1050500000401360C4F380340F467F1EFDD167000B
:105060008408E40701D0166000E01560C346C2F86A
:1050700000800C46641EFDD1DCF800409A46C4F363
:10508000803413600B465B1EFDD12743C308DB074A
:1050900001D0166000E01560C2F800B00B465B1E40
:1050A000FDD1DCF80030E646C3F380345346924627
:1050B00013600A46521EFDD147EA84020192012A7A
:1050C0000BD05446CAF80090CAF800B00A46521EE7
:1050D000FDD12360491EFDD1ABE06E4A8707947E67
:1050E000D27EA4EB0202009253D54FF0000C1F2792
:1050F0004FEA0A02C2F800B00C46641EFDD1DEF889
:1051000000401360C4F380380C46641EFDD14CEAA5
:10511000C8744FEA540C7F1EECD1009C641E24D04E
:10512000D846C2F800B00F467F1EFDD1DEF80070F1
:105130001360C7F3803E0F467F1EFDD1641E09D069
:10514000C2F800800F467F1EFDD113600F467F1E00
:10515000FDD1F3E7C2F80090C2F800800C46641E4F
:10516000FDD11360491EFDD10DE0C2F80090C2F8D8
:1051700000B00C46641EFDD1DEF800401360C4F39D
:10518000803E491EFDD1039A4CEACE71B2B3116044
:105190004FE0039A4FF01F0C17685246FC0701D0EE
:1051A000166000E01560C2F800B00C46641EFDD128
:1051B00013600C46641EFDD17F08BCF1010CEDD1DB
:1051C000009C641E26D0FF0701D0166000E0156029
:1051D000DC46C2F800B00F467F1EFDD113600F46BB
:1051E0007F1EFDD1641E0AD0C2F800C00F467F1E8C
:1051F000FDD113600F467F1EFDD1F3E719E0C2F821
:105200000090C2F800C00C46641EFDD11360491E18
:10521000FDD10EE0C2F80090FC0701D0166000E05E
:105220001560C2F800B00C46641EFDD11360491E23
:10523000FDD15F465246CAF800B0164C61688C46F4
:10524000BCF1010CFCD113604FEA010CBCF1010C64
:10525000FCD1156017600D466D1EFDD113600D4623
:105260006D1EFDD11660000602D50B484068A06097
:10527000247B07E017600846401EFDD113600846F6
:10528000401EFDD1641EF5D2019804B0BDE8F08F38
:1052900018040240B8090020001000E02DE9F04792
:1052A0005A4A4FF00208C2F800804FF08063136042
:1052B000574D69680C46641EFDD14FF4806414603C
:1052C0000E46761EFDD14FF40036166013600F4671
:1052D0007F1EFDD114600F467F1EFDD113600F4667
:1052E0007F1EFDD114600F467F1EFDD195F81BC0B7
:1052F0005FEA0C090AD013600F467F1EFDD11460CF
:105300000F467F1EFDD1BCF1010CF4D11660136075
:105310000F467F1EFDD114600F467F1EFDD1136026
:105320000F467F1EFDD114600F467F1EFDD1136016
:105330000F467F1EFDD114600F467F1EFDD11F2733
:105340004FF4005CAA46C50702D0C2F800C000E0D6
:10535000166013600D466D1EFDD114600D466D1E66
:10536000FDD140087F1EEED19AF81A70A7EB09050F
:105370006D1E24D0C00702D0C2F800C000E0166045
:10538000104613600F467F1EFDD104600F467F1E3E
:10539000FDD16D1E08D003600F467F1EFDD1046055
:1053A0000F467F1EFDD1F4E7C0F8008003600D4674
:1053B0006D1EFDD104600846401EFDD111E0C2F80B
:1053C0000080C007104602D0C0F800C000E00660B0
:1053D000054603600846401EFDD12C600846401E6D
:1053E000FDD113600846401EFDD114600846401EE2
:1053F000FDD1166013600846401EFDD11460491EA1
:10540000FDD1C2F800C0BDE8F087000018040240DA
:10541000B80900207FB50024144800940194029438
:1054200011490394C0E9001484600461047680F893
:1054300020400F49C0E90A140125C561C46080F805
:1054400030404561FCF736FB08B1FCF75BFA0820F9
:10545000CDE90005694602940448FCF771FA00287A
:1054600001D0FCF74FFA7FBD002001406803002007
:105470000100000F7FB500241448009401940294A9
:1054800011490394C0E9001484600461047680F833
:1054900020400F49C0E90A140125C561C46080F8A5
:1054A00030404561FCF706FB08B1FCF72BFACDE96B
:1054B0000045694605480294FCF742FA002801D0ED
:1054C000FCF720FA7FBD000000210140B00300205E
:1054D0000100000F0D4810B50B4901601421416017
:1054E00000218160C1600161416101764176817670
:1054F000C17601774177FCF772FC002803D0BDE844
:105500001040FCF7FFB910BD00640040F803002014
:10551000214808B5016841F40011016000680022CB
:1055200000F40010009001210C20FDF75BFA0C2024
:10553000FDF74AFA002201210D20FDF753FA0D2054
:10554000FDF742FA002201210E20FDF74BFA0E2052
:10555000FDF73AFA002201210F20FDF743FA0F2050
:10556000FDF732FA002201211020FDF73BFA10204E
:10557000FDF72AFA002201211120FDF733FA11204C
:10558000FDF722FA002201212F20FDF72BFABDE8BA
:1055900008402F20FDF718BA303802402DE9F041BD
:1055A00086B014216846FAF79BFF39480024016849
:1055B00041F010010160016801F0100105910168DE
:1055C00041F080010160016801F0800105910168EE
:1055D00041F004010160016801F0040105910168D6
:1055E00041F001010160016801F0010105910168CC
:1055F00041F002010160016801F0020105910168BA
:1056000041F0080101600068224E00F0080040F6F9
:1056100004450590002229463046FDF711F81E4F3B
:10562000012206213846FDF70BF8DFF870800022D2
:1056300049F204414046FDF703F801225103404678
:10564000FCF7FEFF00224FF470713846FCF7F8FFBC
:1056500000950125CDE90154694630460394FCF7D5
:10566000E7FE40F2C6300090CDE901546946384665
:105670000394FCF7DDFE4BF204400090CDE90154A9
:10568000694640460394FCF7D3FE06B0BDE8F081BE
:10569000303802400010024000080240000C024076
:1056A0000D4810B50B4901600C49416000214FF4D1
:1056B00080428160C0E9031241618161C161016280
:1056C000FCF7CCFF002803D0BDE81040FCF71AB966
:1056D00010BD00000054004020040020A0860100FE
:1056E0000D4810B50B4901600C49416000214FF491
:1056F00080428160C0E9031241618161C161016240
:10570000FCF7ACFF002803D0BDE81040FCF7FAB866
:1057100010BD00000058004074040020A086010065
:105720000F4810B50D4901604FF4827141600021AE
:105730008160C1604FF400720161C0E90512C1616E
:105740000162416281620A21C162FEF734FA0028D7
:1057500003D0BDE81040FCF7D5B810BD00300140C3
:10576000C804002010B592B000240F941C2108A892
:105770001094FAF7B5FE20216846FAF7B1FE2048EA
:105780001E4901603121C0E901144FF6FF71C0E9E3
:10579000031444618461FEF79BFC08B1FCF7B2F886
:1057A0000F940FA916481094FEF7CDFA08B1FCF734
:1057B000A9F8089409940A940B940C940D9400226F
:1057C00008A90F480E94FEF759FC08B1FCF79AF8A7
:1057D00000944FF40050CDE90440029401940394E6
:1057E000694607480794FEF77BFA08B1FCF78AF888
:1057F0000348FEF701FC12B010BD0000000001409C
:105800002005002010B58AB0002407941C216846AA
:105810000894FAF765FE15481349C0E900144A21B7
:10582000C0E9024104618461FEF700FD08B1FCF7A4
:1058300069F8079407A90D480894FEF784FA08B19F
:10584000FCF760F86020CDE9000402940822694664
:1058500006480494FEF77EFC08B1FCF753F80348B1
:10586000FEF7CAFB0AB010BD000800406805002022
:105870000C4810B50A4901604FF4E1314160002144
:1058800081600C22C160C0E904128161C161FEF730
:105890002FFF002803D0BDE81040FCF733B810BD3F
:1058A000004C0040100600200C4810B50A49016069
:1058B0004FF4E1314160002181600C22C160C0E9F8
:1058C00004128161C161FEF713FF002803D0BDE817
:1058D0001040FCF717B810BD00100140580600201A
:1058E0000C4810B50A4901604FF4E13141600021D4
:1058F00081600C22C160C0E904128161C161FEF7C0
:10590000F7FE002803D0BDE81040FBF7FBBF10BD39
:1059100000440040A00600200C4810B50A49016070
:105920004FF4E1314160002181600C22C160C0E987
:1059300004128161C161FEF7DBFE002803D0BDE8DF
:105940001040FBF7DFBF10BD00480040E806002014
:1059500010B500220F49104801F05CFD08B1FBF7BB
:10596000D1FF0E490C4801F0BCFF08B1FBF7CAFF9C
:105970000B49094801F07EF908B1FBF7C3FF06485F
:1059800002F084F8002803D0BDE81040FBF7BABF4E
:1059900010BD00001C000020FC090020E8000020D1
:1059A0008C000020FEE7FEE70148FDF7A6B90000E5
:1059B000480D002070B504462068056C00EB4110CE
:1059C000D0F8081B0C4EB54206D911F4004F03D095
:1059D0004FF40041C0F8081B2046FDF72FFDB542EB
:1059E00008D9A079012805D104F29C420121206840
:1059F00002F008FC002070BD0A30544F2DE9F04140
:105A000004460D462368196C03EB4510D0F8082BAB
:105A1000A77920264FF4004C012F08D02F4FB94210
:105A20004BD112F4004F3ED0C0F808CB53E02C4BC2
:105A300012F0080F07D099424DD912F4004F4AD006
:105A4000C0F808CB47E012F0200F02D0C0F8086B76
:105A500041E012F0280F3ED1994205D912F4004FCF
:105A600002D0C0F808CB36E005EBC50104EB81019C
:105A700001F51571D0F8100B0A6AC0F31200101A64
:105A8000486125B90A693AB1CA681044C860E9B2E8
:105A90002046FDF724F81EE004F29C420121206814
:105AA00002F0B0FBF3E712F0200F01D0C0F8086B52
:105AB000E9B22046FDF713F80DE045B9D4F86402C9
:105AC00028B904F29C420021184602F09BFBE9B27F
:105AD0002046FDF704F80020BDE8F0810A31544F5C
