:020000040801F1
:1000000000000220A9020108692901086B290108E2
:100010006D2901086F2901087129010800000000FD
:1000200000000000000000000000000031C90108CD
:100030007329010800000000D1C901082FC401087C
:10004000F5020108F5020108F5020108F5020108B0
:10005000F5020108F5020108F5020108F5020108A0
:10006000F5020108F5020108F5020108F502010890
:10007000752901088529010895290108A529010884
:10008000B5290108C5290108F5020108D52901088B
:10009000E5290108F5290108F5020108F502010822
:1000A000F5020108F5020108F5020108F502010850
:1000B000052A0108F5020108152A0108252A010868
:1000C000352A0108F5020108F5020108F5020108C8
:1000D000F5020108452A0108552A0108652A010888
:1000E000F5020108F5020108F5020108F502010810
:1000F000F5020108F5020108F5020108752A010858
:10010000F5020108F5020108F5020108F5020108EF
:10011000852A0108F5020108F5020108F502010827
:10012000F5020108F5020108952A0108F502010807
:10013000F5020108F5020108F5020108F5020108BF
:10014000F5020108F5020108F5020108A52A0108D7
:10015000F5020108F5020108B52A0108F5020108B7
:10016000F5020108F5020108F5020108F50201088F
:10017000F5020108F5020108F5020108000000007F
:08018000F5020108F502010877
:1001900053B94AB9002908BF00281CBF4FF0FF31EE
:1001A0004FF0FF3000F00CB8ADF1080C6DE904CE53
:1001B00010F008FFDDF804E0DDE9022304B0704729
:1001C000704700BF0348044B834202D0034B03B186
:1001D00018477047780100207801002000000000D7
:1001E0000548064B1B1AD90F01EBA301491002D099
:1001F000034B03B1184770477801002078010020B5
:100200000000000010B5064C237843B9FFF7DAFF71
:10021000044B13B10448AFF300800123237010BDD9
:100220007801002000000000D812020808B5054B34
:100230001BB105490548AFF30080BDE80840FFF752
:10024000CFBF00BF000000007C010020D8120208D0
:1002500002440346934200D1704703F8011BF9E7BB
:1002600070B50D4B0D4D5B1B9C100026A64209D1AD
:1002700011F032F80A4D0B4B5B1B9C100026A64276
:1002800005D170BD55F8043B98470136EEE755F8A7
:10029000043B98470136F2E78015020880150208F2
:1002A0008015020884150208DFF830D0002103E031
:1002B0000B4B5B58435004310A480B4B42189A428F
:1002C000F6D30A4A02E0002342F8043B084B9A4264
:1002D000F9D3FFF7C5FF02F0A5FA7047000002202E
:1002E0008815020800000020780100207801002015
:1002F000F01F0120FEE7000040F6533398420FD86C
:10030000B0F5FA6F0ED9642303FB00F0A0F543307B
:10031000A0F5A070044BA3FB0030C0F3472070474A
:100320006420704700207047C5B3A29110B5074CF8
:10033000204603F0D1FC0A21204603F06FFD08B1EE
:10034000002010BD204603F0C5FDFAE71C63002025
:1003500038B50024254604E0FFF7E8FF05440134E2
:10036000E4B2072CF8D9ED0840F6E44303FB05F5A9
:100370000448A0FB05302D1A00EB5500C0F3CF2038
:1003800038BD00BF010110002DE9F04182B0FFF738
:10039000DFFF074600252E462C462EE013F1050F01
:1003A00008DA0136F6B2012E02D900252C460AE001
:1003B000002408E00CB1013CE4B226B1013EF6B2E3
:1003C00001E0012500261FFA88F73846FFF794FF61
:1003D000184B1F809870DD70C8F307238DF8043028
:1003E0008DF805808DF806008DF8075004220DEB7E
:1003F0000201082000F074FF47464FF4FA600CF049
:10040000ABF8FFF7A5FFC0EB0010462307FB03F393
:1004100003EB4003084AA2FB03234FEA5318C7EB40
:100420005313052BBADD013414F0FF04C9D126465D
:10043000C9E700BF940100201F85EB51BFF34F8F28
:100440000549CA6802F4E062044B1343CB60BFF372
:100450004F8F00BFFDE700BF00ED00E00400FA058C
:1004600030B587B001AD0024019402940394049444
:100470000594009404F0C8FD01940223059306221C
:10048000039204936946284604F0B6FE044604F03D
:10049000D3FD204607B030BD2DE9F04107460E469A
:1004A000154604F0B1FD0024A04600E00134AC4242
:1004B00008D20020325D0346E11904F0F7FD8046C2
:1004C0000028F3D004F0B8FD4046BDE8F0810000FC
:1004D00070B588B005460C462022FF216846FFF71C
:1004E000B7FE0A4B009303F1B75303F5DF1303F68E
:1004F0000D43019302950394202269460448FFF7B7
:10050000CBFF08B908B070BD0320FBE74555484252
:1005100000FF070810B588B08C4611469C1CA4B299
:10052000202C01D9022400238DF800008DF801C091
:1005300033B922466946E12000F094FE08B010BDB0
:100540001A460DF1020010F0B9FEF2E7024B00224C
:100550001A605A609A6070479801002010B582B006
:10056000002800F0B48001464288002A00F0B180E3
:100570000479631E032B00F2B080DFE803F0020F62
:1005800049784FF44033009303F57F4301930823E8
:100590006A4600210120FFF7BDFF9BE0092A17D121
:1005A000D1F805304E4A1360D1F809105160013B73
:1005B000B3F5403F14D2FFF753FFE8B90124484B8D
:1005C0001C7200231A4619460220FFF7A3FF81E0A0
:1005D00000231A4601210220FFF79CFF012479E045
:1005E000134600221A605A609A6013460221084698
:1005F000FFF790FF01246DE0394B00221A605A602A
:100600009A60134603210220FFF784FF012461E072
:10061000052A1CD9324B1B7ACBB1053AD1F805001B
:1006200002EB000C2E4B1B689C4518D8093100F1D9
:10063000006000F58020FFF72FFF00B9044600237B
:100640001A4621460320FFF765FF012442E00023FC
:100650001A4605210320FFF75DFF01243AE000233D
:100660001A4602210320FFF755FF012432E0012A38
:1006700002D11B4B1B7A3BB900231A4605210420EB
:10068000FFF748FF012425E0154C2168154802F0CA
:100690003FF86168884207D000231A4604210846C3
:1006A000FFF738FF012415E00D4B1868FFF710FF26
:1006B000044600231A4601460420FFF72BFF0CB125
:1006C000012407E064200BF047FFFFF7B7FE00248A
:1006D00000E00024204602B010BD0024FAE700BF6D
:1006E000980100200000040830B58BB000220421DE
:1006F0000C4804F062FF282200216846FFF7A8FD9D
:10070000012307930893084C6946204603F056FDE1
:10071000204603F0EFFD0221204603F087FF0BB0D7
:1007200030BD00BF000C02406463002000282FD0C1
:10073000024604292CD9007853781B0443EA00634D
:10074000907843EA0023D07803431079082800D931
:10075000082000F1050C8C451AD800B589B000219D
:10076000029103910491059106910791B3F5006FF1
:100770000AD20293069001AB053202A9054803F0A4
:100780002BFE09B05DF804FB039304230493F1E707
:10079000704700BF6463002070B5ADF5886D0646F4
:1007A00027E0DDF82824100E8DF80400C2F307407E
:1007B0008DF80500C2F307208DF806008DF807209C
:1007C000042929D09DF834348DF80830DDF83444FC
:1007D00022460DF21C410DF1090010F06FFD0534A9
:1007E000ADF8024000231A4669460F4800680BF036
:1007F000ADFF0DF21C430DF224420021304603F000
:1008000060FE70B907228DF80020DDF82C14002955
:10081000C7D1DDF82424C6E79DF8343443F08003C3
:10082000D2E70DF5886D70BDCC2E0020052843D190
:10083000F0B58BB00023032B0CD8204A52F833209C
:100840008A4202D00133DBB2F5E71C4A02EBC30354
:100850005D6800E000250DB90BB0F0BD184C2046D6
:1008600003F076FD204603F0A3FD65600025A5603A
:10087000E5604FF4202323614FF4801363612576F4
:100880006576A5760126E67625776577204603F01E
:10089000EFFB282229466846FFF7DAFC0796089600
:1008A0006946204603F08AFC204603F023FD02211E
:1008B000204603F0BBFECFE7704700BFF8120208E6
:1008C0006463002070B504460D4616460F4B1B6846
:1008D000ABB10E4B186818B14FF0FF310BF095FE1D
:1008E00030460EF0C9FF294620460FF047F804466F
:1008F000064B186808B10BF0B7FE204670BD0448DF
:100900000BF038FE014B1860E3E700BFA4050020A0
:1009100028140208812801D000207047032901D043
:10092000002070471D4A118889B21D4A128892B270
:10093000914204D11B4B01221A700020704710B560
:10094000194A118889B2194A02EB811202F1400159
:100950001468D2F804E0D2F808C0D0681C60C3F86C
:1009600004E0C3F808C0D860103210338A42EFD1D7
:100970000D4A13889BB201339BB2138013889BB23C
:10098000082B02D1134600221A80054A13889BB215
:1009900001339BB21380402010BD00BFAC05002086
:1009A000AA050020A8050020AE050020A401002013
:1009B000912801D00120704710B5029A002A29D051
:1009C0001A78072A23D0164A128892B21549098844
:1009D00089B2521A92B2082A1CD0134C208880B2D5
:1009E000029A1946114B03EB801010F067FC238824
:1009F0009BB201339BB2238023889BB2082B0BD080
:100A0000074A13889BB201339BB2138002E0084B64
:100A100001221A70012010BD00222280F0E700BFE1
:100A2000B4050020B2050020B8050020A403002072
:100A3000A81F012008B500230E4A13800E4A138018
:100A40000E4A13800E4A13800E4A13800E4A1380FA
:100A50000E4A13800E4A13800E4B01221A700E4B61
:100A60001B6803B108BD0D480BF084FD0A4B1860EC
:100A7000F8E700BFB8050020B6050020B405002047
:100A8000B2050020B0050020AE050020AC05002016
:100A9000AA050020A8050020A405002028140208AB
:100AA00010B5094BD3F8BC42234600220321812014
:100AB000FFF730FF002800DC10BD82B2214602485B
:100AC0000DF0CCF9F8E700BF1417012000B583B092
:100AD00040230093054BD3F8BC32002211469120ED
:100AE000FFF766FF03B05DF804FB00BF1417012099
:100AF00010B564E03F4A128892B29A420DD09A0132
:100B00003D498A5C7E2A08D19A013B497F2088545E
:100B10000133082BEED10023ECE7384C23889BB23D
:100B2000374A118889B24022364800EB8111324899
:100B300000EB8310FFF7C6FE23889BB201339BB204
:100B4000238023889BB2082B45D02F4A13889BB261
:100B500001339BB213802A4A13889BB201339BB2A4
:100B6000138013889BB2082B38D0284A13889BB275
:100B700001339BB21380264B1B7803B3128892B2C9
:100B8000244B1B889BB29A4219D0234B198889B2F7
:100B90004A1C92B21A801B889BB2082B22D01D4A95
:100BA00013889BB201339BB21380194B00221A7039
:100BB0004022144B03EB811118480DF04FF9184BEC
:100BC0001A8892B2104B1B889BB29A420ED00B4BE4
:100BD0001B889BB293E700222280B6E713460022CF
:100BE0001A80C2E70C4B00221A80D8E701200BF0D4
:100BF000B3FCE4E7B8050020A4030020B6050020FC
:100C0000B0050020A4010020B2050020AC050020A2
:100C1000A8050020AA050020AE0500201417012019
:100C2000B405002010B50B4C204605F0E1F90A4B45
:100C30001B785B00E360204605F0FCF8074B1B784F
:100C4000012B00D010BD064B00221A80204605F073
:100C5000B1FCF7E7E063002002000020F00D002067
:100C6000D409002008B5FFF7DDFF08BD20B310B59B
:100C700082B00C460146012C10D9104B1B78012B79
:100C80000ED0024612F8011B4900631E642000903A
:100C90009BB201F0FE010A4805F0C4F902B010BD94
:100CA000B4F5836F01D94FF483642246054810F0F0
:100CB00005FB054B1C80F1E7704700BFF00D0020DD
:100CC000E0630020BC05002000000020174B1B78CB
:100CD00053BB48B3012927D930B5ADF22C4D037869
:100CE0005B00DCB2457855B102290BD86423009330
:100CF0002B4604AA21460E4805F04EFA70B10DF2BB
:100D00002C4D30BD83780DF10F02137064230093D6
:100D100001232146064805F085F9E7E72A4604A99C
:100D2000062000F0DDFAEAE7704700BFF00D002072
:100D3000E063002008B507280CD0082812D004284A
:100D40000FD10C4B994202D00B4B994207D10B4B60
:100D5000596004E0003918BF0121094B1970FFF7F1
:100D600061FF08BDA1F108036F2BF8D8054B19707E
:100D7000F5E700BFA0860100801A0600E0630020AE
:100D8000F00D00200200002008B50F4B834200D078
:100D900008BD0E4B1B78012BFAD1012909D00C4B51
:100DA0001A8802B9012220230A49074805F072FB7C
:100DB000EEE7094B00221A8004230122074902486A
:100DC00005F0B0FBE4E700BFE0630020F00D002079
:100DD00000000020BC050020D4090020D809002014
:100DE00008B50E4B834200D008BD0D4B1B78012B7C
:100DF000FAD10C4B1B88B3F5836F02D20133094A39
:100E00001380084B1988B1F5836FEDD204230122BA
:100E100005480144014805F085FBE5E7E063002053
:100E2000F00D0020D4090020D809002008B50B4B94
:100E3000834200D008BD0A4B1B78012BFAD1094B25
:100E40001A881AB9054805F0B5FBF3E706490520ED
:100E500000F046FA034B00221A80F3E7E06300201B
:100E6000F00D0020D4090020D809002008B5074B58
:100E7000834200D008BD064B1B78012BFAD1054BED
:100E800000221A80014805F095FBF3E7E06300209B
:100E9000F00D0020D409002010B500F04BF90146F8
:100EA000054C8022204608F0B1FFE36B1A681368F6
:100EB00023F00803136010BD5469002038B370B5E7
:100EC0000D46064611B3B1F5836F01D94FF4836522
:100ED00002F022FE044602E001200BF03DFB0C482C
:100EE00008F032FF10F0210F05D002F015FE001BB4
:100EF0003228F1D90AE0074C2A463146204610F044
:100F0000DDF92A462146024808F0D6FB70BD70473D
:100F100054690020F40D002001281CD138B50C467E
:100F200001B938BD0C4D284608F00EFC284608F0E3
:100F300044FB6C60284608F010FB00F0FBF801460B
:100F40008022284608F062FFEB6B1A68136823F0D2
:100F500008031360E5E770475469002010B50022CC
:100F60004FF48061084804F028FB00F0DFF80146E8
:100F7000064C8022204608F049FFE36B1A6813688C
:100F800023F00803136010BD000C02407C680020B1
:100F900068B370B50D46064641B3B1F5836F01D90C
:100FA0004FF4836502F0B8FD044602E001200BF027
:100FB000D3FA0F4808F0C8FE10F0210F05D002F058
:100FC000ABFD001B3228F1D910E00A4C2A4631460D
:100FD000204610F073F901224FF48061064804F0B6
:100FE000ECFA2A462146024808F066FB70BD7047BD
:100FF0007C6800200C120020000C0240012822D145
:1010000038B50C4601B938BD0F4D284608F09CFB99
:10101000284608F0D2FA6C60284608F09EFA0022B2
:101020004FF48061094804F0C8FA00F07FF80146E7
:101030008022284608F0EAFEEB6B1A68136823F05A
:1010400008031360DFE770477C680020000C024053
:1010500070470000C0B130B583B00C4601468CB17A
:10106000B4F5836F01D94FF48364084D32230093A4
:1010700023462A46064807F07AFB224629460420E2
:1010800000F02EF903B030BD704700BF24160020D9
:101090003464002038B505460C46214807F051FB62
:1010A000022D09D0032D19D0062D0DD1003C18BFFB
:1010B00001241C4B1C7007E0072C00D907241A4B95
:1010C00053F82420164BDA61164B1B782BBB4FF4D8
:1010D00082731348436007F0D5FA38BD04F0030467
:1010E000032CF1D8DFE804F002070D130C4B0022AB
:1010F0001A615A61E8E70A4B00221A6101225A611B
:10110000E2E7074B02221A6100225A61DCE7044B36
:1011100002221A6101225A61D6E70023D9E700BFF3
:10112000346400203C1A002038140208004870473C
:10113000542F002000487047D42E00202DE9F041A4
:1011400006460D4601F056F910B98046002411E01C
:10115000A9B2304600F0D6FFBDE8F081AA2A08D136
:101160003B4B01221A7004E0552A1BD04246384BF3
:101170001A700134AC42EFD2325D354B1B78062B2E
:1011800061D801A151F823F05D110108691101082E
:10119000A9110108B9110108CF110108FD110108B9
:1011A000231201080222E2E72A4B1A702A4B1A7016
:1011B000274B03221A70DCE71102264B598026497F
:1011C0000B7853400B70224B04221A70D1E721494F
:1011D0004B8813434B80204801784A4002701F4AD5
:1011E00000211180013B9BB2B3F5836F02D3184BF2
:1011F0001970BEE7164B05221A70BAE71748018826
:101200004B1C9BB20380134801440A71124F39787A
:101210004A403A7042889342ABD30D4B06221A7073
:10122000A7E70D4B1B78934203D0094B00221A709D
:101230009FE70B4B18680028F7D000231A46054992
:101240000BF084FAF1E7024B00221A7091E700BF1D
:10125000C82E0020AC2A0020A82A0020A62A0020A0
:10126000D02E002070B505460E46144601F0C2F897
:1012700020B9631E9BB2B3F5836F00D370BD1748CE
:10128000BB230370552343708570230AC3706B40E2
:10129000E5B205715D4022463146053010F00EF88A
:1012A000002303E0F25C554001339BB2A342F9D323
:1012B000631D0A4AD55402F02FFC0546A11D89B2D0
:1012C00006480CF02FFE0128D8D10BF045F902F0AA
:1012D00023FC401B3128F1D9D0E700BF882600202D
:1012E00070B504460D461646FFF7BCFF3246294648
:1012F000204600F08BFE70BD00B583B08DF8040071
:1013000051B100238DF80530022201A9F020FFF72A
:10131000E7FF03B05DF804FBFF23F3E710B50022FD
:1013200040F21C4104200BF0C6F9154B1860002256
:1013300040F21C4104200BF0BEF9124B1860FFF77D
:101340000DFEFFF7A9FDFFF783FEFFF78BFCFFF70C
:10135000CBF90D4C80220D49204608F057FDE36B78
:101360001A68136823F008031360094A002109482A
:101370000BF098F8FFF7EAF801F0BEF810BD00BFD7
:10138000D02E0020CC2E00200C690020D42F00206D
:1013900058140208191A0108002900F0A38030B57A
:1013A000ADF2244D0C460A46B1F5836F28BF4FF4C9
:1013B0008362ADF8062003684B498B420BD04B4942
:1013C0008B4224D04A498B423DD04A4A934256D060
:1013D0000DF2244D30BD01218DF80410464902A8BC
:1013E0000FF06CFF454B186820B100231A4601A985
:1013F0000BF0ACF9424C80223F49204608F006FD34
:10140000E36B1A68136823F008031360E0E7022116
:101410008DF804103B4902A80FF050FF374B1868B5
:1014200020B100231A4601A90BF090F9364C802216
:101430003449204608F0EAFCE36B1A68136823F08D
:1014400008031360C4E703218DF804102F4902A894
:101450000FF034FF294B186820B100231A4601A968
:101460000BF074F92A4C80222849204608F0CEFC63
:10147000E36B1A68136823F008031360A8E700F011
:10148000B9FFD8B900F0B0FF0028A1D1214A1368F4
:101490000133136000F09CFD0546214600F09CFDE1
:1014A0001D4C4FF400622946204608F0AFFCE36B68
:1014B0001A68136823F00803136089E700F088FDB9
:1014C0000546214600F046FE134C4FF400622946C3
:1014D000204608F09BFCE36B1A68136823F00803AE
:1014E000136075E7704700BF0010014000480040DE
:1014F000004C004000440040D42F0020CC2E00209F
:101500000C690020542F00207C680020D42E00207D
:101510005469002008490020C468002001281AD11D
:1015200038B50C4601B938BD0B4D284608F00CF90A
:10153000284608F042F86C60284608F00EF8802231
:101540000649284608F062FCEB6B1A68136823F022
:1015500008031360E7E770470C690020D42F0020D0
:1015600010B582B04288CAB103460479F02C1AD073
:10157000052A24D940799A79D979090441EA026186
:101580001A7A41EA02215B7A1943631E062B32D88C
:10159000DFE803F01A1D202326262E000021F0206C
:1015A000FFF7AAFE22E0164B93E803000090ADF887
:1015B000041006226946F020FFF792FE16E0002193
:1015C0002046FFF799FE11E0FFF7A8FF0AE0FFF7BA
:1015D00015FD07E0FFF7A0FC04E0FFF75BFD01E06D
:1015E000FFF7A8FB01212046FFF786FE02B010BDE1
:1015F000FFF71CF9F6E700212046FFF77DFEF5E72F
:10160000F0120208F0B5ADF2344D04460378072B12
:101610000BD85AB2002A56D0013B062B53D8DFE82C
:1016200003F035555A5F64696E00E12B6CD028D801
:10163000D02B76D0E02B46D142881AB10379032B08
:1016400000F0A5801AB12379042B00F0A3801AB111
:101650002379062B00F0A1801AB12379F12B00F039
:10166000B180012A03D92379F22B00F0EA801AB164
:101670002379F32B00F09481211DE02000F0C6FCBB
:1016800021E0F02B1FD1FFF76BFF1CE002F044FAC2
:101690000546AF4808F058FB10F0210F08D002F0C3
:1016A0003BFA401B322803D801200AF055FFF0E72F
:1016B000A84D6288211D28460FF000FE6288294649
:1016C000A34807F0F9FF0DF2344DF0BD4188043016
:1016D000FFF75EFCF7E741880430FFF7EFFBF2E726
:1016E00041880430FFF7B6FCEDE741880430FFF78E
:1016F000BDFAE8E741880430FFF7E8FAE3E74188FC
:101700000430FFF713F8DEE7FEF728FF0028DAD1F0
:1017100005A940F2FF130B800222E120FFF7A2FD92
:10172000D1E74688B6F5836F28BF4FF483668A4DAC
:101730004FF483673A4600212846FEF789FD3A4672
:1017400000218648FEF784FD3246211D28460FF011
:10175000B5FD2B78072B03D1814B01221A70B2E71C
:101760004FF483627D497C48FFF7ACF882B242B9FE
:101770007A4BFF221A7001227849D02000F046FCF3
:10178000A1E7B2F5836FF7D94FF48362F4E700F075
:1017900045FD98E700F058FD95E701A90B8002226E
:1017A000E020FFF75FFD32200AF0D6FE00231A4644
:1017B00005A96C4800680BF00BF80028F6D000F083
:1017C0001FFE80E7684B1A68684B1A60684BDB6B3A
:1017D0003BB11B682BB11968664A11605A68664BA9
:1017E0001A6005A9F1230B70644B1B68C1F8013026
:1017F000634B1B68C1F80530624B1B68C1F80930A8
:10180000614B1B68C1F80D30604B1B68C1F811308B
:101810005F4B1B68C1F815305E4B1B68C1F819306F
:10182000524B1B68C1F81D30524B1B68C1F8213068
:10183000514B1B68C1F825302922E020FFF712FD2B
:1018400041E76379002B34D0012B68D0022B7FF461
:101850003AAF05A900240C604C608C60CC600C6130
:101860000C230B6002264E600323CB6007230B6121
:10187000494803F00BFD3E4D484B6B60EC61284638
:1018800007F06BFE00F0A4FB01464FF4006228460F
:1018900008F0BCFAEB6B1A68136823F008031360B6
:1018A00001A940F2F2230B803246E020FFF7DAFC78
:1018B00009E72F4C204607F047FF204607F07DFE42
:1018C00005AC00250595069507950895099504270B
:1018D000059701230693304E2146304603F0D6FC8F
:1018E0002A463946304603F068FE082705970695D4
:1018F00007952146304603F0C9FC01ACF2238DF870
:1019000004308DF805503946304603F04FFE8DF80F
:10191000060003222146E020FFF7A4FCD3E61E4D7B
:1019200001220421284603F048FE05ACF2238DF87D
:10193000143001238DF815300821284603F036FEB7
:101940008DF8160003222146E020FFF78BFCBAE653
:101950000C69002070220020581E0020401A002030
:10196000A81F0120CC2E002000440040F848002091
:10197000C4680020F4480020F048002010490020EE
:101980000C4900200849002004490020004900209B
:10199000FC480020040000200000024040420F00EC
:1019A000F3228DF81420194AD168CDF81510516929
:1019B000CDF819109168CDF81D101268CDF82120CE
:1019C000134B9B6B43B11B6833B11968CDF82510DD
:1019D0005B68CDF8293005E04DF6AD62CDF82520E5
:1019E000CDF8292001AC0B4B0FCB84E80F004FF44E
:1019F000FA730F222146064807F0F9FD05A9C1F840
:101A000019001D22E020FFF72DFC5CE60044004099
:101A1000C46800202813020810B5ADF5846D20E0DD
:101A200004460123002201A9124800680AF0D0FEF2
:101A300060B901A8FFF7E6FD08E0BDF8062002A99D
:101A40009DF80400FFF74CFC0134E4B2032C08D8E5
:101A500000231A4601A9084800680AF0B9FE0028C8
:101A6000EBD000F0C7FC0028DAD064200AF074FD47
:101A7000F7E700BFD02E0020CC2E002010B590B08C
:101A80000368654A93420BD0644A934229D0644A62
:101A900093427AD0634A934200F09D8010B010BD0B
:101AA00000220192604C23681968019159680191E4
:101AB0000199029219680291596802910299039260
:101AC0001A6803925B680393039B80225749204660
:101AD00008F09CF9E36B1A68136823F0080313609D
:101AE000DCE700F087FC00282BD100F07DFC00280B
:101AF000D4D14F4A136801331360002207924D4C32
:101B0000236819680791596807910799089219681D
:101B1000089159680891089909921A6809925B68B6
:101B20000993099B00F054FA01464FF400622046E5
:101B300008F06CF9E36B1A68136823F0080313606C
:101B4000ACE7002204923B4C236819680491596861
:101B500004910499059219680591596805910599B0
:101B600006921A6806925B680693069B00F030FAAC
:101B700001464FF40062204608F048F9E36B1A680A
:101B8000136823F00803136088E700220A922A4CA6
:101B9000236819680A9159680A910A990B92196881
:101BA0000B9159680B910B990C9219680C915B6819
:101BB0000C930C9B4FF48061204803F0FEFC8022C4
:101BC0001F49204608F022F9E36B1A68136823F0D6
:101BD0000803136062E700220D9219680D9159689D
:101BE0000D910D990E9219680E9159680E910E99EA
:101BF0000F921A680F925B680F930F9B114C802213
:101C00001149204608F002F9E36B1A68136823F0C3
:101C10000803136042E700BF001001400044004089
:101C200000480040004C00400C690020D42F0020E8
:101C300000490020C46800207C680020000C02409D
:101C4000542F002054690020D42E002002680F4B2E
:101C50009A4200D0704710B50D4B1B681B6813F0FB
:101C6000400FF9D000224FF480610A4803F0A5FC30
:101C7000074C80220849204608F0C8F8E36B1A6830
:101C8000136823F00803136010BD00BF0048004034
:101C90007C680020000C0240542F002008B5037817
:101CA000427843EA0223827843EA0243C07843EA57
:101CB000006000F079FA08BD08B5054BD3F8BC22E6
:101CC0002AB140235132032101480CF057FB08BDD3
:101CD000141701200A4B1B889BB20133C3F30B037B
:101CE000084A128892B29A4209D010B404490A886C
:101CF00092B2054CA0540B805DF8044B70477047BE
:101D00001649002014490020184900200B4B1A885E
:101D100092B20B4B1B889BB29A420DD0084A138893
:101D20009BB20849CB5C037013889BB20133C3F3A9
:101D30000B031380012070470020704716490020D4
:101D400014490020184900203C4B1B78062B6CD806
:101D5000DFE803F004141D26324B6200AA2803D0EA
:101D6000BB2806D000207047344B01221A70002097
:101D70007047324B01221A7000207047552804D05A
:101D800000222E4B1A70002070470222F9E72C4BDC
:101D900018702C4B1870294B03221A7000207047C2
:101DA0000202274B5A80274A137843401370234B73
:101DB00004221A7000207047214A5388034353803D
:101DC00020490A7842400A701F4A00211180013BD5
:101DD0009BB2B3F5836F03D30846184B1970704755
:101DE000164B05221A700020704710B416490A8855
:101DF000531C9BB20B8012490A441071114C22787B
:101E0000424022704A88934213D30C4B06221A7028
:101E100000205DF8044B7047084B00221A70094BF4
:101E20001B78834207D0104670470020034B187080
:101E300070470020EDE70120704700BFB834002054
:101E40009C300020983000209630002070B592B071
:101E5000534B1B680BB9002235E0514B1E6800251F
:101E60001D60504C204607F06FFC204607F0A5FB94
:101E70006660E561204607F070FB019523681A68EB
:101E800001925A680192019A5B684FF400624649D8
:101E9000204607F0BBFFE36B1A68136823F00803C2
:101EA0001360D8E741490B889BB2501C404CE35C5F
:101EB00048326A4402F8403C0B889BB20133C3F3BA
:101EC0000A030B8082B23F2A07D83A4B198889B29D
:101ED000364B1B889BB29942E4D11ABB364B1B7818
:101EE00093B1344B1A8892B2304B1B889BB29A4202
:101EF0001ED3304B1B889BB22C4A128892B29B1A7D
:101F00009BB2B3F5806F1FD32C4B1C88002C30D0B4
:101F100021462B480CF006F8012835D0274B00222B
:101F20001A8031E0642302A91E4807F060FBD5E760
:101F3000204B1B889BB21D4A128892B29B1A9BB2FF
:101F400003F500639BB2DCE7FFF7B6FE1A4B0022F5
:101F50001A70D9E71B4A13889BB2611C1A48C05CEF
:101F6000174B185513889BB20133C3F30A03138030
:101F70008CB23F2C07D8154B1A8892B2114B1B8894
:101F80009BB29A42E6D10CB912B070BD21460C4802
:101F90000BF0C8FF0128F7D1084B1C80F4E700BF05
:101FA000E8480020C468002018590020E4400020C0
:101FB000E8400020E6400020DE3800209430002079
:101FC00054300020E0380020E4380020E2380020BF
:101FD00000487047185900200A4B1B7883B970B528
:101FE00006460D46084A13680B441360002404E0BB
:101FF000305DFFF76FFE0134A4B2AC42F8D370BD80
:10200000704700BFED48002004490020374B1B7883
:10201000002B6AD170B506460D461446531E9BB27E
:10202000B3F5836F00D370BDC821314B18680AF037
:10203000ECFA0028F7D12F48BB23037055234370D7
:102040008670230AC3707340E6B206715E40224672
:10205000294605300FF032F9002303E0EA5C5640D0
:1020600001339BB2A342F9D3631D224AD6540634EE
:10207000A4B2802C14D8142322461E491E4807F00F
:10208000B6FA40B91D4A136801331360184B18683B
:102090000AF0EAFAC7E71A4A136801331360F5E752
:1020A00001F03AFD0546144807F04EFE10F0210FEE
:1020B0000BD001F031FD401B142803D801200AF099
:1020C0004BFAF0E70C4807F07FFB224609490A4823
:1020D00007F0F2FA20B9094A136801331360D5E713
:1020E000074A136801331360D0E77047ED480020BA
:1020F000BC340020C0340020C468002010490020F7
:102100000C49002000228A421DD230B50E4B1B889C
:102110009BB20133C3F30A030C4CB4F800C01FFA9E
:102120008CFC9C450ED0084CB4F800C01FFA8CFC07
:1021300010F802E0064D05F80CE02380013292B25F
:102140008A42E3D330BD7047E6400020E4400020DF
:10215000E840002000228A421FD230B503E001325D
:1021600092B28A4218D20D4B1B889BB20133C3F343
:102170000A030B4CB4F800C01FFA8CFC9C45EED04F
:10218000064CB4F800C01FFA8CFC10F802E0054DB4
:1021900005F80CE02380E2E730BD7047E23800200C
:1021A000E0380020E4380020034B1B7813B108B15D
:1021B000024B1860704700BFEC480020E848002040
:1021C000114B1A8892B2114B1B889BB29A420CD3C6
:1021D0000D4B1B889BB20D4A128892B29B1A9BB280
:1021E000B3F5C06F0DD901207047074B1B889BB218
:1021F000064A128892B29B1A9BB203F500639BB207
:10220000EEE70020704700BFE6400020E4400020D9
:10221000014B01221A707047DE38002010B5094CBE
:1022200000220421204603F0C8F964200AF094F942
:1022300001220421204603F0C0F94FF4FA700AF09D
:102240008BF910BD0008024070B586B001261A4B0C
:102250001E701A4C204607F077FA204607F0ADF9B9
:1022600001A9002401944C608C60CC600C610C23AB
:102270000193134803F00AF8124D22460221284622
:1022800003F09BF932200AF067F922460421284620
:1022900003F093F964200AF05FF9324604212846DE
:1022A00003F08BF964200AF057F9324602212846E0
:1022B00003F083F906B070BDED480020C46800202B
:1022C00000000240000802404288002A3ED000B5CB
:1022D00089B00379102B2FD006D8032B27D0042BDD
:1022E0002FD1FFF7B1FF24E0F12B2AD1F1238DF894
:1022F0000430174B1B68CDF80530164B1B68CDF822
:102300000930154B1B68CDF80D30144B1B68CDF808
:102310001130134B1B68CDF81530124B1B68CDF8EC
:102320001930192201A9E020FEF79CFF01E0FFF718
:1023300075FF09B05DF804FB011DE020FEF792FF78
:10234000F7E7011DE020FEF78DFFF2E7704700BFC1
:10235000104900200C4900200849002004490020B1
:1023600000490020FC48002010B582B029E01A483E
:10237000FFF7AAFF23465A1E94B2FBB10DF10700E6
:10238000FFF7C4FCD0B19DF80700FFF7DDFC002883
:10239000F0D0124A1368013313600F4B1B78E02B07
:1023A000E5D00F4B18680028E4D000231A460A49EC
:1023B0000AF0CCF9DEE74FF40063DCE701200AF015
:1023C000CBF8084B1B78002BF5D0FFF73FFD012021
:1023D0000AF0C2F8F5E700BF9C300020FC4800205E
:1023E000D02E0020EC480020014B1878704700BF29
:1023F000ED480020014B1878704700BFEC480020E2
:1024000070B584B00126314B1E70314D284607F05F
:102410009BF9284607F0D1F82E4C002202212046D5
:1024200003F0CBF832200AF097F80022042120466E
:1024300003F0C3F864200AF08FF8324604212046E6
:1024400003F0BBF832200AF087F83246022120461A
:1024500003F0B3F832200AF07FF84FF4E1336B60F9
:102460000024EC61284607F078F801942B681A687C
:1024700001925A680192019A02941A6802925A686B
:102480000292029A03941A6803925A680392039A7A
:102490005B684FF400621049284607F0B7FCEB6B0D
:1024A0001A68136823F0080313600C4B1C800C4B54
:1024B0001C800C4B1C800C4B1C800C4B1C600C4B70
:1024C0001C700C4B1E7004B070BD00BFED480020A6
:1024D000C46800200008024018590020E440002091
:1024E000E6400020E0380020E2380020E8480020E4
:1024F000DE380020EC48002030B585B0274C20465F
:1025000007F022F9204607F058F8254B63600023B6
:10251000E361204607F021F8002835D121480AF070
:1025200029F8214B1860FFF779FE40F2DC500AF0E1
:1025300013F800240194194D2B681A6801925A6807
:102540000192019A02941A6802925A680292029ABF
:1025500003941A6803925A680392039A5B684FF4D3
:1025600000621249284607F051FC114B1860EB6BD2
:102570001A68136823F0080313600E4A21460E48B8
:1025800009F090FF05B030BD20464FF4E1336360A1
:102590000023E36106F0E1FFC0E700BFC46800204C
:1025A00040420F00A0140208BC340020185900203B
:1025B000040000207C1402086923010838B50023B8
:1025C0009E4630E018202F4921F8130001320133D4
:1025D000072A05D8802111410D42F3D03020F2E7BF
:1025E000002205E01820274921F8130001320133A9
:1025F000072A05D8802111410C42F3D03020F2E7A0
:10260000002205E018201F4921F813000132013390
:10261000072A06D8802111411CEA010FF2D0302090
:10262000F1E70EF1010EBEF1060F09D816480EEBC8
:102630004E014218455C547892F802C00022C7E768
:102640000821124806F01CFDA823114A0D49114823
:1026500002F0C4FA90B90D4C2268D36843F40063C9
:10266000D360022001F05EFA2268D36823F400638D
:10267000D3600821204606F081FD38BD00F07BF8CC
:10268000E9E700BF1861002068620020EC640020C8
:102690003C0800408C64002006280DD810B4074C7C
:1026A00000EB400004EB000C8CF8011022548CF875
:1026B00002305DF8044B7047704700BF686200202D
:1026C000F8B507460E461546002407E02B4632466D
:1026D00039462046FFF7E0FF0134E4B2062CF5D975
:1026E000F8BD08B5002211461046FFF7E9FFFFF7D5
:1026F00065FF142001F016FA08BD000008B5082196
:10270000024806F0BDFCFFF7ECFF08BDEC640020BA
:102710004FF0FF320B46013903B310F8013B5A402A
:102720004FF0000CBCF1070FF4D800B542F3000ED7
:102730000B4B0EEA030383EA52020CF1010CBCF1CD
:10274000070FF3D90B4601392BB110F8013B5A4062
:102750004FF0000CF3E7D0435DF804FBD043704723
:102760002083B8ED08B50368B3F1804F00D008BDF1
:1027700001F0C6F9FBE772B6FEE7000010B594B0B1
:1027800008AC302200212046FDF762FD00230393B0
:1027900004930593069307930193204A116C41F02B
:1027A00080511164126C02F080520192019A0293DE
:1027B0001B4B1A6842F480421A601B6803F4804382
:1027C0000293029B012308934FF480330993022361
:1027D0000E934FF480020F920F22109290221192CA
:1027E000129305231393204605F064FB90B90F2341
:1027F000039302230493002305934FF4A0530693FD
:102800004FF480530793032103A805F0A3FD18B9E3
:1028100014B010BDFFF7AFFFFFF7ADFF0038024067
:102820000070004008B5224C224BA36001F04EF925
:10283000FFF7A4FF00F06EFB00F008FB00F0B6F914
:1028400000F07AFA00F0E8F900F0F8FB00F014FC70
:1028500000F0D8FC00F0C4FE00F0DCFE00F0F2FD59
:1028600000F08AFE00F0A2FE00F046FE012240F6D3
:102870000441114802F0A1FE322001F053F9FFF7A4
:102880003DFFD4F8FC3043F08073C4F8FC300B4BB0
:1028900000225A601A6842F001021A600DF08EF8A8
:1028A00009F0D2FD00F038F809F0E0FDFEE700BFC6
:1028B00000ED00E00000010800100240001000E000
:1028C00008B50BF005FBFEF7B5F8FEF727FD0B4A40
:1028D00000210B4809F0E6FD0A4A00210A4809F0E8
:1028E000E1FD0023192219460120FFF7D5FEFFF76D
:1028F00065FE642009F030FEFBE700BFD414020837
:10290000F10A0108B01402088903010808B5012082
:1029100009F022FEFBE7000008B50B4A0121102058
:1029200009F0C9FE094B1860094A0021094809F05D
:10293000B9FD094B1860094A0021094809F0B2FDA8
:10294000084B186008BD00BFF81402088062002020
:1029500034150208C12801088862002010150208F9
:102960000D29010884620020FEE7FEE7FEE7FEE78E
:10297000FEE7704708B5024802F0C0F908BD00BF85
:102980007C65002008B5024802F0B8F908BD00BF18
:102990001C68002008B5024802F0B0F908BD00BF6D
:1029A000DC65002008B5024802F0A8F908BD00BFA8
:1029B000BC67002008B5024802F0A0F908BD00BFBE
:1029C0009C66002008B5024802F098F908BD00BFD7
:1029D0003C66002008B5024801F046FE08BD00BF75
:1029E0006463002008B5024801F03EFE08BD00BF48
:1029F0006463002008B5024801F036FE08BD00BF40
:102A00006463002008B5024806F0BAF808BD00BFAC
:102A10008C62002008B5024806F0B2F808BD00BF7D
:102A2000EC64002008B5024804F0D8FA08BD00BFE5
:102A3000E063002008B5024804F09FFB08BD00BF1A
:102A4000E063002008B5024806F0D2FF08BD00BFD1
:102A50000C69002008B5024806F0CAFF08BD00BF97
:102A6000C468002008B5024806F0C2FF08BD00BFD8
:102A70007C68002008B5024802F040F908BD00BF9C
:102A80008C64002008B5024806F0B2FF08BD00BF04
:102A90005469002008B5024802F030F908BD00BFB3
:102AA000FC66002008B5024804F0F9FE08BD00BF2E
:102AB000C41A012008B5024802F020F908BD00BF81
:102AC0005C67002000B583B0002200920D4B596C6A
:102AD00041F480415964596C01F48041009100999E
:102AE0000192196C41F0805119641B6C03F0805302
:102AF0000193019B0F216FF0010001F043FF03B030
:102B00005DF804FB0038024030B589B0044600236C
:102B10000193224B1A6C42F001021A641B6C03F001
:102B200001030193019B02A903A805F0E9FC069BA0
:102B3000D3B905F0C5FC0346194AA2FB03239B0C3D
:102B4000013B18484FF08042026040F2E732C26019
:102B50004360002303618360836106F029F9054621
:102B600030B1284609B030BD05F0AAFC4300E3E7C8
:102B70000C4805F0BFFF05460028F2D11C2001F0EB
:102B800011FF0F2C01D90125EBE7002221461C2063
:102B900001F0F8FE044B1C60E3E700BF0038024080
:102BA00083DE1B438C6200201000002000B585B03E
:102BB000002300930193029303931448144A026084
:102BC000436083600361037680F82030C362114A5A
:102BD0008262C3600122C26180F83030426101F03C
:102BE0004FF868B90823009301230193002302934F
:102BF0006946064801F072F928B905B05DF804FB92
:102C0000FFF7B9FDEEE7FFF7B6FDF6E71C6300201E
:102C1000002001400100000F00B585B000230093A3
:102C20000193029303931448144A02604360836043
:102C30000361037680F82030C362114A8262C36068
:102C40000122C26180F83030426101F019F860B9A8
:102C5000002300930122019202936946064801F085
:102C60003DF928B905B05DF804FBFFF784FDEFE7F7
:102C7000FFF781FDF6E700BFD4620020002101408C
:102C80000100000F00B58BB0002305930693079356
:102C9000089309930368234A934205D0224A93423A
:102CA00021D00BB05DF804FB002101911F4B5A6C41
:102CB00042F480725A645A6C02F480720192019A52
:102CC00002911A6B42F002021A631B6B03F00203BB
:102CD0000293029B012305930323069305A914483D
:102CE00002F0D4FADDE700210391104B5A6C42F454
:102CF00000725A645A6C02F400720392039A0491AF
:102D00001A6B42F001021A631B6B03F00103049378
:102D1000049B03230593069305A9064802F0B6FA1F
:102D2000BFE700BF00200140002101400038024001
:102D3000000402400000024008B50B480B4B036042
:102D40001423436000238360C360036143610376FF
:102D500043768376C3760377437701F089F900B928
:102D600008BDFFF708FDFBE7646300200064004036
:102D700010B588B00023039304930593069307933B
:102D80000268204B9A4201D008B010BD0024019483
:102D900003F5EA331A6C42F000721A641A6C02F0FE
:102DA00000720192019A02941A6B42F008021A63AF
:102DB0001B6B03F008030293029B0323039302227D
:102DC000049206930923079303A90F4802F05EFAC1
:102DD00022460121132001F0D5FD132001F0E2FD70
:102DE00022460121142001F0CDFD142001F0DAFD6E
:102DF00022460121152001F0C5FD152001F0D2FD6C
:102E0000C2E700BF00640040000C024008B5026841
:102E10000B4B9A4200D008BD0A4A136C23F0007392
:102E200013640321084802F027FB132001F0BEFDC4
:102E3000142001F0BBFD152001F0B8FDEBE700BF49
:102E40000064004000380240000C024010B582B01F
:102E5000002400942E4B1A6B42F400121A631A6B72
:102E600002F400120092009A01941A6B42F480025C
:102E70001A631B6B03F480030193019B224601211B
:102E80000C2001F07FFD0C2001F08CFD2246012179
:102E90000D2001F077FD0D2001F084FD2246012177
:102EA0000E2001F06FFD0E2001F07CFD2246012175
:102EB0000F2001F067FD0F2001F074FD2246012173
:102EC000102001F05FFD102001F06CFD2246012171
:102ED000112001F057FD112001F064FD224601216F
:102EE0002F2001F04FFD2F2001F05CFD224608212C
:102EF0003A2001F047FD3A2001F054FD2246082116
:102F0000462001F03FFD462001F04CFD02B010BD0F
:102F1000003802402DE9F0438DB007AD002407943E
:102F2000089409940A940B940194404B1A6B42F054
:102F300010021A631A6B02F010020192019A0294B5
:102F40001A6B42F080021A631A6B02F0800202923E
:102F5000029A03941A6B42F004021A631A6B02F08D
:102F600004020392039A04941A6B42F001021A635A
:102F70001A6B02F001020492049A05941A6B42F053
:102F800002021A631A6B02F002020592059A069475
:102F90001A6B42F008021A631B6B03F008030693D6
:102FA000069BDFF89090012240F60441484602F06B
:102FB00004FBDFF8848001220621404602F0FDFA7E
:102FC0001B4E224649F20441304602F0F6FA012235
:102FD0004FF40051304602F0F0FA22464FF470717F
:102FE000404602F0EAFA40F60443079301270897A7
:102FF00009940A942946484602F048F940F2C6333B
:103000000793089709940A942946404602F03EF92E
:103010004BF204430793089709940A9429463046D3
:1030200002F034F90DB0BDE8F08300BF0038024073
:10303000000C0240001002400008024008B50B4896
:103040000B4B03600B4B436000238360C3604FF462
:103050008042026143618361C361036202F0EAFE60
:1030600000B908BDFFF787FBFBE700BFE063002066
:1030700000540040A086010008B50B480B4B0360CC
:103080000B4B436000238360C3604FF480420261B6
:1030900043618361C361036202F0CCFE00B908BDE5
:1030A000FFF769FBFBE700BF8C630020005800407E
:1030B000A086010030B58BB00023059306930793DB
:1030C0000893099303682F4A934204D02E4A9342EF
:1030D00034D00BB030BD002501952C4C236B43F050
:1030E00002032363236B03F002030193019BC023BC
:1030F000059312230693032308930423099305A938
:10310000234802F0C3F80295236C43F400132364B0
:10311000236C03F400130293029B2A4605211F200F
:1031200001F030FC1F2001F03DFC2A460521202043
:1031300001F028FC202001F035FCCAE700250395AA
:10314000124C236B43F002032363236B03F002034F
:103150000393039B4FF440630593122306930323C9
:1031600008930423099305A9094802F08FF80495F0
:10317000236C43F480032364236C03F480030493DF
:10318000049BA6E70054004000580040003802406D
:103190000004024010B50368174A934203D0174A4F
:1031A000934216D010BD02F5F232136C23F40013D3
:1031B0001364134C4021204602F05EF98021204622
:1031C00002F05AF91F2001F0F1FB202001F0EEFB84
:1031D000E8E702F5F032136C23F480031364084C23
:1031E0004FF48061204602F047F94FF40061204619
:1031F00002F042F9D6E700BF0054004000580040FA
:103200000004024008B50D480D4B03604FF4827373
:10321000436000238360C360036143614FF4007225
:103220008261C3610362436283620A23C36205F061
:1032300029FA00B908BDFFF79EFAFBE734640020C5
:103240000030014000B589B0002303930493059337
:10325000069307930268154B9A4202D009B05DF8B5
:1032600004FB0021019103F584335A6C42F480522F
:103270005A645A6C02F480520192019A02911A6BBC
:1032800042F001021A631B6B03F001030293029BDD
:10329000E023039302230493032306930523079358
:1032A00003A9034801F0F2FFD8E700BF0030014056
:1032B0000000024008B50268064B9A4200D008BDE3
:1032C000054A536C23F480535364E021034802F011
:1032D000D3F8F4E70030014000380240000002401B
:1032E0000268094B9A4200D0704782B000230193D4
:1032F000064B5A6C42F001025A645B6C03F0010306
:103300000193019B02B07047000001400038024069
:103310000268224B9A4200D0704710B582B0044632
:10332000002301931E4A116C41F004011164126CD8
:1033300002F004020192019A1A481B4A02604FF0FF
:103340008062426040228260C3604FF4806202610A
:103350004FF4006242614FF400528261C3614FF446
:1033600000320262436201F0A1FBA0B90D4BE3629F
:103370009C63002201211E2001F004FB1E2001F0AD
:1033800011FB002201212F2001F0FCFA2F2001F077
:1033900009FB02B010BDFFF7EEF9E7E700080040B7
:1033A000003802408C640020B860024000B589B04B
:1033B00000230393049305930693079303681C4A21
:1033C000934205D01B4A93421AD009B05DF804FB22
:1033D00000230193184B1A6B42F010021A631B6B07
:1033E00003F010030193019B4FF4407303930223F6
:1033F00004930123079303A9104801F047FFE4E772
:10340000002302930C4B1A6B42F008021A631B6BE9
:1034100003F008030293029B4FF4804303930223BB
:103420000493079303A9064801F030FFCDE700BFDE
:103430000000014000080040003802400010024037
:10344000000C024010B592B000241094119409941D
:103450000A940B940C940D940E940F942022214600
:1034600001A8FCF7F5FE2248224B0360312343609C
:1034700084604FF6FF73C36004614461846105F0AA
:10348000C3FC002828D100231093119310A91848D9
:1034900005F0BAFE18BB002209920A920B920C9218
:1034A0000D920E920F9209A9114805F03DFDC8B981
:1034B0000023019302930393049305934FF4005266
:1034C0000692089301A90A4805F0E4FE68B9084885
:1034D000FFF76CFF12B010BDFFF74DF9D3E7FFF710
:1034E0004AF9D8E7FFF747F9E2E7FFF744F9EEE7D3
:1034F000346500200000014000B58BB00023089324
:1035000009930193029303930493059306930793FE
:103510001748184A0260436083604A22C260036110
:10352000836105F09DFCC8B900230893099308A99D
:103530000F4805F069FEA0B96023019300230293B0
:1035400003930593082201A9094805F01CFD58B909
:103550000748FFF72BFF0BB05DF804FBFFF70BF9F3
:10356000E2E7FFF708F9E7E7FFF705F9F0E700BF43
:10357000EC6400200008004008B50A480A4B0360CC
:103580004FF4E133436000238360C36003610C2286
:1035900042618361C36105F0E0FF00B908BDFFF738
:1035A000EAF8FBE754690020004C004008B50A48DF
:1035B0000A4B03604FF4E133436000238360C36030
:1035C00003610C2242618361C36105F0C6FF00B94B
:1035D00008BDFFF7D0F8FBE70C69002000100140A0
:1035E00008B50A480A4B03604FF4E13343600023F7
:1035F0008360C36003610C2242618361C36105F093
:10360000ACFF00B908BDFFF7B6F8FBE7C4680020BF
:103610000044004008B50A480A4B03604FF4E13308
:10362000436000238360C36003610C2242618361B5
:10363000C36105F092FF00B908BDFFF79CF8FBE7F6
:103640007C6800200048004030B58FB0044600235D
:1036500009930A930B930C930D930368994A934231
:103660000CD0994A934269D0984A934200F0CA809C
:10367000974A934200F04C810FB030BD0025019570
:10368000944B1A6C42F400221A641A6C02F4002261
:103690000192019A02951A6B42F004021A631B6BA5
:1036A00003F004030293029B4FF440630993022347
:1036B0000A9303230C9308230D9309A9864801F06C
:1036C000E5FD8648864B03604FF0006343608560EC
:1036D000C5604FF48063036145618561C561056222
:1036E000456201F0E3F918BB7C4BE3639C637D48C2
:1036F0007D4B03604FF000634360402383600023F1
:10370000C3604FF48062026143618361C3610362FD
:10371000436201F0CBF970B9724BA3639C63002242
:103720000121342001F02EF9342001F03BF9A3E708
:10373000FFF721F8D8E7FFF71EF8EDE7002503951E
:10374000644B5A6C42F010025A645A6C02F0100238
:103750000392039A04951A6B42F001021A631B6BE1
:1037600003F001030493049B4FF4C0630993022305
:103770000A9303230C9307230D9309A95B4801F0D7
:1037800085FD5B485B4B03604FF000634360402363
:103790008360C5604FF48063036145618561C561E5
:1037A0004FF480330362456201F080F920BB504B37
:1037B000A3639C635048514B03604FF00063436028
:1037C00000238360C3604FF48062026143618361C0
:1037D000C3614FF480320262436201F067F970B94D
:1037E000454BE3639C6300220721252001F0CAF8C2
:1037F000252001F0D7F83FE7FEF7BDFFD7E7FEF73A
:10380000BAFFEDE700250595324B1A6C42F4003201
:103810001A641A6C02F400320592059A06951A6B26
:1038200042F001021A631B6B03F001030693069B2F
:103830000C23099302230A9303230C9307230D936C
:1038400009A92A4801F022FD2D482E4B03604FF0B4
:10385000006343608560C5604FF480630361456128
:103860008561C5610562456201F020F918BB244BF2
:10387000E3639C632448254B03604FF0006343607F
:10388000402383600023C3604FF480620261436180
:103890008361C3610362436201F008F970B91A4B96
:1038A000A3639C6300220121262001F06BF82620EF
:1038B00001F078F8E0E6FEF75EFFD8E7FEF75BFF81
:1038C000EDE700BF004C0040001001400044004004
:1038D0000048004000380240000802401C680020F8
:1038E00040600240BC67002070600240000002405F
:1038F0005C670020B8640240FC660020406402401F
:103900009C660020886002403C660020A060024067
:10391000002507952E4B1A6C42F480221A641A6C0B
:1039200002F480220792079A08951A6B42F0080267
:103930001A631B6B03F008030893089B4FF4407352
:10394000099302230A9303230C9307230D9309A9D8
:10395000204801F09BFC2048204B03604FF000639F
:10396000436040238360C5604FF480630361456119
:103970008561C5610562456201F098F810BB164B80
:10398000A3639C631648174B03604FF000634360CA
:1039900000238360C3604FF48062026143618361EE
:1039A000C3610362436201F081F870B90C4BE363B9
:1039B0009C6300220121272000F0E4FF272000F073
:1039C000F1FF59E6FEF7D7FED9E7FEF7D4FEEDE7A3
:1039D00000380240000C0240DC65002058600240C4
:1039E0007C6500202860024010B504460368304A18
:1039F000934209D02F4A93421BD02F4A93422DD095
:103A00002E4A93423ED010BD02F5F632136C23F4D9
:103A1000002313644FF44061294801F02DFDE06B51
:103A200001F0AAF8A06B01F0A7F8342000F0BEFF67
:103A3000E9E702F59432536C23F0100353644FF41A
:103A4000C061204801F018FDA06B01F095F8E06B13
:103A500001F092F8252000F0A9FFD4E702F5FA3230
:103A6000136C23F4003313640C21164801F004FD99
:103A7000E06B01F081F8A06B01F07EF8262000F0E9
:103A800095FFC0E702F5F832136C23F4802313642A
:103A90004FF440710C4801F0EFFCA06B01F06CF8A2
:103AA000E06B01F069F8272000F080FFABE700BF72
:103AB000004C00400010014000440040004800401D
:103AC0000008024000000240000C024008B50B4B09
:103AD0001A6842F400721A601A6842F480621A602E
:103AE0001A6842F480721A60032000F039FF0F2038
:103AF000FFF70AF8FEF7E6FF002008BD003C024091
:103B0000034A1168034B1B780B441360704700BFD6
:103B10009C6900200C000020014B1868704700BF12
:103B20009C69002038B50446FFF7F6FF0546B4F15E
:103B3000FF3F02D0044B1B781C44FFF7EDFF401BF6
:103B4000A042FAD338BD00BF0C0000204A4B5A688F
:103B500022F440325A605A6841680A435A60026847
:103B6000536823F48073536002685368016943EA21
:103B7000012353600268536823F040735360026866
:103B8000536881680B4353600268936823F40063B1
:103B9000936002689368C1680B439360826A374BF5
:103BA0009A4257D00268936823F07063936002686A
:103BB0009368816A0B4393600268936823F04053D3
:103BC000936002689368C16A0B43936002689368CC
:103BD00023F00203936002689368017E43EA410385
:103BE000936090F82030002B3FD00268536843F474
:103BF000006353600268536823F4604353600168B4
:103C00004B68426A013A43EA42334B600268D36A26
:103C100023F47003D3620168CB6AC269013A43EAB4
:103C20000253CB620268936823F4007393600268C6
:103C3000936890F8301043EA4123936002689368D8
:103C400023F48063936002689368416943EA8123A7
:103C5000936070470268936823F070639360026812
:103C6000936823F040539360B0E70268536823F4ED
:103C700000635360CAE700BF002301400100000F4A
:103C800038B310B50446036C43B1236C13F0100F26
:103C90000BD00120002384F83C3010BDFEF7F2FF6A
:103CA0000023636484F83C30EFE7236C23F48853EB
:103CB00023F0020343F0020323642046FFF746FF8C
:103CC00000206064236C23F0030343F001032364AA
:103CD000E0E701207047000082B00023019390F8D4
:103CE0003C30012B00F08980012380F83C300368D0
:103CF0009A6812F0010F13D19A6842F001029A609B
:103D0000414B1B68414AA2FB03239B0C03EB43037B
:103D1000019302E0019B013B0193019B002BF9D130
:103D20000268936813F0010F5CD0036C23F4E06326
:103D300023F0010343F480730364536813F4806F2A
:103D400005D0036C23F4405343F480530364036CA5
:103D500013F4805F1BD0436C23F0060343640023FD
:103D600080F83C306FF022031360294B5B6813F03E
:103D70001F0F27D10368274A934211D002F58072A2
:103D8000934207D0244A934214D0002033E000230A
:103D90004364E4E702F50072526812F01F0FF1D19C
:103DA0009A6812F0405F2AD19A6842F080429A6085
:103DB000002020E002F58072526812F0100FEFD060
:103DC000002018E00368134A934201D0002012E05B
:103DD0009A6812F0405F14D19A6842F080429A606B
:103DE000002008E0036C43F010030364436C43F0CD
:103DF00001034364002002B070470220FBE700206B
:103E0000F9E70020F7E700BF0800002083DE1B432E
:103E100000230140002001400022014070B504460B
:103E20000D4603689A6812F4806F03D09B6813F400
:103E3000807F19D1FFF770FE064623681A6812F0DA
:103E4000020F20D1B5F1FF3FF7D0B5B923681B6849
:103E500013F0020FF1D1236C43F004032364002319
:103E600084F83C30032032E0036C43F02003036409
:103E7000002380F83C30012029E0FFF74DFE801B35
:103E8000A842DAD9E2E76FF012021A60236C43F419
:103E90000073236423689A6812F0405F16D1207E75
:103EA000B0B9DA6A12F4700F03D09B6813F4806F14
:103EB0000DD1236C23F480732364236C13F4805F8F
:103EC00005D1236C43F00103236400E0002070BDA2
:103ED0000020FCE70368D86C7047000030B482B063
:103EE0000022019290F83C20012A00F0B68003469F
:103EF000012280F83C200A68092A40D90468E06859
:103F000092B202EB42021E3A4FF0070C0CFA02F298
:103F100020EA0202E2601C68E0680A8802EB4202C2
:103F20001E3A8D6805FA02F20243E2604A68062AE8
:103F30003CD81C68606B02EB8202053A4FF01F0C04
:103F40000CFA02F220EA020262631C68606B4A68A3
:103F500002EB8202053AB1F800C00CFA02F2024309
:103F6000626318683E4A904250D018683C4A9042BA
:103F700055D0002083F83C0002B030BC7047046884
:103F8000206992B202EB42024FF0070C0CFA02F2E7
:103F900020EA020222611C6820690A8802EB4202C0
:103FA0008D6805FA02F202432261BFE70C2A16D897
:103FB0001D68286B02EB8202233A1F2404FA02F2E6
:103FC00020EA02022A631D68286B4A6802EB82021B
:103FD000233A0C8804FA02F202432A63C1E71D68FF
:103FE000E86A02EB8202413A1F2404FA02F220EA54
:103FF0000202EA621D68E86A4A6802EB8202413AFC
:104000000C8804FA02F20243EA62AAE70A68122A5A
:10401000ABD11448426842F480024260A5E70A68C6
:10402000103A012AA5D80F48426842F400024260C3
:104030000A68102A9DD10C4A12680C49A1FB021291
:10404000920C02EB82025200019202E0019A013AC4
:104050000192019A002AF9D18BE702208CE700BF78
:1040600000200140002301400800002083DE1B43A4
:10407000002800F0A18038B5044690F82030D3B174
:104080002268136843F001031360FFF745FD0546FE
:1040900023685A6812F0010F10D1FFF73DFD401B55
:1040A0000A28F5D9636A43F400336362052384F870
:1040B0002030012038BDFEF75BFEE1E71A6822F0F0
:1040C00002021A60FFF728FD054623685A6812F0BD
:1040D000020F0DD0FFF720FD401B0A28F5D9636AB7
:1040E00043F400336362052384F820300120E1E7C4
:1040F000227E012A3DD01A6822F080021A60637E77
:10410000012B3BD02268136823F040031360A37E89
:10411000012B39D02268136823F020031360E37E5B
:10412000012B37D02268136843F010031360237FFC
:10413000012B35D02268136823F008031360637FD6
:10414000012B33D02268136823F004031360A368A3
:10415000E268134322691343626913436268013AB8
:1041600021681343CB6100206062012384F8203072
:10417000A0E71A6842F080021A60C0E7226813685C
:1041800043F040031360C2E72268136843F0200342
:104190001360C4E72268136823F010031360C6E7B6
:1041A0002268136843F008031360C8E722681368A5
:1041B00043F004031360CAE70120704790F82030F1
:1041C000013BDBB2012B05D9436A43F480234362F0
:1041D0000120704730B5464BD3F8002242F001026F
:1041E000C3F80022D3F8002222F47C52C3F8002244
:1041F000D3F80022486A42EA0022C3F800224A6942
:1042000002F01F02012000FA02F2D3F81C026FEA4A
:10421000020C20EA0200C3F81C02CB69C3B9344B7C
:10422000D3F80C020CEA0000C3F80C028C88486931
:10423000CD6844EA0544483043F830408C6808882B
:1042400040EA04404C6904F1480E03EBCE03586089
:10425000CB69012B1ED08B69002B33D12448D0F8B9
:1042600004320CEA0303C0F804320B698BBB20480C
:10427000D0F814320CEA0303C0F814320B6A012B95
:104280002ED01B4AD2F8003223F00103C2F80032CC
:10429000002030BD164BD3F80C021043C3F80C02BB
:1042A0008C8848690D6844EA0544483043F830403A
:1042B00088894C698D6840EA0540483403EBC403A3
:1042C0005860C8E70A48D0F804321343C0F80432F3
:1042D000CBE70748D0F814321343C0F81432CDE7C7
:1042E0000349D1F81C321343C1F81C32C9E700BF9F
:1042F0000064004070B5044690F82030012B06D0D1
:10430000436A43F4002343620126304670BDDEB2A7
:10431000022380F820300268136823F00103136041
:10432000FFF7FAFB054623685B6813F0010F0CD01A
:10433000FFF7F2FB431B0A2BF5D9636A43F4003302
:104340006362052384F82030DFE700266662DCE73D
:1043500038B5044690F82030022B05D0436A43F468
:1043600080134362012038BD0268136843F00103E3
:104370001360FFF7D1FB054623685A6812F0010F5E
:104380000DD1FFF7C9FB431B0A2BF5D9636A43F430
:1043900000336362052384F820300120E3E71A68C4
:1043A00022F002021A60012384F820300020DAE7AC
:1043B00080B110B50446FFF7CBFF2046FEF726FD7F
:1043C0002268136843F4004313600020606284F89D
:1043D000200010BD0120704730B590F820C004685F
:1043E000A4680CF1FF3C5FFA8CFCBCF1010F62D8B1
:1043F00014F0E05F59D0C4F3016C012404FA0CF40A
:104400001C608B68002B3DD10D68CB68046843EAC3
:1044100045550CF118031B01E55003680C690CF1BC
:10442000180E03EB0E135C600B7D012B35D0D17998
:1044300093791B0443EA0163517943EA0123147918
:104440000168234301EB0C11C1F88C31D1789378CA
:104450001B0443EA0163517843EA0123117802689F
:104460000B4302EB0C12C2F8883102680CF1180CF5
:104470004FEA0C1C52F80C3043F0010342F80C30A8
:1044800000201DE04C6843EAC403CC6823430CF1D0
:104490001804240105682B51BFE7036803EB0E13D2
:1044A000596841F480715960C1E7436A43F40013CD
:1044B0004362012004E0436A43F480234362012005
:1044C00030BD90F820C00CF1FF3C5FFA8CFCBCF1D1
:1044D000010F00F2A58030B451B90468E46814F00B
:1044E000030F10D1436A43F40013436201207EE0BE
:1044F0000468246914F0030F05D1436A43F40013E0
:104500004362012073E0056801F11B0424012C596A
:1045100004F004049460002C6BD1056801F11B04C5
:1045200024012C59640D1460046801F11B0C4FEA3E
:104530000C1C54F80C4004F00204D4600468A44439
:10454000DCF8045015F0080F5BD0082414610468EF
:1045500001F11B0C04EB0C146468C4F30724946190
:10456000046804EB0C146468240C5461026802EBC8
:104570000112D2F8B8211A70026802EB0112D2F8C7
:10458000B821C2F307225A70026802EB0112D2F876
:10459000B821C2F307429A70026802EB0112D2F806
:1045A000B821120EDA70026802EB0112D2F8BC21B7
:1045B0001A71026802EB0112D2F8BC21C2F3072281
:1045C0005A71026802EB0112D2F8BC21C2F3074211
:1045D0009A71026802EB0112D2F8BC21120EDA7154
:1045E000C1B90268D36843F02003D360002030BC17
:1045F0007047056801F11B0424012C59E40854603C
:1046000092E701F11B0504EB0514646804F00F0444
:1046100014619CE70268136943F020031361E5E726
:10462000436A43F4802343620120704790F82030AE
:10463000013BDBB2012B05D9436A43F4802343627B
:1046400001207047026853690B4353610020704793
:1046500070477047704770477047704770477047A2
:1046600070477047704770472DE9F84F054603685B
:104670005C69D3F804809F68D3F80CA0D3F810903D
:10468000D3F818B014F001063BD017F0010616D08D
:1046900001229A6017F0020F08D117F0040F0CD115
:1046A00017F0080606D04FF4805608E0FFF7D0FF59
:1046B000002604E0FFF7CFFF01E04FF4006617F497
:1046C000807F0DD02B684FF480729A6017F4007FC2
:1046D00040F0968017F4806F00F0968046F4005604
:1046E00017F4803F0DD02B684FF480329A6017F496
:1046F000003F40F0938017F4802F00F0938046F441
:10470000004614F0080F07D01AF0100F04D046F43A
:1047100000762B681022DA6014F0040F03D01AF030
:10472000080F40F0898014F0020F05D02B68DB6879
:1047300013F0030F40F0878014F0400F07D019F0FA
:10474000100F04D046F480662B6810221A6114F012
:10475000200F02D019F0080F79D114F0100F04D0F7
:104760002B681B6913F0030F78D114F4003F02D0BB
:1047700018F0100F76D114F4803F02D018F0080F13
:1047800077D114F4004F37D018F0040F31D014F45F
:10479000807F04D01BF0010F01D046F0010614F415
:1047A000007F04D01BF0020F01D046F0020614F483
:1047B000806F04D01BF0040F01D046F0040614F4FF
:1047C000006F16D01BF0700B13D0BBF1400F66D0FA
:1047D00056D8BBF1200F5CD0BBF1300F5CD0BBF1E1
:1047E000100F01D146F008062A68936923F0700380
:1047F00093612B6804225A60002E56D1BDE8F88FD1
:104800002846FFF726FF6BE717F4006F02D046F447
:10481000804665E72846FFF71FFF61E72846FFF758
:1048200019FF6EE717F4002F02D046F4803668E7D0
:104830002846FFF712FF64E72B680822DA60284653
:10484000FFF70CFF6FE72846FBF7A6FF74E72B681E
:1048500008221A612846FFF703FF7EE72846FFF784
:10486000FEFE82E72B6810225A602846FFF7F9FE09
:1048700081E72B6808225A602846FFF7F3FE80E79D
:10488000BBF1500F0ED0BBF1600FADD146F4807676
:10489000AAE746F01006A7E746F02006A4E746F090
:1048A0004006A1E746F080069EE76B6A33436B62E1
:1048B0002846FFF7D8FEA1E7002807DB00F01F021B
:1048C000400901239340024A42F82030704700BF5C
:1048D00000E100E000280CDB00F01F02400901238A
:1048E00093402030034A42F82030BFF34F8FBFF38C
:1048F0006F8F704700E100E0002808DB0901C9B2B2
:1049000000F1604000F5614080F80013704700F04E
:104910000F000901C9B2014B1954704714ED00E0B2
:1049200000B500F00700C0F1070CBCF1040F28BF70
:104930004FF0040C031D062B0FD9C31E4FF0FF3E92
:104940000EFA0CF021EA000199400EFA03FE22EA69
:104950000E0241EA02005DF804FB0023EEE70000CE
:10496000074AD36823F4E0631B041B0C000200F425
:10497000E060034343F0BF6343F40033D360704708
:1049800000ED00E010B50446054BD868C0F30220E6
:10499000FFF7C6FF01462046FFF7AEFF10BD00BF80
:1049A00000ED00E008B5FFF787FF08BD08B5FFF789
:1049B00091FF08BD30B405682C6824F480242C6075
:1049C000046863608368402B05D0036899600368BE
:1049D000DA6030BC704703689A600368D960F8E712
:1049E00010B40368D9B210390A4AA2FB0142120975
:1049F000094CA25CC2655F2907D96FF30903043330
:104A00008365806D5DF8044B70476FF30903836520
:104A1000F7E700BFABAAAAAA70150208836A8269E9
:104A200092B9012B0AD0022B02D00BB100207047A3
:104A3000C36A13F0807F28D100207047C36AB3F1A6
:104A4000C07F24D000207047B2F5005F09D0022B50
:104A500025D9032B25D1C36A13F0807F23D10020F1
:104A60007047032B03D8DFE803F01404140A002076
:104A70007047C36A13F0807F0DD100207047C36A6E
:104A8000B3F1C07F09D0002070470120704701209A
:104A900070470120704701207047012070470120B6
:104AA00070470020704701207047000070B5044631
:104AB000FFF732F8002C5BD00546022384F835302E
:104AC000002384F834302268136823F00103136054
:104AD00023681A6812F0010F0AD0FFF71DF8431B74
:104AE000052BF5D920236365032084F8350070BDBC
:104AF0001A68204911406268A0680243E0680243D6
:104B00002069024360690243A0690243E0690243ED
:104B1000206A02430A43616A04291ED01A6026688B
:104B2000756925F00705636A1D43042B07D1A36A45
:104B30001D43E36A1BB12046FFF770FF90B9756112
:104B40002046FFF74DFFE26D3F2393408360002036
:104B50006065012384F83530C9E7E16A206B0143C1
:104B60000A43DBE740236365012084F83500BEE794
:104B70000120BCE73F8010F000282DD038B5044656
:104B800090F83530D8B2022B25D02268136823F074
:104B900001031360236800251D6023685D6023689E
:104BA0009D602368DD6023681D61236821225A61AE
:104BB0002046FFF715FFE56325646564A564E56499
:104BC0002565E26D3F2393408360656584F8355029
:104BD00084F83450284638BD0120704738B5044663
:104BE000856D90F8340001282AD0012084F8340023
:104BF00094F83500012804D0002384F834300220D2
:104C000038BD022084F83500002060652046FFF79B
:104C1000D1FEE26D3F239340AB602268136843F0FE
:104C200016031360236C23B12268136843F0080352
:104C300013602268136843F0010313600020DFE76C
:104C40000220DDE770B50446866DFEF765FF94F837
:104C50003530022B06D080236365002384F834307E
:104C6000012070BD05462268136823F01603136007
:104C70002268536923F080035361236CE3B12268F7
:104C8000136823F0080313602268136823F00103FC
:104C9000136023681B6813F0010F11D0FEF73CFF6F
:104CA000431B052BF5D920236365032084F83500C9
:104CB000002384F83430D4E7A36C002BDFD1E3E782
:104CC000E26D3F239340B360012384F83530002028
:104CD00084F83400C5E790F83530022B03D08023E8
:104CE000436501207047052380F83530026813685A
:104CF00023F001031360002070470000F0B583B07B
:104D0000044600230193724B1D68724BA3FB0535CB
:104D1000AD0A876D3E68C26D08239340334210D0C0
:104D200003681A6812F0040F0BD01A6822F004020C
:104D30001A60C26D08239340BB60436D43F00103CA
:104D40004365E26D01239340334209D022685269E2
:104D500012F0800F04D0BB60636D43F00203636503
:104D6000E26D04239340334209D02268126812F0A6
:104D7000020F04D0BB60636D43F004036365E26D12
:104D800010239340334224D02268126812F0080F97
:104D90001FD0BB6023681A6812F4802F0DD01B68E7
:104DA00013F4002F04D1236C9BB12046984710E0E8
:104DB000A36C73B1204698470BE01A6812F4807F09
:104DC00003D11A6822F008021A60236C0BB1204646
:104DD0009847E26D20239340334254D022681268F2
:104DE00012F0100F4FD0BB6094F83530052B0ED069
:104DF00023681A6812F4802F33D01B6813F4002F35
:104E00002AD1636C002B3ED0204698473BE02268B5
:104E1000136823F0160313602268536923F080039C
:104E20005361236CA3B12268136823F00803136055
:104E3000E26D3F239340BB60012384F835300023AB
:104E400084F83430236D002B3FD0204698473CE057
:104E5000A36C002BE7D1EBE7E36BA3B120469847A7
:104E600011E01A6812F4807F09D11A6822F010024A
:104E70001A60012384F83530002384F83430E36B62
:104E80000BB120469847636DFBB1636D13F0010FC2
:104E900017D0052384F835302268136823F0010306
:104EA0001360019B01330193AB4204D823681B6854
:104EB00013F0010FF5D1012384F83530002384F875
:104EC0003430E36C0BB12046984703B0F0BD00BF0F
:104ED00008000020B5814E1B90F835007047406DEA
:104EE0007047000010B40A490C6924F440740C6146
:104EF0000C6944F440740C610C6944F001040C61C9
:104F00000260BFF36F8F43605DF8044B704700BFD2
:104F1000003C0240074B1A6922F440721A611A6978
:104F200042F400721A611A6942F001021A610160CA
:104F3000704700BF003C0240074B1A6922F44072E0
:104F40001A611A6942F480721A611A6942F0010208
:104F50001A610180704700BF003C0240064B1A698D
:104F600022F440721A611A691A611A6942F0010248
:104F70001A610170704700BF003C0240204BDB68A3
:104F800013F0100F07D01F4AD36943F01003D36109
:104F90001B4B1022DA601A4BDB6813F0200F07D08E
:104FA000184AD36943F00803D361154B2022DA6015
:104FB000134BDB6813F0400F07D0124AD36943F05C
:104FC0000403D3610E4B4022DA600D4BDB6813F013
:104FD000800F07D00B4AD36943F00203D361084B1B
:104FE0008022DA60064BDB6813F0020F07D0054A17
:104FF000D36943F02003D361014B0222DA6070478A
:10500000003C024014000020094B1B69002B01DB0F
:1050100000207047064B074A5A6002F188325A60F6
:105020001B69002B01DB002070470120704700BF87
:10503000003C024023016745034A136943F00043E3
:1050400013610020704700BF003C024038B50446A1
:10505000144B0022DA61FEF75FFD0546124BDB6858
:1050600013F4803F0AD0B4F1FF3FF7D024B1FEF72C
:1050700053FD401BA042F1D903200DE00A4BDB6831
:1050800013F0010F02D0084B0122DA60064BDB68F7
:1050900013F0F20F01D1002038BDFFF76FFF0120A0
:1050A000FAE700BF14000020003C0240F8B51646A5
:1050B0001B4A127E012A30D004460D461F46184B6B
:1050C00001221A764CF25030FFF7C0FF90B9ACB114
:1050D000012C18D0022C1BD032463B462846FFF745
:1050E00001FF4CF25030FFF7B1FF0E4A136923F075
:1050F000010313610A4B00221A76F8BDF1B228466B
:10510000FFF72CFFEDE7B1B22846FFF715FFE8E700
:1051100031462846FFF7FEFEE3E70220EDE700BF39
:1051200014000020003C0240074B1A6922F4407230
:105130001A611A6942F004021A611A6942EA0022ED
:1051400042F480321A617047003C0240012905D0C8
:10515000022906D039B14FF4407104E04FF4807158
:1051600001E04FF400710B4B1A6922F440721A618E
:105170001A690A431A611A6922F078021A611A69D7
:1051800042EAC00040F0020018611A6942F480321D
:105190001A617047003C0240164B1B6813F4007FF5
:1051A00010D0144B1A6822F400721A601A6842F484
:1051B00000621A601A6822F400621A601A6842F4E7
:1051C00000721A600B4B1B6813F4806F10D0094BF0
:1051D0001A6822F480621A601A6842F480521A60D7
:1051E0001A6822F480521A601A6842F480621A60C7
:1051F000704700BF003C0240F8B5224B1B7E012BDC
:105200003ED004460E461F4B01221A764CF2503017
:10521000FFF71CFF074670BB4FF0FF333360236876
:10522000012B16D0A568E368A2681344AB4220D9CD
:10523000217C2846FFF78AFF4CF25030FFF706FF2B
:10524000114A136923F07A031361074680B90135C7
:10525000E9E76168207CFFF767FF4CF25030FFF709
:10526000F5FE0746084A136923F00403136100E0C2
:105270003560FFF791FF034B00221A763846F8BDE0
:105280000227FBE714000020003C024000230F2B04
:1052900000F2E98070B582B065E085684FEA430EA0
:1052A000032404FA0EF425EA0405CC6804FA0EF48B
:1052B0002C438460446824EA02044A68C2F3001262
:1052C0009A40224342605CE0DC08083450F8242015
:1052D00003F00705AD004FF00F0E0EFA05FE22EAAF
:1052E0000E0E0A69AA4042EA0E0240F824205CE051
:1052F000072200E0002202FA0EF22A4302345A4D3D
:1053000045F82420594A94686FEA0C0224EA0C05F7
:105310004E6816F4801F01D04CEA0405534CA5607A
:10532000E46802EA04054E6816F4001F01D04CEA56
:1053300004054E4CE560646802EA04054E6816F404
:10534000003F01D04CEA0405484C656024682240C7
:105350004D6815F4803F01D04CEA0402434C2260B2
:1053600001330F2B7DD801229A400C6804EA020C0D
:1053700032EA0404F4D14C6804F00304013C012C2B
:105380008BD94A6802F00302032A09D0C4685D0081
:105390000322AA4024EA02048A68AA402243C26087
:1053A0004A6802F00302022A8ED004684FEA430ED4
:1053B000032202FA0EF224EA02044A6802F003020F
:1053C00002FA0EF2224302604A6812F4403FC7D04C
:1053D00000220192264A546C44F480445464526C76
:1053E00002F480420192019A9C08A51C1E4A52F8C0
:1053F000255003F0030E4FEA8E0E0F2202FA0EF232
:1054000025EA02051B4A90423FF474AF02F5806220
:1054100090421AD002F58062904218D002F5806264
:10542000904216D002F58062904214D002F580625C
:10543000904212D002F58062904210D002F5806254
:1054400090423FF455AF082255E7012253E702226C
:1054500051E703224FE704224DE705224BE70622DE
:1054600049E702B070BD704700380140003C014080
:10547000003802400000024000230F2B00F28F8012
:10548000F0B52DE0072500E0002505FA0CF5A54252
:1054900069D004685D004FF0030C0CFA05FC24EAA7
:1054A0000C0404604FEAD30E0EF1080E50F82E40A3
:1054B00003F00706B6000F25B54024EA050440F8BE
:1054C0002E40C46824EA0C04C460446824EA020242
:1054D0004260826822EA0C02826001330F2B5DD8A1
:1054E00001229A4002EA010632EA0104F5D14FEAAC
:1054F000930E0EF102052A4C54F8254003F0030CDC
:105500004FEA8C0C0F2505FA0CF73C40254DA842BC
:10551000BAD005F58065A84219D005F58065A84286
:1055200017D005F58065A84215D005F58065A8421D
:1055300013D005F58065A84211D005F58065A84215
:105540000FD005F58065A8429CD008259DE7012570
:105550009BE7022599E7032597E7042595E70525AD
:1055600093E7062591E7104C256825EA0605256096
:10557000656825EA06056560E56825EA0605E560D3
:10558000A56825EA0605A560054E0EF1020456F849
:10559000245025EA070546F824507AE7F0BD704705
:1055A0000038014000000240003C014003691942FC
:1055B00001D001207047002070470AB18161704717
:1055C00009048161704703685A6912F0800F01D0A5
:1055D00000221A61704790F83E30402B10D00369CA
:1055E000B3F5804F1BD0036D002B38D1436CC3F350
:1055F000C813026803F0060343F0F0031361704719
:10560000036D2BB9436C026803F0FE03136170470E
:10561000436C026843F00103DBB21361704790F8FA
:105620003D30212B0FD0436C026843F00103DBB205
:105630001361436B6BB1DB6B5BB10268536843F47E
:10564000006353607047436C026803F0FE0313610C
:10565000EFE7836B33B1DB6B002BEED102E0036D20
:10566000012B00D07047436CC3F3C813026803F0EA
:10567000060343F0F1031361F4E7436C0268DBB205
:105680001361436B3BB1DB6B2BB10268536843F48E
:10569000006353607047836B002BFBD0DB6B002BE8
:1056A000F3D1F7E710B48BB090F83E30C16A046BC9
:1056B00090F83D20222A0BD00023099303685A69F1
:1056C00009929B690993099B0BB05DF8044B7047E5
:1056D000DBB2026D0AB9402B17D0036D1BB9036909
:1056E000B3F5404F1AD0438D9BB2002B26D10293C5
:1056F00003685A6902929A690292029A1A6842F4FD
:1057000000721A6000230365DEE70023009303683C
:105710005A6900929B690093009BD5E7002301938F
:1057200003685A6901929A690192019A1A6842F4CF
:1057300080721A60036D01330365C5E7438D9BB228
:10574000012B26D0438D9BB2022B7CD002681368BC
:1057500043F48063136003685A6812F4006F0FD03B
:10576000202900F2AE800829C0F0A7800839574AE6
:10577000CA4012F0010F03D05A6842F480525A60B6
:105780000023089303685A6908929B690893089B51
:10579000B8E711F5803F11D0082934D0202932D044
:1057A000122C2ED0042940D002293ED010293CD002
:1057B0000268136823F4806313603BE00268136897
:1057C00023F48063136003685A6812F4006F0CD0EE
:1057D0001A6822F480621A600023039303685A69EE
:1057E00003929B690393039B8CE7002204925A69FE
:1057F00004929A690492049A1A6842F400721A6038
:1058000080E70129D0D00268136823F48063136015
:105810000023069303685A6906929A690692069ACB
:105820001A6842F400721A606CE70268136843F465
:10583000806313600023059303685A6905929B698E
:105840000593059B5EE710290AD8214BCB4013F046
:10585000010F05D00268136843F48063136009E008
:105860000268136823F4806313600268136843F4CA
:105870000063136003685A6812F4006F0DD020298A
:1058800017D8082912D30839104ACA4012F0010F5C
:1058900003D05A6842F480525A6000230793036889
:1058A0005A6907929B690793079B2BE70129F4D15B
:1058B000EFE711F5803FF0D1EBE701297FF460AF0E
:1058C0005AE711F5803F7FF45BAF55E70101000116
:1058D00014000100438D9BB25BB1426A03681278E9
:1058E0001A61436A01334362438D9BB2013B9BB211
:1058F00043857047438D9BB25BB103681A69436A65
:105900001A70436A01334362438D9BB2013B9BB2E1
:105910004385704782B0002301930E4B1B68DB0860
:105920000D4AA2FB03231B0A03EB83030193019B94
:10593000013B0193019B33B103681B6813F4007FA3
:10594000F5D1002004E0036C43F020030364012040
:1059500002B070470800002089B5F81403685A693E
:1059600012F4806F01D1002070476FF480625A6199
:1059700000230363202280F83D2080F83E30026C33
:1059800042F00402026480F83C3001207047C36A90
:10599000B3F52A0F04D0C36AB3F12A4F03D070477E
:1059A0000123C36270470823C362F8E72DE9F04181
:1059B00006460C46174698463BE0FEF7ADF8069BB8
:1059C000C01A404502D8B8F1000F32D1012D18D0CD
:1059D00033689B6924EA03039BB2B3FA83F35B0940
:1059E0009F4226D100233363202286F83D2086F88B
:1059F0003E30326C42F02002326486F83C300120A6
:105A000027E033685B6924EA03039BB2B3FA83F3AC
:105A10005B09E5E733685B6924EA030C1FFA8CFC39
:105A2000BCFA8CFC4FEA5C1C674511D1B8F1FF3F12
:105A3000C3D1C4F30745012DECD033689B6924EA38
:105A4000030C1FFA8CFCBCFA8CFC4FEA5C1CEBE7E5
:105A50000020BDE8F0812DE9F84305460E4690464A
:105A6000994653E01A6842F400721A602B686FF48A
:105A700080625A6100232B63202285F83D2085F83F
:105A80003E302A6C42F004022A6485F83C30012042
:105A90004AE0FEF741F8A0EB0900404502D8B8F112
:105AA000000F33D1012F17D02B689B6926EA03031F
:105AB0009BB2003B18BF012343B300232B6320227A
:105AC00085F83D2085F83E302A6C42F020022A6499
:105AD00085F83C30012027E02B685B6926EA030348
