:020000040800F2
:10000000000002205D020008A9020008A902000801
:10001000A9020008A9020008A902000800000000C7
:10002000000000000000000000000000A90200081D
:10003000A902000800000000A9020008A9020008A7
:10004000A9020008A9020008A9020008A9020008E4
:10005000A9020008A9020008A9020008A9020008D4
:10006000A9020008A9020008A9020008A9020008C4
:10007000A9020008A9020008A9020008A9020008B4
:10008000A9020008A9020008A9020008A9020008A4
:10009000A9020008A9020008A9020008A902000894
:1000A000A9020008A9020008A9020008A902000884
:1000B000A9020008A9020008A9020008A902000874
:1000C000A9020008A9020008A9020008A902000864
:1000D000A9020008A9020008A9020008A902000854
:1000E000A9020008A9020008A9020008A902000844
:1000F000A9020008A9020008A9020008A902000834
:10010000A9020008A9020008A9020008A902000823
:10011000A9020008A9020008A9020008A902000813
:10012000A9020008A9020008A9020008A902000803
:10013000A9020008A9020008A9020008A9020008F3
:10014000A9020008A9020008A9020008A9020008E3
:10015000A9020008A9020008A9020008A9020008D3
:10016000A9020008A9020008A9020008A9020008C3
:10017000A9020008A9020008A90200080000000066
:08018000A9020008A902000811
:100188000348044B834202D0034B03B1184770471E
:100198002C0000202C000020000000000548064B21
:1001A8001B1AD90F01EBA301491002D0034B03B16D
:1001B800184770472C0000202C0000200000000089
:1001C80010B5064C237843B9FFF7DAFF044B13B197
:1001D8000448AFF300800123237010BD2C000020D9
:1001E80000000000D80C000808B5054B1BB10549F4
:1001F8000548AFF30080BDE80840FFF7CFBF00BF58
:100208000000000030000020D80C000870B50D4B2D
:100218000D4D5B1B9C100026A64209D100F058FD2D
:100228000A4D0B4B5B1B9C100026A64205D170BDE6
:1002380055F8043B98470136EEE755F8043B9847D4
:100248000136F2E7F00C0008F00C0008F00C00088A
:10025800F40C0008DFF830D0002103E00B4B5B58AA
:10026800435004310A480B4B42189A42F6D30A4AC3
:1002780002E0002342F8043B084B9A42F9D3FFF707
:10028800C5FF00F005F9704700000220F80C0008CF
:10029800000000202C0000202C0000204C00002032
:1002A800FEE7000008B30168114A914202D000201D
:1002B800C0B27047416802F1B75202F5DF1202F688
:1002C8000D42914201D00020F2E783683BB1B3F5BB
:1002D800403F06D8074A934205D90020E8E70020A6
:1002E800E6E70020E4E70120E2E70020704700BFCE
:1002F8004555484200FF0300F0B589B003AD00241E
:10030800039404940594069407940194194B1A6B6A
:1003180042F008021A631A6B02F008020192019A6D
:1003280002941A6B42F010021A631B6B03F010035D
:100338000293029B104F01224FF40051384600F0FF
:10034800C1FC0E4E01220421304600F0BBFC012303
:100358000493059406944FF40053039329463846B2
:1003680000F0BAFB042303932946304600F0B4FB9F
:1003780009B0F0BD00380240000C024000100240F5
:10038800F8B507460E4615460024234600E001341A
:10039800AC4208D20020325D0346E11900F0ACFA05
:1003A80003460028F3D01846F8BD000070B586B0A3
:1003B800064601AD00240194029403940494059424
:1003C800009400F047FA0194022305930422039253
:1003D80004936946284600F035FB28B1012400F053
:1003E80051FA204606B070BDB2680C490C48FFF7B8
:1003F800C7FF044608B10124F1E7B168084800F0D6
:1004080061F8F368984201D00124E8E7002200234C
:100418000449022000F070FAE1E700BF0000040878
:100428000000010800FF070870B5164B1E685D68DC
:1004380072B64FF0E02300241C615C619C6100F0FF
:10044800A9F823460BE0104A03F120004FF0FF31D2
:1004580042F8201003F1600042F820100133072B06
:10046800F1D90A4B074A9A60002383F31488BFF333
:100478006F8F86F30888BFF34F8FBFF36F8F62B615
:10048800A84770BD0000010800E100E000ED00E0B1
:1004980008B500F0C3F8FFF72FFF0848FFF702FF81
:1004A80020B9074800F038F820B9FEE70348FFF7FD
:1004B8007DFFF6E7FFF7B8FFF7E700BF00FF070883
:1004C800000001084FF0FF320B46013903B310F862
:1004D800013B5A404FF0000CBCF1070FF4D800B5AF
:1004E80042F3000E0B4B0EEA030383EA52020CF1AF
:1004F800010CBCF1070FF3D90B4601392BB110F8E9
:10050800013B5A404FF0000CF3E7D0435DF804FB81
:10051800D04370472083B8ED0368426803F1604315
:10052800B3F5003F0BD802F1774303F57F03B3F52A
:10053800E02F06D212F0010F05D0012070470020ED
:1005480070470020704700207047000000B583B056
:10055800002200920D4B596C41F480415964596C4A
:1005680001F48041009100990192196C41F0805189
:1005780019641B6C03F080530193019B0F216FF0EA
:10058800010000F0B1F803B05DF804FB0038024048
:100598007047000010B50A4B0A4A1A6200241C6210
:1005A800094A5A625C62094A1A611C61C1225A618D
:1005B8005C6101229A619C61FFF7EAFF204610BD49
:1005C80000380240FFC9FEF633797704FF11602234
:1005D80010B504460E4B1A784FF47A73B3FBF2F356
:1005E8000C4A1068B0FBF3F000F08EF868B90F2CD5
:1005F80001D901200AE0002221464FF0FF3000F027
:1006080073F8054B1C60002000E0012010BD00BFFE
:1006180004000020000000200800002008B50B4B53
:100628001A6842F400721A601A6842F480621A600A
:100638001A6842F480721A60032000F043F80F2011
:10064800FFF7C6FFFFF782FF002008BD003C02400D
:10065800014B1868704700BF48000020002808DBDD
:100668000901C9B200F1604000F5614080F800134B
:10067800704700F00F000901C9B2014B19547047C7
:1006880014ED00E000B500F00700C0F1070CBCF164
:10069800040F28BF4FF0040C031D062B0FD9C31EEF
:1006A8004FF0FF3E0EFA0CF021EA000199400EFAD5
:1006B80003FE22EA0E0241EA02005DF804FB002371
:1006C800EEE70000074AD36823F4E0631B041B0C21
:1006D800000200F4E060034343F0BF6343F40033D7
:1006E800D360704700ED00E010B50446054BD868AC
:1006F800C0F30220FFF7C6FF01462046FFF7AEFF12
:1007080010BD00BF00ED00E00138B0F1807F0BD2D2
:100718004FF0E0235861054AF02182F823100020A9
:10072800986107221A6170470120704700ED00E0C8
:1007380010B40A490C6924F440740C610C6944F43F
:1007480040740C610C6944F001040C610260BFF351
:100758006F8F43605DF8044B704700BF003C024058
:10076800074B1A6922F440721A611A6942F400723E
:100778001A611A6942F001021A610160704700BFEC
:10078800003C0240074B1A6922F440721A611A6948
:1007980042F480721A611A6942F001021A610180FA
:1007A800704700BF003C0240064B1A6922F44072B1
:1007B8001A611A691A611A6942F001021A61017014
:1007C800704700BF003C0240204BDB6813F0100F5D
:1007D80007D01F4AD36943F01003D3611B4B102283
:1007E800DA601A4BDB6813F0200F07D0184AD36978
:1007F80043F00803D361154B2022DA60134BDB6802
:1008080013F0400F07D0124AD36943F00403D361B1
:100818000E4B4022DA600D4BDB6813F0800F07D0D7
:100828000B4AD36943F00203D361084B8022DA6094
:10083800064BDB6813F0020F07D0054AD36943F073
:100848002003D361014B0222DA607047003C02406A
:100858000C000020094B1B69002B01DB00207047AE
:10086800064B074A5A6002F188325A601B69002B0E
:1008780001DB002070470120704700BF003C0240A8
:1008880023016745034A136943F0004313610020BD
:10089800704700BF003C024038B50446144B0022A4
:1008A800DA61FFF7D5FE0546124BDB6813F4803F8B
:1008B8000AD0B4F1FF3FF7D024B1FFF7C9FE401BBF
:1008C800A042F1D903200DE00A4BDB6813F0010FB9
:1008D80002D0084B0122DA60064BDB6813F0F20FF6
:1008E80001D1002038BDFFF76FFF0120FAE700BFF4
:1008F8000C000020003C0240F8B516461B4A127E48
:10090800012A30D004460D461F46184B01221A769C
:100918004CF25030FFF7C0FF90B9ACB1012C18D0A1
:10092800022C1BD032463B462846FFF701FF4CF20B
:100938005030FFF7B1FF0E4A136923F0010313612A
:100948000A4B00221A76F8BDF1B22846FFF72CFFB1
:10095800EDE7B1B22846FFF715FFE8E7314628462C
:10096800FFF7FEFEE3E70220EDE700BF0C000020E2
:10097800003C0240074B1A6922F440721A611A6956
:1009880042F004021A611A6942EA002242F48032F3
:100998001A617047003C0240012905D0022906D09F
:1009A80039B14FF4407104E04FF4807101E04FF425
:1009B80000710B4B1A6922F440721A611A690A43D2
:1009C8001A611A6922F078021A611A6942EAC000AB
:1009D80040F0020018611A6942F480321A617047C7
:1009E800003C0240164B1B6813F4007F10D0144BD8
:1009F8001A6822F400721A601A6842F400621A60D7
:100A08001A6822F400621A601A6842F400721A60C6
:100A18000B4B1B6813F4806F10D0094B1A6822F433
:100A280080621A601A6842F480521A601A6822F4C6
:100A380080521A601A6842F480621A60704700BFD8
:100A4800003C0240F8B5224B1B7E012B3ED00446E9
:100A58000E461F4B01221A764CF25030FFF71CFF4E
:100A6800074670BB4FF0FF3333602368012B16D065
:100A7800A568E368A2681344AB4220D9217C2846C4
:100A8800FFF78AFF4CF25030FFF706FF114A13694F
:100A980023F07A031361074680B90135E9E76168F5
:100AA800207CFFF767FF4CF25030FFF7F5FE074652
:100AB800084A136923F00403136100E03560FFF767
:100AC80091FF034B00221A763846F8BD0227FBE750
:100AD8000C000020003C024000230F2B00F2E980AC
:100AE80070B582B065E085684FEA430E032404FAC6
:100AF8000EF425EA0405CC6804FA0EF42C4384604D
:100B0800446824EA02044A68C2F300129A40224365
:100B180042605CE0DC08083450F8242003F0070544
:100B2800AD004FF00F0E0EFA05FE22EA0E0E0A690E
:100B3800AA4042EA0E0240F824205CE0072200E0C6
:100B4800002202FA0EF22A4302345A4D45F82420B4
:100B5800594A94686FEA0C0224EA0C054E6816F4A8
:100B6800801F01D04CEA0405534CA560E46802EAF2
:100B780004054E6816F4001F01D04CEA04054E4CDB
:100B8800E560646802EA04054E6816F4003F01D087
:100B98004CEA0405484C6560246822404D6815F409
:100BA800803F01D04CEA0402434C226001330F2BF2
:100BB8007DD801229A400C6804EA020C32EA040447
:100BC800F4D14C6804F00304013C012C8BD94A6829
:100BD80002F00302032A09D0C4685D000322AA4078
:100BE80024EA02048A68AA402243C2604A6802F0E2
:100BF8000302022A8ED004684FEA430E032202FA47
:100C08000EF224EA02044A6802F0030202FA0EF223
:100C1800224302604A6812F4403FC7D00022019282
:100C2800264A546C44F480445464526C02F4804262
:100C38000192019A9C08A51C1E4A52F8255003F0FF
:100C4800030E4FEA8E0E0F2202FA0EF225EA020573
:100C58001B4A90423FF474AF02F5806290421AD06A
:100C680002F58062904218D002F58062904216D058
:100C780002F58062904214D002F58062904212D050
:100C880002F58062904210D002F5806290423FF4F3
:100C980055AF082255E7012253E7022251E7032204
:100CA8004FE704224DE705224BE7062249E702B049
:100CB80070BD704700380140003C014000380240D8
:100CC800000002400AB181617047090481617047E0
:100CD800F8B500BFF8BC08BC9E467047F8B500BF21
:080CE800F8BC08BC9E467047F1
:040CF000F101000806
:040CF400C90100082A
:100CF8000024F400010000001000000000000000C3
:100D080000000000000000000000000001000000DA
:0C0D1800000000000000000000000000CF
:040000050800025D90
:00000001FF
