:020000040800F2
:1000000000000220A902000831260008332600085B
:1000100035260008372600083926000800000000B1
:1000200000000000000000000000000051C20008B5
:100030003B26000800000000F1C200084FBD000888
:10004000F5020008F5020008F5020008F5020008B4
:10005000F5020008F5020008F5020008F5020008A4
:10006000F5020008F5020008F5020008F502000894
:100070003D2600084D2600085D2600086D26000874
:100080007D2600088D260008F50200089D26000840
:10009000AD260008BD260008F5020008F50200089C
:1000A000F5020008F5020008F5020008F502000854
:1000B000CD260008F5020008DD260008ED26000820
:1000C000FD260008F5020008F5020008F502000808
:1000D000F50200080D2700081D2700082D2700083D
:1000E000F5020008F5020008F5020008F502000814
:1000F000F5020008F5020008F50200083D27000897
:10010000F5020008F5020008F5020008F5020008F3
:100110004D270008F5020008F5020008F502000866
:10012000F5020008F50200085D270008F502000846
:10013000F5020008F5020008F5020008F5020008C3
:10014000F5020008F5020008F50200086D27000816
:10015000F5020008F50200087D270008F5020008F6
:10016000F5020008F5020008F5020008F502000893
:10017000F5020008F5020008F50200080000000082
:08018000F5020008F502000879
:1001900053B94AB9002908BF00281CBF4FF0FF31EE
:1001A0004FF0FF3000F00CB8ADF1080C6DE904CE53
:1001B00010F098FBDDF804E0DDE9022304B070479D
:1001C000704700BF0348044B834202D0034B03B186
:1001D0001847704758010020580100200000000017
:1001E0000548064B1B1AD90F01EBA301491002D099
:1001F000034B03B1184770475801002058010020F5
:100200000000000010B5064C237843B9FFF7DAFF71
:10021000044B13B10448AFF300800123237010BDD9
:100220005801002000000000F80B010808B5054B3C
:100230001BB105490548AFF30080BDE80840FFF752
:10024000CFBF00BF000000005C010020F80B0108D8
:1002500002440346934200D1704703F8011BF9E7BB
:1002600070B50D4B0D4D5B1B9C100026A64209D1AD
:1002700010F0C2FC0A4D0B4B5B1B9C100026A642E3
:1002800005D170BD55F8043B98470136EEE755F8A7
:10029000043B98470136F2E7A00E0108A00E0108C2
:1002A000A00E0108A40E0108DFF830D0002103E001
:1002B0000B4B5B58435004310A480B4B42189A428F
:1002C000F6D30A4A02E0002342F8043B084B9A4264
:1002D000F9D3FFF7C5FF02F00DF9704700000220C7
:1002E000A80E01080000002058010020580100203D
:1002F000F48E0120FEE7000040F6533398420FD8F9
:10030000B0F5FA6F0ED9642303FB00F0A0F543307B
:10031000A0F5A070044BA3FB0030C0F3472070474A
:100320006420704700207047C5B3A29110B5074CF8
:10033000204603F035FB0A21204603F0D3FB08B129
:10034000002010BD204603F029FCFAE720D200204F
:1003500038B50024254604E0FFF7E8FF05440134E2
:10036000E4B2072CF8D9ED0840F6E44303FB05F5A9
:100370000448A0FB05302D1A00EB5500C0F3CF2038
:1003800038BD00BF010110002DE9F04182B0FFF738
:10039000DFFF074600252E462C462EE013F1050F01
:1003A00008DA0136F6B2012E02D900252C460AE001
:1003B000002408E00CB1013CE4B226B1013EF6B2E3
:1003C00001E0012500261FFA88F73846FFF794FF61
:1003D000184B1F809870DD70C8F307238DF8043028
:1003E0008DF805808DF806008DF8075004220DEB7E
:1003F0000201082000F018FE47464FF4FA600BF0A7
:100400003BFDFFF7A5FFC0EB0010462307FB03F3FE
:1004100003EB4003084AA2FB03234FEA5318C7EB40
:100420005313052BBADD013414F0FF04C9D126465D
:10043000C9E700BF740100201F85EB5130B58BB0B8
:10044000002204210C4804F048FD282200216846BF
:10045000FFF7FEFE012307930893084C69462046E8
:1004600003F010FD204603F0A9FD0221204603F011
:1004700041FF0BB030BD00BF000C024068D200202D
:1004800000282FD0024604292CD9007853781B0469
:1004900043EA0063907843EA0023D078034310795D
:1004A000082800D9082000F1050C8C451AD800B5A1
:1004B00089B0002102910391049105910691079161
:1004C000B3F5006F0AD20293069001AB053202A980
:1004D000054803F0E5FD09B05DF804FB0393042330
:1004E0000493F1E7704700BF68D2002070B5ADF506
:1004F0000C7D064624E0869A100E8DF80400C2F3A7
:1005000007408DF80500C2F307208DF806008DF82E
:100510000720042923D09DF824328DF80830899CC7
:10052000224683A90DF1090010F058FB0534ADF8FF
:10053000024000231A4669460D4800680BF096FDFC
:1005400083AB85AA0021304603F01FFE60B9072265
:100550008DF8002087990029CDD1859ACCE79DF8A8
:10056000243243F08003D8E70DF50C7D70BD00BF49
:10057000F0A10020052843D1F0B58BB00023032B58
:100580000CD8204A52F833208A4202D00133DBB221
:10059000F5E71C4A02EBC3035D6800E000250DB9D6
:1005A0000BB0F0BD184C204603F036FD204603F09A
:1005B00063FD65600025A560E5604FF4202323619D
:1005C0004FF48013636125766576A5760126E6767D
:1005D00025776577204603F0AFFB28222946684639
:1005E000FFF736FE079608966946204603F04AFC58
:1005F000204603F0E3FC0221204603F07BFECFE718
:10060000704700BF180C010868D2002070B504467E
:100610000D4616460F4B1B68ABB10E4B186818B150
:100620004FF0FF310BF081FC30460EF0B5FD29464E
:1006300020460EF032FE0446064B186808B10BF057
:10064000A3FC204670BD04480BF024FC014B18604D
:10065000E3E700BF78810020480D0108812801D020
:1006600000207047032901D0002070471D4A1188DF
:1006700089B21D4A128892B2914204D11B4B0122C9
:100680001A700020704710B5194A118889B2194AAA
:1006900002EBC12202F140011468D2F804E0D2F862
:1006A00008C0D0681C60C3F804E0C3F808C0D86074
:1006B000103210338A42EFD10D4A13889BB20133B6
:1006C0009BB2138013889BB2082B02D113460022E1
:1006D0001A80054A13889BB201339BB213804020D5
:1006E00010BD00BF808100207E8100207C81002021
:1006F0008281002078010020912801D001207047DC
:1007000010B5029A002A29D01A78072A23D0164A4F
:10071000128892B21549098889B2521A92B2082AEF
:100720001CD0134C208880B2029A1946114B03EB5F
:10073000C02010F053FA23889BB201339BB2238070
:1007400023889BB2082B0BD0074A13889BB2013336
:100750009BB2138002E0084B01221A70012010BDE9
:1007600000222280F0E700BF8881002086810020DF
:100770008C81002078410020AC8E012008B5002338
:100780000E4A13800E4A13800E4A13800E4A1380BD
:100790000E4A13800E4A13800E4A13800E4A1380AD
:1007A0000E4B01221A700E4B1B6803B108BD0D4899
:1007B0000BF070FB0A4B1860F8E700BF8C8100203B
:1007C0008A81002088810020868100208481002089
:1007D00082810020808100207E8100207C81002099
:1007E00078810020480D010810B5094BD3F8BC42B0
:1007F0002346002203218120FFF730FF002800DC80
:1008000010BD82B2214602480CF0B8FFF8E700BFE5
:100810001886012000B583B040230093054BD3F820
:10082000BC32002211469120FFF766FF03B05DF84D
:1008300004FB00BF1886012010B564E03F4A12880F
:1008400092B29A420DD0DA023D498A5C7E2A08D1E2
:10085000DA023B497F2088540133082BEED1002374
:10086000ECE7384C23889BB2374A118889B2402282
:10087000364800EBC121324800EBC320FFF7C6FE2B
:1008800023889BB201339BB2238023889BB2082B21
:1008900045D02F4A13889BB201339BB213802A4A5A
:1008A00013889BB201339BB2138013889BB2082B31
:1008B00038D0284A13889BB201339BB21380264B51
:1008C0001B7803B3128892B2244B1B889BB29A42C6
:1008D00019D0234B198889B24A1C92B21A801B88FE
:1008E0009BB2082B22D01D4A13889BB201339BB2C6
:1008F0001380194B00221A704022144B03EBC121C4
:1009000018480CF03BFF184B1A8892B2104B1B880A
:100910009BB29A420ED00B4B1B889BB293E70022EE
:100920002280B6E7134600221A80C2E70C4B002251
:100930001A80D8E701200BF09FFAE4E78C810020B1
:10094000784100208A8100208481002078010020E5
:1009500086810020808100207C8100207E81002013
:1009600082810020188601208881002010B50B4C60
:10097000204604F0CDFF0A4B1B785B00E360204665
:1009800004F0E8FE074B1B78012B00D010BD064B8E
:1009900000221A80204605F09DFAF7E7E4D20020F5
:1009A00002000020A48500209883002008B5FFF7EE
:1009B000DDFF08BD20B310B582B00C460146012C06
:1009C00010D9104B1B78012B0ED0024612F8011BD8
:1009D0004900631E642000909BB201F0FE010A48AA
:1009E00004F0B0FF02B010BDB4F5027F01D94FF49E
:1009F00002742246054810F0F1F8054B1C80F1E71F
:100A0000704700BFA4850020E4D200209081002020
:100A100000000020174B1B7853BB48B3012927D98E
:100A200030B5ADF5077D03785B00DCB2457855B194
:100A300002290BD8642300932B4604AA21460E48B2
:100A400005F03AF870B10DF5077D30BD83780DF1F2
:100A50000F0213706423009301232146064804F01B
:100A600071FFE7E72A4604A9062000F0DDFAEAE76D
:100A7000704700BFA4850020E4D2002008B50728F5
:100A80000CD0082812D004280FD10C4B994202D068
:100A90000B4B994207D10B4B596004E0003918BF4A
:100AA0000121094B1970FFF761FF08BDA1F108038F
:100AB0006F2BF8D8054B1970F5E700BFA086010031
:100AC000801A0600E4D20020A48500200200002045
:100AD00008B50F4B834200D008BD0E4B1B78012B8D
:100AE000FAD1012909D00C4B1A8802B9012220231E
:100AF0000A49074805F05EF9EEE7094B00221A8023
:100B0000042301220749024805F09CF9E4E700BFED
:100B1000E4D20020A4850020000000209081002065
:100B2000988300209C83002008B50E4B834200D0A0
:100B300008BD0D4B1B78012BFAD10C4B1B88B3F56C
:100B4000027F02D20133094A1380084B1988B1F59C
:100B5000027FEDD20423012205480144014805F03B
:100B600071F9E5E7E4D20020A485002098830020F5
:100B70009C83002008B50B4B834200D008BD0A4B74
:100B80001B78012BFAD1094B1A881AB9054805F0D0
:100B9000A1F9F3E70649052000F046FA034B0022CD
:100BA0001A80F3E7E4D20020A48500209883002077
:100BB0009C83002008B5074B834200D008BD064B3C
:100BC0001B78012BFAD1054B00221A80014805F051
:100BD00081F9F3E7E4D20020A48500209883002067
:100BE00010B500F04BF90146054C8022204608F074
:100BF0009DFDE36B1A68136823F00803136010BDB2
:100C000058D8002038B370B50D46064611B3B1F57B
:100C1000027F01D94FF4027502F0E2FD044602E0C2
:100C200001200BF029F90C4808F01EFD10F0210FEF
:100C300005D002F0D5FD001B3228F1D90AE0074C9F
:100C40002A46314620460FF0C9FF2A46214602486F
:100C500008F0C2F970BD704758D80020A885002060
:100C600001281CD138B50C4601B938BD0C4D2846B9
:100C700008F0FAF9284608F030F96C60284608F0C8
:100C8000FCF800F0FBF801468022284608F04EFDF3
:100C9000EB6B1A68136823F008031360E5E77047ED
:100CA00058D8002010B500224FF48061084804F0A5
:100CB00014F900F0DFF80146064C8022204608F0C7
:100CC00035FDE36B1A68136823F00803136010BD49
:100CD000000C024080D7002068B370B50D46064670
:100CE00041B3B1F5027F01D94FF4027502F078FDEE
:100CF000044602E001200BF0BFF80F4808F0B4FCF6
:100D000010F0210F05D002F06BFD001B3228F1D945
:100D100010E00A4C2A46314620460FF05FFF0122C0
:100D20004FF48061064804F0D8F82A46214602486C
:100D300008F052F970BD704780D70020B0870020BE
:100D4000000C0240012822D138B50C4601B938BD4B
:100D50000F4D284608F088F9284608F0BEF86C6068
:100D6000284608F08AF800224FF48061094804F010
:100D7000B4F800F07FF801468022284608F0D6FC3F
:100D8000EB6B1A68136823F008031360DFE7704702
:100D900080D70020000C024070470000C0B130B581
:100DA00083B00C4601468CB1B4F5027F01D94FF4F3
:100DB0000274084D3223009323462A46064807F062
:100DC00066F922462946042000F02EF903B030BD12
:100DD000704700BFB889002038D3002038B50546D9
:100DE0000C46214807F03DF9022D09D0032D19D0FA
:100DF000062D0DD1003C18BF01241C4B1C7007E0D0
:100E0000072C00D907241A4B53F82420164BDA611B
:100E1000164B1B782BBB4FF482731348436007F0CB
:100E2000C1F838BD04F00304032CF1D8DFE804F066
:100E300002070D130C4B00221A615A61E8E70A4BB6
:100E400000221A6101225A61E2E7074B02221A616D
:100E500000225A61DCE7044B02221A6101225A6126
:100E6000D6E70023D9E700BF38D30020C08B00208D
:100E7000580D01080048704778A2002000487047CC
:100E8000F8A100202DE9F04106460D4601F044F995
:100E900010B98046002411E0A9B2304600F0C4FF2A
:100EA000BDE8F081AA2A08D13B4B01221A7004E068
:100EB000552A1BD04246384B1A700134AC42EFD24F
:100EC000325D354B1B78062B61D801A151F823F018
:100ED000A50E0008B10E0008F10E0008010F000871
:100EE000170F0008450F00086B0F00080222E2E709
:100EF0002A4B1A702A4B1A70274B03221A70DCE710
:100F00001102264B598026490B7853400B70224B17
:100F100004221A70D1E721494B8813434B802048A3
:100F200001784A4002701F4A00211180013B9BB2A8
:100F3000B3F5027F02D3184B1970BEE7164B05229A
:100F40001A70BAE7174801884B1C9BB203801348FC
:100F500001440A71124F39784A403A7042889342EC
:100F6000ABD30D4B06221A70A7E70D4B1B789342AB
:100F700003D0094B00221A709FE70B4B186800281A
:100F8000F7D000231A4605490BF070F8F1E7024B41
:100F900000221A7091E700BFECA10020E09F002022
:100FA000DC9F0020DA9F0020F4A1002070B50546E8
:100FB0000E46144601F0B0F820B9631E9BB2B3F59B
:100FC000027F00D370BD1748BB23037055234370C5
:100FD0008570230AC3706B40E5B205715D402246FF
:100FE000314605300FF0FAFD002303E0F25C554076
:100FF00001339BB2A342F9D3631D0A4AD55402F0D0
:10100000EFFB0546A11D89B206480CF01BFC012828
:10101000D8D10AF031FF02F0E3FB401B3128F1D9AF
:10102000D0E700BFCC9D002070B504460D461646A3
:10103000FFF7BCFF32462946204600F079FE70BD1E
:1010400000B583B08DF8040051B100238DF8053050
:10105000022201A9F020FFF7E7FF03B05DF804FBCF
:10106000FF23F3E710B500224FF4037108200AF0C4
:10107000B2FF144B186000224FF4037108200AF0ED
:10108000AAFF114B1860FFF70DFEFFF7A9FDFFF750
:1010900083FEFFF78BFCFFF7D1F90C4C80220C4943
:1010A000204608F043FBE36B1A68136823F008033B
:1010B0001360084A002108480AF084FE01F0AEF8E7
:1010C00010BD00BFF4A10020F0A1002010D8002026
:1010D000F8A20020780D01083D170008002900F053
:1010E000A38030B5ADF5057D0C460A46B1F5027F0B
:1010F00028BF4FF40272ADF8062003684B498B42BB
:101100000BD04B498B4224D04A498B423DD04A4AAE
:10111000934256D00DF5057D30BD01218DF80410A8
:10112000464902A80FF05AFD454B186820B100232C
:101130001A4601A90AF09AFF424C80223F492046F4
:1011400008F0F4FAE36B1A68136823F008031360DD
:10115000E0E702218DF804103B4902A80FF03EFDA4
:10116000374B186820B100231A4601A90AF07EFF08
:10117000364C80223449204608F0D8FAE36B1A68CE
:10118000136823F008031360C4E703218DF80410EB
:101190002F4902A80FF022FD294B186820B1002327
:1011A0001A4601A90AF062FF2A4C802228492046EB
:1011B00008F0BCFAE36B1A68136823F008031360A5
:1011C000A8E700F0A9FFD8B900F0A0FF0028A1D13E
:1011D000214A13680133136000F08CFD0546214657
:1011E00000F08CFD1D4C4FF400622946204608F0AB
:1011F0009DFAE36B1A68136823F00803136089E70C
:1012000000F078FD0546214600F036FE134C4FF401
:1012100000622946204608F089FAE36B1A681368D1
:1012200023F00803136075E7704700BF001001400A
:1012300000480040004C004000440040F8A200205C
:10124000F0A1002010D8002078A2002080D7002034
:10125000F8A1002058D800200CB80020C8D70020E2
:1012600001281AD138B50C4601B938BD0B4D2846B6
:1012700007F0FAFE284607F030FE6C60284607F0BB
:10128000FCFD80220649284608F050FAEB6B1A68EC
:10129000136823F008031360E7E7704710D80020B5
:1012A000F8A2002010B582B04288CAB10346047982
:1012B000F02C1AD0052A24D940799A79D9790904D1
:1012C00041EA02611A7A41EA02215B7A1943631EFC
:1012D000062B32D8DFE803F01A1D202326262E0025
:1012E0000021F020FFF7ACFE22E0164B93E803004C
:1012F0000090ADF8041006226946F020FFF794FE36
:1013000016E000212046FFF79BFE11E0FFF7A8FF43
:101310000AE0FFF717FD07E0FFF7A2FC04E0FFF784
:101320005DFD01E0FFF7AAFB01212046FFF788FEE3
:1013300002B010BDFFF71EF9F6E700212046FFF7C7
:101340007FFEF5E7100C0108F0B5ADF5097D044608
:101350000378072B0BD85AB2002A4AD0013B062B40
:1013600047D8DFE803F029494E53585D6200E02B6F
:101370007AD0F02B5ED0D02B3BD14688B6F5006FEB
:1013800028BF4FF40066924D4FF400673A460021A3
:101390002846FEF75DFF3A4600218E48FEF758FFCB
:1013A0003246211D28460FF019FC2B78072B44D11B
:1013B000894B01221A701CE002F012FA0546874898
:1013C00008F052F910F0210F08D002F009FA401B82
:1013D000322803D801200AF04FFDF0E7804D6288E3
:1013E000211D28460FF0FAFB628829467B4807F04A
:1013F000F3FD0DF5097DF0BD41880430FFF76CFC6D
:10140000F7E741880430FFF7FDFBF2E7418804303D
:10141000FFF7C4FCEDE741880430FFF7CBFAE8E7BB
:1014200041880430FFF7F6FAE3E741880430FFF71C
:1014300027F8DEE7FFF736FFDBE74FF40062654988
:101440006348FFF7E3F882B242B9624BFF221A7099
:1014500001226049D02000F06BFCCAE7B2F5006FB2
:10146000F7D94FF40062F4E7428812B10379032BF5
:101470001AD012B12379042B19D012B12379062B7B
:1014800018D012B12379F12B29D0012A02D923795E
:10149000F22B63D01AB12379F32B00F01081211DB8
:1014A000E02000F045FCA4E700F04AFDA1E700F0D1
:1014B0005DFD9EE701A90B800222E020FFF776FD8B
:1014C00032200AF0D9FC00231A4605A945480068D5
:1014D0000AF00EFE0028F6D000F024FE89E7424B09
:1014E0001A68424B1A60424BDB6B3BB11B682BB155
:1014F0001968404A11605A683F4B1A6005A9F123E8
:101500000B703E4B1B68C1F801303D4B1B68C1F8A6
:1015100005303C4B1B68C1F809303B4B1B68C1F8D8
:101520000D303A4B1B68C1F81130394B1B68C1F8BC
:101530001530384B1B68C1F819302C4B1B68C1F8AB
:101540001D302C4B1B68C1F821302B4B1B68C1F898
:1015500025302922E020FFF729FD4AE76379002B97
:101560005ED0012B00F09280022B7FF442AF05A9E0
:1015700000240C604C608C60CC600C610C230B6010
:1015800002264E600323CB6007230B61224803F041
:101590000DFB174D214B6B60EC61284607F06DFC8D
:1015A00000F0A8FB01464FF40062284608F0BEF8A0
:1015B000EB6B1A68136823F00803136001A940F26B
:1015C000F2230B803246E020FFF7F0FC11E700BF6A
:1015D000C4930020C48B0020AC8E012010D80020C2
:1015E000C49B0020F0A1002000440040FCB7002074
:1015F000C8D70020F8B70020F4B7002014B80020A6
:1016000010B800200CB8002008B8002004B8002052
:1016100000B80020040000200000024040420F00FB
:10162000424C204607F020FD204607F056FC05AC52
:1016300000250595069507950895099504270597B2
:10164000012306933A4E2146304603F0AFFA2A466C
:101650003946304603F041FC082705970695079563
:101660002146304603F0A2FA01ACF2238DF8043093
:101670008DF805503946304603F028FC8DF80600F9
:1016800003222146E020FFF791FCB2E6284D01221B
:101690000421284603F021FC05ACF2238DF8143018
:1016A00001238DF815300821284603F00FFC8DF832
:1016B000160003222146E020FFF778FC99E6F3228A
:1016C0008DF814201B4AD168CDF815105169CDF85A
:1016D00019109168CDF81D101268CDF82120134B18
:1016E0009B6B43B11B6833B11968CDF825105B685B
:1016F000CDF8293005E04DF6AD62CDF82520CDF8C6
:10170000292001AC0C4B0FCB84E80F004FF4FA7387
:101710000F222146054807F0FAFB05A9C1F8190078
:101720001D22E020FFF742FC63E600BFC8D700207F
:101730000000024000440040480C010810B5ADF51F
:10174000047D20E004460123002201A9124800681C
:101750000AF0CEFC60B901A8FFF7F6FD08E0BDF87D
:10176000062002A99DF80400FFF75EFC0134E4B2F4
:10177000032C08D800231A4601A9084800680AF07B
:10178000B7FC0028EBD000F0C7FC0028DAD06420BA
:101790000AF072FBF7E700BFF4A10020F0A10020DF
:1017A00010B590B00368654A93420BD0644A9342E7
:1017B00029D0644A93427AD0634A934200F09D80D4
:1017C00010B010BD00220192604C2368196801918D
:1017D0005968019101990292196802915968029120
:1017E000029903921A6803925B680393039B802219
:1017F0005749204607F09AFFE36B1A68136823F0F5
:1018000008031360DCE700F087FC00282BD100F010
:101810007DFC0028D4D14F4A1368013313600022A5
:1018200007924D4C236819680791596807910799E9
:1018300008921968089159680891089909921A68DC
:1018400009925B680993099B00F054FA01464FF432
:101850000062204607F06AFFE36B1A68136823F002
:1018600008031360ACE7002204923B4C236819681C
:101870000491596804910499059219680591596871
:101880000591059906921A6806925B680693069B75
:1018900000F030FA01464FF40062204607F046FFA0
:1018A000E36B1A68136823F00803136088E70022CB
:1018B0000A922A4C236819680A9159680A910A9970
:1018C0000B9219680B9159680B910B990C9219683E
:1018D0000C915B680C930C9B4FF48061204803F0E3
:1018E000FCFA80221F49204607F020FFE36B1A68AC
:1018F000136823F00803136062E700220D92196851
:101900000D9159680D910D990E9219680E915968B3
:101910000E910E990F921A680F925B680F930F9BAE
:10192000114C80221149204607F000FFE36B1A6832
:10193000136823F00803136042E700BF0010014062
:101940000044004000480040004C004010D80020F7
:10195000F8A2002004B80020C8D7002080D70020BB
:10196000000C024078A2002058D80020F8A10020E6
:1019700002680F4B9A4200D0704710B50D4B1B68A0
:101980001B6813F0400FF9D000224FF480610A4821
:1019900003F0A3FA074C80220849204607F0C6FE50
:1019A000E36B1A68136823F00803136010BD00BFCF
:1019B0000048004080D70020000C024078A20020A0
:1019C00008B50378427843EA0223827843EA024367
:1019D000C07843EA006000F079FA08BD08B5054B0D
:1019E000D3F8BC222AB140235132032101480CF024
:1019F00055F908BD188601200A4B1B889BB201339C
:101A0000C3F30B03084A128892B29A4209D010B469
:101A100004490A8892B2054CA0540B805DF8044B2F
:101A2000704770471AB8002018B800201CB8002072
:101A30000B4B1A8892B20B4B1B889BB29A420DD06B
:101A4000084A13889BB20849CB5C037013889BB289
:101A50000133C3F30B03138001207047002070474C
:101A60001AB8002018B800201CB800203C4B1B7886
:101A7000062B6CD8DFE803F004141D26324B6200FD
:101A8000AA2803D0BB2806D000207047344B01227F
:101A90001A7000207047324B01221A7000207047E4
:101AA000552804D000222E4B1A70002070470222C5
:101AB000F9E72C4B18702C4B1870294B03221A7025
:101AC000002070470202274B5A80274A1378434070
:101AD0001370234B04221A7000207047214A538848
:101AE0000343538020490A7842400A701F4A00216C
:101AF0001180013B9BB2B3F5027F03D30846184B1C
:101B000019707047164B05221A700020704710B4E8
:101B100016490A88531C9BB20B8012490A44107163
:101B2000114C2278424022704A88934213D30C4BC6
:101B300006221A7000205DF8044B7047084B002203
:101B40001A70094B1B78834207D01046704700205B
:101B5000034B187070470020EDE70120704700BF6D
:101B6000CCA50020C0A30020BCA30020BAA3002065
:101B700070B592B0534B1B680BB9002235E0514B46
:101B80001E6800251D60504C204607F06DFA204667
:101B900007F0A3F96660E561204607F06EF901954C
:101BA00023681A6801925A680192019A5B684FF49F
:101BB00000624649204607F0B9FDE36B1A681368D6
:101BC00023F008031360D8E741490B889BB2501CEF
:101BD000404CE35C48326A4402F8403C0B889BB2BC
:101BE0000133C3F30A030B8082B23F2A07D83A4B72
:101BF000198889B2364B1B889BB29942E4D11ABB33
:101C0000364B1B7893B1344B1A8892B2304B1B88F9
:101C10009BB29A421ED3304B1B889BB22C4A12882F
:101C200092B29B1A9BB2B3F5806F1FD32C4B1C88CA
:101C3000002C30D021462B480BF004FE012835D073
:101C4000274B00221A8031E0642302A91E4807F0C6
:101C50005EF9D5E7204B1B889BB21D4A128892B2D1
:101C60009B1A9BB203F500639BB2DCE7FFF7B6FE5D
:101C70001A4B00221A70D9E71B4A13889BB2611CC9
:101C80001A48C05C174B185513889BB20133C3F335
:101C90000A0313808CB23F2C07D8154B1A8892B2D6
:101CA000114B1B889BB29A42E6D10CB912B070BDA1
:101CB00021460C480BF0C6FD0128F7D1084B1C80CB
:101CC000F4E700BFECB70020C8D700201CC80020F4
:101CD000E8AF0020ECAF0020EAAF0020E2A7002030
:101CE000B8A3002078A30020E4A70020E8A70020E4
:101CF000E6A70020004870471CC800200A4B1B784C
:101D000083B970B506460D46084A13680B44136044
:101D1000002404E0305DFFF76FFE0134A4B2AC4252
:101D2000F8D370BD704700BFF1B7002008B800209D
:101D3000374B1B78002B6AD170B506460D4614460A
:101D4000531E9BB2B3F5027F00D370BDC821314B47
:101D500018680AF0EAF80028F7D12F48BB2303706F
:101D6000552343708670230AC3707340E6B2067130
:101D70005E402246294605300EF030FF002303E086
:101D8000EA5C564001339BB2A342F9D3631D224A59
:101D9000D6540634A4B2802C14D8142322461E49EB
:101DA0001E4807F0B4F840B91D4A136801331360A8
:101DB000184B18680AF0E8F8C7E71A4A13680133A5
:101DC0001360F5E701F00CFD0546144807F04CFCE4
:101DD00010F0210F0BD001F003FD401B142803D895
:101DE00001200AF049F8F0E70C4807F07DF9224697
:101DF00009490A4807F0F0F820B9094A1368013385
:101E00001360D5E7074A136801331360D0E77047C2
:101E1000F1B70020D0A50020D4A50020C8D700200D
:101E200014B8002010B8002000228A421DD230B51C
:101E30000E4B1B889BB20133C3F30A030C4CB4F85E
:101E400000C01FFA8CFC9C450ED0084CB4F800C0B2
:101E50001FFA8CFC10F802E0064D05F80CE0238018
:101E6000013292B28A42E3D330BD7047EAAF00201C
:101E7000E8AF0020ECAF002000228A421FD230B52C
:101E800003E0013292B28A4218D20D4B1B889BB2FA
:101E90000133C3F30A030B4CB4F800C01FFA8CFCE7
:101EA0009C45EED0064CB4F800C01FFA8CFC10F82C
:101EB00002E0054D05F80CE02380E2E730BD7047F5
:101EC000E6A70020E4A70020E8A70020034B1B782A
:101ED00013B108B1024B1860704700BFF0B7002083
:101EE000ECB70020114B1A8892B2114B1B889BB2A1
:101EF0009A420CD30D4B1B889BB20D4A128892B2AA
:101F00009B1A9BB2B3F5C06F0DD901207047074BE8
:101F10001B889BB2064A128892B29B1A9BB203F5A9
:101F200000639BB2EEE70020704700BFEAAF0020DD
:101F3000E8AF0020014B01221A707047E2A7002091
:101F400010B5094C00220421204602F0C6FF64208F
:101F500009F092FF01220421204602F0BEFF4FF457
:101F6000FA7009F089FF10BD0008024070B586B014
:101F700001261A4B1E701A4C204607F075F82046B1
:101F800006F0ABFF01A9002401944C608C60CC608A
:101F90000C610C230193134802F008FE124D2246F7
:101FA0000221284602F099FF322009F065FF2246FF
:101FB0000421284602F091FF642009F05DFF3246BB
:101FC0000421284602F089FF642009F055FF3246BB
:101FD0000221284602F081FF06B070BDF1B7002053
:101FE000C8D7002000000240000802404288002AB2
:101FF0003ED000B589B00379102B2FD006D8032B23
:1020000027D0042B2FD1FFF7B1FF24E0F12B2AD1E9
:10201000F1238DF80430174B1B68CDF80530164BB3
:102020001B68CDF80930154B1B68CDF80D30144BEB
:102030001B68CDF81130134B1B68CDF81530124BCF
:102040001B68CDF81930192201A9E020FEF7AEFF78
:1020500001E0FFF775FF09B05DF804FB011DE0200A
:10206000FEF7A4FFF7E7011DE020FEF79FFFF2E770
:10207000704700BF14B8002010B800200CB8002032
:1020800008B8002004B8002000B8002010B582B0C5
:1020900029E01A48FFF7AAFF23465A1E94B2FBB163
:1020A0000DF10700FFF7C4FCD0B19DF80700FFF762
:1020B000DDFC0028F0D0124A1368013313600F4B87
:1020C0001B78E02BE5D00F4B18680028E4D00023E4
:1020D0001A460A4909F0CAFFDEE74FF40063DCE75D
:1020E000012009F0C9FE084B1B78002BF5D0FFF743
:1020F0003FFD012009F0C0FEF5E700BFC0A30020AE
:1021000000B80020F4A10020F0B70020014B18789F
:10211000704700BFF1B70020014B1878704700BF2F
:10212000F0B7002070B584B00126314B1E70314DE0
:10213000284606F099FF284606F0CFFE2E4C0022D6
:102140000221204602F0C9FE322009F095FE00224D
:102150000421204602F0C1FE642009F08DFE3246C3
:102160000421204602F0B9FE322009F085FE3246F5
:102170000221204602F0B1FE322009F07DFE4FF42C
:10218000E1336B600024EC61284606F076FE019492
:102190002B681A6801925A680192019A02941A688F
:1021A00002925A680292029A03941A6803925A6839
:1021B0000392039A5B684FF400621049284607F0C7
:1021C000B5FAEB6B1A68136823F0080313600C4B25
:1021D0001C800C4B1C800C4B1C800C4B1C800C4B33
:1021E0001C600C4B1C700C4B1E7004B070BD00BF0B
:1021F000F1B70020C8D70020000802401CC800200A
:10220000E8AF0020EAAF0020E4A70020E6A7002006
:10221000ECB70020E2A70020F0B7002030B585B071
:10222000274C204606F020FF204606F056FE254BA0
:1022300063600023E361204606F01FFE002835D1CD
:10224000214809F027FE214B1860FFF779FE40F284
:10225000DC5009F011FE00240194194D2B681A6816
:1022600001925A680192019A02941A6802925A687D
:102270000292029A03941A6803925A680392039A8C
:102280005B684FF400621249284607F04FFA114B81
:102290001860EB6B1A68136823F0080313600E4A8A
:1022A00021460E4809F08EFD05B030BD20464FF4A2
:1022B000E13363600023E36106F0DFFDC0E700BFA8
:1022C000C8D7002040420F00C00D0108D0A5002053
:1022D0001CC80020040000209C0D01088D2000086F
:1022E00038B500239E4630E018202F4921F813000E
:1022F00001320133072A05D8802111410D42F3D064
:102300003020F2E7002205E01820274921F81300C9
:1023100001320133072A05D8802111410C42F3D044
:102320003020F2E7002205E018201F4921F81300B1
:1023300001320133072A06D8802111411CEA010F1E
:10234000F2D03020F1E70EF1010EBEF1060F09D8F0
:1023500016480EEB4E014218455C547892F802C0C4
:102360000022C7E70821124806F01AFBA823114AE9
:102370000D49114802F096FA90B90D4C2268D368C5
:1023800043F40063D360022001F030FA2268D3687E
:1023900023F40063D3600821204606F07FFB38BD9C
:1023A00000F051F8E9E700BF1CD000206CD10020FC
:1023B000F0D300203C08004090D3002006280DD820
:1023C00010B4074C00EB400004EB000C8CF801103B
:1023D00022548CF802305DF8044B7047704700BF00
:1023E0006CD10020F8B507460E461546002407E0DC
:1023F0002B46324639462046FFF7E0FF0134E4B26F
:10240000062CF5D9F8BD08B5002211461046FFF795
:10241000E9FFFFF765FF142001F0E8F908BD0000AF
:1024200008B50821024806F0BBFAFFF7ECFF08BD2B
:10243000F0D3002008B50368B3F1804F00D008BD89
:1024400001F0C2F9FBE772B6FEE7000010B594B0E8
:1024500008AC302200212046FDF7FAFE002303934A
:1024600004930593069307930193204A116C41F05E
:1024700080511164126C02F080520192019A029311
:102480001B4B1A6842F480421A601B6803F48043B5
:102490000293029B012308934FF480330993022394
:1024A0000E934FF480020F920F22109290221192FD
:1024B000129305231393204605F08CF990B90F234E
:1024C000039302230493002305934FF4A053069330
:1024D0004FF480530793032103A805F0CBFB18B9F1
:1024E00014B010BDFFF7AFFFFFF7ADFF003802409B
:1024F0000070004008B501F04DF9FFF7A7FF00F0AC
:102500006DFB00F007FB00F0B5F900F079FA00F080
:10251000E7F900F0F7FB00F013FC00F0D7FC00F047
:10252000C3FE00F0DBFE00F0F1FD00F089FE00F0DC
:10253000A1FE00F045FE012240F604410F4802F0E2
:10254000CCFC322001F052F9FFF76AFF0C4AD2F8B6
:10255000FC3043F08073C2F8FC300A4B00225A6012
:102560001A6842F001021A600CF0B8FE09F0FCFB98
:1025700000F036F809F00AFCFEE700BF0010024048
:1025800000ED00E0001000E008B50BF031F9FEF7B7
:10259000F5F8FEF767FD0B4A00210B4809F012FC25
:1025A0000A4A00210A4809F00DFC002319221946A5
:1025B0000120FFF703FFFFF793FE642009F05CFCA6
:1025C000FBE700BFF40D010839080008D00D010831
:1025D0008903000808B5012009F04EFCFBE7000064
:1025E00008B50B4A0121102009F0F5FC094B1860D1
:1025F000094A0021094809F0E5FB094B1860094A1E
:102600000021094809F0DEFB084B186008BD00BF37
:10261000180E010884D10020540E010889250008F5
:102620008CD10020300E0108D525000888D100206B
:10263000FEE7FEE7FEE7FEE7FEE7704708B5024863
:1026400002F0C0F908BD00BF80D4002008B50248E0
:1026500002F0B8F908BD00BF20D7002008B5024835
:1026600002F0B0F908BD00BFE0D4002008B5024870
:1026700002F0A8F908BD00BFC0D6002008B5024886
:1026800002F0A0F908BD00BFA0D5002008B502489F
:1026900002F098F908BD00BF40D5002008B50248F7
:1026A00001F046FE08BD00BF68D2002008B5024810
:1026B00001F03EFE08BD00BF68D2002008B5024808
:1026C00001F036FE08BD00BF68D2002008B5024800
:1026D00005F0E6FE08BD00BF90D1002008B5024815
:1026E00005F0DEFE08BD00BFF0D3002008B50248AB
:1026F00004F004F908BD00BFE4D2002008B5024888
:1027000004F0CBF908BD00BFE4D2002008B50248B0
:1027100006F0FEFD08BD00BF10D8002008B5024835
:1027200006F0F6FD08BD00BFC8D7002008B5024876
:1027300006F0EEFD08BD00BF80D7002008B50248B6
:1027400002F040F908BD00BF90D3002008B5024850
:1027500006F0DEFD08BD00BF58D8002008B50248CD
:1027600002F030F908BD00BF00D6002008B50248CD
:1027700004F025FD08BD00BFC889012008B5024846
:1027800002F020F908BD00BF60D6002000B583B07C
:10279000002200920D4B596C41F480415964596CF0
:1027A00001F48041009100990192196C41F080512F
:1027B00019641B6C03F080530193019B0F216FF090
:1027C000010001F043FF03B05DF804FB0038024054
:1027D00030B589B0044600230193224B1A6C42F0B5
:1027E00001021A641B6C03F001030193019B02A90F
:1027F00003A805F015FB069BD3B905F0F1FA0346D3
:10280000194AA2FB03239B0C013B18484FF080425E
:10281000026040F2E732C2604360002303618360DC
:10282000836105F055FF054630B1284609B030BD3B
:1028300005F0D6FA4300E3E70C4805F0EBFD05464A
:102840000028F2D11C2001F011FF0F2C01D9012525
:10285000EBE7002221461C2001F0F8FE044B1C602F
:10286000E3E700BF0038024083DE1B4390D1002025
:102870001000002000B585B000230093019302935F
:1028800003931448144A0260436083600361037633
:1028900080F82030C362114A8262C3600122C261A3
:1028A00080F83030426101F04FF868B90823009396
:1028B00001230193002302936946064801F072F94F
:1028C00028B905B05DF804FBFFF7BDFDEEE7FFF7A3
:1028D000BAFDF6E720D20020002001400100000FE1
:1028E00000B585B00023009301930293039314482D
:1028F000144A0260436083600361037680F82030ED
:10290000C362114A8262C3600122C26180F8303022
:10291000426101F019F860B900230093012201928D
:1029200002936946064801F03DF928B905B05DF803
:1029300004FBFFF788FDEFE7FFF785FDF6E700BF33
:10294000D8D10020002101400100000F00B58BB05C
:102950000023059306930793089309930368234A7A
:10296000934205D0224A934221D00BB05DF804FB7C
:10297000002101911F4B5A6C42F480725A645A6CC8
:1029800002F480720192019A02911A6B42F00202E3
:102990001A631B6B03F002030293029B012305934E
:1029A0000323069305A9144802F000F9DDE700218E
:1029B0000391104B5A6C42F400725A645A6C02F440
:1029C00000720392039A04911A6B42F001021A6397
:1029D0001B6B03F001030493049B032305930693ED
:1029E00005A9064802F0E2F8BFE700BF0020014059
:1029F0000021014000380240000402400000024073
:102A000008B50B480B4B036014234360002383601D
:102A1000C36003614361037643768376C3760377AD
:102A2000437701F089F900B908BDFFF70CFDFBE71A
:102A300068D200200064004010B588B000230393E2
:102A400004930593069307930268204B9A4201D0A2
:102A500008B010BD0024019403F5EA331A6C42F06B
:102A600000721A641A6C02F000720192019A0294C8
:102A70001A6B42F008021A631B6B03F008030293FF
:102A8000029B0323039302220492069309230793D4
:102A900003A90F4802F08AF822460121132001F011
:102AA000D5FD132001F0E2FD22460121142001F0A2
:102AB000CDFD142001F0DAFD22460121152001F0A0
:102AC000C5FD152001F0D2FDC2E700BF0064004043
:102AD000000C024008B502680B4B9A4200D008BDBA
:102AE0000A4A136C23F0007313640321084802F0B0
:102AF00053F9132001F0BEFD142001F0BBFD152099
:102B000001F0B8FDEBE700BF006400400038024070
:102B1000000C024010B582B0002400942E4B1A6BBA
:102B200042F400121A631A6B02F400120092009A27
:102B300001941A6B42F480021A631B6B03F4800346
:102B40000193019B224601210C2001F07FFD0C2006
:102B500001F08CFD224601210D2001F077FD0D20B2
:102B600001F084FD224601210E2001F06FFD0E20B0
:102B700001F07CFD224601210F2001F067FD0F20AE
:102B800001F074FD22460121102001F05FFD1020AC
:102B900001F06CFD22460121112001F057FD1120AA
:102BA00001F064FD224601212F2001F04FFD2F206E
:102BB00001F05CFD224608213A2001F047FD3A2051
:102BC00001F054FD22460821462001F03FFD462039
:102BD00001F04CFD02B010BD003802402DE9F04379
:102BE0008DB007AD00240794089409940A940B94BF
:102BF0000194404B1A6B42F010021A631A6B02F0F8
:102C000010020192019A02941A6B42F080021A6338
:102C10001A6B02F080020292029A03941A6B42F03D
:102C200004021A631A6B02F004020392039A0494DA
:102C30001A6B42F001021A631A6B02F0010204924D
:102C4000049A05941A6B42F002021A631A6B02F09E
:102C500002020592059A06941A6B42F008021A6362
:102C60001B6B03F008030693069BDFF89090224647
:102C700040F60441484602F030F9DFF88480012232
:102C80000621404602F029F91B4E224649F2044132
:102C9000304602F022F901224FF40051304602F092
:102CA0001CF922464FF47071404602F016F940F6C6
:102CB000044307930127089709940A942946484634
:102CC00001F074FF40F2C6330793089709940A9401
:102CD0002946404601F06AFF4BF2044307930897E8
:102CE00009940A942946304601F060FF0DB0BDE812
:102CF000F08300BF00380240000C02400010024088
:102D00000008024008B50B480B4B03600B4B4360B7
:102D100000238360C3604FF480420261436183619A
:102D2000C361036202F016FD00B908BDFFF78BFB1B
:102D3000FBE700BFE4D2002000540040A086010061
:102D400008B50B480B4B03600B4B436000238360BB
:102D5000C3604FF48042026143618361C3610362D7
:102D600002F0F8FC00B908BDFFF76DFBFBE700BF00
:102D700090D2002000580040A086010030B58BB0F2
:102D800000230593069307930893099303682F4A3A
:102D9000934204D02E4A934234D00BB030BD00256C
:102DA00001952C4C236B43F002032363236B03F048
:102DB00002030193019BC02305931223069303236F
:102DC00008930423099305A9234801F0EFFE029517
:102DD000236C43F400132364236C03F40013029365
:102DE000029B2A4605211F2001F030FC1F2001F024
:102DF0003DFC2A460521202001F028FC202001F07E
:102E000035FCCAE700250395124C236B43F00203FF
:102E10002363236B03F002030393039B4FF440638C
:102E2000059312230693032308930423099305A90A
:102E3000094801F0BBFE0495236C43F4800323642E
:102E4000236C03F480030493049BA6E70054004022
:102E500000580040003802400004024010B50368EA
:102E6000174A934203D0174A934216D010BD02F579
:102E7000F232136C23F400131364134C40212046E8
:102E800001F08AFF8021204601F086FF1F2001F01B
:102E9000F1FB202001F0EEFBE8E702F5F032136CC5
:102EA00023F480031364084C4FF48061204601F042
:102EB00073FF4FF40061204601F06EFFD6E700BFBC
:102EC00000540040005800400004024008B50D487E
:102ED0000D4B03604FF48273436000238360C36033
:102EE000036143614FF400728261C3610362436214
:102EF00083620A23C36205F055F800B908BDFFF7E5
:102F0000A2FAFBE738D300200030014000B589B0B9
:102F10000023039304930593069307930268154BCC
:102F20009A4202D009B05DF804FB0021019103F53B
:102F300084335A6C42F480525A645A6C02F48052C0
:102F40000192019A02911A6B42F001021A631B6B03
:102F500003F001030293029BE023039302230493F3
:102F6000032306930523079303A9034801F01EFEDC
:102F7000D8E700BF003001400000024008B50268F9
:102F8000064B9A4200D008BD054A536C23F4805387
:102F90005364E021034801F0FFFEF4E700300140F4
:102FA00000380240000002400268094B9A4200D0FB
:102FB000704782B000230193064B5A6C42F0010225
:102FC0005A645B6C03F001030193019B02B07047EC
:102FD00000000140003802400268224B9A4200D0B3
:102FE000704710B582B00446002301931E4A116C4D
:102FF00041F004011164126C02F004020192019A82
:103000001A481B4A02604FF0806242604022826090
:10301000C3604FF4806202614FF4006242614FF47A
:1030200000528261C3614FF400320262436201F0D8
:10303000A1FBA0B90D4BE3629C63002201211E207D
:1030400001F004FB1E2001F011FB002201212F20C2
:1030500001F0FCFA2F2001F009FB02B010BDFFF7D0
:10306000F2F9E7E7000800400038024090D3002062
:10307000B860024000B589B0002303930493059320
:103080000693079303681C4A934205D01B4A934258
:103090001AD009B05DF804FB00230193184B1A6B9A
:1030A00042F010021A631B6B03F010030193019BA3
:1030B0004FF440730393022304930123079303A95E
:1030C000104801F073FDE4E7002302930C4B1A6BE8
:1030D00042F008021A631B6B03F008030293029B81
:1030E0004FF48043039302230493079303A90648F4
:1030F00001F05CFDCDE700BF00000140000800408A
:103100000038024000100240000C024010B592B09E
:1031100000241094119409940A940B940C940D9427
:103120000E940F942022214601A8FDF791F8224821
:10313000224B03603123436084604FF6FF73C3600A
:1031400004614461846105F0EFFA002828D100236E
:103150001093119310A9184805F0E6FC18BB002243
:1031600009920A920B920C920D920E920F9209A95B
:10317000114805F069FBC8B900230193029303933A
:10318000049305934FF400520692089301A90A484C
:1031900005F010FD68B90848FFF76CFF12B010BDCC
:1031A000FFF751F9D3E7FFF74EF9D8E7FFF74BF9EF
:1031B000E2E7FFF748F9EEE738D4002000000140CD
:1031C00000B58BB0002308930993019302930393F6
:1031D00004930593069307931748184A02604360C7
:1031E00083604A22C2600361836105F0C9FAC8B9ED
:1031F00000230893099308A90F4805F095FCA0B98E
:10320000602301930023029303930593082201A9ED
:10321000094805F048FB58B90748FFF72BFF0BB0EA
:103220005DF804FBFFF70FF9E2E7FFF70CF9E7E7BA
:10323000FFF709F9F0E700BFF0D3002000080040D5
:1032400008B50A480A4B03604FF4E133436000239A
:103250008360C36003610C2242618361C36105F036
:103260000CFE00B908BDFFF7EEF8FBE758D80020C8
:10327000004C004008B50A480A4B03604FF4E133A4
:10328000436000238360C36003610C224261836159
:10329000C36105F0F2FD00B908BDFFF7D4F8FBE704
:1032A00010D800200010014008B50A480A4B0360FE
:1032B0004FF4E133436000238360C36003610C2259
:1032C00042618361C36105F0D8FD00B908BDFFF715
:1032D000BAF8FBE7C8D700200044004008B50A4808
:1032E0000A4B03604FF4E133436000238360C36003
:1032F00003610C2242618361C36105F0BEFD00B928
:1033000008BDFFF7A0F8FBE780D700200048004089
:1033100030B58FB00446002309930A930B930C93A6
:103320000D930368994A93420CD0994A934269D00D
:10333000984A934200F0CA80974A934200F04C8129
:103340000FB030BD00250195944B1A6C42F4002259
:103350001A641A6C02F400220192019A02951A6B07
:1033600042F004021A631B6B03F004030293029BF6
:103370004FF44063099302230A9303230C93082319
:103380000D9309A9864801F011FC8648864B03601D
:103390004FF0006343608560C5604FF48063036154
:1033A00045618561C5610562456201F0E3F918BBBD
:1033B0007C4BE3639C637D487D4B03604FF000636F
:1033C0004360402383600023C3604FF48062026146
:1033D00043618361C3610362436201F0CBF970B959
:1033E000724BA3639C6300220121342001F02EF96B
:1033F000342001F03BF9A3E7FFF725F8D8E7FFF702
:1034000022F8EDE700250395644B5A6C42F0100258
:103410005A645A6C02F010020392039A04951A6BD4
:1034200042F001021A631B6B03F001030493049B37
:103430004FF4C063099302230A9303230C930723D9
:103440000D9309A95B4801F0B1FB5B485B4B03603E
:103450004FF00063436040238360C5604FF4806396
:10346000036145618561C5614FF480330362456244
:1034700001F080F920BB504BA3639C635048514B33
:1034800003604FF00063436000238360C3604FF428
:103490008062026143618361C3614FF480320262E2
:1034A000436201F067F970B9454BE3639C63002206
:1034B0000721252001F0CAF8252001F0D7F83FE7C1
:1034C000FEF7C1FFD7E7FEF7BEFFEDE70025059544
:1034D000324B1A6C42F400321A641A6C02F4003255
:1034E0000592059A06951A6B42F001021A631B6B4E
:1034F00003F001030693069B0C23099302230A930E
:1035000003230C9307230D9309A92A4801F04EFBCE
:103510002D482E4B03604FF0006343608560C5600B
:103520004FF48063036145618561C5610562456251
:1035300001F020F918BB244BE3639C632448254B1E
:1035400003604FF000634360402383600023C36047
:103550004FF48062026143618361C361036243622D
:1035600001F008F970B91A4BA3639C630022012192
:10357000262001F06BF8262001F078F8E0E6FEF74F
:1035800062FFD8E7FEF75FFFEDE700BF004C0040A9
:103590000010014000440040004800400038024054
:1035A0000008024020D7002040600240C0D6002022
:1035B000706002400000024060D60020B864024003
:1035C00000D6002040640240A0D500208860024060
:1035D00040D50020A0600240002507952E4B1A6CB4
:1035E00042F480221A641A6C02F480220792079A2D
:1035F00008951A6B42F008021A631B6B03F008036C
:103600000893089B4FF44073099302230A93032302
:103610000C9307230D9309A9204801F0C7FA20480D
:10362000204B03604FF00063436040238360C5601C
:103630004FF48063036145618561C5610562456240
:1036400001F098F810BB164BA3639C631648174B08
:1036500003604FF00063436000238360C3604FF456
:103660008062026143618361C3610362436201F06E
:1036700081F870B90C4BE3639C6300220121272081
:1036800000F0E4FF272000F0F1FF59E6FEF7DBFE33
:10369000D9E7FEF7D8FEEDE700380240000C024003
:1036A000E0D400205860024080D40020286002400E
:1036B00010B504460368304A934209D02F4A93421A
:1036C0001BD02F4A93422DD02E4A93423ED010BD9C
:1036D00002F5F632136C23F4002313644FF44061B7
:1036E000294801F059FBE06B01F0AAF8A06B01F04A
:1036F000A7F8342000F0BEFFE9E702F59432536CDE
:1037000023F0100353644FF4C061204801F044FBE0
:10371000A06B01F095F8E06B01F092F8252000F025
:10372000A9FFD4E702F5FA32136C23F400331364D3
:103730000C21164801F030FBE06B01F081F8A06B22
:1037400001F07EF8262000F095FFC0E702F5F83280
:10375000136C23F4802313644FF440710C4801F080
:103760001BFBA06B01F06CF8E06B01F069F82720FF
:1037700000F080FFABE700BF004C004000100140AC
:1037800000440040004800400008024000000240A1
:10379000000C024008B50B4B1A6842F400721A6024
:1037A0001A6842F480621A601A6842F480721A60E1
:1037B000032000F039FF0F20FFF70AF8FEF7E6FFBD
:1037C000002008BD003C0240034A1168034B1B78EF
:1037D0000B441360704700BFA0D800200C000020ED
:1037E000014B1868704700BFA0D8002038B50446C8
:1037F000FFF7F6FF0546B4F1FF3F02D0044B1B78FC
:103800001C44FFF7EDFF401BA042FAD338BD00BFB8
:103810000C0000204A4B5A6822F440325A605A6821
:1038200041680A435A600268536823F48073536006
:1038300002685368016943EA0123536002685368D0
:1038400023F0407353600268536881680B435360F0
:103850000268936823F40063936002689368C16808
:103860000B439360826A374B9A4257D00268936841
:1038700023F07063936002689368816A0B439360DE
:103880000268936823F04053936002689368C16AAA
:103890000B4393600268936823F00203936002680D
:1038A0009368017E43EA4103936090F82030002B37
:1038B0003FD00268536843F4006353600268536862
:1038C00023F46043536001684B68426A013A43EA5B
:1038D00042334B600268D36A23F47003D3620168F9
:1038E000CB6AC269013A43EA0253CB620268936829
:1038F00023F4007393600268936890F8301043EAF1
:10390000412393600268936823F4806393600268A4
:103910009368416943EA8123936070470268936822
:1039200023F0706393600268936823F040539360C0
:10393000B0E70268536823F400635360CAE700BF2E
:10394000002301400100000F38B310B50446036C9A
:1039500043B1236C13F0100F0BD00120002384F827
:103960003C3010BDFEF7F2FF0023636484F83C3066
:10397000EFE7236C23F4885323F0020343F00203A0
:1039800023642046FFF746FF00206064236C23F089
:10399000030343F001032364E0E7012070470000C4
:1039A00082B00023019390F83C30012B00F0898015
:1039B000012380F83C3003689A6812F0010F13D19C
:1039C0009A6842F001029A60414B1B68414AA2FB8F
:1039D00003239B0C03EB4303019302E0019B013B98
:1039E0000193019B002BF9D10268936813F0010F3A
:1039F0005CD0036C23F4E06323F0010343F4807391
:103A00000364536813F4806F05D0036C23F44053B0
:103A100043F480530364036C13F4805F1BD0436C46
:103A200023F006034364002380F83C306FF0220348
:103A30001360294B5B6813F01F0F27D10368274AD7
:103A4000934211D002F58072934207D0244A9342E8
:103A500014D0002033E000234364E4E702F5007251
:103A6000526812F01F0FF1D19A6812F0405F2AD10C
:103A70009A6842F080429A60002020E002F580724D
:103A8000526812F0100FEFD0002018E00368134ABC
:103A9000934201D0002012E09A6812F0405F14D1E6
:103AA0009A6842F080429A60002008E0036C43F07C
:103AB00010030364436C43F001034364002002B02D
:103AC00070470220FBE70020F9E70020F7E700BF7E
:103AD0000800002083DE1B4300230140002001403A
:103AE0000022014070B504460D4603689A6812F43E
:103AF000806F03D09B6813F4807F19D1FFF770FEAD
:103B0000064623681A6812F0020F20D1B5F1FF3F74
:103B1000F7D0B5B923681B6813F0020FF1D1236CFD
:103B200043F004032364002384F83C30032032E094
:103B3000036C43F020030364002380F83C30012031
:103B400029E0FFF74DFE801BA842DAD9E2E76FF0CB
:103B500012021A60236C43F40073236423689A688A
:103B600012F0405F16D1207EB0B9DA6A12F4700FFD
:103B700003D09B6813F4806F0DD1236C23F4807302
:103B80002364236C13F4805F05D1236C43F001039D
:103B9000236400E0002070BD0020FCE70368D86CBF
:103BA0007047000030B482B00022019290F83C20AF
:103BB000012A00F0B6800346012280F83C200A6802
:103BC000092A40D90468E06892B202EB42021E3A28
:103BD0004FF0070C0CFA02F220EA0202E2601C68C5
:103BE000E0680A8802EB42021E3A8D6805FA02F28A
:103BF0000243E2604A68062A3CD81C68606B02EB0C
:103C00008202053A4FF01F0C0CFA02F220EA02027F
:103C100062631C68606B4A6802EB8202053AB1F885
:103C200000C00CFA02F20243626318683E4A9042F6
:103C300050D018683C4A904255D0002083F83C0090
:103C400002B030BC70470468206992B202EB4202B5
:103C50004FF0070C0CFA02F220EA020222611C6803
:103C600020690A8802EB42028D6805FA02F20243DB
:103C70002261BFE70C2A16D81D68286B02EB82026E
:103C8000233A1F2404FA02F220EA02022A631D6882
:103C9000286B4A6802EB8202233A0C8804FA02F28B
:103CA00002432A63C1E71D68E86A02EB8202413AD7
:103CB0001F2404FA02F220EA0202EA621D68E86A9E
:103CC0004A6802EB8202413A0C8804FA02F202438B
:103CD000EA62AAE70A68122AABD11448426842F4A1
:103CE00080024260A5E70A68103A012AA5D80F4869
:103CF000426842F4000242600A68102A9DD10C4AD0
:103D000012680C49A1FB0212920C02EB82025200D3
:103D1000019202E0019A013A0192019A002AF9D136
:103D20008BE702208CE700BF002001400023014008
:103D30000800002083DE1B43002800F0A18038B576
:103D4000044690F82030D3B12268136843F0010391
:103D50001360FFF745FD054623685A6812F0010F0E
:103D600010D1FFF73DFD401B0A28F5D9636A43F4E3
:103D700000336362052384F82030012038BDFEF74C
:103D80005BFEE1E71A6822F002021A60FFF728FDE5
:103D9000054623685A6812F0020F0DD0FFF720FD88
:103DA000401B0A28F5D9636A43F400336362052394
:103DB00084F820300120E1E7227E012A3DD01A68F4
:103DC00022F080021A60637E012B3BD022681368C8
:103DD00023F040031360A37E012B39D022681368BF
:103DE00023F020031360E37E012B37D02268136891
:103DF00043F010031360237F012B35D02268136832
:103E000023F008031360637F012B33D0226813680B
:103E100023F004031360A368E26813432269134389
:103E2000626913436268013A21681343CB61002041
:103E30006062012384F82030A0E71A6842F0800213
:103E40001A60C0E72268136843F040031360C2E7BA
:103E50002268136843F020031360C4E722681368E4
:103E600023F010031360C6E72268136843F00803C9
:103E70001360C8E72268136843F004031360CAE7BD
:103E80000120704790F82030013BDBB2012B05D9AF
:103E9000436A43F4802343620120704730B5464BA8
:103EA000D3F8002242F00102C3F80022D3F8002226
:103EB00022F47C52C3F80022D3F80022486A42EA76
:103EC0000022C3F800224A6902F01F02012000FA12
:103ED00002F2D3F81C026FEA020C20EA0200C3F8D7
:103EE0001C02CB69C3B9344BD3F80C020CEA0000B6
:103EF000C3F80C028C884869CD6844EA0544483010
:103F000043F830408C68088840EA04404C6904F16A
:103F1000480E03EBCE035860CB69012B1ED08B6992
:103F2000002B33D12448D0F804320CEA0303C0F844
:103F300004320B698BBB2048D0F814320CEA03031F
:103F4000C0F814320B6A012B2ED01B4AD2F8003273
:103F500023F00103C2F80032002030BD164BD3F825
:103F60000C021043C3F80C028C8848690D6844EABF
:103F70000544483043F8304088894C698D6840EAF0
:103F80000540483403EBC4035860C8E70A48D0F83A
:103F900004321343C0F80432CBE70748D0F8143298
:103FA0001343C0F81432CDE70349D1F81C32134350
:103FB000C1F81C32C9E700BF0064004070B5044678
:103FC00090F82030012B06D0436A43F4002343626B
:103FD0000126304670BDDEB2022380F82030026830
:103FE000136823F001031360FFF7FAFB054623680B
:103FF0005B6813F0010F0CD0FFF7F2FB431B0A2B99
:10400000F5D9636A43F400336362052384F82030F2
:10401000DFE700266662DCE738B5044690F820301A
:10402000022B05D0436A43F480134362012038BD5C
:104030000268136843F001031360FFF7D1FB0546E4
:1040400023685A6812F0010F0DD1FFF7C9FB431B1B
:104050000A2BF5D9636A43F400336362052384F8BD
:1040600020300120E3E71A6822F002021A600123DF
:1040700084F820300020DAE780B110B50446FFF75D
:10408000CBFF2046FEF726FD2268136843F4004369
:1040900013600020606284F8200010BD012070478A
:1040A00030B590F820C00468A4680CF1FF3C5FFABA
:1040B0008CFCBCF1010F62D814F0E05F59D0C4F35E
:1040C000016C012404FA0CF41C608B68002B3DD1B8
:1040D0000D68CB68046843EA45550CF118031B01D1
:1040E000E55003680C690CF1180E03EB0E135C60CD
:1040F0000B7D012B35D0D17993791B0443EA016301
:10410000517943EA012314790168234301EB0C112F
:10411000C1F88C31D17893781B0443EA016351785C
:1041200043EA0123117802680B4302EB0C12C2F838
:10413000883102680CF1180C4FEA0C1C52F80C3054
:1041400043F0010342F80C3000201DE04C6843EAC4
:10415000C403CC6823430CF11804240105682B51D7
:10416000BFE7036803EB0E13596841F4807159608F
:10417000C1E7436A43F400134362012004E0436A49
:1041800043F480234362012030BD90F820C00CF13D
:10419000FF3C5FFA8CFCBCF1010F00F2A58030B44B
:1041A00051B90468E46814F0030F10D1436A43F472
:1041B0000013436201207EE00468246914F0030FB9
:1041C00005D1436A43F400134362012073E005689C
:1041D00001F11B0424012C5904F004049460002C08
:1041E0006BD1056801F11B0424012C59640D146086
:1041F000046801F11B0C4FEA0C1C54F80C4004F04D
:104200000204D4600468A444DCF8045015F0080FDC
:104210005BD008241461046801F11B0C04EB0C143E
:104220006468C4F307249461046804EB0C146468A4
:10423000240C5461026802EB0112D2F8B8211A7002
:10424000026802EB0112D2F8B821C2F307225A70B9
:10425000026802EB0112D2F8B821C2F307429A7049
:10426000026802EB0112D2F8B821120EDA7002686D
:1042700002EB0112D2F8BC211A71026802EB0112A2
:10428000D2F8BC21C2F307225A71026802EB011274
:10429000D2F8BC21C2F307429A71026802EB011204
:1042A000D2F8BC21120EDA71C1B90268D36843F0AA
:1042B0002003D360002030BC7047056801F11B0467
:1042C00024012C59E408546092E701F11B0504EB2A
:1042D0000514646804F00F0414619CE70268136914
:1042E00043F020031361E5E7436A43F4802343620C
:1042F0000120704790F82030013BDBB2012B05D93B
:10430000436A43F480234362012070470268536983
:104310000B435361002070477047704770477047E8
:1043200070477047704770477047704770477047D5
:104330002DE9F84F054603685C69D3F804809F684F
:10434000D3F80CA0D3F81090D3F818B014F00106ED
:104350003BD017F0010616D001229A6017F0020F29
:1043600008D117F0040F0CD117F0080606D04FF44F
:10437000805608E0FFF7D0FF002604E0FFF7CFFFEC
:1043800001E04FF4006617F4807F0DD02B684FF4E6
:1043900080729A6017F4007F40F0968017F4806F67
:1043A00000F0968046F4005617F4803F0DD02B683D
:1043B0004FF480329A6017F4003F40F0938017F476
:1043C000802F00F0938046F4004614F0080F07D0C9
:1043D0001AF0100F04D046F400762B681022DA6031
:1043E00014F0040F03D01AF0080F40F0898014F085
:1043F000020F05D02B68DB6813F0030F40F08780B5
:1044000014F0400F07D019F0100F04D046F4806666
:104410002B6810221A6114F0200F02D019F0080F37
:1044200079D114F0100F04D02B681B6913F0030F1F
:1044300078D114F4003F02D018F0100F76D114F4A4
:10444000803F02D018F0080F77D114F4004F37D016
:1044500018F0040F31D014F4807F04D01BF0010F4A
:1044600001D046F0010614F4007F04D01BF0020FC7
:1044700001D046F0020614F4806F04D01BF0040F44
:1044800001D046F0040614F4006F16D01BF0700B38
:1044900013D0BBF1400F66D056D8BBF1200F5CD0D3
:1044A000BBF1300F5CD0BBF1100F01D146F0080614
:1044B0002A68936923F0700393612B6804225A6081
:1044C000002E56D1BDE8F88F2846FFF726FF6BE790
:1044D00017F4006F02D046F4804665E72846FFF7E0
:1044E0001FFF61E72846FFF719FF6EE717F4002F5B
:1044F00002D046F4803668E72846FFF712FF64E7EB
:104500002B680822DA602846FFF70CFF6FE7284681
:10451000FBF7ECFF74E72B6808221A612846FFF7C7
:1045200003FF7EE72846FFF7FEFE82E72B68102296
:104530005A602846FFF7F9FE81E72B6808225A6087
:104540002846FFF7F3FE80E7BBF1500F0ED0BBF11A
:10455000600FADD146F48076AAE746F01006A7E7D3
:1045600046F02006A4E746F04006A1E746F08006A4
:104570009EE76B6A33436B622846FFF7D8FEA1E7DC
:10458000002807DB00F01F02400901239340024A84
:1045900042F82030704700BF00E100E000280CDB4B
:1045A00000F01F024009012393402030034A42F8E3
:1045B0002030BFF34F8FBFF36F8F704700E100E0F3
:1045C000002808DB0901C9B200F1604000F5614034
:1045D00080F80013704700F00F000901C9B2014BC9
:1045E0001954704714ED00E000B500F00700C0F169
:1045F000070CBCF1040F28BF4FF0040C031D062B61
:104600000FD9C31E4FF0FF3E0EFA0CF021EA000155
:1046100099400EFA03FE22EA0E0241EA02005DF81A
:1046200004FB0023EEE70000074AD36823F4E063AD
:104630001B041B0C000200F4E060034343F0BF6363
:1046400043F40033D360704700ED00E010B504463A
:10465000054BD868C0F30220FFF7C6FF014620468D
:10466000FFF7AEFF10BD00BF00ED00E008B5FFF79B
:1046700087FF08BD08B5FFF791FF08BD30B4056896
:104680002C6824F480242C60046863608368402BC9
:1046900005D0036899600368DA6030BC704703682E
:1046A0009A600368D960F8E710B40368D9B210398A
:1046B0000A4AA2FB01421209094CA25CC2655F29A9
:1046C00007D96FF3090304338365806D5DF8044BEC
:1046D00070476FF309038365F7E700BFABAAAAAA87
:1046E000900E0108836A826992B9012B0AD0022BCD
:1046F00002D00BB100207047C36A13F0807F28D12D
:1047000000207047C36AB3F1C07F24D000207047F7
:10471000B2F5005F09D0022B25D9032B25D1C36A3E
:1047200013F0807F23D100207047032B03D8DFE8EC
:1047300003F01404140A00207047C36A13F0807F4A
:104740000DD100207047C36AB3F1C07F09D00020AB
:1047500070470120704701207047012070470120F9
:1047600070470120704701207047002070470120EA
:104770007047000070B50446FFF732F8002C5BD09C
:104780000546022384F83530002384F8343022684B
:10479000136823F00103136023681A6812F0010FF5
:1047A0000AD0FFF71DF8431B052BF5D920236365BD
:1047B000032084F8350070BD1A68204911406268F2
:1047C000A0680243E0680243206902436069024333
:1047D000A0690243E0690243206A02430A43616A16
:1047E00004291ED01A602668756925F00705636ADA
:1047F0001D43042B07D1A36A1D43E36A1BB1204666
:10480000FFF770FF90B975612046FFF74DFFE26D2D
:104810003F239340836000206065012384F8353096
:10482000C9E7E16A206B01430A43DBE74023636584
:10483000012084F83500BEE70120BCE73F8010F07E
:1048400000282DD038B5044690F83530D8B2022B68
:1048500025D02268136823F0010313602368002524
:104860001D6023685D6023689D602368DD602368A8
:104870001D61236821225A612046FFF715FFE56379
:1048800025646564A564E5642565E26D3F23934076
:104890008360656584F8355084F83450284638BD07
:1048A0000120704738B50446856D90F83400012822
:1048B0002AD0012084F8340094F83500012804D06F
:1048C000002384F83430022038BD022084F83500FB
:1048D000002060652046FFF7D1FEE26D3F23934044
:1048E000AB602268136843F016031360236C23B196
:1048F0002268136843F0080313602268136843F0CA
:10490000010313600020DFE70220DDE770B50446F5
:10491000866DFEF765FF94F83530022B06D08023B4
:104920006365002384F83430012070BD0546226899
:10493000136823F0160313602268536923F0800381
:104940005361236CE3B12268136823F008031360FA
:104950002268136823F00103136023681B6813F0B7
:10496000010F11D0FEF73CFF431B052BF5D9202387
:104970006365032084F83500002384F83430D4E7DD
:10498000A36C002BDFD1E3E7E26D3F239340B360DC
:10499000012384F83530002084F83400C5E790F80E
:1049A0003530022B03D08023436501207047052357
:1049B00080F835300268136823F00103136000208B
:1049C00070470000F0B583B0044600230193724B9A
:1049D0001D68724BA3FB0535AD0A876D3E68C26D3D
:1049E00008239340334210D003681A6812F0040F72
:1049F0000BD01A6822F004021A60C26D082393409B
:104A0000BB60436D43F001034365E26D01239340B6
:104A1000334209D02268526912F0800F04D0BB6083
:104A2000636D43F002036365E26D042393403342F8
:104A300009D02268126812F0020F04D0BB60636DC7
:104A400043F004036365E26D10239340334224D0A6
:104A50002268126812F0080F1FD0BB6023681A6822
:104A600012F4802F0DD01B6813F4002F04D1236C97
:104A70009BB12046984710E0A36C73B1204698473D
:104A80000BE01A6812F4807F03D11A6822F0080242
:104A90001A60236C0BB120469847E26D20239340A7
:104AA000334254D02268126812F0100F4FD0BB600E
:104AB00094F83530052B0ED023681A6812F4802F35
:104AC00033D01B6813F4002F2AD1636C002B3ED027
:104AD000204698473BE02268136823F016031360D2
:104AE0002268536923F080035361236CA3B12268C9
:104AF000136823F008031360E26D3F239340BB600B
:104B0000012384F83530002384F83430236D002BE2
:104B10003FD0204698473CE0A36C002BE7D1EBE761
:104B2000E36BA3B12046984711E01A6812F4807F26
:104B300009D11A6822F010021A60012384F8353076
:104B4000002384F83430E36B0BB120469847636D43
:104B5000FBB1636D13F0010F17D0052384F83530D6
:104B60002268136823F001031360019B0133019352
:104B7000AB4204D823681B6813F0010FF5D1012361
:104B800084F83530002384F83430E36C0BB12046D0
:104B9000984703B0F0BD00BF08000020B5814E1B50
:104BA00090F835007047406D7047000000230F2BD0
:104BB00000F2E98070B582B065E085684FEA430E87
:104BC000032404FA0EF425EA0405CC6804FA0EF472
:104BD0002C438460446824EA02044A68C2F3001249
:104BE0009A40224342605CE0DC08083450F82420FC
:104BF00003F00705AD004FF00F0E0EFA05FE22EA96
:104C00000E0E0A69AA4042EA0E0240F824205CE037
:104C1000072200E0002202FA0EF22A4302345A4D23
:104C200045F82420594A94686FEA0C0224EA0C05DE
:104C30004E6816F4801F01D04CEA0405534CA56061
:104C4000E46802EA04054E6816F4001F01D04CEA3D
:104C500004054E4CE560646802EA04054E6816F4EB
:104C6000003F01D04CEA0405484C656024682240AE
:104C70004D6815F4803F01D04CEA0402434C226099
:104C800001330F2B7DD801229A400C6804EA020CF4
:104C900032EA0404F4D14C6804F00304013C012C12
:104CA0008BD94A6802F00302032A09D0C4685D0068
:104CB0000322AA4024EA02048A68AA402243C2606E
:104CC0004A6802F00302022A8ED004684FEA430EBB
:104CD000032202FA0EF224EA02044A6802F00302F6
:104CE00002FA0EF2224302604A6812F4403FC7D033
:104CF00000220192264A546C44F480445464526C5D
:104D000002F480420192019A9C08A51C1E4A52F8A6
:104D1000255003F0030E4FEA8E0E0F2202FA0EF218
:104D200025EA02051B4A90423FF474AF02F5806207
:104D300090421AD002F58062904218D002F580624B
:104D4000904216D002F58062904214D002F5806243
:104D5000904212D002F58062904210D002F580623B
:104D600090423FF455AF082255E7012253E7022253
:104D700051E703224FE704224DE705224BE70622C5
:104D800049E702B070BD704700380140003C014067
:104D9000003802400000024000230F2B00F28F80F9
:104DA000F0B52DE0072500E0002505FA0CF5A54239
:104DB00069D004685D004FF0030C0CFA05FC24EA8E
:104DC0000C0404604FEAD30E0EF1080E50F82E408A
:104DD00003F00706B6000F25B54024EA050440F8A5
:104DE0002E40C46824EA0C04C460446824EA020229
:104DF0004260826822EA0C02826001330F2B5DD888
:104E000001229A4002EA010632EA0104F5D14FEA92
:104E1000930E0EF102052A4C54F8254003F0030CC2
:104E20004FEA8C0C0F2505FA0CF73C40254DA842A3
:104E3000BAD005F58065A84219D005F58065A8426D
:104E400017D005F58065A84215D005F58065A84204
:104E500013D005F58065A84211D005F58065A842FC
:104E60000FD005F58065A8429CD008259DE7012557
:104E70009BE7022599E7032597E7042595E7052594
:104E800093E7062591E7104C256825EA060525607D
:104E9000656825EA06056560E56825EA0605E560BA
:104EA000A56825EA0605A560054E0EF1020456F830
:104EB000245025EA070546F824507AE7F0BD7047EC
:104EC0000038014000000240003C014003691942E3
:104ED00001D001207047002070470AB181617047FE
:104EE00009048161704703685A6912F0800F01D08C
:104EF00000221A61704790F83E30402B10D00369B1
:104F0000B3F5804F1BD0036D002B38D1436CC3F336
:104F1000C813026803F0060343F0F00313617047FF
:104F2000036D2BB9436C026803F0FE0313617047F5
:104F3000436C026843F00103DBB21361704790F8E1
:104F40003D30212B0FD0436C026843F00103DBB2EC
:104F50001361436B6BB1DB6B5BB10268536843F465
:104F6000006353607047436C026803F0FE031361F3
:104F7000EFE7836B33B1DB6B002BEED102E0036D07
:104F8000012B00D07047436CC3F3C813026803F0D1
:104F9000060343F0F1031361F4E7436C0268DBB2EC
:104FA0001361436B3BB1DB6B2BB10268536843F475
:104FB000006353607047836B002BFBD0DB6B002BCF
:104FC000F3D1F7E710B48BB090F83E30C16A046BB0
:104FD00090F83D20222A0BD00023099303685A69D8
:104FE00009929B690993099B0BB05DF8044B7047CC
:104FF000DBB2026D0AB9402B17D0036D1BB90369F0
:10500000B3F5404F1AD0438D9BB2002B26D10293AB
:1050100003685A6902929A690292029A1A6842F4E3
:1050200000721A6000230365DEE700230093036823
:105030005A6900929B690093009BD5E70023019376
:1050400003685A6901929A690192019A1A6842F4B6
:1050500080721A60036D01330365C5E7438D9BB20F
:10506000012B26D0438D9BB2022B7CD002681368A3
:1050700043F48063136003685A6812F4006F0FD022
:10508000202900F2AE800829C0F0A7800839574ACD
:10509000CA4012F0010F03D05A6842F480525A609D
:1050A0000023089303685A6908929B690893089B38
:1050B000B8E711F5803F11D0082934D0202932D02B
:1050C000122C2ED0042940D002293ED010293CD0E9
:1050D0000268136823F4806313603BE0026813687E
:1050E00023F48063136003685A6812F4006F0CD0D5
:1050F0001A6822F480621A600023039303685A69D5
:1051000003929B690393039B8CE7002204925A69E4
:1051100004929A690492049A1A6842F400721A601E
:1051200080E70129D0D00268136823F480631360FC
:105130000023069303685A6906929A690692069AB2
:105140001A6842F400721A606CE70268136843F44C
:10515000806313600023059303685A6905929B6975
:105160000593059B5EE710290AD8214BCB4013F02D
:10517000010F05D00268136843F48063136009E0EF
:105180000268136823F4806313600268136843F4B1
:105190000063136003685A6812F4006F0DD0202971
:1051A00017D8082912D30839104ACA4012F0010F43
:1051B00003D05A6842F480525A6000230793036870
:1051C0005A6907929B690793079B2BE70129F4D142
:1051D000EFE711F5803FF0D1EBE701297FF460AFF5
:1051E0005AE711F5803F7FF45BAF55E701010001FD
:1051F00014000100438D9BB25BB1426A03681278D0
:105200001A61436A01334362438D9BB2013B9BB2F7
:1052100043857047438D9BB25BB103681A69436A4B
:105220001A70436A01334362438D9BB2013B9BB2C8
:105230004385704782B0002301930E4B1B68DB0847
:105240000D4AA2FB03231B0A03EB83030193019B7B
:10525000013B0193019B33B103681B6813F4007F8A
:10526000F5D1002004E0036C43F020030364012027
:1052700002B070470800002089B5F81403685A6925
:1052800012F4806F01D1002070476FF480625A6180
:1052900000230363202280F83D2080F83E30026C1A
:1052A00042F00402026480F83C3001207047C36A77
:1052B000B3F52A0F04D0C36AB3F12A4F03D0704765
:1052C0000123C36270470823C362F8E72DE9F04168
:1052D00006460C46174698463BE0FEF781FA069BC9
:1052E000C01A404502D8B8F1000F32D1012D18D0B4
:1052F00033689B6924EA03039BB2B3FA83F35B0927
:105300009F4226D100233363202286F83D2086F871
:105310003E30326C42F02002326486F83C3001208C
:1053200027E033685B6924EA03039BB2B3FA83F393
:105330005B09E5E733685B6924EA030C1FFA8CFC20
:10534000BCFA8CFC4FEA5C1C674511D1B8F1FF3FF9
:10535000C3D1C4F30745012DECD033689B6924EA1F
:10536000030C1FFA8CFCBCFA8CFC4FEA5C1CEBE7CC
:105370000020BDE8F0812DE9F84305460E46904631
:10538000994653E01A6842F400721A602B686FF471
:1053900080625A6100232B63202285F83D2085F826
:1053A0003E302A6C42F004022A6485F83C30012029
:1053B0004AE0FEF715FAA0EB0900404502D8B8F123
:1053C000000F33D1012F17D02B689B6926EA030306
:1053D0009BB2003B18BF012343B300232B63202261
:1053E00085F83D2085F83E302A6C42F020022A6480
:1053F00085F83C30012027E02B685B6926EA03032F
:105400009BB2003B18BF0123E6E72B689C6926EAA4
:105410000404A4B2003C18BF0124A4B12B685A694B
:1054200012F4806FAED1B8F1FF3FC2D1C6F3074787
:10543000012FEAD12B685C6926EA0404A4B2003C7F
:1054400018BF0124E9E70020BDE8F883F0B583B078
:1054500004460D4616461F46C36A082B0DD0012B85
:105460000BD013F5803F08D0036B122B0AD10268D2
:10547000136843F48073136004E02268136843F4F4
:10548000807313600097334600224FF001112046CD
:10549000FFF71CFF80B92369B3F5804F16D123684D
:1054A00005F0FE051D613B46324613492046FFF7D5
:1054B00062FFF8B903B0F0BD23681B6813F4807F66
:1054C00002D04FF4007323640320F3E7EB1122684A
:1054D00003F0060343F0F00313613B4632460749ED
:1054E0002046FFF748FF18B92368EDB21D61DAE7DF
:1054F0000120DFE70120DDE70200010008000100D4
:105500002DE9F04184B004460D4616461F46C26A96
:1055100001680B6843F480630B60082A0DD0012AF0
:105520000BD012F5803F08D0036B112B0AD1026813
:10553000136843F48073136004E02268136843F433
:10554000807313600097334600224FF0011120460C
:10555000FFF7BCFE98B92369B3F5804F19D12368D2
:1055600045F00105EDB21D613B4632462A49204611
:10557000FFF701FF00284CD104B0BDE8F08123689B
:105580001B6813F4807F02D04FF400732364032060
:10559000F2E74FEAE51808F00608236848F0F00241
:1055A0001A613B4632461D492046FFF7E4FE08B12A
:1055B0000120E1E72368EDB21D613B463246164902
:1055C0002046FFF7D8FE08B10120D5E7002203925C
:1055D000236859690391996903910399196841F402
:1055E00080711960009733464FF001112046FFF794
:1055F0006DFE20B9226848F0F1031361B4E7236817
:105600001B6813F4807F02D04FF4007323640320DF
:10561000B2E70120B0E700BF02000100080001006E
:1056200070B504460D46164623685B6913F0800F7B
:1056300021D12046FFF722FEF8B9B5F1FF3FF3D0A4
:10564000FEF7CEF8801BA84201D8002DECD12368CC
:105650005B6913F0800FE7D100232363202284F8D5
:105660003D2084F83E30226C42F02002226484F80F
:105670003C30012000E0002070BD0120FCE770B547
:1056800004460D46164623685B6913F0040F21D1CA
:105690002046FFF7F3FDF8B9B5F1FF3FF3D0FEF771
:1056A0009FF8801BA84201D8002DECD123685B69CC
:1056B00013F0040FE7D100232363202284F83D2058
:1056C00084F83E30226C42F02002226484F83C30A0
:1056D000012000E0002070BD0120FCE770B5044609
:1056E0000D46164614E06FF010025A610023236342
:1056F000202284F83D2084F83E30226C226484F815
:105700003C30012025E023685B6913F0400F10D086
:105710002368586910F0400F1AD1586910F0100F23
:10572000E1D1FEF75DF8801BA842ECD8002DEFD147
:10573000E9E700232363202284F83D2084F83E30EB
:10574000226C42F02002226484F83C30012000E008
:10575000002070BD002800F0CC8070B5044690F8A1
:105760003D30002B77D0242384F83D302268136825
:1057700023F0010313602268136843F400431360AD
:105780002268136823F40043136002F029FB626867
:105790005A4B9A4264D85A4B98428CBF002301233B
:1057A000002B40F0A8805749A1FB00318B0C2568E5
:1057B0006A6822F03F0242EA91426A6021680A6AFE
:1057C00022F03F0266684D4DAE424FD8013313437D
:1057D0000B622168CA6922F44F4222F0FF02656819
:1057E000464B9D424CD8431E6D00B3FBF5F301338D
:1057F00040F6FC70034278D0C3F30B031A43CA612E
:1058000021680B6823F0C003E269206A0243134356
:105810000B6021688B6823F4034323F0FF032269A4
:10582000E068024313438B602168CB6823F0FF03D9
:105830006269A06902431343CB602268136843F096
:105840000103136000202064202384F83D3020638E
:1058500084F83E0070BD80F83C30FDF78FFA82E797
:10586000294B98428CBF0023012399E74FF496758A
:1058700005FB03F3254DA5FB03539B090133A6E765
:10588000A668BEB9431E05EB450CB3FBFCF3013320
:10589000C3F30B03B3FA83F35B0943BBC6B9431EDF
:1058A00005EB4505B3FBF5F30133C3F30B0343F4F9
:1058B0000043A3E7431E05EB850C0CEB8C0CB3FBFC
:1058C000FCF30133C3F30B03B3FA83F35B09E4E79F
:1058D000431E05EB850505EB8505B3FBF5F30133A9
:1058E000C3F30B0343F4404388E7042386E7012313
:1058F00084E7012070470120ACE700BFA0860100CB
:105900007F841E0083DE1B43FF083D00D34D6210E1
:10591000A8B110B50446242380F83D30026813680E
:1059200023F001031360FDF799FA0020206484F846
:105930003D00206384F83E0084F83C0010BD012047
:10594000704700002DE9F04385B004460F469046AD
:1059500099460C9EFDF744FF94F83D10202904D091
:105960000227384605B0BDE8F083054600901923AC
:1059700001224F492046FFF7A9FC002840F0928001
:1059800094F83C30012B00F08F80012384F83C30E8
:1059900023681A6812F0010F03D11A6842F001025D
:1059A0001A602268136823F400631360212384F8CB
:1059B0003D30102384F83E3000232364C4F8248053
:1059C000A4F82A90638D23853A4BE3622B46324636
:1059D00039462046FFF73AFD0746002866D10023E6
:1059E000039323685A6903929B690393039B11E015
:1059F000236C042B01D00127B3E72268136843F41A
:105A000000731360F7E72A4631462046FFF737FE5A
:105A100000282ED1238D002B36D02A463146204631
:105A2000FFF7FEFD0028E3D1626A236812781A614D
:105A3000606A431C6362618D89B2013989B26185F4
:105A4000238D013B9BB223852268516911F0040F1D
:105A5000D9D0002BD7D043781361636A01336362D6
:105A6000638D9BB2013B9BB26385238D013B2385F4
:105A7000C9E7236C042B01D0012772E72268136861
:105A800043F400731360F7E72268136843F400736C
:105A90001360202384F83D30002384F83E3084F8DE
:105AA0003C305EE702275CE702275AE7012758E708
:105AB000020010000000FFFF2DE9F04387B004460C
:105AC0000F46904699460E9EFDF78AFE94F83D10CB
:105AD000202904D00227384607B0BDE8F0830546E8
